{
	"contracts/MyToken.sol": {
		"Create": {
			"abi": [
				{
					"inputs": [],
					"stateMutability": "nonpayable",
					"type": "constructor"
				},
				{
					"anonymous": false,
					"inputs": [
						{
							"indexed": true,
							"internalType": "uint256",
							"name": "candidateID",
							"type": "uint256"
						},
						{
							"indexed": false,
							"internalType": "string",
							"name": "age",
							"type": "string"
						},
						{
							"indexed": false,
							"internalType": "string",
							"name": "name",
							"type": "string"
						},
						{
							"indexed": false,
							"internalType": "string",
							"name": "img",
							"type": "string"
						},
						{
							"indexed": false,
							"internalType": "uint256",
							"name": "voteCount",
							"type": "uint256"
						},
						{
							"indexed": false,
							"internalType": "address",
							"name": "_address",
							"type": "address"
						},
						{
							"indexed": false,
							"internalType": "string",
							"name": "ipfs",
							"type": "string"
						}
					],
					"name": "CandidateCreate",
					"type": "event"
				},
				{
					"anonymous": false,
					"inputs": [
						{
							"indexed": true,
							"internalType": "uint256",
							"name": "voter_voterID",
							"type": "uint256"
						},
						{
							"indexed": false,
							"internalType": "string",
							"name": "voterName",
							"type": "string"
						},
						{
							"indexed": false,
							"internalType": "string",
							"name": "voterImg",
							"type": "string"
						},
						{
							"indexed": false,
							"internalType": "address",
							"name": "voterAddress",
							"type": "address"
						},
						{
							"indexed": false,
							"internalType": "uint256",
							"name": "voterAllowed",
							"type": "uint256"
						},
						{
							"indexed": false,
							"internalType": "bool",
							"name": "voterVoted",
							"type": "bool"
						},
						{
							"indexed": false,
							"internalType": "uint256",
							"name": "voterVote",
							"type": "uint256"
						},
						{
							"indexed": false,
							"internalType": "string",
							"name": "voterIpfs",
							"type": "string"
						}
					],
					"name": "VoterCreated",
					"type": "event"
				},
				{
					"inputs": [
						{
							"internalType": "uint256",
							"name": "",
							"type": "uint256"
						}
					],
					"name": "CandidateAddress",
					"outputs": [
						{
							"internalType": "address",
							"name": "",
							"type": "address"
						}
					],
					"stateMutability": "view",
					"type": "function"
				},
				{
					"inputs": [],
					"name": "_candidateID",
					"outputs": [
						{
							"internalType": "uint256",
							"name": "_value",
							"type": "uint256"
						}
					],
					"stateMutability": "view",
					"type": "function"
				},
				{
					"inputs": [],
					"name": "_voterID",
					"outputs": [
						{
							"internalType": "uint256",
							"name": "_value",
							"type": "uint256"
						}
					],
					"stateMutability": "view",
					"type": "function"
				},
				{
					"inputs": [
						{
							"internalType": "address",
							"name": "",
							"type": "address"
						}
					],
					"name": "candidates",
					"outputs": [
						{
							"internalType": "uint256",
							"name": "candidateID",
							"type": "uint256"
						},
						{
							"internalType": "string",
							"name": "age",
							"type": "string"
						},
						{
							"internalType": "string",
							"name": "name",
							"type": "string"
						},
						{
							"internalType": "string",
							"name": "img",
							"type": "string"
						},
						{
							"internalType": "uint256",
							"name": "voteCount",
							"type": "uint256"
						},
						{
							"internalType": "address",
							"name": "_address",
							"type": "address"
						},
						{
							"internalType": "string",
							"name": "ipfs",
							"type": "string"
						}
					],
					"stateMutability": "view",
					"type": "function"
				},
				{
					"inputs": [
						{
							"internalType": "address",
							"name": "_address",
							"type": "address"
						},
						{
							"internalType": "string",
							"name": "_age",
							"type": "string"
						},
						{
							"internalType": "string",
							"name": "_name",
							"type": "string"
						},
						{
							"internalType": "string",
							"name": "_img",
							"type": "string"
						},
						{
							"internalType": "string",
							"name": "_ipfs",
							"type": "string"
						}
					],
					"name": "setCandidate",
					"outputs": [],
					"stateMutability": "nonpayable",
					"type": "function"
				},
				{
					"inputs": [
						{
							"internalType": "uint256",
							"name": "",
							"type": "uint256"
						}
					],
					"name": "votedVoters",
					"outputs": [
						{
							"internalType": "address",
							"name": "",
							"type": "address"
						}
					],
					"stateMutability": "view",
					"type": "function"
				},
				{
					"inputs": [
						{
							"internalType": "address",
							"name": "",
							"type": "address"
						}
					],
					"name": "voters",
					"outputs": [
						{
							"internalType": "uint256",
							"name": "voter_voterID",
							"type": "uint256"
						},
						{
							"internalType": "string",
							"name": "voterName",
							"type": "string"
						},
						{
							"internalType": "string",
							"name": "voterImg",
							"type": "string"
						},
						{
							"internalType": "address",
							"name": "voterAddress",
							"type": "address"
						},
						{
							"internalType": "uint256",
							"name": "voterAllowed",
							"type": "uint256"
						},
						{
							"internalType": "bool",
							"name": "voterVoted",
							"type": "bool"
						},
						{
							"internalType": "uint256",
							"name": "voterVote",
							"type": "uint256"
						},
						{
							"internalType": "string",
							"name": "voterIpfs",
							"type": "string"
						}
					],
					"stateMutability": "view",
					"type": "function"
				},
				{
					"inputs": [],
					"name": "votingOrganizer",
					"outputs": [
						{
							"internalType": "address",
							"name": "",
							"type": "address"
						}
					],
					"stateMutability": "view",
					"type": "function"
				}
			],
			"devdoc": {
				"kind": "dev",
				"methods": {},
				"version": 1
			},
			"evm": {
				"assembly": "    /* \"contracts/MyToken.sol\":118:2852  contract Create {... */\n  mstore(0x40, 0x80)\n    /* \"contracts/MyToken.sol\":1399:1457  constructor(){... */\n  callvalue\n  dup1\n  iszero\n  tag_1\n  jumpi\n  0x00\n  dup1\n  revert\ntag_1:\n  pop\n    /* \"contracts/MyToken.sol\":1440:1450  msg.sender */\n  caller\n    /* \"contracts/MyToken.sol\":1422:1437  votingOrganizer */\n  0x02\n  0x00\n    /* \"contracts/MyToken.sol\":1422:1450  votingOrganizer = msg.sender */\n  0x0100\n  exp\n  dup2\n  sload\n  dup2\n  0xffffffffffffffffffffffffffffffffffffffff\n  mul\n  not\n  and\n  swap1\n  dup4\n  0xffffffffffffffffffffffffffffffffffffffff\n  and\n  mul\n  or\n  swap1\n  sstore\n  pop\n    /* \"contracts/MyToken.sol\":118:2852  contract Create {... */\n  dataSize(sub_0)\n  dup1\n  dataOffset(sub_0)\n  0x00\n  codecopy\n  0x00\n  return\nstop\n\nsub_0: assembly {\n        /* \"contracts/MyToken.sol\":118:2852  contract Create {... */\n      mstore(0x40, 0x80)\n      callvalue\n      dup1\n      iszero\n      tag_1\n      jumpi\n      0x00\n      dup1\n      revert\n    tag_1:\n      pop\n      jumpi(tag_2, lt(calldatasize, 0x04))\n      shr(0xe0, calldataload(0x00))\n      dup1\n      0x908fdecd\n      gt\n      tag_11\n      jumpi\n      dup1\n      0x908fdecd\n      eq\n      tag_7\n      jumpi\n      dup1\n      0xa3ec138d\n      eq\n      tag_8\n      jumpi\n      dup1\n      0xb4040313\n      eq\n      tag_9\n      jumpi\n      dup1\n      0xc91ec712\n      eq\n      tag_10\n      jumpi\n      jump(tag_2)\n    tag_11:\n      dup1\n      0x5cc48aa7\n      eq\n      tag_3\n      jumpi\n      dup1\n      0x64f1832e\n      eq\n      tag_4\n      jumpi\n      dup1\n      0x7831ffb3\n      eq\n      tag_5\n      jumpi\n      dup1\n      0x8ab66a90\n      eq\n      tag_6\n      jumpi\n    tag_2:\n      0x00\n      dup1\n      revert\n        /* \"contracts/MyToken.sol\":262:292  address public votingOrganizer */\n    tag_3:\n      tag_12\n      tag_13\n      jump\t// in\n    tag_12:\n      mload(0x40)\n      tag_14\n      swap2\n      swap1\n      tag_15\n      jump\t// in\n    tag_14:\n      mload(0x40)\n      dup1\n      swap2\n      sub\n      swap1\n      return\n        /* \"contracts/MyToken.sol\":219:255  Counters.Counter public _candidateID */\n    tag_4:\n      tag_16\n      tag_17\n      jump\t// in\n    tag_16:\n      mload(0x40)\n      tag_18\n      swap2\n      swap1\n      tag_19\n      jump\t// in\n    tag_18:\n      mload(0x40)\n      dup1\n      swap2\n      sub\n      swap1\n      return\n        /* \"contracts/MyToken.sol\":811:839  address[] public votedVoters */\n    tag_5:\n      tag_20\n      0x04\n      dup1\n      calldatasize\n      sub\n      dup2\n      add\n      swap1\n      tag_21\n      swap2\n      swap1\n      tag_22\n      jump\t// in\n    tag_21:\n      tag_23\n      jump\t// in\n    tag_20:\n      mload(0x40)\n      tag_24\n      swap2\n      swap1\n      tag_15\n      jump\t// in\n    tag_24:\n      mload(0x40)\n      dup1\n      swap2\n      sub\n      swap1\n      return\n        /* \"contracts/MyToken.sol\":739:786  mapping(address => Candidate) public candidates */\n    tag_6:\n      tag_25\n      0x04\n      dup1\n      calldatasize\n      sub\n      dup2\n      add\n      swap1\n      tag_26\n      swap2\n      swap1\n      tag_27\n      jump\t// in\n    tag_26:\n      tag_28\n      jump\t// in\n    tag_25:\n      mload(0x40)\n      tag_29\n      swap8\n      swap7\n      swap6\n      swap5\n      swap4\n      swap3\n      swap2\n      swap1\n      tag_30\n      jump\t// in\n    tag_29:\n      mload(0x40)\n      dup1\n      swap2\n      sub\n      swap1\n      return\n        /* \"contracts/MyToken.sol\":700:733  address[] public CandidateAddress */\n    tag_7:\n      tag_31\n      0x04\n      dup1\n      calldatasize\n      sub\n      dup2\n      add\n      swap1\n      tag_32\n      swap2\n      swap1\n      tag_22\n      jump\t// in\n    tag_32:\n      tag_33\n      jump\t// in\n    tag_31:\n      mload(0x40)\n      tag_34\n      swap2\n      swap1\n      tag_15\n      jump\t// in\n    tag_34:\n      mload(0x40)\n      dup1\n      swap2\n      sub\n      swap1\n      return\n        /* \"contracts/MyToken.sol\":1347:1387  mapping (address => Voter) public voters */\n    tag_8:\n      tag_35\n      0x04\n      dup1\n      calldatasize\n      sub\n      dup2\n      add\n      swap1\n      tag_36\n      swap2\n      swap1\n      tag_27\n      jump\t// in\n    tag_36:\n      tag_37\n      jump\t// in\n    tag_35:\n      mload(0x40)\n      tag_38\n      swap9\n      swap8\n      swap7\n      swap6\n      swap5\n      swap4\n      swap3\n      swap2\n      swap1\n      tag_39\n      jump\t// in\n    tag_38:\n      mload(0x40)\n      dup1\n      swap2\n      sub\n      swap1\n      return\n        /* \"contracts/MyToken.sol\":181:213  Counters.Counter public _voterID */\n    tag_9:\n      tag_40\n      tag_41\n      jump\t// in\n    tag_40:\n      mload(0x40)\n      tag_42\n      swap2\n      swap1\n      tag_19\n      jump\t// in\n    tag_42:\n      mload(0x40)\n      dup1\n      swap2\n      sub\n      swap1\n      return\n        /* \"contracts/MyToken.sol\":1986:2850  function setCandidate(address _address, string memory _age,string memory _name,string memory _img, string memory _ipfs  )public{... */\n    tag_10:\n      tag_43\n      0x04\n      dup1\n      calldatasize\n      sub\n      dup2\n      add\n      swap1\n      tag_44\n      swap2\n      swap1\n      tag_45\n      jump\t// in\n    tag_44:\n      tag_46\n      jump\t// in\n    tag_43:\n      stop\n        /* \"contracts/MyToken.sol\":262:292  address public votingOrganizer */\n    tag_13:\n      0x02\n      0x00\n      swap1\n      sload\n      swap1\n      0x0100\n      exp\n      swap1\n      div\n      0xffffffffffffffffffffffffffffffffffffffff\n      and\n      dup2\n      jump\t// out\n        /* \"contracts/MyToken.sol\":219:255  Counters.Counter public _candidateID */\n    tag_17:\n      0x01\n      dup1\n      0x00\n      add\n      sload\n      swap1\n      pop\n      dup2\n      jump\t// out\n        /* \"contracts/MyToken.sol\":811:839  address[] public votedVoters */\n    tag_23:\n      0x05\n      dup2\n      dup2\n      sload\n      dup2\n      lt\n      tag_47\n      jumpi\n      0x00\n      dup1\n      revert\n    tag_47:\n      swap1\n      0x00\n      mstore\n      keccak256(0x00, 0x20)\n      add\n      0x00\n      swap2\n      pop\n      sload\n      swap1\n      0x0100\n      exp\n      swap1\n      div\n      0xffffffffffffffffffffffffffffffffffffffff\n      and\n      dup2\n      jump\t// out\n        /* \"contracts/MyToken.sol\":739:786  mapping(address => Candidate) public candidates */\n    tag_28:\n      mstore(0x20, 0x04)\n      dup1\n      0x00\n      mstore\n      keccak256(0x00, 0x40)\n      0x00\n      swap2\n      pop\n      swap1\n      pop\n      dup1\n      0x00\n      add\n      sload\n      swap1\n      dup1\n      0x01\n      add\n      dup1\n      sload\n      tag_49\n      swap1\n      tag_50\n      jump\t// in\n    tag_49:\n      dup1\n      0x1f\n      add\n      0x20\n      dup1\n      swap2\n      div\n      mul\n      0x20\n      add\n      mload(0x40)\n      swap1\n      dup2\n      add\n      0x40\n      mstore\n      dup1\n      swap3\n      swap2\n      swap1\n      dup2\n      dup2\n      mstore\n      0x20\n      add\n      dup3\n      dup1\n      sload\n      tag_51\n      swap1\n      tag_50\n      jump\t// in\n    tag_51:\n      dup1\n      iszero\n      tag_52\n      jumpi\n      dup1\n      0x1f\n      lt\n      tag_53\n      jumpi\n      0x0100\n      dup1\n      dup4\n      sload\n      div\n      mul\n      dup4\n      mstore\n      swap2\n      0x20\n      add\n      swap2\n      jump(tag_52)\n    tag_53:\n      dup3\n      add\n      swap2\n      swap1\n      0x00\n      mstore\n      keccak256(0x00, 0x20)\n      swap1\n    tag_54:\n      dup2\n      sload\n      dup2\n      mstore\n      swap1\n      0x01\n      add\n      swap1\n      0x20\n      add\n      dup1\n      dup4\n      gt\n      tag_54\n      jumpi\n      dup3\n      swap1\n      sub\n      0x1f\n      and\n      dup3\n      add\n      swap2\n    tag_52:\n      pop\n      pop\n      pop\n      pop\n      pop\n      swap1\n      dup1\n      0x02\n      add\n      dup1\n      sload\n      tag_55\n      swap1\n      tag_50\n      jump\t// in\n    tag_55:\n      dup1\n      0x1f\n      add\n      0x20\n      dup1\n      swap2\n      div\n      mul\n      0x20\n      add\n      mload(0x40)\n      swap1\n      dup2\n      add\n      0x40\n      mstore\n      dup1\n      swap3\n      swap2\n      swap1\n      dup2\n      dup2\n      mstore\n      0x20\n      add\n      dup3\n      dup1\n      sload\n      tag_56\n      swap1\n      tag_50\n      jump\t// in\n    tag_56:\n      dup1\n      iszero\n      tag_57\n      jumpi\n      dup1\n      0x1f\n      lt\n      tag_58\n      jumpi\n      0x0100\n      dup1\n      dup4\n      sload\n      div\n      mul\n      dup4\n      mstore\n      swap2\n      0x20\n      add\n      swap2\n      jump(tag_57)\n    tag_58:\n      dup3\n      add\n      swap2\n      swap1\n      0x00\n      mstore\n      keccak256(0x00, 0x20)\n      swap1\n    tag_59:\n      dup2\n      sload\n      dup2\n      mstore\n      swap1\n      0x01\n      add\n      swap1\n      0x20\n      add\n      dup1\n      dup4\n      gt\n      tag_59\n      jumpi\n      dup3\n      swap1\n      sub\n      0x1f\n      and\n      dup3\n      add\n      swap2\n    tag_57:\n      pop\n      pop\n      pop\n      pop\n      pop\n      swap1\n      dup1\n      0x03\n      add\n      dup1\n      sload\n      tag_60\n      swap1\n      tag_50\n      jump\t// in\n    tag_60:\n      dup1\n      0x1f\n      add\n      0x20\n      dup1\n      swap2\n      div\n      mul\n      0x20\n      add\n      mload(0x40)\n      swap1\n      dup2\n      add\n      0x40\n      mstore\n      dup1\n      swap3\n      swap2\n      swap1\n      dup2\n      dup2\n      mstore\n      0x20\n      add\n      dup3\n      dup1\n      sload\n      tag_61\n      swap1\n      tag_50\n      jump\t// in\n    tag_61:\n      dup1\n      iszero\n      tag_62\n      jumpi\n      dup1\n      0x1f\n      lt\n      tag_63\n      jumpi\n      0x0100\n      dup1\n      dup4\n      sload\n      div\n      mul\n      dup4\n      mstore\n      swap2\n      0x20\n      add\n      swap2\n      jump(tag_62)\n    tag_63:\n      dup3\n      add\n      swap2\n      swap1\n      0x00\n      mstore\n      keccak256(0x00, 0x20)\n      swap1\n    tag_64:\n      dup2\n      sload\n      dup2\n      mstore\n      swap1\n      0x01\n      add\n      swap1\n      0x20\n      add\n      dup1\n      dup4\n      gt\n      tag_64\n      jumpi\n      dup3\n      swap1\n      sub\n      0x1f\n      and\n      dup3\n      add\n      swap2\n    tag_62:\n      pop\n      pop\n      pop\n      pop\n      pop\n      swap1\n      dup1\n      0x04\n      add\n      sload\n      swap1\n      dup1\n      0x05\n      add\n      0x00\n      swap1\n      sload\n      swap1\n      0x0100\n      exp\n      swap1\n      div\n      0xffffffffffffffffffffffffffffffffffffffff\n      and\n      swap1\n      dup1\n      0x06\n      add\n      dup1\n      sload\n      tag_65\n      swap1\n      tag_50\n      jump\t// in\n    tag_65:\n      dup1\n      0x1f\n      add\n      0x20\n      dup1\n      swap2\n      div\n      mul\n      0x20\n      add\n      mload(0x40)\n      swap1\n      dup2\n      add\n      0x40\n      mstore\n      dup1\n      swap3\n      swap2\n      swap1\n      dup2\n      dup2\n      mstore\n      0x20\n      add\n      dup3\n      dup1\n      sload\n      tag_66\n      swap1\n      tag_50\n      jump\t// in\n    tag_66:\n      dup1\n      iszero\n      tag_67\n      jumpi\n      dup1\n      0x1f\n      lt\n      tag_68\n      jumpi\n      0x0100\n      dup1\n      dup4\n      sload\n      div\n      mul\n      dup4\n      mstore\n      swap2\n      0x20\n      add\n      swap2\n      jump(tag_67)\n    tag_68:\n      dup3\n      add\n      swap2\n      swap1\n      0x00\n      mstore\n      keccak256(0x00, 0x20)\n      swap1\n    tag_69:\n      dup2\n      sload\n      dup2\n      mstore\n      swap1\n      0x01\n      add\n      swap1\n      0x20\n      add\n      dup1\n      dup4\n      gt\n      tag_69\n      jumpi\n      dup3\n      swap1\n      sub\n      0x1f\n      and\n      dup3\n      add\n      swap2\n    tag_67:\n      pop\n      pop\n      pop\n      pop\n      pop\n      swap1\n      pop\n      dup8\n      jump\t// out\n        /* \"contracts/MyToken.sol\":700:733  address[] public CandidateAddress */\n    tag_33:\n      0x03\n      dup2\n      dup2\n      sload\n      dup2\n      lt\n      tag_70\n      jumpi\n      0x00\n      dup1\n      revert\n    tag_70:\n      swap1\n      0x00\n      mstore\n      keccak256(0x00, 0x20)\n      add\n      0x00\n      swap2\n      pop\n      sload\n      swap1\n      0x0100\n      exp\n      swap1\n      div\n      0xffffffffffffffffffffffffffffffffffffffff\n      and\n      dup2\n      jump\t// out\n        /* \"contracts/MyToken.sol\":1347:1387  mapping (address => Voter) public voters */\n    tag_37:\n      mstore(0x20, 0x06)\n      dup1\n      0x00\n      mstore\n      keccak256(0x00, 0x40)\n      0x00\n      swap2\n      pop\n      swap1\n      pop\n      dup1\n      0x00\n      add\n      sload\n      swap1\n      dup1\n      0x01\n      add\n      dup1\n      sload\n      tag_72\n      swap1\n      tag_50\n      jump\t// in\n    tag_72:\n      dup1\n      0x1f\n      add\n      0x20\n      dup1\n      swap2\n      div\n      mul\n      0x20\n      add\n      mload(0x40)\n      swap1\n      dup2\n      add\n      0x40\n      mstore\n      dup1\n      swap3\n      swap2\n      swap1\n      dup2\n      dup2\n      mstore\n      0x20\n      add\n      dup3\n      dup1\n      sload\n      tag_73\n      swap1\n      tag_50\n      jump\t// in\n    tag_73:\n      dup1\n      iszero\n      tag_74\n      jumpi\n      dup1\n      0x1f\n      lt\n      tag_75\n      jumpi\n      0x0100\n      dup1\n      dup4\n      sload\n      div\n      mul\n      dup4\n      mstore\n      swap2\n      0x20\n      add\n      swap2\n      jump(tag_74)\n    tag_75:\n      dup3\n      add\n      swap2\n      swap1\n      0x00\n      mstore\n      keccak256(0x00, 0x20)\n      swap1\n    tag_76:\n      dup2\n      sload\n      dup2\n      mstore\n      swap1\n      0x01\n      add\n      swap1\n      0x20\n      add\n      dup1\n      dup4\n      gt\n      tag_76\n      jumpi\n      dup3\n      swap1\n      sub\n      0x1f\n      and\n      dup3\n      add\n      swap2\n    tag_74:\n      pop\n      pop\n      pop\n      pop\n      pop\n      swap1\n      dup1\n      0x02\n      add\n      dup1\n      sload\n      tag_77\n      swap1\n      tag_50\n      jump\t// in\n    tag_77:\n      dup1\n      0x1f\n      add\n      0x20\n      dup1\n      swap2\n      div\n      mul\n      0x20\n      add\n      mload(0x40)\n      swap1\n      dup2\n      add\n      0x40\n      mstore\n      dup1\n      swap3\n      swap2\n      swap1\n      dup2\n      dup2\n      mstore\n      0x20\n      add\n      dup3\n      dup1\n      sload\n      tag_78\n      swap1\n      tag_50\n      jump\t// in\n    tag_78:\n      dup1\n      iszero\n      tag_79\n      jumpi\n      dup1\n      0x1f\n      lt\n      tag_80\n      jumpi\n      0x0100\n      dup1\n      dup4\n      sload\n      div\n      mul\n      dup4\n      mstore\n      swap2\n      0x20\n      add\n      swap2\n      jump(tag_79)\n    tag_80:\n      dup3\n      add\n      swap2\n      swap1\n      0x00\n      mstore\n      keccak256(0x00, 0x20)\n      swap1\n    tag_81:\n      dup2\n      sload\n      dup2\n      mstore\n      swap1\n      0x01\n      add\n      swap1\n      0x20\n      add\n      dup1\n      dup4\n      gt\n      tag_81\n      jumpi\n      dup3\n      swap1\n      sub\n      0x1f\n      and\n      dup3\n      add\n      swap2\n    tag_79:\n      pop\n      pop\n      pop\n      pop\n      pop\n      swap1\n      dup1\n      0x03\n      add\n      0x00\n      swap1\n      sload\n      swap1\n      0x0100\n      exp\n      swap1\n      div\n      0xffffffffffffffffffffffffffffffffffffffff\n      and\n      swap1\n      dup1\n      0x04\n      add\n      sload\n      swap1\n      dup1\n      0x05\n      add\n      0x00\n      swap1\n      sload\n      swap1\n      0x0100\n      exp\n      swap1\n      div\n      0xff\n      and\n      swap1\n      dup1\n      0x06\n      add\n      sload\n      swap1\n      dup1\n      0x07\n      add\n      dup1\n      sload\n      tag_82\n      swap1\n      tag_50\n      jump\t// in\n    tag_82:\n      dup1\n      0x1f\n      add\n      0x20\n      dup1\n      swap2\n      div\n      mul\n      0x20\n      add\n      mload(0x40)\n      swap1\n      dup2\n      add\n      0x40\n      mstore\n      dup1\n      swap3\n      swap2\n      swap1\n      dup2\n      dup2\n      mstore\n      0x20\n      add\n      dup3\n      dup1\n      sload\n      tag_83\n      swap1\n      tag_50\n      jump\t// in\n    tag_83:\n      dup1\n      iszero\n      tag_84\n      jumpi\n      dup1\n      0x1f\n      lt\n      tag_85\n      jumpi\n      0x0100\n      dup1\n      dup4\n      sload\n      div\n      mul\n      dup4\n      mstore\n      swap2\n      0x20\n      add\n      swap2\n      jump(tag_84)\n    tag_85:\n      dup3\n      add\n      swap2\n      swap1\n      0x00\n      mstore\n      keccak256(0x00, 0x20)\n      swap1\n    tag_86:\n      dup2\n      sload\n      dup2\n      mstore\n      swap1\n      0x01\n      add\n      swap1\n      0x20\n      add\n      dup1\n      dup4\n      gt\n      tag_86\n      jumpi\n      dup3\n      swap1\n      sub\n      0x1f\n      and\n      dup3\n      add\n      swap2\n    tag_84:\n      pop\n      pop\n      pop\n      pop\n      pop\n      swap1\n      pop\n      dup9\n      jump\t// out\n        /* \"contracts/MyToken.sol\":181:213  Counters.Counter public _voterID */\n    tag_41:\n      0x00\n      dup1\n      0x00\n      add\n      sload\n      swap1\n      pop\n      dup2\n      jump\t// out\n        /* \"contracts/MyToken.sol\":1986:2850  function setCandidate(address _address, string memory _age,string memory _name,string memory _img, string memory _ipfs  )public{... */\n    tag_46:\n        /* \"contracts/MyToken.sol\":2150:2160  msg.sender */\n      caller\n        /* \"contracts/MyToken.sol\":2131:2160  votingOrganizer == msg.sender */\n      0xffffffffffffffffffffffffffffffffffffffff\n      and\n        /* \"contracts/MyToken.sol\":2131:2146  votingOrganizer */\n      0x02\n      0x00\n      swap1\n      sload\n      swap1\n      0x0100\n      exp\n      swap1\n      div\n      0xffffffffffffffffffffffffffffffffffffffff\n      and\n        /* \"contracts/MyToken.sol\":2131:2160  votingOrganizer == msg.sender */\n      0xffffffffffffffffffffffffffffffffffffffff\n      and\n      eq\n        /* \"contracts/MyToken.sol\":2123:2201  require(votingOrganizer == msg.sender, \"Only organizer can add new candidate\") */\n      tag_88\n      jumpi\n      mload(0x40)\n      0x08c379a000000000000000000000000000000000000000000000000000000000\n      dup2\n      mstore\n      0x04\n      add\n      tag_89\n      swap1\n      tag_90\n      jump\t// in\n    tag_89:\n      mload(0x40)\n      dup1\n      swap2\n      sub\n      swap1\n      revert\n    tag_88:\n        /* \"contracts/MyToken.sol\":2212:2236  _candidateID.increment() */\n      tag_91\n        /* \"contracts/MyToken.sol\":2212:2224  _candidateID */\n      0x01\n        /* \"contracts/MyToken.sol\":2212:2234  _candidateID.increment */\n      tag_92\n        /* \"contracts/MyToken.sol\":2212:2236  _candidateID.increment() */\n      jump\t// in\n    tag_91:\n        /* \"contracts/MyToken.sol\":2247:2263  uint256 idNumber */\n      0x00\n        /* \"contracts/MyToken.sol\":2266:2288  _candidateID.current() */\n      tag_93\n        /* \"contracts/MyToken.sol\":2266:2278  _candidateID */\n      0x01\n        /* \"contracts/MyToken.sol\":2266:2286  _candidateID.current */\n      tag_94\n        /* \"contracts/MyToken.sol\":2266:2288  _candidateID.current() */\n      jump\t// in\n    tag_93:\n        /* \"contracts/MyToken.sol\":2247:2288  uint256 idNumber = _candidateID.current() */\n      swap1\n      pop\n        /* \"contracts/MyToken.sol\":2299:2326  Candidate storage candidate */\n      0x00\n        /* \"contracts/MyToken.sol\":2329:2339  candidates */\n      0x04\n        /* \"contracts/MyToken.sol\":2329:2349  candidates[_address] */\n      0x00\n        /* \"contracts/MyToken.sol\":2340:2348  _address */\n      dup9\n        /* \"contracts/MyToken.sol\":2329:2349  candidates[_address] */\n      0xffffffffffffffffffffffffffffffffffffffff\n      and\n      0xffffffffffffffffffffffffffffffffffffffff\n      and\n      dup2\n      mstore\n      0x20\n      add\n      swap1\n      dup2\n      mstore\n      0x20\n      add\n      0x00\n      keccak256\n        /* \"contracts/MyToken.sol\":2299:2349  Candidate storage candidate = candidates[_address] */\n      swap1\n      pop\n        /* \"contracts/MyToken.sol\":2375:2379  _age */\n      dup6\n        /* \"contracts/MyToken.sol\":2359:2368  candidate */\n      dup2\n        /* \"contracts/MyToken.sol\":2359:2372  candidate.age */\n      0x01\n      add\n        /* \"contracts/MyToken.sol\":2359:2379  candidate.age = _age */\n      swap1\n      dup2\n      tag_95\n      swap2\n      swap1\n      tag_96\n      jump\t// in\n    tag_95:\n      pop\n        /* \"contracts/MyToken.sol\":2406:2411  _name */\n      dup5\n        /* \"contracts/MyToken.sol\":2389:2398  candidate */\n      dup2\n        /* \"contracts/MyToken.sol\":2389:2403  candidate.name */\n      0x02\n      add\n        /* \"contracts/MyToken.sol\":2389:2411  candidate.name = _name */\n      swap1\n      dup2\n      tag_97\n      swap2\n      swap1\n      tag_96\n      jump\t// in\n    tag_97:\n      pop\n        /* \"contracts/MyToken.sol\":2445:2453  idNumber */\n      dup2\n        /* \"contracts/MyToken.sol\":2421:2430  candidate */\n      dup2\n        /* \"contracts/MyToken.sol\":2421:2442  candidate.candidateID */\n      0x00\n      add\n        /* \"contracts/MyToken.sol\":2421:2453  candidate.candidateID = idNumber */\n      dup2\n      swap1\n      sstore\n      pop\n        /* \"contracts/MyToken.sol\":2479:2483  _img */\n      dup4\n        /* \"contracts/MyToken.sol\":2463:2472  candidate */\n      dup2\n        /* \"contracts/MyToken.sol\":2463:2476  candidate.img */\n      0x03\n      add\n        /* \"contracts/MyToken.sol\":2463:2483  candidate.img = _img */\n      swap1\n      dup2\n      tag_98\n      swap2\n      swap1\n      tag_96\n      jump\t// in\n    tag_98:\n      pop\n        /* \"contracts/MyToken.sol\":2515:2516  0 */\n      0x00\n        /* \"contracts/MyToken.sol\":2493:2502  candidate */\n      dup2\n        /* \"contracts/MyToken.sol\":2493:2512  candidate.voteCount */\n      0x04\n      add\n        /* \"contracts/MyToken.sol\":2493:2516  candidate.voteCount = 0 */\n      dup2\n      swap1\n      sstore\n      pop\n        /* \"contracts/MyToken.sol\":2547:2555  _address */\n      dup7\n        /* \"contracts/MyToken.sol\":2526:2535  candidate */\n      dup2\n        /* \"contracts/MyToken.sol\":2526:2544  candidate._address */\n      0x05\n      add\n      0x00\n        /* \"contracts/MyToken.sol\":2526:2555  candidate._address = _address */\n      0x0100\n      exp\n      dup2\n      sload\n      dup2\n      0xffffffffffffffffffffffffffffffffffffffff\n      mul\n      not\n      and\n      swap1\n      dup4\n      0xffffffffffffffffffffffffffffffffffffffff\n      and\n      mul\n      or\n      swap1\n      sstore\n      pop\n        /* \"contracts/MyToken.sol\":2582:2587  _ipfs */\n      dup3\n        /* \"contracts/MyToken.sol\":2565:2574  candidate */\n      dup2\n        /* \"contracts/MyToken.sol\":2565:2579  candidate.ipfs */\n      0x06\n      add\n        /* \"contracts/MyToken.sol\":2565:2587  candidate.ipfs = _ipfs */\n      swap1\n      dup2\n      tag_99\n      swap2\n      swap1\n      tag_96\n      jump\t// in\n    tag_99:\n      pop\n        /* \"contracts/MyToken.sol\":2598:2614  CandidateAddress */\n      0x03\n        /* \"contracts/MyToken.sol\":2620:2628  _address */\n      dup8\n        /* \"contracts/MyToken.sol\":2598:2629  CandidateAddress.push(_address) */\n      swap1\n      dup1\n      0x01\n      dup2\n      sload\n      add\n      dup1\n      dup3\n      sstore\n      dup1\n      swap2\n      pop\n      pop\n      0x01\n      swap1\n      sub\n      swap1\n      0x00\n      mstore\n      keccak256(0x00, 0x20)\n      add\n      0x00\n      swap1\n      swap2\n      swap1\n      swap2\n      swap1\n      swap2\n      0x0100\n      exp\n      dup2\n      sload\n      dup2\n      0xffffffffffffffffffffffffffffffffffffffff\n      mul\n      not\n      and\n      swap1\n      dup4\n      0xffffffffffffffffffffffffffffffffffffffff\n      and\n      mul\n      or\n      swap1\n      sstore\n      pop\n        /* \"contracts/MyToken.sol\":2673:2681  idNumber */\n      dup2\n        /* \"contracts/MyToken.sol\":2645:2831  CandidateCreate(... */\n      0xd297f12b256bb8485a6013fb5e302017018123e99a0ebb20756c09e1707b4b90\n        /* \"contracts/MyToken.sol\":2694:2698  _age */\n      dup8\n        /* \"contracts/MyToken.sol\":2711:2716  _name */\n      dup8\n        /* \"contracts/MyToken.sol\":2729:2733  _img */\n      dup8\n        /* \"contracts/MyToken.sol\":2746:2755  candidate */\n      dup6\n        /* \"contracts/MyToken.sol\":2746:2765  candidate.voteCount */\n      0x04\n      add\n      sload\n        /* \"contracts/MyToken.sol\":2778:2786  _address */\n      dup13\n        /* \"contracts/MyToken.sol\":2799:2804  _ipfs */\n      dup10\n        /* \"contracts/MyToken.sol\":2645:2831  CandidateCreate(... */\n      mload(0x40)\n      tag_101\n      swap7\n      swap6\n      swap5\n      swap4\n      swap3\n      swap2\n      swap1\n      tag_102\n      jump\t// in\n    tag_101:\n      mload(0x40)\n      dup1\n      swap2\n      sub\n      swap1\n      log2\n        /* \"contracts/MyToken.sol\":2113:2850  {... */\n      pop\n      pop\n        /* \"contracts/MyToken.sol\":1986:2850  function setCandidate(address _address, string memory _age,string memory _name,string memory _img, string memory _ipfs  )public{... */\n      pop\n      pop\n      pop\n      pop\n      pop\n      jump\t// out\n        /* \"@openzeppelin/contracts/utils/Counters.sol\":945:1068  function increment(Counter storage counter) internal {... */\n    tag_92:\n        /* \"@openzeppelin/contracts/utils/Counters.sol\":1050:1051  1 */\n      0x01\n        /* \"@openzeppelin/contracts/utils/Counters.sol\":1032:1039  counter */\n      dup2\n        /* \"@openzeppelin/contracts/utils/Counters.sol\":1032:1046  counter._value */\n      0x00\n      add\n      0x00\n        /* \"@openzeppelin/contracts/utils/Counters.sol\":1032:1051  counter._value += 1 */\n      dup3\n      dup3\n      sload\n      add\n      swap3\n      pop\n      pop\n      dup2\n      swap1\n      sstore\n      pop\n        /* \"@openzeppelin/contracts/utils/Counters.sol\":945:1068  function increment(Counter storage counter) internal {... */\n      pop\n      jump\t// out\n        /* \"@openzeppelin/contracts/utils/Counters.sol\":827:939  function current(Counter storage counter) internal view returns (uint256) {... */\n    tag_94:\n        /* \"@openzeppelin/contracts/utils/Counters.sol\":892:899  uint256 */\n      0x00\n        /* \"@openzeppelin/contracts/utils/Counters.sol\":918:925  counter */\n      dup2\n        /* \"@openzeppelin/contracts/utils/Counters.sol\":918:932  counter._value */\n      0x00\n      add\n      sload\n        /* \"@openzeppelin/contracts/utils/Counters.sol\":911:932  return counter._value */\n      swap1\n      pop\n        /* \"@openzeppelin/contracts/utils/Counters.sol\":827:939  function current(Counter storage counter) internal view returns (uint256) {... */\n      swap2\n      swap1\n      pop\n      jump\t// out\n        /* \"#utility.yul\":7:133   */\n    tag_105:\n        /* \"#utility.yul\":44:51   */\n      0x00\n        /* \"#utility.yul\":84:126   */\n      0xffffffffffffffffffffffffffffffffffffffff\n        /* \"#utility.yul\":77:82   */\n      dup3\n        /* \"#utility.yul\":73:127   */\n      and\n        /* \"#utility.yul\":62:127   */\n      swap1\n      pop\n        /* \"#utility.yul\":7:133   */\n      swap2\n      swap1\n      pop\n      jump\t// out\n        /* \"#utility.yul\":139:235   */\n    tag_106:\n        /* \"#utility.yul\":176:183   */\n      0x00\n        /* \"#utility.yul\":205:229   */\n      tag_154\n        /* \"#utility.yul\":223:228   */\n      dup3\n        /* \"#utility.yul\":205:229   */\n      tag_105\n      jump\t// in\n    tag_154:\n        /* \"#utility.yul\":194:229   */\n      swap1\n      pop\n        /* \"#utility.yul\":139:235   */\n      swap2\n      swap1\n      pop\n      jump\t// out\n        /* \"#utility.yul\":241:359   */\n    tag_107:\n        /* \"#utility.yul\":328:352   */\n      tag_156\n        /* \"#utility.yul\":346:351   */\n      dup2\n        /* \"#utility.yul\":328:352   */\n      tag_106\n      jump\t// in\n    tag_156:\n        /* \"#utility.yul\":323:326   */\n      dup3\n        /* \"#utility.yul\":316:353   */\n      mstore\n        /* \"#utility.yul\":241:359   */\n      pop\n      pop\n      jump\t// out\n        /* \"#utility.yul\":365:587   */\n    tag_15:\n        /* \"#utility.yul\":458:462   */\n      0x00\n        /* \"#utility.yul\":496:498   */\n      0x20\n        /* \"#utility.yul\":485:494   */\n      dup3\n        /* \"#utility.yul\":481:499   */\n      add\n        /* \"#utility.yul\":473:499   */\n      swap1\n      pop\n        /* \"#utility.yul\":509:580   */\n      tag_158\n        /* \"#utility.yul\":577:578   */\n      0x00\n        /* \"#utility.yul\":566:575   */\n      dup4\n        /* \"#utility.yul\":562:579   */\n      add\n        /* \"#utility.yul\":553:559   */\n      dup5\n        /* \"#utility.yul\":509:580   */\n      tag_107\n      jump\t// in\n    tag_158:\n        /* \"#utility.yul\":365:587   */\n      swap3\n      swap2\n      pop\n      pop\n      jump\t// out\n        /* \"#utility.yul\":593:670   */\n    tag_108:\n        /* \"#utility.yul\":630:637   */\n      0x00\n        /* \"#utility.yul\":659:664   */\n      dup2\n        /* \"#utility.yul\":648:664   */\n      swap1\n      pop\n        /* \"#utility.yul\":593:670   */\n      swap2\n      swap1\n      pop\n      jump\t// out\n        /* \"#utility.yul\":676:794   */\n    tag_109:\n        /* \"#utility.yul\":763:787   */\n      tag_161\n        /* \"#utility.yul\":781:786   */\n      dup2\n        /* \"#utility.yul\":763:787   */\n      tag_108\n      jump\t// in\n    tag_161:\n        /* \"#utility.yul\":758:761   */\n      dup3\n        /* \"#utility.yul\":751:788   */\n      mstore\n        /* \"#utility.yul\":676:794   */\n      pop\n      pop\n      jump\t// out\n        /* \"#utility.yul\":800:1022   */\n    tag_19:\n        /* \"#utility.yul\":893:897   */\n      0x00\n        /* \"#utility.yul\":931:933   */\n      0x20\n        /* \"#utility.yul\":920:929   */\n      dup3\n        /* \"#utility.yul\":916:934   */\n      add\n        /* \"#utility.yul\":908:934   */\n      swap1\n      pop\n        /* \"#utility.yul\":944:1015   */\n      tag_163\n        /* \"#utility.yul\":1012:1013   */\n      0x00\n        /* \"#utility.yul\":1001:1010   */\n      dup4\n        /* \"#utility.yul\":997:1014   */\n      add\n        /* \"#utility.yul\":988:994   */\n      dup5\n        /* \"#utility.yul\":944:1015   */\n      tag_109\n      jump\t// in\n    tag_163:\n        /* \"#utility.yul\":800:1022   */\n      swap3\n      swap2\n      pop\n      pop\n      jump\t// out\n        /* \"#utility.yul\":1028:1103   */\n    tag_110:\n        /* \"#utility.yul\":1061:1067   */\n      0x00\n        /* \"#utility.yul\":1094:1096   */\n      0x40\n        /* \"#utility.yul\":1088:1097   */\n      mload\n        /* \"#utility.yul\":1078:1097   */\n      swap1\n      pop\n        /* \"#utility.yul\":1028:1103   */\n      swap1\n      jump\t// out\n        /* \"#utility.yul\":1109:1226   */\n    tag_111:\n        /* \"#utility.yul\":1218:1219   */\n      0x00\n        /* \"#utility.yul\":1215:1216   */\n      dup1\n        /* \"#utility.yul\":1208:1220   */\n      revert\n        /* \"#utility.yul\":1232:1349   */\n    tag_112:\n        /* \"#utility.yul\":1341:1342   */\n      0x00\n        /* \"#utility.yul\":1338:1339   */\n      dup1\n        /* \"#utility.yul\":1331:1343   */\n      revert\n        /* \"#utility.yul\":1355:1477   */\n    tag_113:\n        /* \"#utility.yul\":1428:1452   */\n      tag_168\n        /* \"#utility.yul\":1446:1451   */\n      dup2\n        /* \"#utility.yul\":1428:1452   */\n      tag_108\n      jump\t// in\n    tag_168:\n        /* \"#utility.yul\":1421:1426   */\n      dup2\n        /* \"#utility.yul\":1418:1453   */\n      eq\n        /* \"#utility.yul\":1408:1471   */\n      tag_169\n      jumpi\n        /* \"#utility.yul\":1467:1468   */\n      0x00\n        /* \"#utility.yul\":1464:1465   */\n      dup1\n        /* \"#utility.yul\":1457:1469   */\n      revert\n        /* \"#utility.yul\":1408:1471   */\n    tag_169:\n        /* \"#utility.yul\":1355:1477   */\n      pop\n      jump\t// out\n        /* \"#utility.yul\":1483:1622   */\n    tag_114:\n        /* \"#utility.yul\":1529:1534   */\n      0x00\n        /* \"#utility.yul\":1567:1573   */\n      dup2\n        /* \"#utility.yul\":1554:1574   */\n      calldataload\n        /* \"#utility.yul\":1545:1574   */\n      swap1\n      pop\n        /* \"#utility.yul\":1583:1616   */\n      tag_171\n        /* \"#utility.yul\":1610:1615   */\n      dup2\n        /* \"#utility.yul\":1583:1616   */\n      tag_113\n      jump\t// in\n    tag_171:\n        /* \"#utility.yul\":1483:1622   */\n      swap3\n      swap2\n      pop\n      pop\n      jump\t// out\n        /* \"#utility.yul\":1628:1957   */\n    tag_22:\n        /* \"#utility.yul\":1687:1693   */\n      0x00\n        /* \"#utility.yul\":1736:1738   */\n      0x20\n        /* \"#utility.yul\":1724:1733   */\n      dup3\n        /* \"#utility.yul\":1715:1722   */\n      dup5\n        /* \"#utility.yul\":1711:1734   */\n      sub\n        /* \"#utility.yul\":1707:1739   */\n      slt\n        /* \"#utility.yul\":1704:1823   */\n      iszero\n      tag_173\n      jumpi\n        /* \"#utility.yul\":1742:1821   */\n      tag_174\n      tag_111\n      jump\t// in\n    tag_174:\n        /* \"#utility.yul\":1704:1823   */\n    tag_173:\n        /* \"#utility.yul\":1862:1863   */\n      0x00\n        /* \"#utility.yul\":1887:1940   */\n      tag_175\n        /* \"#utility.yul\":1932:1939   */\n      dup5\n        /* \"#utility.yul\":1923:1929   */\n      dup3\n        /* \"#utility.yul\":1912:1921   */\n      dup6\n        /* \"#utility.yul\":1908:1930   */\n      add\n        /* \"#utility.yul\":1887:1940   */\n      tag_114\n      jump\t// in\n    tag_175:\n        /* \"#utility.yul\":1877:1940   */\n      swap2\n      pop\n        /* \"#utility.yul\":1833:1950   */\n      pop\n        /* \"#utility.yul\":1628:1957   */\n      swap3\n      swap2\n      pop\n      pop\n      jump\t// out\n        /* \"#utility.yul\":1963:2085   */\n    tag_115:\n        /* \"#utility.yul\":2036:2060   */\n      tag_177\n        /* \"#utility.yul\":2054:2059   */\n      dup2\n        /* \"#utility.yul\":2036:2060   */\n      tag_106\n      jump\t// in\n    tag_177:\n        /* \"#utility.yul\":2029:2034   */\n      dup2\n        /* \"#utility.yul\":2026:2061   */\n      eq\n        /* \"#utility.yul\":2016:2079   */\n      tag_178\n      jumpi\n        /* \"#utility.yul\":2075:2076   */\n      0x00\n        /* \"#utility.yul\":2072:2073   */\n      dup1\n        /* \"#utility.yul\":2065:2077   */\n      revert\n        /* \"#utility.yul\":2016:2079   */\n    tag_178:\n        /* \"#utility.yul\":1963:2085   */\n      pop\n      jump\t// out\n        /* \"#utility.yul\":2091:2230   */\n    tag_116:\n        /* \"#utility.yul\":2137:2142   */\n      0x00\n        /* \"#utility.yul\":2175:2181   */\n      dup2\n        /* \"#utility.yul\":2162:2182   */\n      calldataload\n        /* \"#utility.yul\":2153:2182   */\n      swap1\n      pop\n        /* \"#utility.yul\":2191:2224   */\n      tag_180\n        /* \"#utility.yul\":2218:2223   */\n      dup2\n        /* \"#utility.yul\":2191:2224   */\n      tag_115\n      jump\t// in\n    tag_180:\n        /* \"#utility.yul\":2091:2230   */\n      swap3\n      swap2\n      pop\n      pop\n      jump\t// out\n        /* \"#utility.yul\":2236:2565   */\n    tag_27:\n        /* \"#utility.yul\":2295:2301   */\n      0x00\n        /* \"#utility.yul\":2344:2346   */\n      0x20\n        /* \"#utility.yul\":2332:2341   */\n      dup3\n        /* \"#utility.yul\":2323:2330   */\n      dup5\n        /* \"#utility.yul\":2319:2342   */\n      sub\n        /* \"#utility.yul\":2315:2347   */\n      slt\n        /* \"#utility.yul\":2312:2431   */\n      iszero\n      tag_182\n      jumpi\n        /* \"#utility.yul\":2350:2429   */\n      tag_183\n      tag_111\n      jump\t// in\n    tag_183:\n        /* \"#utility.yul\":2312:2431   */\n    tag_182:\n        /* \"#utility.yul\":2470:2471   */\n      0x00\n        /* \"#utility.yul\":2495:2548   */\n      tag_184\n        /* \"#utility.yul\":2540:2547   */\n      dup5\n        /* \"#utility.yul\":2531:2537   */\n      dup3\n        /* \"#utility.yul\":2520:2529   */\n      dup6\n        /* \"#utility.yul\":2516:2538   */\n      add\n        /* \"#utility.yul\":2495:2548   */\n      tag_116\n      jump\t// in\n    tag_184:\n        /* \"#utility.yul\":2485:2548   */\n      swap2\n      pop\n        /* \"#utility.yul\":2441:2558   */\n      pop\n        /* \"#utility.yul\":2236:2565   */\n      swap3\n      swap2\n      pop\n      pop\n      jump\t// out\n        /* \"#utility.yul\":2571:2670   */\n    tag_117:\n        /* \"#utility.yul\":2623:2629   */\n      0x00\n        /* \"#utility.yul\":2657:2662   */\n      dup2\n        /* \"#utility.yul\":2651:2663   */\n      mload\n        /* \"#utility.yul\":2641:2663   */\n      swap1\n      pop\n        /* \"#utility.yul\":2571:2670   */\n      swap2\n      swap1\n      pop\n      jump\t// out\n        /* \"#utility.yul\":2676:2845   */\n    tag_118:\n        /* \"#utility.yul\":2760:2771   */\n      0x00\n        /* \"#utility.yul\":2794:2800   */\n      dup3\n        /* \"#utility.yul\":2789:2792   */\n      dup3\n        /* \"#utility.yul\":2782:2801   */\n      mstore\n        /* \"#utility.yul\":2834:2838   */\n      0x20\n        /* \"#utility.yul\":2829:2832   */\n      dup3\n        /* \"#utility.yul\":2825:2839   */\n      add\n        /* \"#utility.yul\":2810:2839   */\n      swap1\n      pop\n        /* \"#utility.yul\":2676:2845   */\n      swap3\n      swap2\n      pop\n      pop\n      jump\t// out\n        /* \"#utility.yul\":2851:3097   */\n    tag_119:\n        /* \"#utility.yul\":2932:2933   */\n      0x00\n        /* \"#utility.yul\":2942:3055   */\n    tag_188:\n        /* \"#utility.yul\":2956:2962   */\n      dup4\n        /* \"#utility.yul\":2953:2954   */\n      dup2\n        /* \"#utility.yul\":2950:2963   */\n      lt\n        /* \"#utility.yul\":2942:3055   */\n      iszero\n      tag_190\n      jumpi\n        /* \"#utility.yul\":3041:3042   */\n      dup1\n        /* \"#utility.yul\":3036:3039   */\n      dup3\n        /* \"#utility.yul\":3032:3043   */\n      add\n        /* \"#utility.yul\":3026:3044   */\n      mload\n        /* \"#utility.yul\":3022:3023   */\n      dup2\n        /* \"#utility.yul\":3017:3020   */\n      dup5\n        /* \"#utility.yul\":3013:3024   */\n      add\n        /* \"#utility.yul\":3006:3045   */\n      mstore\n        /* \"#utility.yul\":2978:2980   */\n      0x20\n        /* \"#utility.yul\":2975:2976   */\n      dup2\n        /* \"#utility.yul\":2971:2981   */\n      add\n        /* \"#utility.yul\":2966:2981   */\n      swap1\n      pop\n        /* \"#utility.yul\":2942:3055   */\n      jump(tag_188)\n    tag_190:\n        /* \"#utility.yul\":3089:3090   */\n      0x00\n        /* \"#utility.yul\":3080:3086   */\n      dup5\n        /* \"#utility.yul\":3075:3078   */\n      dup5\n        /* \"#utility.yul\":3071:3087   */\n      add\n        /* \"#utility.yul\":3064:3091   */\n      mstore\n        /* \"#utility.yul\":2913:3097   */\n      pop\n        /* \"#utility.yul\":2851:3097   */\n      pop\n      pop\n      pop\n      jump\t// out\n        /* \"#utility.yul\":3103:3205   */\n    tag_120:\n        /* \"#utility.yul\":3144:3150   */\n      0x00\n        /* \"#utility.yul\":3195:3197   */\n      0x1f\n        /* \"#utility.yul\":3191:3198   */\n      not\n        /* \"#utility.yul\":3186:3188   */\n      0x1f\n        /* \"#utility.yul\":3179:3184   */\n      dup4\n        /* \"#utility.yul\":3175:3189   */\n      add\n        /* \"#utility.yul\":3171:3199   */\n      and\n        /* \"#utility.yul\":3161:3199   */\n      swap1\n      pop\n        /* \"#utility.yul\":3103:3205   */\n      swap2\n      swap1\n      pop\n      jump\t// out\n        /* \"#utility.yul\":3211:3588   */\n    tag_121:\n        /* \"#utility.yul\":3299:3302   */\n      0x00\n        /* \"#utility.yul\":3327:3366   */\n      tag_193\n        /* \"#utility.yul\":3360:3365   */\n      dup3\n        /* \"#utility.yul\":3327:3366   */\n      tag_117\n      jump\t// in\n    tag_193:\n        /* \"#utility.yul\":3382:3453   */\n      tag_194\n        /* \"#utility.yul\":3446:3452   */\n      dup2\n        /* \"#utility.yul\":3441:3444   */\n      dup6\n        /* \"#utility.yul\":3382:3453   */\n      tag_118\n      jump\t// in\n    tag_194:\n        /* \"#utility.yul\":3375:3453   */\n      swap4\n      pop\n        /* \"#utility.yul\":3462:3527   */\n      tag_195\n        /* \"#utility.yul\":3520:3526   */\n      dup2\n        /* \"#utility.yul\":3515:3518   */\n      dup6\n        /* \"#utility.yul\":3508:3512   */\n      0x20\n        /* \"#utility.yul\":3501:3506   */\n      dup7\n        /* \"#utility.yul\":3497:3513   */\n      add\n        /* \"#utility.yul\":3462:3527   */\n      tag_119\n      jump\t// in\n    tag_195:\n        /* \"#utility.yul\":3552:3581   */\n      tag_196\n        /* \"#utility.yul\":3574:3580   */\n      dup2\n        /* \"#utility.yul\":3552:3581   */\n      tag_120\n      jump\t// in\n    tag_196:\n        /* \"#utility.yul\":3547:3550   */\n      dup5\n        /* \"#utility.yul\":3543:3582   */\n      add\n        /* \"#utility.yul\":3536:3582   */\n      swap2\n      pop\n        /* \"#utility.yul\":3303:3588   */\n      pop\n        /* \"#utility.yul\":3211:3588   */\n      swap3\n      swap2\n      pop\n      pop\n      jump\t// out\n        /* \"#utility.yul\":3594:4844   */\n    tag_30:\n        /* \"#utility.yul\":3935:3939   */\n      0x00\n        /* \"#utility.yul\":3973:3976   */\n      0xe0\n        /* \"#utility.yul\":3962:3971   */\n      dup3\n        /* \"#utility.yul\":3958:3977   */\n      add\n        /* \"#utility.yul\":3950:3977   */\n      swap1\n      pop\n        /* \"#utility.yul\":3987:4058   */\n      tag_198\n        /* \"#utility.yul\":4055:4056   */\n      0x00\n        /* \"#utility.yul\":4044:4053   */\n      dup4\n        /* \"#utility.yul\":4040:4057   */\n      add\n        /* \"#utility.yul\":4031:4037   */\n      dup11\n        /* \"#utility.yul\":3987:4058   */\n      tag_109\n      jump\t// in\n    tag_198:\n        /* \"#utility.yul\":4105:4114   */\n      dup2\n        /* \"#utility.yul\":4099:4103   */\n      dup2\n        /* \"#utility.yul\":4095:4115   */\n      sub\n        /* \"#utility.yul\":4090:4092   */\n      0x20\n        /* \"#utility.yul\":4079:4088   */\n      dup4\n        /* \"#utility.yul\":4075:4093   */\n      add\n        /* \"#utility.yul\":4068:4116   */\n      mstore\n        /* \"#utility.yul\":4133:4211   */\n      tag_199\n        /* \"#utility.yul\":4206:4210   */\n      dup2\n        /* \"#utility.yul\":4197:4203   */\n      dup10\n        /* \"#utility.yul\":4133:4211   */\n      tag_121\n      jump\t// in\n    tag_199:\n        /* \"#utility.yul\":4125:4211   */\n      swap1\n      pop\n        /* \"#utility.yul\":4258:4267   */\n      dup2\n        /* \"#utility.yul\":4252:4256   */\n      dup2\n        /* \"#utility.yul\":4248:4268   */\n      sub\n        /* \"#utility.yul\":4243:4245   */\n      0x40\n        /* \"#utility.yul\":4232:4241   */\n      dup4\n        /* \"#utility.yul\":4228:4246   */\n      add\n        /* \"#utility.yul\":4221:4269   */\n      mstore\n        /* \"#utility.yul\":4286:4364   */\n      tag_200\n        /* \"#utility.yul\":4359:4363   */\n      dup2\n        /* \"#utility.yul\":4350:4356   */\n      dup9\n        /* \"#utility.yul\":4286:4364   */\n      tag_121\n      jump\t// in\n    tag_200:\n        /* \"#utility.yul\":4278:4364   */\n      swap1\n      pop\n        /* \"#utility.yul\":4411:4420   */\n      dup2\n        /* \"#utility.yul\":4405:4409   */\n      dup2\n        /* \"#utility.yul\":4401:4421   */\n      sub\n        /* \"#utility.yul\":4396:4398   */\n      0x60\n        /* \"#utility.yul\":4385:4394   */\n      dup4\n        /* \"#utility.yul\":4381:4399   */\n      add\n        /* \"#utility.yul\":4374:4422   */\n      mstore\n        /* \"#utility.yul\":4439:4517   */\n      tag_201\n        /* \"#utility.yul\":4512:4516   */\n      dup2\n        /* \"#utility.yul\":4503:4509   */\n      dup8\n        /* \"#utility.yul\":4439:4517   */\n      tag_121\n      jump\t// in\n    tag_201:\n        /* \"#utility.yul\":4431:4517   */\n      swap1\n      pop\n        /* \"#utility.yul\":4527:4600   */\n      tag_202\n        /* \"#utility.yul\":4595:4598   */\n      0x80\n        /* \"#utility.yul\":4584:4593   */\n      dup4\n        /* \"#utility.yul\":4580:4599   */\n      add\n        /* \"#utility.yul\":4571:4577   */\n      dup7\n        /* \"#utility.yul\":4527:4600   */\n      tag_109\n      jump\t// in\n    tag_202:\n        /* \"#utility.yul\":4610:4683   */\n      tag_203\n        /* \"#utility.yul\":4678:4681   */\n      0xa0\n        /* \"#utility.yul\":4667:4676   */\n      dup4\n        /* \"#utility.yul\":4663:4682   */\n      add\n        /* \"#utility.yul\":4654:4660   */\n      dup6\n        /* \"#utility.yul\":4610:4683   */\n      tag_107\n      jump\t// in\n    tag_203:\n        /* \"#utility.yul\":4731:4740   */\n      dup2\n        /* \"#utility.yul\":4725:4729   */\n      dup2\n        /* \"#utility.yul\":4721:4741   */\n      sub\n        /* \"#utility.yul\":4715:4718   */\n      0xc0\n        /* \"#utility.yul\":4704:4713   */\n      dup4\n        /* \"#utility.yul\":4700:4719   */\n      add\n        /* \"#utility.yul\":4693:4742   */\n      mstore\n        /* \"#utility.yul\":4759:4837   */\n      tag_204\n        /* \"#utility.yul\":4832:4836   */\n      dup2\n        /* \"#utility.yul\":4823:4829   */\n      dup5\n        /* \"#utility.yul\":4759:4837   */\n      tag_121\n      jump\t// in\n    tag_204:\n        /* \"#utility.yul\":4751:4837   */\n      swap1\n      pop\n        /* \"#utility.yul\":3594:4844   */\n      swap9\n      swap8\n      pop\n      pop\n      pop\n      pop\n      pop\n      pop\n      pop\n      pop\n      jump\t// out\n        /* \"#utility.yul\":4850:4940   */\n    tag_122:\n        /* \"#utility.yul\":4884:4891   */\n      0x00\n        /* \"#utility.yul\":4927:4932   */\n      dup2\n        /* \"#utility.yul\":4920:4933   */\n      iszero\n        /* \"#utility.yul\":4913:4934   */\n      iszero\n        /* \"#utility.yul\":4902:4934   */\n      swap1\n      pop\n        /* \"#utility.yul\":4850:4940   */\n      swap2\n      swap1\n      pop\n      jump\t// out\n        /* \"#utility.yul\":4946:5055   */\n    tag_123:\n        /* \"#utility.yul\":5027:5048   */\n      tag_207\n        /* \"#utility.yul\":5042:5047   */\n      dup2\n        /* \"#utility.yul\":5027:5048   */\n      tag_122\n      jump\t// in\n    tag_207:\n        /* \"#utility.yul\":5022:5025   */\n      dup3\n        /* \"#utility.yul\":5015:5049   */\n      mstore\n        /* \"#utility.yul\":4946:5055   */\n      pop\n      pop\n      jump\t// out\n        /* \"#utility.yul\":5061:6319   */\n    tag_39:\n        /* \"#utility.yul\":5404:5408   */\n      0x00\n        /* \"#utility.yul\":5442:5445   */\n      0x0100\n        /* \"#utility.yul\":5431:5440   */\n      dup3\n        /* \"#utility.yul\":5427:5446   */\n      add\n        /* \"#utility.yul\":5419:5446   */\n      swap1\n      pop\n        /* \"#utility.yul\":5456:5527   */\n      tag_209\n        /* \"#utility.yul\":5524:5525   */\n      0x00\n        /* \"#utility.yul\":5513:5522   */\n      dup4\n        /* \"#utility.yul\":5509:5526   */\n      add\n        /* \"#utility.yul\":5500:5506   */\n      dup12\n        /* \"#utility.yul\":5456:5527   */\n      tag_109\n      jump\t// in\n    tag_209:\n        /* \"#utility.yul\":5574:5583   */\n      dup2\n        /* \"#utility.yul\":5568:5572   */\n      dup2\n        /* \"#utility.yul\":5564:5584   */\n      sub\n        /* \"#utility.yul\":5559:5561   */\n      0x20\n        /* \"#utility.yul\":5548:5557   */\n      dup4\n        /* \"#utility.yul\":5544:5562   */\n      add\n        /* \"#utility.yul\":5537:5585   */\n      mstore\n        /* \"#utility.yul\":5602:5680   */\n      tag_210\n        /* \"#utility.yul\":5675:5679   */\n      dup2\n        /* \"#utility.yul\":5666:5672   */\n      dup11\n        /* \"#utility.yul\":5602:5680   */\n      tag_121\n      jump\t// in\n    tag_210:\n        /* \"#utility.yul\":5594:5680   */\n      swap1\n      pop\n        /* \"#utility.yul\":5727:5736   */\n      dup2\n        /* \"#utility.yul\":5721:5725   */\n      dup2\n        /* \"#utility.yul\":5717:5737   */\n      sub\n        /* \"#utility.yul\":5712:5714   */\n      0x40\n        /* \"#utility.yul\":5701:5710   */\n      dup4\n        /* \"#utility.yul\":5697:5715   */\n      add\n        /* \"#utility.yul\":5690:5738   */\n      mstore\n        /* \"#utility.yul\":5755:5833   */\n      tag_211\n        /* \"#utility.yul\":5828:5832   */\n      dup2\n        /* \"#utility.yul\":5819:5825   */\n      dup10\n        /* \"#utility.yul\":5755:5833   */\n      tag_121\n      jump\t// in\n    tag_211:\n        /* \"#utility.yul\":5747:5833   */\n      swap1\n      pop\n        /* \"#utility.yul\":5843:5915   */\n      tag_212\n        /* \"#utility.yul\":5911:5913   */\n      0x60\n        /* \"#utility.yul\":5900:5909   */\n      dup4\n        /* \"#utility.yul\":5896:5914   */\n      add\n        /* \"#utility.yul\":5887:5893   */\n      dup9\n        /* \"#utility.yul\":5843:5915   */\n      tag_107\n      jump\t// in\n    tag_212:\n        /* \"#utility.yul\":5925:5998   */\n      tag_213\n        /* \"#utility.yul\":5993:5996   */\n      0x80\n        /* \"#utility.yul\":5982:5991   */\n      dup4\n        /* \"#utility.yul\":5978:5997   */\n      add\n        /* \"#utility.yul\":5969:5975   */\n      dup8\n        /* \"#utility.yul\":5925:5998   */\n      tag_109\n      jump\t// in\n    tag_213:\n        /* \"#utility.yul\":6008:6075   */\n      tag_214\n        /* \"#utility.yul\":6070:6073   */\n      0xa0\n        /* \"#utility.yul\":6059:6068   */\n      dup4\n        /* \"#utility.yul\":6055:6074   */\n      add\n        /* \"#utility.yul\":6046:6052   */\n      dup7\n        /* \"#utility.yul\":6008:6075   */\n      tag_123\n      jump\t// in\n    tag_214:\n        /* \"#utility.yul\":6085:6158   */\n      tag_215\n        /* \"#utility.yul\":6153:6156   */\n      0xc0\n        /* \"#utility.yul\":6142:6151   */\n      dup4\n        /* \"#utility.yul\":6138:6157   */\n      add\n        /* \"#utility.yul\":6129:6135   */\n      dup6\n        /* \"#utility.yul\":6085:6158   */\n      tag_109\n      jump\t// in\n    tag_215:\n        /* \"#utility.yul\":6206:6215   */\n      dup2\n        /* \"#utility.yul\":6200:6204   */\n      dup2\n        /* \"#utility.yul\":6196:6216   */\n      sub\n        /* \"#utility.yul\":6190:6193   */\n      0xe0\n        /* \"#utility.yul\":6179:6188   */\n      dup4\n        /* \"#utility.yul\":6175:6194   */\n      add\n        /* \"#utility.yul\":6168:6217   */\n      mstore\n        /* \"#utility.yul\":6234:6312   */\n      tag_216\n        /* \"#utility.yul\":6307:6311   */\n      dup2\n        /* \"#utility.yul\":6298:6304   */\n      dup5\n        /* \"#utility.yul\":6234:6312   */\n      tag_121\n      jump\t// in\n    tag_216:\n        /* \"#utility.yul\":6226:6312   */\n      swap1\n      pop\n        /* \"#utility.yul\":5061:6319   */\n      swap10\n      swap9\n      pop\n      pop\n      pop\n      pop\n      pop\n      pop\n      pop\n      pop\n      pop\n      jump\t// out\n        /* \"#utility.yul\":6325:6442   */\n    tag_124:\n        /* \"#utility.yul\":6434:6435   */\n      0x00\n        /* \"#utility.yul\":6431:6432   */\n      dup1\n        /* \"#utility.yul\":6424:6436   */\n      revert\n        /* \"#utility.yul\":6448:6565   */\n    tag_125:\n        /* \"#utility.yul\":6557:6558   */\n      0x00\n        /* \"#utility.yul\":6554:6555   */\n      dup1\n        /* \"#utility.yul\":6547:6559   */\n      revert\n        /* \"#utility.yul\":6571:6751   */\n    tag_126:\n        /* \"#utility.yul\":6619:6696   */\n      0x4e487b7100000000000000000000000000000000000000000000000000000000\n        /* \"#utility.yul\":6616:6617   */\n      0x00\n        /* \"#utility.yul\":6609:6697   */\n      mstore\n        /* \"#utility.yul\":6716:6720   */\n      0x41\n        /* \"#utility.yul\":6713:6714   */\n      0x04\n        /* \"#utility.yul\":6706:6721   */\n      mstore\n        /* \"#utility.yul\":6740:6744   */\n      0x24\n        /* \"#utility.yul\":6737:6738   */\n      0x00\n        /* \"#utility.yul\":6730:6745   */\n      revert\n        /* \"#utility.yul\":6757:7038   */\n    tag_127:\n        /* \"#utility.yul\":6840:6867   */\n      tag_221\n        /* \"#utility.yul\":6862:6866   */\n      dup3\n        /* \"#utility.yul\":6840:6867   */\n      tag_120\n      jump\t// in\n    tag_221:\n        /* \"#utility.yul\":6832:6838   */\n      dup2\n        /* \"#utility.yul\":6828:6868   */\n      add\n        /* \"#utility.yul\":6970:6976   */\n      dup2\n        /* \"#utility.yul\":6958:6968   */\n      dup2\n        /* \"#utility.yul\":6955:6977   */\n      lt\n        /* \"#utility.yul\":6934:6952   */\n      0xffffffffffffffff\n        /* \"#utility.yul\":6922:6932   */\n      dup3\n        /* \"#utility.yul\":6919:6953   */\n      gt\n        /* \"#utility.yul\":6916:6978   */\n      or\n        /* \"#utility.yul\":6913:7001   */\n      iszero\n      tag_222\n      jumpi\n        /* \"#utility.yul\":6981:6999   */\n      tag_223\n      tag_126\n      jump\t// in\n    tag_223:\n        /* \"#utility.yul\":6913:7001   */\n    tag_222:\n        /* \"#utility.yul\":7021:7031   */\n      dup1\n        /* \"#utility.yul\":7017:7019   */\n      0x40\n        /* \"#utility.yul\":7010:7032   */\n      mstore\n        /* \"#utility.yul\":6800:7038   */\n      pop\n        /* \"#utility.yul\":6757:7038   */\n      pop\n      pop\n      jump\t// out\n        /* \"#utility.yul\":7044:7173   */\n    tag_128:\n        /* \"#utility.yul\":7078:7084   */\n      0x00\n        /* \"#utility.yul\":7105:7125   */\n      tag_225\n      tag_110\n      jump\t// in\n    tag_225:\n        /* \"#utility.yul\":7095:7125   */\n      swap1\n      pop\n        /* \"#utility.yul\":7134:7167   */\n      tag_226\n        /* \"#utility.yul\":7162:7166   */\n      dup3\n        /* \"#utility.yul\":7154:7160   */\n      dup3\n        /* \"#utility.yul\":7134:7167   */\n      tag_127\n      jump\t// in\n    tag_226:\n        /* \"#utility.yul\":7044:7173   */\n      swap2\n      swap1\n      pop\n      jump\t// out\n        /* \"#utility.yul\":7179:7487   */\n    tag_129:\n        /* \"#utility.yul\":7241:7245   */\n      0x00\n        /* \"#utility.yul\":7331:7349   */\n      0xffffffffffffffff\n        /* \"#utility.yul\":7323:7329   */\n      dup3\n        /* \"#utility.yul\":7320:7350   */\n      gt\n        /* \"#utility.yul\":7317:7373   */\n      iszero\n      tag_228\n      jumpi\n        /* \"#utility.yul\":7353:7371   */\n      tag_229\n      tag_126\n      jump\t// in\n    tag_229:\n        /* \"#utility.yul\":7317:7373   */\n    tag_228:\n        /* \"#utility.yul\":7391:7420   */\n      tag_230\n        /* \"#utility.yul\":7413:7419   */\n      dup3\n        /* \"#utility.yul\":7391:7420   */\n      tag_120\n      jump\t// in\n    tag_230:\n        /* \"#utility.yul\":7383:7420   */\n      swap1\n      pop\n        /* \"#utility.yul\":7475:7479   */\n      0x20\n        /* \"#utility.yul\":7469:7473   */\n      dup2\n        /* \"#utility.yul\":7465:7480   */\n      add\n        /* \"#utility.yul\":7457:7480   */\n      swap1\n      pop\n        /* \"#utility.yul\":7179:7487   */\n      swap2\n      swap1\n      pop\n      jump\t// out\n        /* \"#utility.yul\":7493:7639   */\n    tag_130:\n        /* \"#utility.yul\":7590:7596   */\n      dup3\n        /* \"#utility.yul\":7585:7588   */\n      dup2\n        /* \"#utility.yul\":7580:7583   */\n      dup4\n        /* \"#utility.yul\":7567:7597   */\n      calldatacopy\n        /* \"#utility.yul\":7631:7632   */\n      0x00\n        /* \"#utility.yul\":7622:7628   */\n      dup4\n        /* \"#utility.yul\":7617:7620   */\n      dup4\n        /* \"#utility.yul\":7613:7629   */\n      add\n        /* \"#utility.yul\":7606:7633   */\n      mstore\n        /* \"#utility.yul\":7493:7639   */\n      pop\n      pop\n      pop\n      jump\t// out\n        /* \"#utility.yul\":7645:8070   */\n    tag_131:\n        /* \"#utility.yul\":7723:7728   */\n      0x00\n        /* \"#utility.yul\":7748:7814   */\n      tag_233\n        /* \"#utility.yul\":7764:7813   */\n      tag_234\n        /* \"#utility.yul\":7806:7812   */\n      dup5\n        /* \"#utility.yul\":7764:7813   */\n      tag_129\n      jump\t// in\n    tag_234:\n        /* \"#utility.yul\":7748:7814   */\n      tag_128\n      jump\t// in\n    tag_233:\n        /* \"#utility.yul\":7739:7814   */\n      swap1\n      pop\n        /* \"#utility.yul\":7837:7843   */\n      dup3\n        /* \"#utility.yul\":7830:7835   */\n      dup2\n        /* \"#utility.yul\":7823:7844   */\n      mstore\n        /* \"#utility.yul\":7875:7879   */\n      0x20\n        /* \"#utility.yul\":7868:7873   */\n      dup2\n        /* \"#utility.yul\":7864:7880   */\n      add\n        /* \"#utility.yul\":7913:7916   */\n      dup5\n        /* \"#utility.yul\":7904:7910   */\n      dup5\n        /* \"#utility.yul\":7899:7902   */\n      dup5\n        /* \"#utility.yul\":7895:7911   */\n      add\n        /* \"#utility.yul\":7892:7917   */\n      gt\n        /* \"#utility.yul\":7889:8001   */\n      iszero\n      tag_235\n      jumpi\n        /* \"#utility.yul\":7920:7999   */\n      tag_236\n      tag_125\n      jump\t// in\n    tag_236:\n        /* \"#utility.yul\":7889:8001   */\n    tag_235:\n        /* \"#utility.yul\":8010:8064   */\n      tag_237\n        /* \"#utility.yul\":8057:8063   */\n      dup5\n        /* \"#utility.yul\":8052:8055   */\n      dup3\n        /* \"#utility.yul\":8047:8050   */\n      dup6\n        /* \"#utility.yul\":8010:8064   */\n      tag_130\n      jump\t// in\n    tag_237:\n        /* \"#utility.yul\":7729:8070   */\n      pop\n        /* \"#utility.yul\":7645:8070   */\n      swap4\n      swap3\n      pop\n      pop\n      pop\n      jump\t// out\n        /* \"#utility.yul\":8090:8430   */\n    tag_132:\n        /* \"#utility.yul\":8146:8151   */\n      0x00\n        /* \"#utility.yul\":8195:8198   */\n      dup3\n        /* \"#utility.yul\":8188:8192   */\n      0x1f\n        /* \"#utility.yul\":8180:8186   */\n      dup4\n        /* \"#utility.yul\":8176:8193   */\n      add\n        /* \"#utility.yul\":8172:8199   */\n      slt\n        /* \"#utility.yul\":8162:8284   */\n      tag_239\n      jumpi\n        /* \"#utility.yul\":8203:8282   */\n      tag_240\n      tag_124\n      jump\t// in\n    tag_240:\n        /* \"#utility.yul\":8162:8284   */\n    tag_239:\n        /* \"#utility.yul\":8320:8326   */\n      dup2\n        /* \"#utility.yul\":8307:8327   */\n      calldataload\n        /* \"#utility.yul\":8345:8424   */\n      tag_241\n        /* \"#utility.yul\":8420:8423   */\n      dup5\n        /* \"#utility.yul\":8412:8418   */\n      dup3\n        /* \"#utility.yul\":8405:8409   */\n      0x20\n        /* \"#utility.yul\":8397:8403   */\n      dup7\n        /* \"#utility.yul\":8393:8410   */\n      add\n        /* \"#utility.yul\":8345:8424   */\n      tag_131\n      jump\t// in\n    tag_241:\n        /* \"#utility.yul\":8336:8424   */\n      swap2\n      pop\n        /* \"#utility.yul\":8152:8430   */\n      pop\n        /* \"#utility.yul\":8090:8430   */\n      swap3\n      swap2\n      pop\n      pop\n      jump\t// out\n        /* \"#utility.yul\":8436:10067   */\n    tag_45:\n        /* \"#utility.yul\":8571:8577   */\n      0x00\n        /* \"#utility.yul\":8579:8585   */\n      dup1\n        /* \"#utility.yul\":8587:8593   */\n      0x00\n        /* \"#utility.yul\":8595:8601   */\n      dup1\n        /* \"#utility.yul\":8603:8609   */\n      0x00\n        /* \"#utility.yul\":8652:8655   */\n      0xa0\n        /* \"#utility.yul\":8640:8649   */\n      dup7\n        /* \"#utility.yul\":8631:8638   */\n      dup9\n        /* \"#utility.yul\":8627:8650   */\n      sub\n        /* \"#utility.yul\":8623:8656   */\n      slt\n        /* \"#utility.yul\":8620:8740   */\n      iszero\n      tag_243\n      jumpi\n        /* \"#utility.yul\":8659:8738   */\n      tag_244\n      tag_111\n      jump\t// in\n    tag_244:\n        /* \"#utility.yul\":8620:8740   */\n    tag_243:\n        /* \"#utility.yul\":8779:8780   */\n      0x00\n        /* \"#utility.yul\":8804:8857   */\n      tag_245\n        /* \"#utility.yul\":8849:8856   */\n      dup9\n        /* \"#utility.yul\":8840:8846   */\n      dup3\n        /* \"#utility.yul\":8829:8838   */\n      dup10\n        /* \"#utility.yul\":8825:8847   */\n      add\n        /* \"#utility.yul\":8804:8857   */\n      tag_116\n      jump\t// in\n    tag_245:\n        /* \"#utility.yul\":8794:8857   */\n      swap6\n      pop\n        /* \"#utility.yul\":8750:8867   */\n      pop\n        /* \"#utility.yul\":8934:8936   */\n      0x20\n        /* \"#utility.yul\":8923:8932   */\n      dup7\n        /* \"#utility.yul\":8919:8937   */\n      add\n        /* \"#utility.yul\":8906:8938   */\n      calldataload\n        /* \"#utility.yul\":8965:8983   */\n      0xffffffffffffffff\n        /* \"#utility.yul\":8957:8963   */\n      dup2\n        /* \"#utility.yul\":8954:8984   */\n      gt\n        /* \"#utility.yul\":8951:9068   */\n      iszero\n      tag_246\n      jumpi\n        /* \"#utility.yul\":8987:9066   */\n      tag_247\n      tag_112\n      jump\t// in\n    tag_247:\n        /* \"#utility.yul\":8951:9068   */\n    tag_246:\n        /* \"#utility.yul\":9092:9155   */\n      tag_248\n        /* \"#utility.yul\":9147:9154   */\n      dup9\n        /* \"#utility.yul\":9138:9144   */\n      dup3\n        /* \"#utility.yul\":9127:9136   */\n      dup10\n        /* \"#utility.yul\":9123:9145   */\n      add\n        /* \"#utility.yul\":9092:9155   */\n      tag_132\n      jump\t// in\n    tag_248:\n        /* \"#utility.yul\":9082:9155   */\n      swap5\n      pop\n        /* \"#utility.yul\":8877:9165   */\n      pop\n        /* \"#utility.yul\":9232:9234   */\n      0x40\n        /* \"#utility.yul\":9221:9230   */\n      dup7\n        /* \"#utility.yul\":9217:9235   */\n      add\n        /* \"#utility.yul\":9204:9236   */\n      calldataload\n        /* \"#utility.yul\":9263:9281   */\n      0xffffffffffffffff\n        /* \"#utility.yul\":9255:9261   */\n      dup2\n        /* \"#utility.yul\":9252:9282   */\n      gt\n        /* \"#utility.yul\":9249:9366   */\n      iszero\n      tag_249\n      jumpi\n        /* \"#utility.yul\":9285:9364   */\n      tag_250\n      tag_112\n      jump\t// in\n    tag_250:\n        /* \"#utility.yul\":9249:9366   */\n    tag_249:\n        /* \"#utility.yul\":9390:9453   */\n      tag_251\n        /* \"#utility.yul\":9445:9452   */\n      dup9\n        /* \"#utility.yul\":9436:9442   */\n      dup3\n        /* \"#utility.yul\":9425:9434   */\n      dup10\n        /* \"#utility.yul\":9421:9443   */\n      add\n        /* \"#utility.yul\":9390:9453   */\n      tag_132\n      jump\t// in\n    tag_251:\n        /* \"#utility.yul\":9380:9453   */\n      swap4\n      pop\n        /* \"#utility.yul\":9175:9463   */\n      pop\n        /* \"#utility.yul\":9530:9532   */\n      0x60\n        /* \"#utility.yul\":9519:9528   */\n      dup7\n        /* \"#utility.yul\":9515:9533   */\n      add\n        /* \"#utility.yul\":9502:9534   */\n      calldataload\n        /* \"#utility.yul\":9561:9579   */\n      0xffffffffffffffff\n        /* \"#utility.yul\":9553:9559   */\n      dup2\n        /* \"#utility.yul\":9550:9580   */\n      gt\n        /* \"#utility.yul\":9547:9664   */\n      iszero\n      tag_252\n      jumpi\n        /* \"#utility.yul\":9583:9662   */\n      tag_253\n      tag_112\n      jump\t// in\n    tag_253:\n        /* \"#utility.yul\":9547:9664   */\n    tag_252:\n        /* \"#utility.yul\":9688:9751   */\n      tag_254\n        /* \"#utility.yul\":9743:9750   */\n      dup9\n        /* \"#utility.yul\":9734:9740   */\n      dup3\n        /* \"#utility.yul\":9723:9732   */\n      dup10\n        /* \"#utility.yul\":9719:9741   */\n      add\n        /* \"#utility.yul\":9688:9751   */\n      tag_132\n      jump\t// in\n    tag_254:\n        /* \"#utility.yul\":9678:9751   */\n      swap3\n      pop\n        /* \"#utility.yul\":9473:9761   */\n      pop\n        /* \"#utility.yul\":9828:9831   */\n      0x80\n        /* \"#utility.yul\":9817:9826   */\n      dup7\n        /* \"#utility.yul\":9813:9832   */\n      add\n        /* \"#utility.yul\":9800:9833   */\n      calldataload\n        /* \"#utility.yul\":9860:9878   */\n      0xffffffffffffffff\n        /* \"#utility.yul\":9852:9858   */\n      dup2\n        /* \"#utility.yul\":9849:9879   */\n      gt\n        /* \"#utility.yul\":9846:9963   */\n      iszero\n      tag_255\n      jumpi\n        /* \"#utility.yul\":9882:9961   */\n      tag_256\n      tag_112\n      jump\t// in\n    tag_256:\n        /* \"#utility.yul\":9846:9963   */\n    tag_255:\n        /* \"#utility.yul\":9987:10050   */\n      tag_257\n        /* \"#utility.yul\":10042:10049   */\n      dup9\n        /* \"#utility.yul\":10033:10039   */\n      dup3\n        /* \"#utility.yul\":10022:10031   */\n      dup10\n        /* \"#utility.yul\":10018:10040   */\n      add\n        /* \"#utility.yul\":9987:10050   */\n      tag_132\n      jump\t// in\n    tag_257:\n        /* \"#utility.yul\":9977:10050   */\n      swap2\n      pop\n        /* \"#utility.yul\":9771:10060   */\n      pop\n        /* \"#utility.yul\":8436:10067   */\n      swap3\n      swap6\n      pop\n      swap3\n      swap6\n      swap1\n      swap4\n      pop\n      jump\t// out\n        /* \"#utility.yul\":10073:10253   */\n    tag_133:\n        /* \"#utility.yul\":10121:10198   */\n      0x4e487b7100000000000000000000000000000000000000000000000000000000\n        /* \"#utility.yul\":10118:10119   */\n      0x00\n        /* \"#utility.yul\":10111:10199   */\n      mstore\n        /* \"#utility.yul\":10218:10222   */\n      0x22\n        /* \"#utility.yul\":10215:10216   */\n      0x04\n        /* \"#utility.yul\":10208:10223   */\n      mstore\n        /* \"#utility.yul\":10242:10246   */\n      0x24\n        /* \"#utility.yul\":10239:10240   */\n      0x00\n        /* \"#utility.yul\":10232:10247   */\n      revert\n        /* \"#utility.yul\":10259:10579   */\n    tag_50:\n        /* \"#utility.yul\":10303:10309   */\n      0x00\n        /* \"#utility.yul\":10340:10341   */\n      0x02\n        /* \"#utility.yul\":10334:10338   */\n      dup3\n        /* \"#utility.yul\":10330:10342   */\n      div\n        /* \"#utility.yul\":10320:10342   */\n      swap1\n      pop\n        /* \"#utility.yul\":10387:10388   */\n      0x01\n        /* \"#utility.yul\":10381:10385   */\n      dup3\n        /* \"#utility.yul\":10377:10389   */\n      and\n        /* \"#utility.yul\":10408:10426   */\n      dup1\n        /* \"#utility.yul\":10398:10479   */\n      tag_260\n      jumpi\n        /* \"#utility.yul\":10464:10468   */\n      0x7f\n        /* \"#utility.yul\":10456:10462   */\n      dup3\n        /* \"#utility.yul\":10452:10469   */\n      and\n        /* \"#utility.yul\":10442:10469   */\n      swap2\n      pop\n        /* \"#utility.yul\":10398:10479   */\n    tag_260:\n        /* \"#utility.yul\":10526:10528   */\n      0x20\n        /* \"#utility.yul\":10518:10524   */\n      dup3\n        /* \"#utility.yul\":10515:10529   */\n      lt\n        /* \"#utility.yul\":10495:10513   */\n      dup2\n        /* \"#utility.yul\":10492:10530   */\n      sub\n        /* \"#utility.yul\":10489:10573   */\n      tag_261\n      jumpi\n        /* \"#utility.yul\":10545:10563   */\n      tag_262\n      tag_133\n      jump\t// in\n    tag_262:\n        /* \"#utility.yul\":10489:10573   */\n    tag_261:\n        /* \"#utility.yul\":10310:10579   */\n      pop\n        /* \"#utility.yul\":10259:10579   */\n      swap2\n      swap1\n      pop\n      jump\t// out\n        /* \"#utility.yul\":10585:10808   */\n    tag_134:\n        /* \"#utility.yul\":10725:10759   */\n      0x4f6e6c79206f7267616e697a65722063616e20616464206e65772063616e6469\n        /* \"#utility.yul\":10721:10722   */\n      0x00\n        /* \"#utility.yul\":10713:10719   */\n      dup3\n        /* \"#utility.yul\":10709:10723   */\n      add\n        /* \"#utility.yul\":10702:10760   */\n      mstore\n        /* \"#utility.yul\":10794:10800   */\n      0x6461746500000000000000000000000000000000000000000000000000000000\n        /* \"#utility.yul\":10789:10791   */\n      0x20\n        /* \"#utility.yul\":10781:10787   */\n      dup3\n        /* \"#utility.yul\":10777:10792   */\n      add\n        /* \"#utility.yul\":10770:10801   */\n      mstore\n        /* \"#utility.yul\":10585:10808   */\n      pop\n      jump\t// out\n        /* \"#utility.yul\":10814:11180   */\n    tag_135:\n        /* \"#utility.yul\":10956:10959   */\n      0x00\n        /* \"#utility.yul\":10977:11044   */\n      tag_265\n        /* \"#utility.yul\":11041:11043   */\n      0x24\n        /* \"#utility.yul\":11036:11039   */\n      dup4\n        /* \"#utility.yul\":10977:11044   */\n      tag_118\n      jump\t// in\n    tag_265:\n        /* \"#utility.yul\":10970:11044   */\n      swap2\n      pop\n        /* \"#utility.yul\":11053:11146   */\n      tag_266\n        /* \"#utility.yul\":11142:11145   */\n      dup3\n        /* \"#utility.yul\":11053:11146   */\n      tag_134\n      jump\t// in\n    tag_266:\n        /* \"#utility.yul\":11171:11173   */\n      0x40\n        /* \"#utility.yul\":11166:11169   */\n      dup3\n        /* \"#utility.yul\":11162:11174   */\n      add\n        /* \"#utility.yul\":11155:11174   */\n      swap1\n      pop\n        /* \"#utility.yul\":10814:11180   */\n      swap2\n      swap1\n      pop\n      jump\t// out\n        /* \"#utility.yul\":11186:11605   */\n    tag_90:\n        /* \"#utility.yul\":11352:11356   */\n      0x00\n        /* \"#utility.yul\":11390:11392   */\n      0x20\n        /* \"#utility.yul\":11379:11388   */\n      dup3\n        /* \"#utility.yul\":11375:11393   */\n      add\n        /* \"#utility.yul\":11367:11393   */\n      swap1\n      pop\n        /* \"#utility.yul\":11439:11448   */\n      dup2\n        /* \"#utility.yul\":11433:11437   */\n      dup2\n        /* \"#utility.yul\":11429:11449   */\n      sub\n        /* \"#utility.yul\":11425:11426   */\n      0x00\n        /* \"#utility.yul\":11414:11423   */\n      dup4\n        /* \"#utility.yul\":11410:11427   */\n      add\n        /* \"#utility.yul\":11403:11450   */\n      mstore\n        /* \"#utility.yul\":11467:11598   */\n      tag_268\n        /* \"#utility.yul\":11593:11597   */\n      dup2\n        /* \"#utility.yul\":11467:11598   */\n      tag_135\n      jump\t// in\n    tag_268:\n        /* \"#utility.yul\":11459:11598   */\n      swap1\n      pop\n        /* \"#utility.yul\":11186:11605   */\n      swap2\n      swap1\n      pop\n      jump\t// out\n        /* \"#utility.yul\":11611:11752   */\n    tag_136:\n        /* \"#utility.yul\":11660:11664   */\n      0x00\n        /* \"#utility.yul\":11683:11686   */\n      dup2\n        /* \"#utility.yul\":11675:11686   */\n      swap1\n      pop\n        /* \"#utility.yul\":11706:11709   */\n      dup2\n        /* \"#utility.yul\":11703:11704   */\n      0x00\n        /* \"#utility.yul\":11696:11710   */\n      mstore\n        /* \"#utility.yul\":11740:11744   */\n      0x20\n        /* \"#utility.yul\":11737:11738   */\n      0x00\n        /* \"#utility.yul\":11727:11745   */\n      keccak256\n        /* \"#utility.yul\":11719:11745   */\n      swap1\n      pop\n        /* \"#utility.yul\":11611:11752   */\n      swap2\n      swap1\n      pop\n      jump\t// out\n        /* \"#utility.yul\":11758:11851   */\n    tag_137:\n        /* \"#utility.yul\":11795:11801   */\n      0x00\n        /* \"#utility.yul\":11842:11844   */\n      0x20\n        /* \"#utility.yul\":11837:11839   */\n      0x1f\n        /* \"#utility.yul\":11830:11835   */\n      dup4\n        /* \"#utility.yul\":11826:11840   */\n      add\n        /* \"#utility.yul\":11822:11845   */\n      div\n        /* \"#utility.yul\":11812:11845   */\n      swap1\n      pop\n        /* \"#utility.yul\":11758:11851   */\n      swap2\n      swap1\n      pop\n      jump\t// out\n        /* \"#utility.yul\":11857:11964   */\n    tag_138:\n        /* \"#utility.yul\":11901:11909   */\n      0x00\n        /* \"#utility.yul\":11951:11956   */\n      dup3\n        /* \"#utility.yul\":11945:11949   */\n      dup3\n        /* \"#utility.yul\":11941:11957   */\n      shl\n        /* \"#utility.yul\":11920:11957   */\n      swap1\n      pop\n        /* \"#utility.yul\":11857:11964   */\n      swap3\n      swap2\n      pop\n      pop\n      jump\t// out\n        /* \"#utility.yul\":11970:12363   */\n    tag_139:\n        /* \"#utility.yul\":12039:12045   */\n      0x00\n        /* \"#utility.yul\":12089:12090   */\n      0x08\n        /* \"#utility.yul\":12077:12087   */\n      dup4\n        /* \"#utility.yul\":12073:12091   */\n      mul\n        /* \"#utility.yul\":12112:12209   */\n      tag_273\n        /* \"#utility.yul\":12142:12208   */\n      0xffffffffffffffffffffffffffffffffffffffffffffffffffffffffffffffff\n        /* \"#utility.yul\":12131:12140   */\n      dup3\n        /* \"#utility.yul\":12112:12209   */\n      tag_138\n      jump\t// in\n    tag_273:\n        /* \"#utility.yul\":12230:12269   */\n      tag_274\n        /* \"#utility.yul\":12260:12268   */\n      dup7\n        /* \"#utility.yul\":12249:12258   */\n      dup4\n        /* \"#utility.yul\":12230:12269   */\n      tag_138\n      jump\t// in\n    tag_274:\n        /* \"#utility.yul\":12218:12269   */\n      swap6\n      pop\n        /* \"#utility.yul\":12302:12306   */\n      dup1\n        /* \"#utility.yul\":12298:12307   */\n      not\n        /* \"#utility.yul\":12291:12296   */\n      dup5\n        /* \"#utility.yul\":12287:12308   */\n      and\n        /* \"#utility.yul\":12278:12308   */\n      swap4\n      pop\n        /* \"#utility.yul\":12351:12355   */\n      dup1\n        /* \"#utility.yul\":12341:12349   */\n      dup7\n        /* \"#utility.yul\":12337:12356   */\n      and\n        /* \"#utility.yul\":12330:12335   */\n      dup5\n        /* \"#utility.yul\":12327:12357   */\n      or\n        /* \"#utility.yul\":12317:12357   */\n      swap3\n      pop\n        /* \"#utility.yul\":12046:12363   */\n      pop\n      pop\n        /* \"#utility.yul\":11970:12363   */\n      swap4\n      swap3\n      pop\n      pop\n      pop\n      jump\t// out\n        /* \"#utility.yul\":12369:12429   */\n    tag_140:\n        /* \"#utility.yul\":12397:12400   */\n      0x00\n        /* \"#utility.yul\":12418:12423   */\n      dup2\n        /* \"#utility.yul\":12411:12423   */\n      swap1\n      pop\n        /* \"#utility.yul\":12369:12429   */\n      swap2\n      swap1\n      pop\n      jump\t// out\n        /* \"#utility.yul\":12435:12577   */\n    tag_141:\n        /* \"#utility.yul\":12485:12494   */\n      0x00\n        /* \"#utility.yul\":12518:12571   */\n      tag_277\n        /* \"#utility.yul\":12536:12570   */\n      tag_278\n        /* \"#utility.yul\":12545:12569   */\n      tag_279\n        /* \"#utility.yul\":12563:12568   */\n      dup5\n        /* \"#utility.yul\":12545:12569   */\n      tag_108\n      jump\t// in\n    tag_279:\n        /* \"#utility.yul\":12536:12570   */\n      tag_140\n      jump\t// in\n    tag_278:\n        /* \"#utility.yul\":12518:12571   */\n      tag_108\n      jump\t// in\n    tag_277:\n        /* \"#utility.yul\":12505:12571   */\n      swap1\n      pop\n        /* \"#utility.yul\":12435:12577   */\n      swap2\n      swap1\n      pop\n      jump\t// out\n        /* \"#utility.yul\":12583:12658   */\n    tag_142:\n        /* \"#utility.yul\":12626:12629   */\n      0x00\n        /* \"#utility.yul\":12647:12652   */\n      dup2\n        /* \"#utility.yul\":12640:12652   */\n      swap1\n      pop\n        /* \"#utility.yul\":12583:12658   */\n      swap2\n      swap1\n      pop\n      jump\t// out\n        /* \"#utility.yul\":12664:12933   */\n    tag_143:\n        /* \"#utility.yul\":12774:12813   */\n      tag_282\n        /* \"#utility.yul\":12805:12812   */\n      dup4\n        /* \"#utility.yul\":12774:12813   */\n      tag_141\n      jump\t// in\n    tag_282:\n        /* \"#utility.yul\":12835:12926   */\n      tag_283\n        /* \"#utility.yul\":12884:12925   */\n      tag_284\n        /* \"#utility.yul\":12908:12924   */\n      dup3\n        /* \"#utility.yul\":12884:12925   */\n      tag_142\n      jump\t// in\n    tag_284:\n        /* \"#utility.yul\":12876:12882   */\n      dup5\n        /* \"#utility.yul\":12869:12873   */\n      dup5\n        /* \"#utility.yul\":12863:12874   */\n      sload\n        /* \"#utility.yul\":12835:12926   */\n      tag_139\n      jump\t// in\n    tag_283:\n        /* \"#utility.yul\":12829:12833   */\n      dup3\n        /* \"#utility.yul\":12822:12927   */\n      sstore\n        /* \"#utility.yul\":12740:12933   */\n      pop\n        /* \"#utility.yul\":12664:12933   */\n      pop\n      pop\n      pop\n      jump\t// out\n        /* \"#utility.yul\":12939:13012   */\n    tag_144:\n        /* \"#utility.yul\":12984:12987   */\n      0x00\n        /* \"#utility.yul\":12939:13012   */\n      swap1\n      jump\t// out\n        /* \"#utility.yul\":13018:13207   */\n    tag_145:\n        /* \"#utility.yul\":13095:13127   */\n      tag_287\n      tag_144\n      jump\t// in\n    tag_287:\n        /* \"#utility.yul\":13136:13201   */\n      tag_288\n        /* \"#utility.yul\":13194:13200   */\n      dup2\n        /* \"#utility.yul\":13186:13192   */\n      dup5\n        /* \"#utility.yul\":13180:13184   */\n      dup5\n        /* \"#utility.yul\":13136:13201   */\n      tag_143\n      jump\t// in\n    tag_288:\n        /* \"#utility.yul\":13071:13207   */\n      pop\n        /* \"#utility.yul\":13018:13207   */\n      pop\n      pop\n      jump\t// out\n        /* \"#utility.yul\":13213:13399   */\n    tag_146:\n        /* \"#utility.yul\":13273:13393   */\n    tag_290:\n        /* \"#utility.yul\":13290:13293   */\n      dup2\n        /* \"#utility.yul\":13283:13288   */\n      dup2\n        /* \"#utility.yul\":13280:13294   */\n      lt\n        /* \"#utility.yul\":13273:13393   */\n      iszero\n      tag_292\n      jumpi\n        /* \"#utility.yul\":13344:13383   */\n      tag_293\n        /* \"#utility.yul\":13381:13382   */\n      0x00\n        /* \"#utility.yul\":13374:13379   */\n      dup3\n        /* \"#utility.yul\":13344:13383   */\n      tag_145\n      jump\t// in\n    tag_293:\n        /* \"#utility.yul\":13317:13318   */\n      0x01\n        /* \"#utility.yul\":13310:13315   */\n      dup2\n        /* \"#utility.yul\":13306:13319   */\n      add\n        /* \"#utility.yul\":13297:13319   */\n      swap1\n      pop\n        /* \"#utility.yul\":13273:13393   */\n      jump(tag_290)\n    tag_292:\n        /* \"#utility.yul\":13213:13399   */\n      pop\n      pop\n      jump\t// out\n        /* \"#utility.yul\":13405:13948   */\n    tag_147:\n        /* \"#utility.yul\":13506:13508   */\n      0x1f\n        /* \"#utility.yul\":13501:13504   */\n      dup3\n        /* \"#utility.yul\":13498:13509   */\n      gt\n        /* \"#utility.yul\":13495:13941   */\n      iszero\n      tag_295\n      jumpi\n        /* \"#utility.yul\":13540:13578   */\n      tag_296\n        /* \"#utility.yul\":13572:13577   */\n      dup2\n        /* \"#utility.yul\":13540:13578   */\n      tag_136\n      jump\t// in\n    tag_296:\n        /* \"#utility.yul\":13624:13653   */\n      tag_297\n        /* \"#utility.yul\":13642:13652   */\n      dup5\n        /* \"#utility.yul\":13624:13653   */\n      tag_137\n      jump\t// in\n    tag_297:\n        /* \"#utility.yul\":13614:13622   */\n      dup2\n        /* \"#utility.yul\":13610:13654   */\n      add\n        /* \"#utility.yul\":13807:13809   */\n      0x20\n        /* \"#utility.yul\":13795:13805   */\n      dup6\n        /* \"#utility.yul\":13792:13810   */\n      lt\n        /* \"#utility.yul\":13789:13838   */\n      iszero\n      tag_298\n      jumpi\n        /* \"#utility.yul\":13828:13836   */\n      dup2\n        /* \"#utility.yul\":13813:13836   */\n      swap1\n      pop\n        /* \"#utility.yul\":13789:13838   */\n    tag_298:\n        /* \"#utility.yul\":13851:13931   */\n      tag_299\n        /* \"#utility.yul\":13907:13929   */\n      tag_300\n        /* \"#utility.yul\":13925:13928   */\n      dup6\n        /* \"#utility.yul\":13907:13929   */\n      tag_137\n      jump\t// in\n    tag_300:\n        /* \"#utility.yul\":13897:13905   */\n      dup4\n        /* \"#utility.yul\":13893:13930   */\n      add\n        /* \"#utility.yul\":13880:13891   */\n      dup3\n        /* \"#utility.yul\":13851:13931   */\n      tag_146\n      jump\t// in\n    tag_299:\n        /* \"#utility.yul\":13510:13941   */\n      pop\n      pop\n        /* \"#utility.yul\":13495:13941   */\n    tag_295:\n        /* \"#utility.yul\":13405:13948   */\n      pop\n      pop\n      pop\n      jump\t// out\n        /* \"#utility.yul\":13954:14071   */\n    tag_148:\n        /* \"#utility.yul\":14008:14016   */\n      0x00\n        /* \"#utility.yul\":14058:14063   */\n      dup3\n        /* \"#utility.yul\":14052:14056   */\n      dup3\n        /* \"#utility.yul\":14048:14064   */\n      shr\n        /* \"#utility.yul\":14027:14064   */\n      swap1\n      pop\n        /* \"#utility.yul\":13954:14071   */\n      swap3\n      swap2\n      pop\n      pop\n      jump\t// out\n        /* \"#utility.yul\":14077:14246   */\n    tag_149:\n        /* \"#utility.yul\":14121:14127   */\n      0x00\n        /* \"#utility.yul\":14154:14205   */\n      tag_303\n        /* \"#utility.yul\":14202:14203   */\n      0x00\n        /* \"#utility.yul\":14198:14204   */\n      not\n        /* \"#utility.yul\":14190:14195   */\n      dup5\n        /* \"#utility.yul\":14187:14188   */\n      0x08\n        /* \"#utility.yul\":14183:14196   */\n      mul\n        /* \"#utility.yul\":14154:14205   */\n      tag_148\n      jump\t// in\n    tag_303:\n        /* \"#utility.yul\":14150:14206   */\n      not\n        /* \"#utility.yul\":14235:14239   */\n      dup1\n        /* \"#utility.yul\":14229:14233   */\n      dup4\n        /* \"#utility.yul\":14225:14240   */\n      and\n        /* \"#utility.yul\":14215:14240   */\n      swap2\n      pop\n        /* \"#utility.yul\":14128:14246   */\n      pop\n        /* \"#utility.yul\":14077:14246   */\n      swap3\n      swap2\n      pop\n      pop\n      jump\t// out\n        /* \"#utility.yul\":14251:14546   */\n    tag_150:\n        /* \"#utility.yul\":14327:14331   */\n      0x00\n        /* \"#utility.yul\":14473:14502   */\n      tag_305\n        /* \"#utility.yul\":14498:14501   */\n      dup4\n        /* \"#utility.yul\":14492:14496   */\n      dup4\n        /* \"#utility.yul\":14473:14502   */\n      tag_149\n      jump\t// in\n    tag_305:\n        /* \"#utility.yul\":14465:14502   */\n      swap2\n      pop\n        /* \"#utility.yul\":14535:14538   */\n      dup3\n        /* \"#utility.yul\":14532:14533   */\n      0x02\n        /* \"#utility.yul\":14528:14539   */\n      mul\n        /* \"#utility.yul\":14522:14526   */\n      dup3\n        /* \"#utility.yul\":14519:14540   */\n      or\n        /* \"#utility.yul\":14511:14540   */\n      swap1\n      pop\n        /* \"#utility.yul\":14251:14546   */\n      swap3\n      swap2\n      pop\n      pop\n      jump\t// out\n        /* \"#utility.yul\":14551:15946   */\n    tag_96:\n        /* \"#utility.yul\":14668:14705   */\n      tag_307\n        /* \"#utility.yul\":14701:14704   */\n      dup3\n        /* \"#utility.yul\":14668:14705   */\n      tag_117\n      jump\t// in\n    tag_307:\n        /* \"#utility.yul\":14770:14788   */\n      0xffffffffffffffff\n        /* \"#utility.yul\":14762:14768   */\n      dup2\n        /* \"#utility.yul\":14759:14789   */\n      gt\n        /* \"#utility.yul\":14756:14812   */\n      iszero\n      tag_308\n      jumpi\n        /* \"#utility.yul\":14792:14810   */\n      tag_309\n      tag_126\n      jump\t// in\n    tag_309:\n        /* \"#utility.yul\":14756:14812   */\n    tag_308:\n        /* \"#utility.yul\":14836:14874   */\n      tag_310\n        /* \"#utility.yul\":14868:14872   */\n      dup3\n        /* \"#utility.yul\":14862:14873   */\n      sload\n        /* \"#utility.yul\":14836:14874   */\n      tag_50\n      jump\t// in\n    tag_310:\n        /* \"#utility.yul\":14921:14988   */\n      tag_311\n        /* \"#utility.yul\":14981:14987   */\n      dup3\n        /* \"#utility.yul\":14973:14979   */\n      dup3\n        /* \"#utility.yul\":14967:14971   */\n      dup6\n        /* \"#utility.yul\":14921:14988   */\n      tag_147\n      jump\t// in\n    tag_311:\n        /* \"#utility.yul\":15015:15016   */\n      0x00\n        /* \"#utility.yul\":15039:15043   */\n      0x20\n        /* \"#utility.yul\":15026:15043   */\n      swap1\n      pop\n        /* \"#utility.yul\":15071:15073   */\n      0x1f\n        /* \"#utility.yul\":15063:15069   */\n      dup4\n        /* \"#utility.yul\":15060:15074   */\n      gt\n        /* \"#utility.yul\":15088:15089   */\n      0x01\n        /* \"#utility.yul\":15083:15701   */\n      dup2\n      eq\n      tag_313\n      jumpi\n        /* \"#utility.yul\":15745:15746   */\n      0x00\n        /* \"#utility.yul\":15762:15768   */\n      dup5\n        /* \"#utility.yul\":15759:15836   */\n      iszero\n      tag_314\n      jumpi\n        /* \"#utility.yul\":15811:15820   */\n      dup3\n        /* \"#utility.yul\":15806:15809   */\n      dup8\n        /* \"#utility.yul\":15802:15821   */\n      add\n        /* \"#utility.yul\":15796:15822   */\n      mload\n        /* \"#utility.yul\":15787:15822   */\n      swap1\n      pop\n        /* \"#utility.yul\":15759:15836   */\n    tag_314:\n        /* \"#utility.yul\":15862:15929   */\n      tag_315\n        /* \"#utility.yul\":15922:15928   */\n      dup6\n        /* \"#utility.yul\":15915:15920   */\n      dup3\n        /* \"#utility.yul\":15862:15929   */\n      tag_150\n      jump\t// in\n    tag_315:\n        /* \"#utility.yul\":15856:15860   */\n      dup7\n        /* \"#utility.yul\":15849:15930   */\n      sstore\n        /* \"#utility.yul\":15718:15940   */\n      pop\n        /* \"#utility.yul\":15053:15940   */\n      jump(tag_312)\n        /* \"#utility.yul\":15083:15701   */\n    tag_313:\n        /* \"#utility.yul\":15135:15139   */\n      0x1f\n        /* \"#utility.yul\":15131:15140   */\n      not\n        /* \"#utility.yul\":15123:15129   */\n      dup5\n        /* \"#utility.yul\":15119:15141   */\n      and\n        /* \"#utility.yul\":15169:15206   */\n      tag_316\n        /* \"#utility.yul\":15201:15205   */\n      dup7\n        /* \"#utility.yul\":15169:15206   */\n      tag_136\n      jump\t// in\n    tag_316:\n        /* \"#utility.yul\":15228:15229   */\n      0x00\n        /* \"#utility.yul\":15242:15450   */\n    tag_317:\n        /* \"#utility.yul\":15256:15263   */\n      dup3\n        /* \"#utility.yul\":15253:15254   */\n      dup2\n        /* \"#utility.yul\":15250:15264   */\n      lt\n        /* \"#utility.yul\":15242:15450   */\n      iszero\n      tag_319\n      jumpi\n        /* \"#utility.yul\":15335:15344   */\n      dup5\n        /* \"#utility.yul\":15330:15333   */\n      dup10\n        /* \"#utility.yul\":15326:15345   */\n      add\n        /* \"#utility.yul\":15320:15346   */\n      mload\n        /* \"#utility.yul\":15312:15318   */\n      dup3\n        /* \"#utility.yul\":15305:15347   */\n      sstore\n        /* \"#utility.yul\":15386:15387   */\n      0x01\n        /* \"#utility.yul\":15378:15384   */\n      dup3\n        /* \"#utility.yul\":15374:15388   */\n      add\n        /* \"#utility.yul\":15364:15388   */\n      swap2\n      pop\n        /* \"#utility.yul\":15433:15435   */\n      0x20\n        /* \"#utility.yul\":15422:15431   */\n      dup6\n        /* \"#utility.yul\":15418:15436   */\n      add\n        /* \"#utility.yul\":15405:15436   */\n      swap5\n      pop\n        /* \"#utility.yul\":15279:15283   */\n      0x20\n        /* \"#utility.yul\":15276:15277   */\n      dup2\n        /* \"#utility.yul\":15272:15284   */\n      add\n        /* \"#utility.yul\":15267:15284   */\n      swap1\n      pop\n        /* \"#utility.yul\":15242:15450   */\n      jump(tag_317)\n    tag_319:\n        /* \"#utility.yul\":15478:15484   */\n      dup7\n        /* \"#utility.yul\":15469:15476   */\n      dup4\n        /* \"#utility.yul\":15466:15485   */\n      lt\n        /* \"#utility.yul\":15463:15642   */\n      iszero\n      tag_320\n      jumpi\n        /* \"#utility.yul\":15536:15545   */\n      dup5\n        /* \"#utility.yul\":15531:15534   */\n      dup10\n        /* \"#utility.yul\":15527:15546   */\n      add\n        /* \"#utility.yul\":15521:15547   */\n      mload\n        /* \"#utility.yul\":15579:15627   */\n      tag_321\n        /* \"#utility.yul\":15621:15625   */\n      0x1f\n        /* \"#utility.yul\":15613:15619   */\n      dup10\n        /* \"#utility.yul\":15609:15626   */\n      and\n        /* \"#utility.yul\":15598:15607   */\n      dup3\n        /* \"#utility.yul\":15579:15627   */\n      tag_149\n      jump\t// in\n    tag_321:\n        /* \"#utility.yul\":15571:15577   */\n      dup4\n        /* \"#utility.yul\":15564:15628   */\n      sstore\n        /* \"#utility.yul\":15486:15642   */\n      pop\n        /* \"#utility.yul\":15463:15642   */\n    tag_320:\n        /* \"#utility.yul\":15688:15689   */\n      0x01\n        /* \"#utility.yul\":15684:15685   */\n      0x02\n        /* \"#utility.yul\":15676:15682   */\n      dup9\n        /* \"#utility.yul\":15672:15686   */\n      mul\n        /* \"#utility.yul\":15668:15690   */\n      add\n        /* \"#utility.yul\":15662:15666   */\n      dup9\n        /* \"#utility.yul\":15655:15691   */\n      sstore\n        /* \"#utility.yul\":15090:15701   */\n      pop\n      pop\n      pop\n        /* \"#utility.yul\":15053:15940   */\n    tag_312:\n      pop\n        /* \"#utility.yul\":14643:15946   */\n      pop\n      pop\n      pop\n        /* \"#utility.yul\":14551:15946   */\n      pop\n      pop\n      jump\t// out\n        /* \"#utility.yul\":15952:17091   */\n    tag_102:\n        /* \"#utility.yul\":16265:16269   */\n      0x00\n        /* \"#utility.yul\":16303:16306   */\n      0xc0\n        /* \"#utility.yul\":16292:16301   */\n      dup3\n        /* \"#utility.yul\":16288:16307   */\n      add\n        /* \"#utility.yul\":16280:16307   */\n      swap1\n      pop\n        /* \"#utility.yul\":16353:16362   */\n      dup2\n        /* \"#utility.yul\":16347:16351   */\n      dup2\n        /* \"#utility.yul\":16343:16363   */\n      sub\n        /* \"#utility.yul\":16339:16340   */\n      0x00\n        /* \"#utility.yul\":16328:16337   */\n      dup4\n        /* \"#utility.yul\":16324:16341   */\n      add\n        /* \"#utility.yul\":16317:16364   */\n      mstore\n        /* \"#utility.yul\":16381:16459   */\n      tag_323\n        /* \"#utility.yul\":16454:16458   */\n      dup2\n        /* \"#utility.yul\":16445:16451   */\n      dup10\n        /* \"#utility.yul\":16381:16459   */\n      tag_121\n      jump\t// in\n    tag_323:\n        /* \"#utility.yul\":16373:16459   */\n      swap1\n      pop\n        /* \"#utility.yul\":16506:16515   */\n      dup2\n        /* \"#utility.yul\":16500:16504   */\n      dup2\n        /* \"#utility.yul\":16496:16516   */\n      sub\n        /* \"#utility.yul\":16491:16493   */\n      0x20\n        /* \"#utility.yul\":16480:16489   */\n      dup4\n        /* \"#utility.yul\":16476:16494   */\n      add\n        /* \"#utility.yul\":16469:16517   */\n      mstore\n        /* \"#utility.yul\":16534:16612   */\n      tag_324\n        /* \"#utility.yul\":16607:16611   */\n      dup2\n        /* \"#utility.yul\":16598:16604   */\n      dup9\n        /* \"#utility.yul\":16534:16612   */\n      tag_121\n      jump\t// in\n    tag_324:\n        /* \"#utility.yul\":16526:16612   */\n      swap1\n      pop\n        /* \"#utility.yul\":16659:16668   */\n      dup2\n        /* \"#utility.yul\":16653:16657   */\n      dup2\n        /* \"#utility.yul\":16649:16669   */\n      sub\n        /* \"#utility.yul\":16644:16646   */\n      0x40\n        /* \"#utility.yul\":16633:16642   */\n      dup4\n        /* \"#utility.yul\":16629:16647   */\n      add\n        /* \"#utility.yul\":16622:16670   */\n      mstore\n        /* \"#utility.yul\":16687:16765   */\n      tag_325\n        /* \"#utility.yul\":16760:16764   */\n      dup2\n        /* \"#utility.yul\":16751:16757   */\n      dup8\n        /* \"#utility.yul\":16687:16765   */\n      tag_121\n      jump\t// in\n    tag_325:\n        /* \"#utility.yul\":16679:16765   */\n      swap1\n      pop\n        /* \"#utility.yul\":16775:16847   */\n      tag_326\n        /* \"#utility.yul\":16843:16845   */\n      0x60\n        /* \"#utility.yul\":16832:16841   */\n      dup4\n        /* \"#utility.yul\":16828:16846   */\n      add\n        /* \"#utility.yul\":16819:16825   */\n      dup7\n        /* \"#utility.yul\":16775:16847   */\n      tag_109\n      jump\t// in\n    tag_326:\n        /* \"#utility.yul\":16857:16930   */\n      tag_327\n        /* \"#utility.yul\":16925:16928   */\n      0x80\n        /* \"#utility.yul\":16914:16923   */\n      dup4\n        /* \"#utility.yul\":16910:16929   */\n      add\n        /* \"#utility.yul\":16901:16907   */\n      dup6\n        /* \"#utility.yul\":16857:16930   */\n      tag_107\n      jump\t// in\n    tag_327:\n        /* \"#utility.yul\":16978:16987   */\n      dup2\n        /* \"#utility.yul\":16972:16976   */\n      dup2\n        /* \"#utility.yul\":16968:16988   */\n      sub\n        /* \"#utility.yul\":16962:16965   */\n      0xa0\n        /* \"#utility.yul\":16951:16960   */\n      dup4\n        /* \"#utility.yul\":16947:16966   */\n      add\n        /* \"#utility.yul\":16940:16989   */\n      mstore\n        /* \"#utility.yul\":17006:17084   */\n      tag_328\n        /* \"#utility.yul\":17079:17083   */\n      dup2\n        /* \"#utility.yul\":17070:17076   */\n      dup5\n        /* \"#utility.yul\":17006:17084   */\n      tag_121\n      jump\t// in\n    tag_328:\n        /* \"#utility.yul\":16998:17084   */\n      swap1\n      pop\n        /* \"#utility.yul\":15952:17091   */\n      swap8\n      swap7\n      pop\n      pop\n      pop\n      pop\n      pop\n      pop\n      pop\n      jump\t// out\n\n    auxdata: 0xa2646970667358221220f0db83861c6b6a66a98940379a8b2a565836a1dff60a30a06ad1c9988166ec1b64736f6c63430008120033\n}\n",
				"bytecode": {
					"linkReferences": {},
					"object": "608060405234801561001057600080fd5b5033600260006101000a81548173ffffffffffffffffffffffffffffffffffffffff021916908373ffffffffffffffffffffffffffffffffffffffff1602179055506112dc806100616000396000f3fe608060405234801561001057600080fd5b50600436106100885760003560e01c8063908fdecd1161005b578063908fdecd1461012f578063a3ec138d1461015f578063b404031314610196578063c91ec712146101b457610088565b80635cc48aa71461008d57806364f1832e146100ab5780637831ffb3146100c95780638ab66a90146100f9575b600080fd5b6100956101d0565b6040516100a291906109bb565b60405180910390f35b6100b36101f6565b6040516100c091906109ef565b60405180910390f35b6100e360048036038101906100de9190610a4a565b610202565b6040516100f091906109bb565b60405180910390f35b610113600480360381019061010e9190610aa3565b610241565b6040516101269796959493929190610b60565b60405180910390f35b61014960048036038101906101449190610a4a565b6104c3565b60405161015691906109bb565b60405180910390f35b61017960048036038101906101749190610aa3565b610502565b60405161018d989796959493929190610c06565b60405180910390f35b61019e61070f565b6040516101ab91906109ef565b60405180910390f35b6101ce60048036038101906101c99190610dce565b61071b565b005b600260009054906101000a900473ffffffffffffffffffffffffffffffffffffffff1681565b60018060000154905081565b6005818154811061021257600080fd5b906000526020600020016000915054906101000a900473ffffffffffffffffffffffffffffffffffffffff1681565b600460205280600052604060002060009150905080600001549080600101805461026a90610ee8565b80601f016020809104026020016040519081016040528092919081815260200182805461029690610ee8565b80156102e35780601f106102b8576101008083540402835291602001916102e3565b820191906000526020600020905b8154815290600101906020018083116102c657829003601f168201915b5050505050908060020180546102f890610ee8565b80601f016020809104026020016040519081016040528092919081815260200182805461032490610ee8565b80156103715780601f1061034657610100808354040283529160200191610371565b820191906000526020600020905b81548152906001019060200180831161035457829003601f168201915b50505050509080600301805461038690610ee8565b80601f01602080910402602001604051908101604052809291908181526020018280546103b290610ee8565b80156103ff5780601f106103d4576101008083540402835291602001916103ff565b820191906000526020600020905b8154815290600101906020018083116103e257829003601f168201915b5050505050908060040154908060050160009054906101000a900473ffffffffffffffffffffffffffffffffffffffff169080600601805461044090610ee8565b80601f016020809104026020016040519081016040528092919081815260200182805461046c90610ee8565b80156104b95780601f1061048e576101008083540402835291602001916104b9565b820191906000526020600020905b81548152906001019060200180831161049c57829003601f168201915b5050505050905087565b600381815481106104d357600080fd5b906000526020600020016000915054906101000a900473ffffffffffffffffffffffffffffffffffffffff1681565b600660205280600052604060002060009150905080600001549080600101805461052b90610ee8565b80601f016020809104026020016040519081016040528092919081815260200182805461055790610ee8565b80156105a45780601f10610579576101008083540402835291602001916105a4565b820191906000526020600020905b81548152906001019060200180831161058757829003601f168201915b5050505050908060020180546105b990610ee8565b80601f01602080910402602001604051908101604052809291908181526020018280546105e590610ee8565b80156106325780601f1061060757610100808354040283529160200191610632565b820191906000526020600020905b81548152906001019060200180831161061557829003601f168201915b5050505050908060030160009054906101000a900473ffffffffffffffffffffffffffffffffffffffff16908060040154908060050160009054906101000a900460ff169080600601549080600701805461068c90610ee8565b80601f01602080910402602001604051908101604052809291908181526020018280546106b890610ee8565b80156107055780601f106106da57610100808354040283529160200191610705565b820191906000526020600020905b8154815290600101906020018083116106e857829003601f168201915b5050505050905088565b60008060000154905081565b3373ffffffffffffffffffffffffffffffffffffffff16600260009054906101000a900473ffffffffffffffffffffffffffffffffffffffff1673ffffffffffffffffffffffffffffffffffffffff16146107ab576040517f08c379a00000000000000000000000000000000000000000000000000000000081526004016107a290610f8b565b60405180910390fd5b6107b56001610956565b60006107c1600161096c565b90506000600460008873ffffffffffffffffffffffffffffffffffffffff1673ffffffffffffffffffffffffffffffffffffffff1681526020019081526020016000209050858160010190816108179190611157565b50848160020190816108299190611157565b50818160000181905550838160030190816108449190611157565b5060008160040181905550868160050160006101000a81548173ffffffffffffffffffffffffffffffffffffffff021916908373ffffffffffffffffffffffffffffffffffffffff160217905550828160060190816108a39190611157565b506003879080600181540180825580915050600190039060005260206000200160009091909190916101000a81548173ffffffffffffffffffffffffffffffffffffffff021916908373ffffffffffffffffffffffffffffffffffffffff160217905550817fd297f12b256bb8485a6013fb5e302017018123e99a0ebb20756c09e1707b4b9087878785600401548c8960405161094596959493929190611229565b60405180910390a250505050505050565b6001816000016000828254019250508190555050565b600081600001549050919050565b600073ffffffffffffffffffffffffffffffffffffffff82169050919050565b60006109a58261097a565b9050919050565b6109b58161099a565b82525050565b60006020820190506109d060008301846109ac565b92915050565b6000819050919050565b6109e9816109d6565b82525050565b6000602082019050610a0460008301846109e0565b92915050565b6000604051905090565b600080fd5b600080fd5b610a27816109d6565b8114610a3257600080fd5b50565b600081359050610a4481610a1e565b92915050565b600060208284031215610a6057610a5f610a14565b5b6000610a6e84828501610a35565b91505092915050565b610a808161099a565b8114610a8b57600080fd5b50565b600081359050610a9d81610a77565b92915050565b600060208284031215610ab957610ab8610a14565b5b6000610ac784828501610a8e565b91505092915050565b600081519050919050565b600082825260208201905092915050565b60005b83811015610b0a578082015181840152602081019050610aef565b60008484015250505050565b6000601f19601f8301169050919050565b6000610b3282610ad0565b610b3c8185610adb565b9350610b4c818560208601610aec565b610b5581610b16565b840191505092915050565b600060e082019050610b75600083018a6109e0565b8181036020830152610b878189610b27565b90508181036040830152610b9b8188610b27565b90508181036060830152610baf8187610b27565b9050610bbe60808301866109e0565b610bcb60a08301856109ac565b81810360c0830152610bdd8184610b27565b905098975050505050505050565b60008115159050919050565b610c0081610beb565b82525050565b600061010082019050610c1c600083018b6109e0565b8181036020830152610c2e818a610b27565b90508181036040830152610c428189610b27565b9050610c5160608301886109ac565b610c5e60808301876109e0565b610c6b60a0830186610bf7565b610c7860c08301856109e0565b81810360e0830152610c8a8184610b27565b90509998505050505050505050565b600080fd5b600080fd5b7f4e487b7100000000000000000000000000000000000000000000000000000000600052604160045260246000fd5b610cdb82610b16565b810181811067ffffffffffffffff82111715610cfa57610cf9610ca3565b5b80604052505050565b6000610d0d610a0a565b9050610d198282610cd2565b919050565b600067ffffffffffffffff821115610d3957610d38610ca3565b5b610d4282610b16565b9050602081019050919050565b82818337600083830152505050565b6000610d71610d6c84610d1e565b610d03565b905082815260208101848484011115610d8d57610d8c610c9e565b5b610d98848285610d4f565b509392505050565b600082601f830112610db557610db4610c99565b5b8135610dc5848260208601610d5e565b91505092915050565b600080600080600060a08688031215610dea57610de9610a14565b5b6000610df888828901610a8e565b955050602086013567ffffffffffffffff811115610e1957610e18610a19565b5b610e2588828901610da0565b945050604086013567ffffffffffffffff811115610e4657610e45610a19565b5b610e5288828901610da0565b935050606086013567ffffffffffffffff811115610e7357610e72610a19565b5b610e7f88828901610da0565b925050608086013567ffffffffffffffff811115610ea057610e9f610a19565b5b610eac88828901610da0565b9150509295509295909350565b7f4e487b7100000000000000000000000000000000000000000000000000000000600052602260045260246000fd5b60006002820490506001821680610f0057607f821691505b602082108103610f1357610f12610eb9565b5b50919050565b7f4f6e6c79206f7267616e697a65722063616e20616464206e65772063616e646960008201527f6461746500000000000000000000000000000000000000000000000000000000602082015250565b6000610f75602483610adb565b9150610f8082610f19565b604082019050919050565b60006020820190508181036000830152610fa481610f68565b9050919050565b60008190508160005260206000209050919050565b60006020601f8301049050919050565b600082821b905092915050565b60006008830261100d7fffffffffffffffffffffffffffffffffffffffffffffffffffffffffffffffff82610fd0565b6110178683610fd0565b95508019841693508086168417925050509392505050565b6000819050919050565b600061105461104f61104a846109d6565b61102f565b6109d6565b9050919050565b6000819050919050565b61106e83611039565b61108261107a8261105b565b848454610fdd565b825550505050565b600090565b61109761108a565b6110a2818484611065565b505050565b5b818110156110c6576110bb60008261108f565b6001810190506110a8565b5050565b601f82111561110b576110dc81610fab565b6110e584610fc0565b810160208510156110f4578190505b61110861110085610fc0565b8301826110a7565b50505b505050565b600082821c905092915050565b600061112e60001984600802611110565b1980831691505092915050565b6000611147838361111d565b9150826002028217905092915050565b61116082610ad0565b67ffffffffffffffff81111561117957611178610ca3565b5b6111838254610ee8565b61118e8282856110ca565b600060209050601f8311600181146111c157600084156111af578287015190505b6111b9858261113b565b865550611221565b601f1984166111cf86610fab565b60005b828110156111f7578489015182556001820191506020850194506020810190506111d2565b868310156112145784890151611210601f89168261111d565b8355505b6001600288020188555050505b505050505050565b600060c08201905081810360008301526112438189610b27565b905081810360208301526112578188610b27565b9050818103604083015261126b8187610b27565b905061127a60608301866109e0565b61128760808301856109ac565b81810360a08301526112998184610b27565b905097965050505050505056fea2646970667358221220f0db83861c6b6a66a98940379a8b2a565836a1dff60a30a06ad1c9988166ec1b64736f6c63430008120033",
					"opcodes": "PUSH1 0x80 PUSH1 0x40 MSTORE CALLVALUE DUP1 ISZERO PUSH2 0x10 JUMPI PUSH1 0x0 DUP1 REVERT JUMPDEST POP CALLER PUSH1 0x2 PUSH1 0x0 PUSH2 0x100 EXP DUP2 SLOAD DUP2 PUSH20 0xFFFFFFFFFFFFFFFFFFFFFFFFFFFFFFFFFFFFFFFF MUL NOT AND SWAP1 DUP4 PUSH20 0xFFFFFFFFFFFFFFFFFFFFFFFFFFFFFFFFFFFFFFFF AND MUL OR SWAP1 SSTORE POP PUSH2 0x12DC DUP1 PUSH2 0x61 PUSH1 0x0 CODECOPY PUSH1 0x0 RETURN INVALID PUSH1 0x80 PUSH1 0x40 MSTORE CALLVALUE DUP1 ISZERO PUSH2 0x10 JUMPI PUSH1 0x0 DUP1 REVERT JUMPDEST POP PUSH1 0x4 CALLDATASIZE LT PUSH2 0x88 JUMPI PUSH1 0x0 CALLDATALOAD PUSH1 0xE0 SHR DUP1 PUSH4 0x908FDECD GT PUSH2 0x5B JUMPI DUP1 PUSH4 0x908FDECD EQ PUSH2 0x12F JUMPI DUP1 PUSH4 0xA3EC138D EQ PUSH2 0x15F JUMPI DUP1 PUSH4 0xB4040313 EQ PUSH2 0x196 JUMPI DUP1 PUSH4 0xC91EC712 EQ PUSH2 0x1B4 JUMPI PUSH2 0x88 JUMP JUMPDEST DUP1 PUSH4 0x5CC48AA7 EQ PUSH2 0x8D JUMPI DUP1 PUSH4 0x64F1832E EQ PUSH2 0xAB JUMPI DUP1 PUSH4 0x7831FFB3 EQ PUSH2 0xC9 JUMPI DUP1 PUSH4 0x8AB66A90 EQ PUSH2 0xF9 JUMPI JUMPDEST PUSH1 0x0 DUP1 REVERT JUMPDEST PUSH2 0x95 PUSH2 0x1D0 JUMP JUMPDEST PUSH1 0x40 MLOAD PUSH2 0xA2 SWAP2 SWAP1 PUSH2 0x9BB JUMP JUMPDEST PUSH1 0x40 MLOAD DUP1 SWAP2 SUB SWAP1 RETURN JUMPDEST PUSH2 0xB3 PUSH2 0x1F6 JUMP JUMPDEST PUSH1 0x40 MLOAD PUSH2 0xC0 SWAP2 SWAP1 PUSH2 0x9EF JUMP JUMPDEST PUSH1 0x40 MLOAD DUP1 SWAP2 SUB SWAP1 RETURN JUMPDEST PUSH2 0xE3 PUSH1 0x4 DUP1 CALLDATASIZE SUB DUP2 ADD SWAP1 PUSH2 0xDE SWAP2 SWAP1 PUSH2 0xA4A JUMP JUMPDEST PUSH2 0x202 JUMP JUMPDEST PUSH1 0x40 MLOAD PUSH2 0xF0 SWAP2 SWAP1 PUSH2 0x9BB JUMP JUMPDEST PUSH1 0x40 MLOAD DUP1 SWAP2 SUB SWAP1 RETURN JUMPDEST PUSH2 0x113 PUSH1 0x4 DUP1 CALLDATASIZE SUB DUP2 ADD SWAP1 PUSH2 0x10E SWAP2 SWAP1 PUSH2 0xAA3 JUMP JUMPDEST PUSH2 0x241 JUMP JUMPDEST PUSH1 0x40 MLOAD PUSH2 0x126 SWAP8 SWAP7 SWAP6 SWAP5 SWAP4 SWAP3 SWAP2 SWAP1 PUSH2 0xB60 JUMP JUMPDEST PUSH1 0x40 MLOAD DUP1 SWAP2 SUB SWAP1 RETURN JUMPDEST PUSH2 0x149 PUSH1 0x4 DUP1 CALLDATASIZE SUB DUP2 ADD SWAP1 PUSH2 0x144 SWAP2 SWAP1 PUSH2 0xA4A JUMP JUMPDEST PUSH2 0x4C3 JUMP JUMPDEST PUSH1 0x40 MLOAD PUSH2 0x156 SWAP2 SWAP1 PUSH2 0x9BB JUMP JUMPDEST PUSH1 0x40 MLOAD DUP1 SWAP2 SUB SWAP1 RETURN JUMPDEST PUSH2 0x179 PUSH1 0x4 DUP1 CALLDATASIZE SUB DUP2 ADD SWAP1 PUSH2 0x174 SWAP2 SWAP1 PUSH2 0xAA3 JUMP JUMPDEST PUSH2 0x502 JUMP JUMPDEST PUSH1 0x40 MLOAD PUSH2 0x18D SWAP9 SWAP8 SWAP7 SWAP6 SWAP5 SWAP4 SWAP3 SWAP2 SWAP1 PUSH2 0xC06 JUMP JUMPDEST PUSH1 0x40 MLOAD DUP1 SWAP2 SUB SWAP1 RETURN JUMPDEST PUSH2 0x19E PUSH2 0x70F JUMP JUMPDEST PUSH1 0x40 MLOAD PUSH2 0x1AB SWAP2 SWAP1 PUSH2 0x9EF JUMP JUMPDEST PUSH1 0x40 MLOAD DUP1 SWAP2 SUB SWAP1 RETURN JUMPDEST PUSH2 0x1CE PUSH1 0x4 DUP1 CALLDATASIZE SUB DUP2 ADD SWAP1 PUSH2 0x1C9 SWAP2 SWAP1 PUSH2 0xDCE JUMP JUMPDEST PUSH2 0x71B JUMP JUMPDEST STOP JUMPDEST PUSH1 0x2 PUSH1 0x0 SWAP1 SLOAD SWAP1 PUSH2 0x100 EXP SWAP1 DIV PUSH20 0xFFFFFFFFFFFFFFFFFFFFFFFFFFFFFFFFFFFFFFFF AND DUP2 JUMP JUMPDEST PUSH1 0x1 DUP1 PUSH1 0x0 ADD SLOAD SWAP1 POP DUP2 JUMP JUMPDEST PUSH1 0x5 DUP2 DUP2 SLOAD DUP2 LT PUSH2 0x212 JUMPI PUSH1 0x0 DUP1 REVERT JUMPDEST SWAP1 PUSH1 0x0 MSTORE PUSH1 0x20 PUSH1 0x0 KECCAK256 ADD PUSH1 0x0 SWAP2 POP SLOAD SWAP1 PUSH2 0x100 EXP SWAP1 DIV PUSH20 0xFFFFFFFFFFFFFFFFFFFFFFFFFFFFFFFFFFFFFFFF AND DUP2 JUMP JUMPDEST PUSH1 0x4 PUSH1 0x20 MSTORE DUP1 PUSH1 0x0 MSTORE PUSH1 0x40 PUSH1 0x0 KECCAK256 PUSH1 0x0 SWAP2 POP SWAP1 POP DUP1 PUSH1 0x0 ADD SLOAD SWAP1 DUP1 PUSH1 0x1 ADD DUP1 SLOAD PUSH2 0x26A SWAP1 PUSH2 0xEE8 JUMP JUMPDEST DUP1 PUSH1 0x1F ADD PUSH1 0x20 DUP1 SWAP2 DIV MUL PUSH1 0x20 ADD PUSH1 0x40 MLOAD SWAP1 DUP2 ADD PUSH1 0x40 MSTORE DUP1 SWAP3 SWAP2 SWAP1 DUP2 DUP2 MSTORE PUSH1 0x20 ADD DUP3 DUP1 SLOAD PUSH2 0x296 SWAP1 PUSH2 0xEE8 JUMP JUMPDEST DUP1 ISZERO PUSH2 0x2E3 JUMPI DUP1 PUSH1 0x1F LT PUSH2 0x2B8 JUMPI PUSH2 0x100 DUP1 DUP4 SLOAD DIV MUL DUP4 MSTORE SWAP2 PUSH1 0x20 ADD SWAP2 PUSH2 0x2E3 JUMP JUMPDEST DUP3 ADD SWAP2 SWAP1 PUSH1 0x0 MSTORE PUSH1 0x20 PUSH1 0x0 KECCAK256 SWAP1 JUMPDEST DUP2 SLOAD DUP2 MSTORE SWAP1 PUSH1 0x1 ADD SWAP1 PUSH1 0x20 ADD DUP1 DUP4 GT PUSH2 0x2C6 JUMPI DUP3 SWAP1 SUB PUSH1 0x1F AND DUP3 ADD SWAP2 JUMPDEST POP POP POP POP POP SWAP1 DUP1 PUSH1 0x2 ADD DUP1 SLOAD PUSH2 0x2F8 SWAP1 PUSH2 0xEE8 JUMP JUMPDEST DUP1 PUSH1 0x1F ADD PUSH1 0x20 DUP1 SWAP2 DIV MUL PUSH1 0x20 ADD PUSH1 0x40 MLOAD SWAP1 DUP2 ADD PUSH1 0x40 MSTORE DUP1 SWAP3 SWAP2 SWAP1 DUP2 DUP2 MSTORE PUSH1 0x20 ADD DUP3 DUP1 SLOAD PUSH2 0x324 SWAP1 PUSH2 0xEE8 JUMP JUMPDEST DUP1 ISZERO PUSH2 0x371 JUMPI DUP1 PUSH1 0x1F LT PUSH2 0x346 JUMPI PUSH2 0x100 DUP1 DUP4 SLOAD DIV MUL DUP4 MSTORE SWAP2 PUSH1 0x20 ADD SWAP2 PUSH2 0x371 JUMP JUMPDEST DUP3 ADD SWAP2 SWAP1 PUSH1 0x0 MSTORE PUSH1 0x20 PUSH1 0x0 KECCAK256 SWAP1 JUMPDEST DUP2 SLOAD DUP2 MSTORE SWAP1 PUSH1 0x1 ADD SWAP1 PUSH1 0x20 ADD DUP1 DUP4 GT PUSH2 0x354 JUMPI DUP3 SWAP1 SUB PUSH1 0x1F AND DUP3 ADD SWAP2 JUMPDEST POP POP POP POP POP SWAP1 DUP1 PUSH1 0x3 ADD DUP1 SLOAD PUSH2 0x386 SWAP1 PUSH2 0xEE8 JUMP JUMPDEST DUP1 PUSH1 0x1F ADD PUSH1 0x20 DUP1 SWAP2 DIV MUL PUSH1 0x20 ADD PUSH1 0x40 MLOAD SWAP1 DUP2 ADD PUSH1 0x40 MSTORE DUP1 SWAP3 SWAP2 SWAP1 DUP2 DUP2 MSTORE PUSH1 0x20 ADD DUP3 DUP1 SLOAD PUSH2 0x3B2 SWAP1 PUSH2 0xEE8 JUMP JUMPDEST DUP1 ISZERO PUSH2 0x3FF JUMPI DUP1 PUSH1 0x1F LT PUSH2 0x3D4 JUMPI PUSH2 0x100 DUP1 DUP4 SLOAD DIV MUL DUP4 MSTORE SWAP2 PUSH1 0x20 ADD SWAP2 PUSH2 0x3FF JUMP JUMPDEST DUP3 ADD SWAP2 SWAP1 PUSH1 0x0 MSTORE PUSH1 0x20 PUSH1 0x0 KECCAK256 SWAP1 JUMPDEST DUP2 SLOAD DUP2 MSTORE SWAP1 PUSH1 0x1 ADD SWAP1 PUSH1 0x20 ADD DUP1 DUP4 GT PUSH2 0x3E2 JUMPI DUP3 SWAP1 SUB PUSH1 0x1F AND DUP3 ADD SWAP2 JUMPDEST POP POP POP POP POP SWAP1 DUP1 PUSH1 0x4 ADD SLOAD SWAP1 DUP1 PUSH1 0x5 ADD PUSH1 0x0 SWAP1 SLOAD SWAP1 PUSH2 0x100 EXP SWAP1 DIV PUSH20 0xFFFFFFFFFFFFFFFFFFFFFFFFFFFFFFFFFFFFFFFF AND SWAP1 DUP1 PUSH1 0x6 ADD DUP1 SLOAD PUSH2 0x440 SWAP1 PUSH2 0xEE8 JUMP JUMPDEST DUP1 PUSH1 0x1F ADD PUSH1 0x20 DUP1 SWAP2 DIV MUL PUSH1 0x20 ADD PUSH1 0x40 MLOAD SWAP1 DUP2 ADD PUSH1 0x40 MSTORE DUP1 SWAP3 SWAP2 SWAP1 DUP2 DUP2 MSTORE PUSH1 0x20 ADD DUP3 DUP1 SLOAD PUSH2 0x46C SWAP1 PUSH2 0xEE8 JUMP JUMPDEST DUP1 ISZERO PUSH2 0x4B9 JUMPI DUP1 PUSH1 0x1F LT PUSH2 0x48E JUMPI PUSH2 0x100 DUP1 DUP4 SLOAD DIV MUL DUP4 MSTORE SWAP2 PUSH1 0x20 ADD SWAP2 PUSH2 0x4B9 JUMP JUMPDEST DUP3 ADD SWAP2 SWAP1 PUSH1 0x0 MSTORE PUSH1 0x20 PUSH1 0x0 KECCAK256 SWAP1 JUMPDEST DUP2 SLOAD DUP2 MSTORE SWAP1 PUSH1 0x1 ADD SWAP1 PUSH1 0x20 ADD DUP1 DUP4 GT PUSH2 0x49C JUMPI DUP3 SWAP1 SUB PUSH1 0x1F AND DUP3 ADD SWAP2 JUMPDEST POP POP POP POP POP SWAP1 POP DUP8 JUMP JUMPDEST PUSH1 0x3 DUP2 DUP2 SLOAD DUP2 LT PUSH2 0x4D3 JUMPI PUSH1 0x0 DUP1 REVERT JUMPDEST SWAP1 PUSH1 0x0 MSTORE PUSH1 0x20 PUSH1 0x0 KECCAK256 ADD PUSH1 0x0 SWAP2 POP SLOAD SWAP1 PUSH2 0x100 EXP SWAP1 DIV PUSH20 0xFFFFFFFFFFFFFFFFFFFFFFFFFFFFFFFFFFFFFFFF AND DUP2 JUMP JUMPDEST PUSH1 0x6 PUSH1 0x20 MSTORE DUP1 PUSH1 0x0 MSTORE PUSH1 0x40 PUSH1 0x0 KECCAK256 PUSH1 0x0 SWAP2 POP SWAP1 POP DUP1 PUSH1 0x0 ADD SLOAD SWAP1 DUP1 PUSH1 0x1 ADD DUP1 SLOAD PUSH2 0x52B SWAP1 PUSH2 0xEE8 JUMP JUMPDEST DUP1 PUSH1 0x1F ADD PUSH1 0x20 DUP1 SWAP2 DIV MUL PUSH1 0x20 ADD PUSH1 0x40 MLOAD SWAP1 DUP2 ADD PUSH1 0x40 MSTORE DUP1 SWAP3 SWAP2 SWAP1 DUP2 DUP2 MSTORE PUSH1 0x20 ADD DUP3 DUP1 SLOAD PUSH2 0x557 SWAP1 PUSH2 0xEE8 JUMP JUMPDEST DUP1 ISZERO PUSH2 0x5A4 JUMPI DUP1 PUSH1 0x1F LT PUSH2 0x579 JUMPI PUSH2 0x100 DUP1 DUP4 SLOAD DIV MUL DUP4 MSTORE SWAP2 PUSH1 0x20 ADD SWAP2 PUSH2 0x5A4 JUMP JUMPDEST DUP3 ADD SWAP2 SWAP1 PUSH1 0x0 MSTORE PUSH1 0x20 PUSH1 0x0 KECCAK256 SWAP1 JUMPDEST DUP2 SLOAD DUP2 MSTORE SWAP1 PUSH1 0x1 ADD SWAP1 PUSH1 0x20 ADD DUP1 DUP4 GT PUSH2 0x587 JUMPI DUP3 SWAP1 SUB PUSH1 0x1F AND DUP3 ADD SWAP2 JUMPDEST POP POP POP POP POP SWAP1 DUP1 PUSH1 0x2 ADD DUP1 SLOAD PUSH2 0x5B9 SWAP1 PUSH2 0xEE8 JUMP JUMPDEST DUP1 PUSH1 0x1F ADD PUSH1 0x20 DUP1 SWAP2 DIV MUL PUSH1 0x20 ADD PUSH1 0x40 MLOAD SWAP1 DUP2 ADD PUSH1 0x40 MSTORE DUP1 SWAP3 SWAP2 SWAP1 DUP2 DUP2 MSTORE PUSH1 0x20 ADD DUP3 DUP1 SLOAD PUSH2 0x5E5 SWAP1 PUSH2 0xEE8 JUMP JUMPDEST DUP1 ISZERO PUSH2 0x632 JUMPI DUP1 PUSH1 0x1F LT PUSH2 0x607 JUMPI PUSH2 0x100 DUP1 DUP4 SLOAD DIV MUL DUP4 MSTORE SWAP2 PUSH1 0x20 ADD SWAP2 PUSH2 0x632 JUMP JUMPDEST DUP3 ADD SWAP2 SWAP1 PUSH1 0x0 MSTORE PUSH1 0x20 PUSH1 0x0 KECCAK256 SWAP1 JUMPDEST DUP2 SLOAD DUP2 MSTORE SWAP1 PUSH1 0x1 ADD SWAP1 PUSH1 0x20 ADD DUP1 DUP4 GT PUSH2 0x615 JUMPI DUP3 SWAP1 SUB PUSH1 0x1F AND DUP3 ADD SWAP2 JUMPDEST POP POP POP POP POP SWAP1 DUP1 PUSH1 0x3 ADD PUSH1 0x0 SWAP1 SLOAD SWAP1 PUSH2 0x100 EXP SWAP1 DIV PUSH20 0xFFFFFFFFFFFFFFFFFFFFFFFFFFFFFFFFFFFFFFFF AND SWAP1 DUP1 PUSH1 0x4 ADD SLOAD SWAP1 DUP1 PUSH1 0x5 ADD PUSH1 0x0 SWAP1 SLOAD SWAP1 PUSH2 0x100 EXP SWAP1 DIV PUSH1 0xFF AND SWAP1 DUP1 PUSH1 0x6 ADD SLOAD SWAP1 DUP1 PUSH1 0x7 ADD DUP1 SLOAD PUSH2 0x68C SWAP1 PUSH2 0xEE8 JUMP JUMPDEST DUP1 PUSH1 0x1F ADD PUSH1 0x20 DUP1 SWAP2 DIV MUL PUSH1 0x20 ADD PUSH1 0x40 MLOAD SWAP1 DUP2 ADD PUSH1 0x40 MSTORE DUP1 SWAP3 SWAP2 SWAP1 DUP2 DUP2 MSTORE PUSH1 0x20 ADD DUP3 DUP1 SLOAD PUSH2 0x6B8 SWAP1 PUSH2 0xEE8 JUMP JUMPDEST DUP1 ISZERO PUSH2 0x705 JUMPI DUP1 PUSH1 0x1F LT PUSH2 0x6DA JUMPI PUSH2 0x100 DUP1 DUP4 SLOAD DIV MUL DUP4 MSTORE SWAP2 PUSH1 0x20 ADD SWAP2 PUSH2 0x705 JUMP JUMPDEST DUP3 ADD SWAP2 SWAP1 PUSH1 0x0 MSTORE PUSH1 0x20 PUSH1 0x0 KECCAK256 SWAP1 JUMPDEST DUP2 SLOAD DUP2 MSTORE SWAP1 PUSH1 0x1 ADD SWAP1 PUSH1 0x20 ADD DUP1 DUP4 GT PUSH2 0x6E8 JUMPI DUP3 SWAP1 SUB PUSH1 0x1F AND DUP3 ADD SWAP2 JUMPDEST POP POP POP POP POP SWAP1 POP DUP9 JUMP JUMPDEST PUSH1 0x0 DUP1 PUSH1 0x0 ADD SLOAD SWAP1 POP DUP2 JUMP JUMPDEST CALLER PUSH20 0xFFFFFFFFFFFFFFFFFFFFFFFFFFFFFFFFFFFFFFFF AND PUSH1 0x2 PUSH1 0x0 SWAP1 SLOAD SWAP1 PUSH2 0x100 EXP SWAP1 DIV PUSH20 0xFFFFFFFFFFFFFFFFFFFFFFFFFFFFFFFFFFFFFFFF AND PUSH20 0xFFFFFFFFFFFFFFFFFFFFFFFFFFFFFFFFFFFFFFFF AND EQ PUSH2 0x7AB JUMPI PUSH1 0x40 MLOAD PUSH32 0x8C379A000000000000000000000000000000000000000000000000000000000 DUP2 MSTORE PUSH1 0x4 ADD PUSH2 0x7A2 SWAP1 PUSH2 0xF8B JUMP JUMPDEST PUSH1 0x40 MLOAD DUP1 SWAP2 SUB SWAP1 REVERT JUMPDEST PUSH2 0x7B5 PUSH1 0x1 PUSH2 0x956 JUMP JUMPDEST PUSH1 0x0 PUSH2 0x7C1 PUSH1 0x1 PUSH2 0x96C JUMP JUMPDEST SWAP1 POP PUSH1 0x0 PUSH1 0x4 PUSH1 0x0 DUP9 PUSH20 0xFFFFFFFFFFFFFFFFFFFFFFFFFFFFFFFFFFFFFFFF AND PUSH20 0xFFFFFFFFFFFFFFFFFFFFFFFFFFFFFFFFFFFFFFFF AND DUP2 MSTORE PUSH1 0x20 ADD SWAP1 DUP2 MSTORE PUSH1 0x20 ADD PUSH1 0x0 KECCAK256 SWAP1 POP DUP6 DUP2 PUSH1 0x1 ADD SWAP1 DUP2 PUSH2 0x817 SWAP2 SWAP1 PUSH2 0x1157 JUMP JUMPDEST POP DUP5 DUP2 PUSH1 0x2 ADD SWAP1 DUP2 PUSH2 0x829 SWAP2 SWAP1 PUSH2 0x1157 JUMP JUMPDEST POP DUP2 DUP2 PUSH1 0x0 ADD DUP2 SWAP1 SSTORE POP DUP4 DUP2 PUSH1 0x3 ADD SWAP1 DUP2 PUSH2 0x844 SWAP2 SWAP1 PUSH2 0x1157 JUMP JUMPDEST POP PUSH1 0x0 DUP2 PUSH1 0x4 ADD DUP2 SWAP1 SSTORE POP DUP7 DUP2 PUSH1 0x5 ADD PUSH1 0x0 PUSH2 0x100 EXP DUP2 SLOAD DUP2 PUSH20 0xFFFFFFFFFFFFFFFFFFFFFFFFFFFFFFFFFFFFFFFF MUL NOT AND SWAP1 DUP4 PUSH20 0xFFFFFFFFFFFFFFFFFFFFFFFFFFFFFFFFFFFFFFFF AND MUL OR SWAP1 SSTORE POP DUP3 DUP2 PUSH1 0x6 ADD SWAP1 DUP2 PUSH2 0x8A3 SWAP2 SWAP1 PUSH2 0x1157 JUMP JUMPDEST POP PUSH1 0x3 DUP8 SWAP1 DUP1 PUSH1 0x1 DUP2 SLOAD ADD DUP1 DUP3 SSTORE DUP1 SWAP2 POP POP PUSH1 0x1 SWAP1 SUB SWAP1 PUSH1 0x0 MSTORE PUSH1 0x20 PUSH1 0x0 KECCAK256 ADD PUSH1 0x0 SWAP1 SWAP2 SWAP1 SWAP2 SWAP1 SWAP2 PUSH2 0x100 EXP DUP2 SLOAD DUP2 PUSH20 0xFFFFFFFFFFFFFFFFFFFFFFFFFFFFFFFFFFFFFFFF MUL NOT AND SWAP1 DUP4 PUSH20 0xFFFFFFFFFFFFFFFFFFFFFFFFFFFFFFFFFFFFFFFF AND MUL OR SWAP1 SSTORE POP DUP2 PUSH32 0xD297F12B256BB8485A6013FB5E302017018123E99A0EBB20756C09E1707B4B90 DUP8 DUP8 DUP8 DUP6 PUSH1 0x4 ADD SLOAD DUP13 DUP10 PUSH1 0x40 MLOAD PUSH2 0x945 SWAP7 SWAP6 SWAP5 SWAP4 SWAP3 SWAP2 SWAP1 PUSH2 0x1229 JUMP JUMPDEST PUSH1 0x40 MLOAD DUP1 SWAP2 SUB SWAP1 LOG2 POP POP POP POP POP POP POP JUMP JUMPDEST PUSH1 0x1 DUP2 PUSH1 0x0 ADD PUSH1 0x0 DUP3 DUP3 SLOAD ADD SWAP3 POP POP DUP2 SWAP1 SSTORE POP POP JUMP JUMPDEST PUSH1 0x0 DUP2 PUSH1 0x0 ADD SLOAD SWAP1 POP SWAP2 SWAP1 POP JUMP JUMPDEST PUSH1 0x0 PUSH20 0xFFFFFFFFFFFFFFFFFFFFFFFFFFFFFFFFFFFFFFFF DUP3 AND SWAP1 POP SWAP2 SWAP1 POP JUMP JUMPDEST PUSH1 0x0 PUSH2 0x9A5 DUP3 PUSH2 0x97A JUMP JUMPDEST SWAP1 POP SWAP2 SWAP1 POP JUMP JUMPDEST PUSH2 0x9B5 DUP2 PUSH2 0x99A JUMP JUMPDEST DUP3 MSTORE POP POP JUMP JUMPDEST PUSH1 0x0 PUSH1 0x20 DUP3 ADD SWAP1 POP PUSH2 0x9D0 PUSH1 0x0 DUP4 ADD DUP5 PUSH2 0x9AC JUMP JUMPDEST SWAP3 SWAP2 POP POP JUMP JUMPDEST PUSH1 0x0 DUP2 SWAP1 POP SWAP2 SWAP1 POP JUMP JUMPDEST PUSH2 0x9E9 DUP2 PUSH2 0x9D6 JUMP JUMPDEST DUP3 MSTORE POP POP JUMP JUMPDEST PUSH1 0x0 PUSH1 0x20 DUP3 ADD SWAP1 POP PUSH2 0xA04 PUSH1 0x0 DUP4 ADD DUP5 PUSH2 0x9E0 JUMP JUMPDEST SWAP3 SWAP2 POP POP JUMP JUMPDEST PUSH1 0x0 PUSH1 0x40 MLOAD SWAP1 POP SWAP1 JUMP JUMPDEST PUSH1 0x0 DUP1 REVERT JUMPDEST PUSH1 0x0 DUP1 REVERT JUMPDEST PUSH2 0xA27 DUP2 PUSH2 0x9D6 JUMP JUMPDEST DUP2 EQ PUSH2 0xA32 JUMPI PUSH1 0x0 DUP1 REVERT JUMPDEST POP JUMP JUMPDEST PUSH1 0x0 DUP2 CALLDATALOAD SWAP1 POP PUSH2 0xA44 DUP2 PUSH2 0xA1E JUMP JUMPDEST SWAP3 SWAP2 POP POP JUMP JUMPDEST PUSH1 0x0 PUSH1 0x20 DUP3 DUP5 SUB SLT ISZERO PUSH2 0xA60 JUMPI PUSH2 0xA5F PUSH2 0xA14 JUMP JUMPDEST JUMPDEST PUSH1 0x0 PUSH2 0xA6E DUP5 DUP3 DUP6 ADD PUSH2 0xA35 JUMP JUMPDEST SWAP2 POP POP SWAP3 SWAP2 POP POP JUMP JUMPDEST PUSH2 0xA80 DUP2 PUSH2 0x99A JUMP JUMPDEST DUP2 EQ PUSH2 0xA8B JUMPI PUSH1 0x0 DUP1 REVERT JUMPDEST POP JUMP JUMPDEST PUSH1 0x0 DUP2 CALLDATALOAD SWAP1 POP PUSH2 0xA9D DUP2 PUSH2 0xA77 JUMP JUMPDEST SWAP3 SWAP2 POP POP JUMP JUMPDEST PUSH1 0x0 PUSH1 0x20 DUP3 DUP5 SUB SLT ISZERO PUSH2 0xAB9 JUMPI PUSH2 0xAB8 PUSH2 0xA14 JUMP JUMPDEST JUMPDEST PUSH1 0x0 PUSH2 0xAC7 DUP5 DUP3 DUP6 ADD PUSH2 0xA8E JUMP JUMPDEST SWAP2 POP POP SWAP3 SWAP2 POP POP JUMP JUMPDEST PUSH1 0x0 DUP2 MLOAD SWAP1 POP SWAP2 SWAP1 POP JUMP JUMPDEST PUSH1 0x0 DUP3 DUP3 MSTORE PUSH1 0x20 DUP3 ADD SWAP1 POP SWAP3 SWAP2 POP POP JUMP JUMPDEST PUSH1 0x0 JUMPDEST DUP4 DUP2 LT ISZERO PUSH2 0xB0A JUMPI DUP1 DUP3 ADD MLOAD DUP2 DUP5 ADD MSTORE PUSH1 0x20 DUP2 ADD SWAP1 POP PUSH2 0xAEF JUMP JUMPDEST PUSH1 0x0 DUP5 DUP5 ADD MSTORE POP POP POP POP JUMP JUMPDEST PUSH1 0x0 PUSH1 0x1F NOT PUSH1 0x1F DUP4 ADD AND SWAP1 POP SWAP2 SWAP1 POP JUMP JUMPDEST PUSH1 0x0 PUSH2 0xB32 DUP3 PUSH2 0xAD0 JUMP JUMPDEST PUSH2 0xB3C DUP2 DUP6 PUSH2 0xADB JUMP JUMPDEST SWAP4 POP PUSH2 0xB4C DUP2 DUP6 PUSH1 0x20 DUP7 ADD PUSH2 0xAEC JUMP JUMPDEST PUSH2 0xB55 DUP2 PUSH2 0xB16 JUMP JUMPDEST DUP5 ADD SWAP2 POP POP SWAP3 SWAP2 POP POP JUMP JUMPDEST PUSH1 0x0 PUSH1 0xE0 DUP3 ADD SWAP1 POP PUSH2 0xB75 PUSH1 0x0 DUP4 ADD DUP11 PUSH2 0x9E0 JUMP JUMPDEST DUP2 DUP2 SUB PUSH1 0x20 DUP4 ADD MSTORE PUSH2 0xB87 DUP2 DUP10 PUSH2 0xB27 JUMP JUMPDEST SWAP1 POP DUP2 DUP2 SUB PUSH1 0x40 DUP4 ADD MSTORE PUSH2 0xB9B DUP2 DUP9 PUSH2 0xB27 JUMP JUMPDEST SWAP1 POP DUP2 DUP2 SUB PUSH1 0x60 DUP4 ADD MSTORE PUSH2 0xBAF DUP2 DUP8 PUSH2 0xB27 JUMP JUMPDEST SWAP1 POP PUSH2 0xBBE PUSH1 0x80 DUP4 ADD DUP7 PUSH2 0x9E0 JUMP JUMPDEST PUSH2 0xBCB PUSH1 0xA0 DUP4 ADD DUP6 PUSH2 0x9AC JUMP JUMPDEST DUP2 DUP2 SUB PUSH1 0xC0 DUP4 ADD MSTORE PUSH2 0xBDD DUP2 DUP5 PUSH2 0xB27 JUMP JUMPDEST SWAP1 POP SWAP9 SWAP8 POP POP POP POP POP POP POP POP JUMP JUMPDEST PUSH1 0x0 DUP2 ISZERO ISZERO SWAP1 POP SWAP2 SWAP1 POP JUMP JUMPDEST PUSH2 0xC00 DUP2 PUSH2 0xBEB JUMP JUMPDEST DUP3 MSTORE POP POP JUMP JUMPDEST PUSH1 0x0 PUSH2 0x100 DUP3 ADD SWAP1 POP PUSH2 0xC1C PUSH1 0x0 DUP4 ADD DUP12 PUSH2 0x9E0 JUMP JUMPDEST DUP2 DUP2 SUB PUSH1 0x20 DUP4 ADD MSTORE PUSH2 0xC2E DUP2 DUP11 PUSH2 0xB27 JUMP JUMPDEST SWAP1 POP DUP2 DUP2 SUB PUSH1 0x40 DUP4 ADD MSTORE PUSH2 0xC42 DUP2 DUP10 PUSH2 0xB27 JUMP JUMPDEST SWAP1 POP PUSH2 0xC51 PUSH1 0x60 DUP4 ADD DUP9 PUSH2 0x9AC JUMP JUMPDEST PUSH2 0xC5E PUSH1 0x80 DUP4 ADD DUP8 PUSH2 0x9E0 JUMP JUMPDEST PUSH2 0xC6B PUSH1 0xA0 DUP4 ADD DUP7 PUSH2 0xBF7 JUMP JUMPDEST PUSH2 0xC78 PUSH1 0xC0 DUP4 ADD DUP6 PUSH2 0x9E0 JUMP JUMPDEST DUP2 DUP2 SUB PUSH1 0xE0 DUP4 ADD MSTORE PUSH2 0xC8A DUP2 DUP5 PUSH2 0xB27 JUMP JUMPDEST SWAP1 POP SWAP10 SWAP9 POP POP POP POP POP POP POP POP POP JUMP JUMPDEST PUSH1 0x0 DUP1 REVERT JUMPDEST PUSH1 0x0 DUP1 REVERT JUMPDEST PUSH32 0x4E487B7100000000000000000000000000000000000000000000000000000000 PUSH1 0x0 MSTORE PUSH1 0x41 PUSH1 0x4 MSTORE PUSH1 0x24 PUSH1 0x0 REVERT JUMPDEST PUSH2 0xCDB DUP3 PUSH2 0xB16 JUMP JUMPDEST DUP2 ADD DUP2 DUP2 LT PUSH8 0xFFFFFFFFFFFFFFFF DUP3 GT OR ISZERO PUSH2 0xCFA JUMPI PUSH2 0xCF9 PUSH2 0xCA3 JUMP JUMPDEST JUMPDEST DUP1 PUSH1 0x40 MSTORE POP POP POP JUMP JUMPDEST PUSH1 0x0 PUSH2 0xD0D PUSH2 0xA0A JUMP JUMPDEST SWAP1 POP PUSH2 0xD19 DUP3 DUP3 PUSH2 0xCD2 JUMP JUMPDEST SWAP2 SWAP1 POP JUMP JUMPDEST PUSH1 0x0 PUSH8 0xFFFFFFFFFFFFFFFF DUP3 GT ISZERO PUSH2 0xD39 JUMPI PUSH2 0xD38 PUSH2 0xCA3 JUMP JUMPDEST JUMPDEST PUSH2 0xD42 DUP3 PUSH2 0xB16 JUMP JUMPDEST SWAP1 POP PUSH1 0x20 DUP2 ADD SWAP1 POP SWAP2 SWAP1 POP JUMP JUMPDEST DUP3 DUP2 DUP4 CALLDATACOPY PUSH1 0x0 DUP4 DUP4 ADD MSTORE POP POP POP JUMP JUMPDEST PUSH1 0x0 PUSH2 0xD71 PUSH2 0xD6C DUP5 PUSH2 0xD1E JUMP JUMPDEST PUSH2 0xD03 JUMP JUMPDEST SWAP1 POP DUP3 DUP2 MSTORE PUSH1 0x20 DUP2 ADD DUP5 DUP5 DUP5 ADD GT ISZERO PUSH2 0xD8D JUMPI PUSH2 0xD8C PUSH2 0xC9E JUMP JUMPDEST JUMPDEST PUSH2 0xD98 DUP5 DUP3 DUP6 PUSH2 0xD4F JUMP JUMPDEST POP SWAP4 SWAP3 POP POP POP JUMP JUMPDEST PUSH1 0x0 DUP3 PUSH1 0x1F DUP4 ADD SLT PUSH2 0xDB5 JUMPI PUSH2 0xDB4 PUSH2 0xC99 JUMP JUMPDEST JUMPDEST DUP2 CALLDATALOAD PUSH2 0xDC5 DUP5 DUP3 PUSH1 0x20 DUP7 ADD PUSH2 0xD5E JUMP JUMPDEST SWAP2 POP POP SWAP3 SWAP2 POP POP JUMP JUMPDEST PUSH1 0x0 DUP1 PUSH1 0x0 DUP1 PUSH1 0x0 PUSH1 0xA0 DUP7 DUP9 SUB SLT ISZERO PUSH2 0xDEA JUMPI PUSH2 0xDE9 PUSH2 0xA14 JUMP JUMPDEST JUMPDEST PUSH1 0x0 PUSH2 0xDF8 DUP9 DUP3 DUP10 ADD PUSH2 0xA8E JUMP JUMPDEST SWAP6 POP POP PUSH1 0x20 DUP7 ADD CALLDATALOAD PUSH8 0xFFFFFFFFFFFFFFFF DUP2 GT ISZERO PUSH2 0xE19 JUMPI PUSH2 0xE18 PUSH2 0xA19 JUMP JUMPDEST JUMPDEST PUSH2 0xE25 DUP9 DUP3 DUP10 ADD PUSH2 0xDA0 JUMP JUMPDEST SWAP5 POP POP PUSH1 0x40 DUP7 ADD CALLDATALOAD PUSH8 0xFFFFFFFFFFFFFFFF DUP2 GT ISZERO PUSH2 0xE46 JUMPI PUSH2 0xE45 PUSH2 0xA19 JUMP JUMPDEST JUMPDEST PUSH2 0xE52 DUP9 DUP3 DUP10 ADD PUSH2 0xDA0 JUMP JUMPDEST SWAP4 POP POP PUSH1 0x60 DUP7 ADD CALLDATALOAD PUSH8 0xFFFFFFFFFFFFFFFF DUP2 GT ISZERO PUSH2 0xE73 JUMPI PUSH2 0xE72 PUSH2 0xA19 JUMP JUMPDEST JUMPDEST PUSH2 0xE7F DUP9 DUP3 DUP10 ADD PUSH2 0xDA0 JUMP JUMPDEST SWAP3 POP POP PUSH1 0x80 DUP7 ADD CALLDATALOAD PUSH8 0xFFFFFFFFFFFFFFFF DUP2 GT ISZERO PUSH2 0xEA0 JUMPI PUSH2 0xE9F PUSH2 0xA19 JUMP JUMPDEST JUMPDEST PUSH2 0xEAC DUP9 DUP3 DUP10 ADD PUSH2 0xDA0 JUMP JUMPDEST SWAP2 POP POP SWAP3 SWAP6 POP SWAP3 SWAP6 SWAP1 SWAP4 POP JUMP JUMPDEST PUSH32 0x4E487B7100000000000000000000000000000000000000000000000000000000 PUSH1 0x0 MSTORE PUSH1 0x22 PUSH1 0x4 MSTORE PUSH1 0x24 PUSH1 0x0 REVERT JUMPDEST PUSH1 0x0 PUSH1 0x2 DUP3 DIV SWAP1 POP PUSH1 0x1 DUP3 AND DUP1 PUSH2 0xF00 JUMPI PUSH1 0x7F DUP3 AND SWAP2 POP JUMPDEST PUSH1 0x20 DUP3 LT DUP2 SUB PUSH2 0xF13 JUMPI PUSH2 0xF12 PUSH2 0xEB9 JUMP JUMPDEST JUMPDEST POP SWAP2 SWAP1 POP JUMP JUMPDEST PUSH32 0x4F6E6C79206F7267616E697A65722063616E20616464206E65772063616E6469 PUSH1 0x0 DUP3 ADD MSTORE PUSH32 0x6461746500000000000000000000000000000000000000000000000000000000 PUSH1 0x20 DUP3 ADD MSTORE POP JUMP JUMPDEST PUSH1 0x0 PUSH2 0xF75 PUSH1 0x24 DUP4 PUSH2 0xADB JUMP JUMPDEST SWAP2 POP PUSH2 0xF80 DUP3 PUSH2 0xF19 JUMP JUMPDEST PUSH1 0x40 DUP3 ADD SWAP1 POP SWAP2 SWAP1 POP JUMP JUMPDEST PUSH1 0x0 PUSH1 0x20 DUP3 ADD SWAP1 POP DUP2 DUP2 SUB PUSH1 0x0 DUP4 ADD MSTORE PUSH2 0xFA4 DUP2 PUSH2 0xF68 JUMP JUMPDEST SWAP1 POP SWAP2 SWAP1 POP JUMP JUMPDEST PUSH1 0x0 DUP2 SWAP1 POP DUP2 PUSH1 0x0 MSTORE PUSH1 0x20 PUSH1 0x0 KECCAK256 SWAP1 POP SWAP2 SWAP1 POP JUMP JUMPDEST PUSH1 0x0 PUSH1 0x20 PUSH1 0x1F DUP4 ADD DIV SWAP1 POP SWAP2 SWAP1 POP JUMP JUMPDEST PUSH1 0x0 DUP3 DUP3 SHL SWAP1 POP SWAP3 SWAP2 POP POP JUMP JUMPDEST PUSH1 0x0 PUSH1 0x8 DUP4 MUL PUSH2 0x100D PUSH32 0xFFFFFFFFFFFFFFFFFFFFFFFFFFFFFFFFFFFFFFFFFFFFFFFFFFFFFFFFFFFFFFFF DUP3 PUSH2 0xFD0 JUMP JUMPDEST PUSH2 0x1017 DUP7 DUP4 PUSH2 0xFD0 JUMP JUMPDEST SWAP6 POP DUP1 NOT DUP5 AND SWAP4 POP DUP1 DUP7 AND DUP5 OR SWAP3 POP POP POP SWAP4 SWAP3 POP POP POP JUMP JUMPDEST PUSH1 0x0 DUP2 SWAP1 POP SWAP2 SWAP1 POP JUMP JUMPDEST PUSH1 0x0 PUSH2 0x1054 PUSH2 0x104F PUSH2 0x104A DUP5 PUSH2 0x9D6 JUMP JUMPDEST PUSH2 0x102F JUMP JUMPDEST PUSH2 0x9D6 JUMP JUMPDEST SWAP1 POP SWAP2 SWAP1 POP JUMP JUMPDEST PUSH1 0x0 DUP2 SWAP1 POP SWAP2 SWAP1 POP JUMP JUMPDEST PUSH2 0x106E DUP4 PUSH2 0x1039 JUMP JUMPDEST PUSH2 0x1082 PUSH2 0x107A DUP3 PUSH2 0x105B JUMP JUMPDEST DUP5 DUP5 SLOAD PUSH2 0xFDD JUMP JUMPDEST DUP3 SSTORE POP POP POP POP JUMP JUMPDEST PUSH1 0x0 SWAP1 JUMP JUMPDEST PUSH2 0x1097 PUSH2 0x108A JUMP JUMPDEST PUSH2 0x10A2 DUP2 DUP5 DUP5 PUSH2 0x1065 JUMP JUMPDEST POP POP POP JUMP JUMPDEST JUMPDEST DUP2 DUP2 LT ISZERO PUSH2 0x10C6 JUMPI PUSH2 0x10BB PUSH1 0x0 DUP3 PUSH2 0x108F JUMP JUMPDEST PUSH1 0x1 DUP2 ADD SWAP1 POP PUSH2 0x10A8 JUMP JUMPDEST POP POP JUMP JUMPDEST PUSH1 0x1F DUP3 GT ISZERO PUSH2 0x110B JUMPI PUSH2 0x10DC DUP2 PUSH2 0xFAB JUMP JUMPDEST PUSH2 0x10E5 DUP5 PUSH2 0xFC0 JUMP JUMPDEST DUP2 ADD PUSH1 0x20 DUP6 LT ISZERO PUSH2 0x10F4 JUMPI DUP2 SWAP1 POP JUMPDEST PUSH2 0x1108 PUSH2 0x1100 DUP6 PUSH2 0xFC0 JUMP JUMPDEST DUP4 ADD DUP3 PUSH2 0x10A7 JUMP JUMPDEST POP POP JUMPDEST POP POP POP JUMP JUMPDEST PUSH1 0x0 DUP3 DUP3 SHR SWAP1 POP SWAP3 SWAP2 POP POP JUMP JUMPDEST PUSH1 0x0 PUSH2 0x112E PUSH1 0x0 NOT DUP5 PUSH1 0x8 MUL PUSH2 0x1110 JUMP JUMPDEST NOT DUP1 DUP4 AND SWAP2 POP POP SWAP3 SWAP2 POP POP JUMP JUMPDEST PUSH1 0x0 PUSH2 0x1147 DUP4 DUP4 PUSH2 0x111D JUMP JUMPDEST SWAP2 POP DUP3 PUSH1 0x2 MUL DUP3 OR SWAP1 POP SWAP3 SWAP2 POP POP JUMP JUMPDEST PUSH2 0x1160 DUP3 PUSH2 0xAD0 JUMP JUMPDEST PUSH8 0xFFFFFFFFFFFFFFFF DUP2 GT ISZERO PUSH2 0x1179 JUMPI PUSH2 0x1178 PUSH2 0xCA3 JUMP JUMPDEST JUMPDEST PUSH2 0x1183 DUP3 SLOAD PUSH2 0xEE8 JUMP JUMPDEST PUSH2 0x118E DUP3 DUP3 DUP6 PUSH2 0x10CA JUMP JUMPDEST PUSH1 0x0 PUSH1 0x20 SWAP1 POP PUSH1 0x1F DUP4 GT PUSH1 0x1 DUP2 EQ PUSH2 0x11C1 JUMPI PUSH1 0x0 DUP5 ISZERO PUSH2 0x11AF JUMPI DUP3 DUP8 ADD MLOAD SWAP1 POP JUMPDEST PUSH2 0x11B9 DUP6 DUP3 PUSH2 0x113B JUMP JUMPDEST DUP7 SSTORE POP PUSH2 0x1221 JUMP JUMPDEST PUSH1 0x1F NOT DUP5 AND PUSH2 0x11CF DUP7 PUSH2 0xFAB JUMP JUMPDEST PUSH1 0x0 JUMPDEST DUP3 DUP2 LT ISZERO PUSH2 0x11F7 JUMPI DUP5 DUP10 ADD MLOAD DUP3 SSTORE PUSH1 0x1 DUP3 ADD SWAP2 POP PUSH1 0x20 DUP6 ADD SWAP5 POP PUSH1 0x20 DUP2 ADD SWAP1 POP PUSH2 0x11D2 JUMP JUMPDEST DUP7 DUP4 LT ISZERO PUSH2 0x1214 JUMPI DUP5 DUP10 ADD MLOAD PUSH2 0x1210 PUSH1 0x1F DUP10 AND DUP3 PUSH2 0x111D JUMP JUMPDEST DUP4 SSTORE POP JUMPDEST PUSH1 0x1 PUSH1 0x2 DUP9 MUL ADD DUP9 SSTORE POP POP POP JUMPDEST POP POP POP POP POP POP JUMP JUMPDEST PUSH1 0x0 PUSH1 0xC0 DUP3 ADD SWAP1 POP DUP2 DUP2 SUB PUSH1 0x0 DUP4 ADD MSTORE PUSH2 0x1243 DUP2 DUP10 PUSH2 0xB27 JUMP JUMPDEST SWAP1 POP DUP2 DUP2 SUB PUSH1 0x20 DUP4 ADD MSTORE PUSH2 0x1257 DUP2 DUP9 PUSH2 0xB27 JUMP JUMPDEST SWAP1 POP DUP2 DUP2 SUB PUSH1 0x40 DUP4 ADD MSTORE PUSH2 0x126B DUP2 DUP8 PUSH2 0xB27 JUMP JUMPDEST SWAP1 POP PUSH2 0x127A PUSH1 0x60 DUP4 ADD DUP7 PUSH2 0x9E0 JUMP JUMPDEST PUSH2 0x1287 PUSH1 0x80 DUP4 ADD DUP6 PUSH2 0x9AC JUMP JUMPDEST DUP2 DUP2 SUB PUSH1 0xA0 DUP4 ADD MSTORE PUSH2 0x1299 DUP2 DUP5 PUSH2 0xB27 JUMP JUMPDEST SWAP1 POP SWAP8 SWAP7 POP POP POP POP POP POP POP JUMP INVALID LOG2 PUSH5 0x6970667358 0x22 SLT KECCAK256 CREATE 0xDB DUP4 DUP7 SHR PUSH12 0x6A66A98940379A8B2A565836 LOG1 0xDF 0xF6 EXP ADDRESS LOG0 PUSH11 0xD1C9988166EC1B64736F6C PUSH4 0x43000812 STOP CALLER "
				},
				"gasEstimates": {
					"creation": {
						"codeDepositCost": "965600",
						"executionCost": "25267",
						"totalCost": "990867"
					},
					"external": {
						"CandidateAddress(uint256)": "4956",
						"_candidateID()": "2466",
						"_voterID()": "2487",
						"candidates(address)": "infinite",
						"setCandidate(address,string,string,string,string)": "infinite",
						"votedVoters(uint256)": "5001",
						"voters(address)": "infinite",
						"votingOrganizer()": "2515"
					}
				},
				"methodIdentifiers": {
					"CandidateAddress(uint256)": "908fdecd",
					"_candidateID()": "64f1832e",
					"_voterID()": "b4040313",
					"candidates(address)": "8ab66a90",
					"setCandidate(address,string,string,string,string)": "c91ec712",
					"votedVoters(uint256)": "7831ffb3",
					"voters(address)": "a3ec138d",
					"votingOrganizer()": "5cc48aa7"
				}
			},
			"storageLayout": {
				"storage": [
					{
						"astId": 83,
						"contract": "contracts/MyToken.sol:Create",
						"label": "_voterID",
						"offset": 0,
						"slot": "0",
						"type": "t_struct(Counter)5_storage"
					},
					{
						"astId": 86,
						"contract": "contracts/MyToken.sol:Create",
						"label": "_candidateID",
						"offset": 0,
						"slot": "1",
						"type": "t_struct(Counter)5_storage"
					},
					{
						"astId": 88,
						"contract": "contracts/MyToken.sol:Create",
						"label": "votingOrganizer",
						"offset": 0,
						"slot": "2",
						"type": "t_address"
					},
					{
						"astId": 122,
						"contract": "contracts/MyToken.sol:Create",
						"label": "CandidateAddress",
						"offset": 0,
						"slot": "3",
						"type": "t_array(t_address)dyn_storage"
					},
					{
						"astId": 127,
						"contract": "contracts/MyToken.sol:Create",
						"label": "candidates",
						"offset": 0,
						"slot": "4",
						"type": "t_mapping(t_address,t_struct(Candidate)103_storage)"
					},
					{
						"astId": 130,
						"contract": "contracts/MyToken.sol:Create",
						"label": "votedVoters",
						"offset": 0,
						"slot": "5",
						"type": "t_array(t_address)dyn_storage"
					},
					{
						"astId": 170,
						"contract": "contracts/MyToken.sol:Create",
						"label": "voters",
						"offset": 0,
						"slot": "6",
						"type": "t_mapping(t_address,t_struct(Voter)147_storage)"
					}
				],
				"types": {
					"t_address": {
						"encoding": "inplace",
						"label": "address",
						"numberOfBytes": "20"
					},
					"t_array(t_address)dyn_storage": {
						"base": "t_address",
						"encoding": "dynamic_array",
						"label": "address[]",
						"numberOfBytes": "32"
					},
					"t_bool": {
						"encoding": "inplace",
						"label": "bool",
						"numberOfBytes": "1"
					},
					"t_mapping(t_address,t_struct(Candidate)103_storage)": {
						"encoding": "mapping",
						"key": "t_address",
						"label": "mapping(address => struct Create.Candidate)",
						"numberOfBytes": "32",
						"value": "t_struct(Candidate)103_storage"
					},
					"t_mapping(t_address,t_struct(Voter)147_storage)": {
						"encoding": "mapping",
						"key": "t_address",
						"label": "mapping(address => struct Create.Voter)",
						"numberOfBytes": "32",
						"value": "t_struct(Voter)147_storage"
					},
					"t_string_storage": {
						"encoding": "bytes",
						"label": "string",
						"numberOfBytes": "32"
					},
					"t_struct(Candidate)103_storage": {
						"encoding": "inplace",
						"label": "struct Create.Candidate",
						"members": [
							{
								"astId": 90,
								"contract": "contracts/MyToken.sol:Create",
								"label": "candidateID",
								"offset": 0,
								"slot": "0",
								"type": "t_uint256"
							},
							{
								"astId": 92,
								"contract": "contracts/MyToken.sol:Create",
								"label": "age",
								"offset": 0,
								"slot": "1",
								"type": "t_string_storage"
							},
							{
								"astId": 94,
								"contract": "contracts/MyToken.sol:Create",
								"label": "name",
								"offset": 0,
								"slot": "2",
								"type": "t_string_storage"
							},
							{
								"astId": 96,
								"contract": "contracts/MyToken.sol:Create",
								"label": "img",
								"offset": 0,
								"slot": "3",
								"type": "t_string_storage"
							},
							{
								"astId": 98,
								"contract": "contracts/MyToken.sol:Create",
								"label": "voteCount",
								"offset": 0,
								"slot": "4",
								"type": "t_uint256"
							},
							{
								"astId": 100,
								"contract": "contracts/MyToken.sol:Create",
								"label": "_address",
								"offset": 0,
								"slot": "5",
								"type": "t_address"
							},
							{
								"astId": 102,
								"contract": "contracts/MyToken.sol:Create",
								"label": "ipfs",
								"offset": 0,
								"slot": "6",
								"type": "t_string_storage"
							}
						],
						"numberOfBytes": "224"
					},
					"t_struct(Counter)5_storage": {
						"encoding": "inplace",
						"label": "struct Counters.Counter",
						"members": [
							{
								"astId": 4,
								"contract": "contracts/MyToken.sol:Create",
								"label": "_value",
								"offset": 0,
								"slot": "0",
								"type": "t_uint256"
							}
						],
						"numberOfBytes": "32"
					},
					"t_struct(Voter)147_storage": {
						"encoding": "inplace",
						"label": "struct Create.Voter",
						"members": [
							{
								"astId": 132,
								"contract": "contracts/MyToken.sol:Create",
								"label": "voter_voterID",
								"offset": 0,
								"slot": "0",
								"type": "t_uint256"
							},
							{
								"astId": 134,
								"contract": "contracts/MyToken.sol:Create",
								"label": "voterName",
								"offset": 0,
								"slot": "1",
								"type": "t_string_storage"
							},
							{
								"astId": 136,
								"contract": "contracts/MyToken.sol:Create",
								"label": "voterImg",
								"offset": 0,
								"slot": "2",
								"type": "t_string_storage"
							},
							{
								"astId": 138,
								"contract": "contracts/MyToken.sol:Create",
								"label": "voterAddress",
								"offset": 0,
								"slot": "3",
								"type": "t_address"
							},
							{
								"astId": 140,
								"contract": "contracts/MyToken.sol:Create",
								"label": "voterAllowed",
								"offset": 0,
								"slot": "4",
								"type": "t_uint256"
							},
							{
								"astId": 142,
								"contract": "contracts/MyToken.sol:Create",
								"label": "voterVoted",
								"offset": 0,
								"slot": "5",
								"type": "t_bool"
							},
							{
								"astId": 144,
								"contract": "contracts/MyToken.sol:Create",
								"label": "voterVote",
								"offset": 0,
								"slot": "6",
								"type": "t_uint256"
							},
							{
								"astId": 146,
								"contract": "contracts/MyToken.sol:Create",
								"label": "voterIpfs",
								"offset": 0,
								"slot": "7",
								"type": "t_string_storage"
							}
						],
						"numberOfBytes": "256"
					},
					"t_uint256": {
						"encoding": "inplace",
						"label": "uint256",
						"numberOfBytes": "32"
					}
				}
			},
			"userdoc": {
				"kind": "user",
				"methods": {},
				"version": 1
			}
		}
	}
}