{
	"contracts/EthVoting.sol": {
		"Create": {
			"abi": [
				{
					"inputs": [],
					"stateMutability": "nonpayable",
					"type": "constructor"
				},
				{
					"anonymous": false,
					"inputs": [
						{
							"indexed": true,
							"internalType": "uint256",
							"name": "candidateID",
							"type": "uint256"
						},
						{
							"indexed": false,
							"internalType": "string",
							"name": "age",
							"type": "string"
						},
						{
							"indexed": false,
							"internalType": "string",
							"name": "name",
							"type": "string"
						},
						{
							"indexed": false,
							"internalType": "string",
							"name": "img",
							"type": "string"
						},
						{
							"indexed": false,
							"internalType": "uint256",
							"name": "voteCount",
							"type": "uint256"
						},
						{
							"indexed": false,
							"internalType": "address",
							"name": "_address",
							"type": "address"
						},
						{
							"indexed": false,
							"internalType": "string",
							"name": "ipfs",
							"type": "string"
						}
					],
					"name": "CandidateCreate",
					"type": "event"
				},
				{
					"anonymous": false,
					"inputs": [
						{
							"indexed": true,
							"internalType": "uint256",
							"name": "voter_voterID",
							"type": "uint256"
						},
						{
							"indexed": false,
							"internalType": "string",
							"name": "voterName",
							"type": "string"
						},
						{
							"indexed": false,
							"internalType": "string",
							"name": "voterImg",
							"type": "string"
						},
						{
							"indexed": false,
							"internalType": "address",
							"name": "voterAddress",
							"type": "address"
						},
						{
							"indexed": false,
							"internalType": "uint256",
							"name": "voterAllowed",
							"type": "uint256"
						},
						{
							"indexed": false,
							"internalType": "bool",
							"name": "voterVoted",
							"type": "bool"
						},
						{
							"indexed": false,
							"internalType": "uint256",
							"name": "voterVote",
							"type": "uint256"
						},
						{
							"indexed": false,
							"internalType": "string",
							"name": "voterIpfs",
							"type": "string"
						}
					],
					"name": "VoterCreated",
					"type": "event"
				},
				{
					"inputs": [
						{
							"internalType": "uint256",
							"name": "",
							"type": "uint256"
						}
					],
					"name": "CandidateAddress",
					"outputs": [
						{
							"internalType": "address",
							"name": "",
							"type": "address"
						}
					],
					"stateMutability": "view",
					"type": "function"
				},
				{
					"inputs": [],
					"name": "_candidateID",
					"outputs": [
						{
							"internalType": "uint256",
							"name": "_value",
							"type": "uint256"
						}
					],
					"stateMutability": "view",
					"type": "function"
				},
				{
					"inputs": [],
					"name": "_voterID",
					"outputs": [
						{
							"internalType": "uint256",
							"name": "_value",
							"type": "uint256"
						}
					],
					"stateMutability": "view",
					"type": "function"
				},
				{
					"inputs": [
						{
							"internalType": "address",
							"name": "",
							"type": "address"
						}
					],
					"name": "candidates",
					"outputs": [
						{
							"internalType": "uint256",
							"name": "candidateID",
							"type": "uint256"
						},
						{
							"internalType": "string",
							"name": "age",
							"type": "string"
						},
						{
							"internalType": "string",
							"name": "name",
							"type": "string"
						},
						{
							"internalType": "string",
							"name": "img",
							"type": "string"
						},
						{
							"internalType": "uint256",
							"name": "voteCount",
							"type": "uint256"
						},
						{
							"internalType": "address",
							"name": "_address",
							"type": "address"
						},
						{
							"internalType": "string",
							"name": "ipfs",
							"type": "string"
						}
					],
					"stateMutability": "view",
					"type": "function"
				},
				{
					"inputs": [],
					"name": "getCandidate",
					"outputs": [
						{
							"internalType": "address[]",
							"name": "",
							"type": "address[]"
						}
					],
					"stateMutability": "view",
					"type": "function"
				},
				{
					"inputs": [
						{
							"internalType": "address",
							"name": "_address",
							"type": "address"
						}
					],
					"name": "getCandidateData",
					"outputs": [
						{
							"internalType": "string",
							"name": "",
							"type": "string"
						},
						{
							"internalType": "string",
							"name": "",
							"type": "string"
						},
						{
							"internalType": "uint256",
							"name": "",
							"type": "uint256"
						},
						{
							"internalType": "string",
							"name": "",
							"type": "string"
						},
						{
							"internalType": "uint256",
							"name": "",
							"type": "uint256"
						},
						{
							"internalType": "string",
							"name": "",
							"type": "string"
						},
						{
							"internalType": "address",
							"name": "",
							"type": "address"
						}
					],
					"stateMutability": "view",
					"type": "function"
				},
				{
					"inputs": [],
					"name": "getCandidateLength",
					"outputs": [
						{
							"internalType": "uint256",
							"name": "",
							"type": "uint256"
						}
					],
					"stateMutability": "view",
					"type": "function"
				},
				{
					"inputs": [],
					"name": "getVotedVotersList",
					"outputs": [
						{
							"internalType": "address[]",
							"name": "",
							"type": "address[]"
						}
					],
					"stateMutability": "view",
					"type": "function"
				},
				{
					"inputs": [
						{
							"internalType": "address",
							"name": "_address",
							"type": "address"
						}
					],
					"name": "getVoterData",
					"outputs": [
						{
							"internalType": "uint256",
							"name": "",
							"type": "uint256"
						},
						{
							"internalType": "string",
							"name": "",
							"type": "string"
						},
						{
							"internalType": "string",
							"name": "",
							"type": "string"
						},
						{
							"internalType": "address",
							"name": "",
							"type": "address"
						},
						{
							"internalType": "string",
							"name": "",
							"type": "string"
						},
						{
							"internalType": "uint256",
							"name": "",
							"type": "uint256"
						},
						{
							"internalType": "bool",
							"name": "",
							"type": "bool"
						}
					],
					"stateMutability": "view",
					"type": "function"
				},
				{
					"inputs": [],
					"name": "getVoterLength",
					"outputs": [
						{
							"internalType": "uint256",
							"name": "",
							"type": "uint256"
						}
					],
					"stateMutability": "view",
					"type": "function"
				},
				{
					"inputs": [],
					"name": "getVoterList",
					"outputs": [
						{
							"internalType": "address[]",
							"name": "",
							"type": "address[]"
						}
					],
					"stateMutability": "view",
					"type": "function"
				},
				{
					"inputs": [
						{
							"internalType": "address",
							"name": "_address",
							"type": "address"
						},
						{
							"internalType": "string",
							"name": "_age",
							"type": "string"
						},
						{
							"internalType": "string",
							"name": "_name",
							"type": "string"
						},
						{
							"internalType": "string",
							"name": "_img",
							"type": "string"
						},
						{
							"internalType": "string",
							"name": "_ipfs",
							"type": "string"
						}
					],
					"name": "setCandidate",
					"outputs": [],
					"stateMutability": "nonpayable",
					"type": "function"
				},
				{
					"inputs": [
						{
							"internalType": "address",
							"name": "_candidateAddress",
							"type": "address"
						},
						{
							"internalType": "uint256",
							"name": "_candidateVoteId",
							"type": "uint256"
						}
					],
					"name": "vote",
					"outputs": [],
					"stateMutability": "nonpayable",
					"type": "function"
				},
				{
					"inputs": [
						{
							"internalType": "uint256",
							"name": "",
							"type": "uint256"
						}
					],
					"name": "votedVoters",
					"outputs": [
						{
							"internalType": "address",
							"name": "",
							"type": "address"
						}
					],
					"stateMutability": "view",
					"type": "function"
				},
				{
					"inputs": [
						{
							"internalType": "address",
							"name": "_address",
							"type": "address"
						},
						{
							"internalType": "string",
							"name": "_name",
							"type": "string"
						},
						{
							"internalType": "string",
							"name": "_img",
							"type": "string"
						},
						{
							"internalType": "string",
							"name": "_ipfs",
							"type": "string"
						}
					],
					"name": "voterRight",
					"outputs": [],
					"stateMutability": "nonpayable",
					"type": "function"
				},
				{
					"inputs": [
						{
							"internalType": "address",
							"name": "",
							"type": "address"
						}
					],
					"name": "voters",
					"outputs": [
						{
							"internalType": "uint256",
							"name": "voter_voterID",
							"type": "uint256"
						},
						{
							"internalType": "string",
							"name": "voterName",
							"type": "string"
						},
						{
							"internalType": "string",
							"name": "voterImg",
							"type": "string"
						},
						{
							"internalType": "address",
							"name": "voterAddress",
							"type": "address"
						},
						{
							"internalType": "uint256",
							"name": "voterAllowed",
							"type": "uint256"
						},
						{
							"internalType": "bool",
							"name": "voterVoted",
							"type": "bool"
						},
						{
							"internalType": "uint256",
							"name": "voterVote",
							"type": "uint256"
						},
						{
							"internalType": "string",
							"name": "voterIpfs",
							"type": "string"
						}
					],
					"stateMutability": "view",
					"type": "function"
				},
				{
					"inputs": [
						{
							"internalType": "uint256",
							"name": "",
							"type": "uint256"
						}
					],
					"name": "votersAddress",
					"outputs": [
						{
							"internalType": "address",
							"name": "",
							"type": "address"
						}
					],
					"stateMutability": "view",
					"type": "function"
				},
				{
					"inputs": [],
					"name": "votingOrganizer",
					"outputs": [
						{
							"internalType": "address",
							"name": "",
							"type": "address"
						}
					],
					"stateMutability": "view",
					"type": "function"
				}
			],
			"devdoc": {
				"kind": "dev",
				"methods": {},
				"version": 1
			},
			"evm": {
				"assembly": "    /* \"contracts/EthVoting.sol\":118:5059  contract Create {... */\n  mstore(0x40, 0x80)\n    /* \"contracts/EthVoting.sol\":1435:1493  constructor(){... */\n  callvalue\n  dup1\n  iszero\n  tag_1\n  jumpi\n  0x00\n  dup1\n  revert\ntag_1:\n  pop\n    /* \"contracts/EthVoting.sol\":1476:1486  msg.sender */\n  caller\n    /* \"contracts/EthVoting.sol\":1458:1473  votingOrganizer */\n  0x02\n  0x00\n    /* \"contracts/EthVoting.sol\":1458:1486  votingOrganizer = msg.sender */\n  0x0100\n  exp\n  dup2\n  sload\n  dup2\n  0xffffffffffffffffffffffffffffffffffffffff\n  mul\n  not\n  and\n  swap1\n  dup4\n  0xffffffffffffffffffffffffffffffffffffffff\n  and\n  mul\n  or\n  swap1\n  sstore\n  pop\n    /* \"contracts/EthVoting.sol\":118:5059  contract Create {... */\n  dataSize(sub_0)\n  dup1\n  dataOffset(sub_0)\n  0x00\n  codecopy\n  0x00\n  return\nstop\n\nsub_0: assembly {\n        /* \"contracts/EthVoting.sol\":118:5059  contract Create {... */\n      mstore(0x40, 0x80)\n      callvalue\n      dup1\n      iszero\n      tag_1\n      jumpi\n      0x00\n      dup1\n      revert\n    tag_1:\n      pop\n      jumpi(tag_2, lt(calldatasize, 0x04))\n      shr(0xe0, calldataload(0x00))\n      dup1\n      0x7831ffb3\n      gt\n      tag_21\n      jumpi\n      dup1\n      0xa3ec138d\n      gt\n      tag_22\n      jumpi\n      dup1\n      0xa3ec138d\n      eq\n      tag_16\n      jumpi\n      dup1\n      0xb28d92ae\n      eq\n      tag_17\n      jumpi\n      dup1\n      0xb4040313\n      eq\n      tag_18\n      jumpi\n      dup1\n      0xc91ec712\n      eq\n      tag_19\n      jumpi\n      dup1\n      0xf7522a83\n      eq\n      tag_20\n      jumpi\n      jump(tag_2)\n    tag_22:\n      dup1\n      0x7831ffb3\n      eq\n      tag_12\n      jumpi\n      dup1\n      0x8ab66a90\n      eq\n      tag_13\n      jumpi\n      dup1\n      0x8fb4cd80\n      eq\n      tag_14\n      jumpi\n      dup1\n      0x908fdecd\n      eq\n      tag_15\n      jumpi\n      jump(tag_2)\n    tag_21:\n      dup1\n      0x43242daa\n      gt\n      tag_23\n      jumpi\n      dup1\n      0x43242daa\n      eq\n      tag_7\n      jumpi\n      dup1\n      0x5cc48aa7\n      eq\n      tag_8\n      jumpi\n      dup1\n      0x5f74bbde\n      eq\n      tag_9\n      jumpi\n      dup1\n      0x64f1832e\n      eq\n      tag_10\n      jumpi\n      dup1\n      0x70218b85\n      eq\n      tag_11\n      jumpi\n      jump(tag_2)\n    tag_23:\n      dup1\n      0x0361419e\n      eq\n      tag_3\n      jumpi\n      dup1\n      0x05ad45a4\n      eq\n      tag_4\n      jumpi\n      dup1\n      0x13182dce\n      eq\n      tag_5\n      jumpi\n      dup1\n      0x2a466ac7\n      eq\n      tag_6\n      jumpi\n    tag_2:\n      0x00\n      dup1\n      revert\n        /* \"contracts/EthVoting.sol\":3017:3797  function voterRight(address _address,string memory _name, string memory _img, string memory _ipfs)public{... */\n    tag_3:\n      tag_24\n      0x04\n      dup1\n      calldatasize\n      sub\n      dup2\n      add\n      swap1\n      tag_25\n      swap2\n      swap1\n      tag_26\n      jump\t// in\n    tag_25:\n      tag_27\n      jump\t// in\n    tag_24:\n      stop\n        /* \"contracts/EthVoting.sol\":4264:4362  function getVoterLength() public view returns(uint256){... */\n    tag_4:\n      tag_28\n      tag_29\n      jump\t// in\n    tag_28:\n      mload(0x40)\n      tag_30\n      swap2\n      swap1\n      tag_31\n      jump\t// in\n    tag_30:\n      mload(0x40)\n      dup1\n      swap2\n      sub\n      swap1\n      return\n        /* \"contracts/EthVoting.sol\":4848:4951  function getVotedVotersList() public view returns (address[] memory){... */\n    tag_5:\n      tag_32\n      tag_33\n      jump\t// in\n    tag_32:\n      mload(0x40)\n      tag_34\n      swap2\n      swap1\n      tag_35\n      jump\t// in\n    tag_34:\n      mload(0x40)\n      dup1\n      swap2\n      sub\n      swap1\n      return\n        /* \"contracts/EthVoting.sol\":2571:3007  function getCandidateData(address _address) public view returns(string memory, string memory,uint256, string memory,uint256,string memory, address){... */\n    tag_6:\n      tag_36\n      0x04\n      dup1\n      calldatasize\n      sub\n      dup2\n      add\n      swap1\n      tag_37\n      swap2\n      swap1\n      tag_38\n      jump\t// in\n    tag_37:\n      tag_39\n      jump\t// in\n    tag_36:\n      mload(0x40)\n      tag_40\n      swap8\n      swap7\n      swap6\n      swap5\n      swap4\n      swap3\n      swap2\n      swap1\n      tag_41\n      jump\t// in\n    tag_40:\n      mload(0x40)\n      dup1\n      swap2\n      sub\n      swap1\n      return\n        /* \"contracts/EthVoting.sol\":845:875  address[] public votersAddress */\n    tag_7:\n      tag_42\n      0x04\n      dup1\n      calldatasize\n      sub\n      dup2\n      add\n      swap1\n      tag_43\n      swap2\n      swap1\n      tag_44\n      jump\t// in\n    tag_43:\n      tag_45\n      jump\t// in\n    tag_42:\n      mload(0x40)\n      tag_46\n      swap2\n      swap1\n      tag_47\n      jump\t// in\n    tag_46:\n      mload(0x40)\n      dup1\n      swap2\n      sub\n      swap1\n      return\n        /* \"contracts/EthVoting.sol\":262:292  address public votingOrganizer */\n    tag_8:\n      tag_48\n      tag_49\n      jump\t// in\n    tag_48:\n      mload(0x40)\n      tag_50\n      swap2\n      swap1\n      tag_47\n      jump\t// in\n    tag_50:\n      mload(0x40)\n      dup1\n      swap2\n      sub\n      swap1\n      return\n        /* \"contracts/EthVoting.sol\":3804:4258  function vote(address _candidateAddress,uint256 _candidateVoteId) external{... */\n    tag_9:\n      tag_51\n      0x04\n      dup1\n      calldatasize\n      sub\n      dup2\n      add\n      swap1\n      tag_52\n      swap2\n      swap1\n      tag_53\n      jump\t// in\n    tag_52:\n      tag_54\n      jump\t// in\n    tag_51:\n      stop\n        /* \"contracts/EthVoting.sol\":219:255  Counters.Counter public _candidateID */\n    tag_10:\n      tag_55\n      tag_56\n      jump\t// in\n    tag_55:\n      mload(0x40)\n      tag_57\n      swap2\n      swap1\n      tag_31\n      jump\t// in\n    tag_57:\n      mload(0x40)\n      dup1\n      swap2\n      sub\n      swap1\n      return\n        /* \"contracts/EthVoting.sol\":2349:2450  function getCandidate() public view returns(address[] memory){... */\n    tag_11:\n      tag_58\n      tag_59\n      jump\t// in\n    tag_58:\n      mload(0x40)\n      tag_60\n      swap2\n      swap1\n      tag_35\n      jump\t// in\n    tag_60:\n      mload(0x40)\n      dup1\n      swap2\n      sub\n      swap1\n      return\n        /* \"contracts/EthVoting.sol\":811:839  address[] public votedVoters */\n    tag_12:\n      tag_61\n      0x04\n      dup1\n      calldatasize\n      sub\n      dup2\n      add\n      swap1\n      tag_62\n      swap2\n      swap1\n      tag_44\n      jump\t// in\n    tag_62:\n      tag_63\n      jump\t// in\n    tag_61:\n      mload(0x40)\n      tag_64\n      swap2\n      swap1\n      tag_47\n      jump\t// in\n    tag_64:\n      mload(0x40)\n      dup1\n      swap2\n      sub\n      swap1\n      return\n        /* \"contracts/EthVoting.sol\":739:786  mapping(address => Candidate) public candidates */\n    tag_13:\n      tag_65\n      0x04\n      dup1\n      calldatasize\n      sub\n      dup2\n      add\n      swap1\n      tag_66\n      swap2\n      swap1\n      tag_38\n      jump\t// in\n    tag_66:\n      tag_67\n      jump\t// in\n    tag_65:\n      mload(0x40)\n      tag_68\n      swap8\n      swap7\n      swap6\n      swap5\n      swap4\n      swap3\n      swap2\n      swap1\n      tag_69\n      jump\t// in\n    tag_68:\n      mload(0x40)\n      dup1\n      swap2\n      sub\n      swap1\n      return\n        /* \"contracts/EthVoting.sol\":4368:4842  function getVoterData(address _address) public view returns(uint256, string memory, string memory, address, string memory,uint256,bool){... */\n    tag_14:\n      tag_70\n      0x04\n      dup1\n      calldatasize\n      sub\n      dup2\n      add\n      swap1\n      tag_71\n      swap2\n      swap1\n      tag_38\n      jump\t// in\n    tag_71:\n      tag_72\n      jump\t// in\n    tag_70:\n      mload(0x40)\n      tag_73\n      swap8\n      swap7\n      swap6\n      swap5\n      swap4\n      swap3\n      swap2\n      swap1\n      tag_74\n      jump\t// in\n    tag_73:\n      mload(0x40)\n      dup1\n      swap2\n      sub\n      swap1\n      return\n        /* \"contracts/EthVoting.sol\":700:733  address[] public CandidateAddress */\n    tag_15:\n      tag_75\n      0x04\n      dup1\n      calldatasize\n      sub\n      dup2\n      add\n      swap1\n      tag_76\n      swap2\n      swap1\n      tag_44\n      jump\t// in\n    tag_76:\n      tag_77\n      jump\t// in\n    tag_75:\n      mload(0x40)\n      tag_78\n      swap2\n      swap1\n      tag_47\n      jump\t// in\n    tag_78:\n      mload(0x40)\n      dup1\n      swap2\n      sub\n      swap1\n      return\n        /* \"contracts/EthVoting.sol\":1383:1423  mapping (address => Voter) public voters */\n    tag_16:\n      tag_79\n      0x04\n      dup1\n      calldatasize\n      sub\n      dup2\n      add\n      swap1\n      tag_80\n      swap2\n      swap1\n      tag_38\n      jump\t// in\n    tag_80:\n      tag_81\n      jump\t// in\n    tag_79:\n      mload(0x40)\n      tag_82\n      swap9\n      swap8\n      swap7\n      swap6\n      swap5\n      swap4\n      swap3\n      swap2\n      swap1\n      tag_83\n      jump\t// in\n    tag_82:\n      mload(0x40)\n      dup1\n      swap2\n      sub\n      swap1\n      return\n        /* \"contracts/EthVoting.sol\":4957:5056  function getVoterList() public view returns (address[] memory){... */\n    tag_17:\n      tag_84\n      tag_85\n      jump\t// in\n    tag_84:\n      mload(0x40)\n      tag_86\n      swap2\n      swap1\n      tag_35\n      jump\t// in\n    tag_86:\n      mload(0x40)\n      dup1\n      swap2\n      sub\n      swap1\n      return\n        /* \"contracts/EthVoting.sol\":181:213  Counters.Counter public _voterID */\n    tag_18:\n      tag_87\n      tag_88\n      jump\t// in\n    tag_87:\n      mload(0x40)\n      tag_89\n      swap2\n      swap1\n      tag_31\n      jump\t// in\n    tag_89:\n      mload(0x40)\n      dup1\n      swap2\n      sub\n      swap1\n      return\n        /* \"contracts/EthVoting.sol\":1499:2343  function setCandidate(address _address, string memory _age,string memory _name,string memory _img, string memory _ipfs  )public{... */\n    tag_19:\n      tag_90\n      0x04\n      dup1\n      calldatasize\n      sub\n      dup2\n      add\n      swap1\n      tag_91\n      swap2\n      swap1\n      tag_92\n      jump\t// in\n    tag_91:\n      tag_93\n      jump\t// in\n    tag_90:\n      stop\n        /* \"contracts/EthVoting.sol\":2460:2565  function getCandidateLength()public view returns (uint256){... */\n    tag_20:\n      tag_94\n      tag_95\n      jump\t// in\n    tag_94:\n      mload(0x40)\n      tag_96\n      swap2\n      swap1\n      tag_31\n      jump\t// in\n    tag_96:\n      mload(0x40)\n      dup1\n      swap2\n      sub\n      swap1\n      return\n        /* \"contracts/EthVoting.sol\":3017:3797  function voterRight(address _address,string memory _name, string memory _img, string memory _ipfs)public{... */\n    tag_27:\n        /* \"contracts/EthVoting.sol\":3163:3173  msg.sender */\n      caller\n        /* \"contracts/EthVoting.sol\":3144:3173  votingOrganizer == msg.sender */\n      0xffffffffffffffffffffffffffffffffffffffff\n      and\n        /* \"contracts/EthVoting.sol\":3144:3159  votingOrganizer */\n      0x02\n      0x00\n      swap1\n      sload\n      swap1\n      0x0100\n      exp\n      swap1\n      div\n      0xffffffffffffffffffffffffffffffffffffffff\n      and\n        /* \"contracts/EthVoting.sol\":3144:3173  votingOrganizer == msg.sender */\n      0xffffffffffffffffffffffffffffffffffffffff\n      and\n      eq\n        /* \"contracts/EthVoting.sol\":3136:3209  require(votingOrganizer == msg.sender, \"Only organizer can create voter\") */\n      tag_98\n      jumpi\n      mload(0x40)\n      0x08c379a000000000000000000000000000000000000000000000000000000000\n      dup2\n      mstore\n      0x04\n      add\n      tag_99\n      swap1\n      tag_100\n      jump\t// in\n    tag_99:\n      mload(0x40)\n      dup1\n      swap2\n      sub\n      swap1\n      revert\n    tag_98:\n        /* \"contracts/EthVoting.sol\":3218:3238  _voterID.increment() */\n      tag_101\n        /* \"contracts/EthVoting.sol\":3218:3226  _voterID */\n      0x00\n        /* \"contracts/EthVoting.sol\":3218:3236  _voterID.increment */\n      tag_102\n        /* \"contracts/EthVoting.sol\":3218:3238  _voterID.increment() */\n      jump\t// in\n    tag_101:\n        /* \"contracts/EthVoting.sol\":3247:3263  uint256 idNumber */\n      0x00\n        /* \"contracts/EthVoting.sol\":3266:3284  _voterID.current() */\n      tag_103\n        /* \"contracts/EthVoting.sol\":3266:3274  _voterID */\n      0x00\n        /* \"contracts/EthVoting.sol\":3266:3282  _voterID.current */\n      tag_104\n        /* \"contracts/EthVoting.sol\":3266:3284  _voterID.current() */\n      jump\t// in\n    tag_103:\n        /* \"contracts/EthVoting.sol\":3247:3284  uint256 idNumber = _voterID.current() */\n      swap1\n      pop\n        /* \"contracts/EthVoting.sol\":3293:3312  Voter storage voter */\n      0x00\n        /* \"contracts/EthVoting.sol\":3315:3321  voters */\n      0x07\n        /* \"contracts/EthVoting.sol\":3315:3331  voters[_address] */\n      0x00\n        /* \"contracts/EthVoting.sol\":3322:3330  _address */\n      dup8\n        /* \"contracts/EthVoting.sol\":3315:3331  voters[_address] */\n      0xffffffffffffffffffffffffffffffffffffffff\n      and\n      0xffffffffffffffffffffffffffffffffffffffff\n      and\n      dup2\n      mstore\n      0x20\n      add\n      swap1\n      dup2\n      mstore\n      0x20\n      add\n      0x00\n      keccak256\n        /* \"contracts/EthVoting.sol\":3293:3331  Voter storage voter = voters[_address] */\n      swap1\n      pop\n        /* \"contracts/EthVoting.sol\":3370:3371  0 */\n      0x00\n        /* \"contracts/EthVoting.sol\":3348:3353  voter */\n      dup2\n        /* \"contracts/EthVoting.sol\":3348:3366  voter.voterAllowed */\n      0x04\n      add\n      sload\n        /* \"contracts/EthVoting.sol\":3348:3371  voter.voterAllowed == 0 */\n      eq\n        /* \"contracts/EthVoting.sol\":3340:3372  require(voter.voterAllowed == 0) */\n      tag_105\n      jumpi\n      0x00\n      dup1\n      revert\n    tag_105:\n        /* \"contracts/EthVoting.sol\":3402:3403  1 */\n      0x01\n        /* \"contracts/EthVoting.sol\":3381:3386  voter */\n      dup2\n        /* \"contracts/EthVoting.sol\":3381:3399  voter.voterAllowed */\n      0x04\n      add\n        /* \"contracts/EthVoting.sol\":3381:3403  voter.voterAllowed = 1 */\n      dup2\n      swap1\n      sstore\n      pop\n        /* \"contracts/EthVoting.sol\":3429:3434  _name */\n      dup5\n        /* \"contracts/EthVoting.sol\":3411:3416  voter */\n      dup2\n        /* \"contracts/EthVoting.sol\":3411:3426  voter.voterName */\n      0x01\n      add\n        /* \"contracts/EthVoting.sol\":3411:3434  voter.voterName = _name */\n      swap1\n      dup2\n      tag_106\n      swap2\n      swap1\n      tag_107\n      jump\t// in\n    tag_106:\n      pop\n        /* \"contracts/EthVoting.sol\":3459:3463  _img */\n      dup4\n        /* \"contracts/EthVoting.sol\":3442:3447  voter */\n      dup2\n        /* \"contracts/EthVoting.sol\":3442:3456  voter.voterImg */\n      0x02\n      add\n        /* \"contracts/EthVoting.sol\":3442:3463  voter.voterImg = _img */\n      swap1\n      dup2\n      tag_108\n      swap2\n      swap1\n      tag_107\n      jump\t// in\n    tag_108:\n      pop\n        /* \"contracts/EthVoting.sol\":3492:3500  _address */\n      dup6\n        /* \"contracts/EthVoting.sol\":3471:3476  voter */\n      dup2\n        /* \"contracts/EthVoting.sol\":3471:3489  voter.voterAddress */\n      0x03\n      add\n      0x00\n        /* \"contracts/EthVoting.sol\":3471:3500  voter.voterAddress = _address */\n      0x0100\n      exp\n      dup2\n      sload\n      dup2\n      0xffffffffffffffffffffffffffffffffffffffff\n      mul\n      not\n      and\n      swap1\n      dup4\n      0xffffffffffffffffffffffffffffffffffffffff\n      and\n      mul\n      or\n      swap1\n      sstore\n      pop\n        /* \"contracts/EthVoting.sol\":3530:3538  idNumber */\n      dup2\n        /* \"contracts/EthVoting.sol\":3508:3513  voter */\n      dup2\n        /* \"contracts/EthVoting.sol\":3508:3527  voter.voter_voterID */\n      0x00\n      add\n        /* \"contracts/EthVoting.sol\":3508:3538  voter.voter_voterID = idNumber */\n      dup2\n      swap1\n      sstore\n      pop\n        /* \"contracts/EthVoting.sol\":3564:3568  1000 */\n      0x03e8\n        /* \"contracts/EthVoting.sol\":3546:3551  voter */\n      dup2\n        /* \"contracts/EthVoting.sol\":3546:3561  voter.voterVote */\n      0x06\n      add\n        /* \"contracts/EthVoting.sol\":3546:3568  voter.voterVote = 1000 */\n      dup2\n      swap1\n      sstore\n      pop\n        /* \"contracts/EthVoting.sol\":3595:3600  false */\n      0x00\n        /* \"contracts/EthVoting.sol\":3576:3581  voter */\n      dup2\n        /* \"contracts/EthVoting.sol\":3576:3592  voter.voterVoted */\n      0x05\n      add\n      0x00\n        /* \"contracts/EthVoting.sol\":3576:3600  voter.voterVoted = false */\n      0x0100\n      exp\n      dup2\n      sload\n      dup2\n      0xff\n      mul\n      not\n      and\n      swap1\n      dup4\n      iszero\n      iszero\n      mul\n      or\n      swap1\n      sstore\n      pop\n        /* \"contracts/EthVoting.sol\":3626:3631  _ipfs */\n      dup3\n        /* \"contracts/EthVoting.sol\":3608:3613  voter */\n      dup2\n        /* \"contracts/EthVoting.sol\":3608:3623  voter.voterIpfs */\n      0x07\n      add\n        /* \"contracts/EthVoting.sol\":3608:3631  voter.voterIpfs = _ipfs */\n      swap1\n      dup2\n      tag_109\n      swap2\n      swap1\n      tag_107\n      jump\t// in\n    tag_109:\n      pop\n        /* \"contracts/EthVoting.sol\":3641:3654  votersAddress */\n      0x06\n        /* \"contracts/EthVoting.sol\":3660:3668  _address */\n      dup7\n        /* \"contracts/EthVoting.sol\":3641:3669  votersAddress.push(_address) */\n      swap1\n      dup1\n      0x01\n      dup2\n      sload\n      add\n      dup1\n      dup3\n      sstore\n      dup1\n      swap2\n      pop\n      pop\n      0x01\n      swap1\n      sub\n      swap1\n      0x00\n      mstore\n      keccak256(0x00, 0x20)\n      add\n      0x00\n      swap1\n      swap2\n      swap1\n      swap2\n      swap1\n      swap2\n      0x0100\n      exp\n      dup2\n      sload\n      dup2\n      0xffffffffffffffffffffffffffffffffffffffff\n      mul\n      not\n      and\n      swap1\n      dup4\n      0xffffffffffffffffffffffffffffffffffffffff\n      and\n      mul\n      or\n      swap1\n      sstore\n      pop\n        /* \"contracts/EthVoting.sol\":3696:3704  idNumber */\n      dup2\n        /* \"contracts/EthVoting.sol\":3683:3790  VoterCreated(idNumber, _name, _img, _address, voter.voterAllowed, voter.voterVoted, voter.voterVote, _ipfs) */\n      0xf5f39971dd62d9929e3a9feaa6bb77fe7c7da0001babff8a65a7e51ad0201c19\n        /* \"contracts/EthVoting.sol\":3706:3711  _name */\n      dup7\n        /* \"contracts/EthVoting.sol\":3713:3717  _img */\n      dup7\n        /* \"contracts/EthVoting.sol\":3719:3727  _address */\n      dup10\n        /* \"contracts/EthVoting.sol\":3729:3734  voter */\n      dup6\n        /* \"contracts/EthVoting.sol\":3729:3747  voter.voterAllowed */\n      0x04\n      add\n      sload\n        /* \"contracts/EthVoting.sol\":3749:3754  voter */\n      dup7\n        /* \"contracts/EthVoting.sol\":3749:3765  voter.voterVoted */\n      0x05\n      add\n      0x00\n      swap1\n      sload\n      swap1\n      0x0100\n      exp\n      swap1\n      div\n      0xff\n      and\n        /* \"contracts/EthVoting.sol\":3767:3772  voter */\n      dup8\n        /* \"contracts/EthVoting.sol\":3767:3782  voter.voterVote */\n      0x06\n      add\n      sload\n        /* \"contracts/EthVoting.sol\":3784:3789  _ipfs */\n      dup11\n        /* \"contracts/EthVoting.sol\":3683:3790  VoterCreated(idNumber, _name, _img, _address, voter.voterAllowed, voter.voterVoted, voter.voterVote, _ipfs) */\n      mload(0x40)\n      tag_111\n      swap8\n      swap7\n      swap6\n      swap5\n      swap4\n      swap3\n      swap2\n      swap1\n      tag_112\n      jump\t// in\n    tag_111:\n      mload(0x40)\n      dup1\n      swap2\n      sub\n      swap1\n      log2\n        /* \"contracts/EthVoting.sol\":3121:3797  {... */\n      pop\n      pop\n        /* \"contracts/EthVoting.sol\":3017:3797  function voterRight(address _address,string memory _name, string memory _img, string memory _ipfs)public{... */\n      pop\n      pop\n      pop\n      pop\n      jump\t// out\n        /* \"contracts/EthVoting.sol\":4264:4362  function getVoterLength() public view returns(uint256){... */\n    tag_29:\n        /* \"contracts/EthVoting.sol\":4310:4317  uint256 */\n      0x00\n        /* \"contracts/EthVoting.sol\":4335:4348  votersAddress */\n      0x06\n        /* \"contracts/EthVoting.sol\":4335:4355  votersAddress.length */\n      dup1\n      sload\n      swap1\n      pop\n        /* \"contracts/EthVoting.sol\":4328:4355  return votersAddress.length */\n      swap1\n      pop\n        /* \"contracts/EthVoting.sol\":4264:4362  function getVoterLength() public view returns(uint256){... */\n      swap1\n      jump\t// out\n        /* \"contracts/EthVoting.sol\":4848:4951  function getVotedVotersList() public view returns (address[] memory){... */\n    tag_33:\n        /* \"contracts/EthVoting.sol\":4899:4915  address[] memory */\n      0x60\n        /* \"contracts/EthVoting.sol\":4933:4944  votedVoters */\n      0x05\n        /* \"contracts/EthVoting.sol\":4926:4944  return votedVoters */\n      dup1\n      sload\n      dup1\n      0x20\n      mul\n      0x20\n      add\n      mload(0x40)\n      swap1\n      dup2\n      add\n      0x40\n      mstore\n      dup1\n      swap3\n      swap2\n      swap1\n      dup2\n      dup2\n      mstore\n      0x20\n      add\n      dup3\n      dup1\n      sload\n      dup1\n      iszero\n      tag_115\n      jumpi\n      0x20\n      mul\n      dup3\n      add\n      swap2\n      swap1\n      0x00\n      mstore\n      keccak256(0x00, 0x20)\n      swap1\n    tag_116:\n      dup2\n      0x00\n      swap1\n      sload\n      swap1\n      0x0100\n      exp\n      swap1\n      div\n      0xffffffffffffffffffffffffffffffffffffffff\n      and\n      0xffffffffffffffffffffffffffffffffffffffff\n      and\n      dup2\n      mstore\n      0x20\n      add\n      swap1\n      0x01\n      add\n      swap1\n      dup1\n      dup4\n      gt\n      tag_116\n      jumpi\n    tag_115:\n      pop\n      pop\n      pop\n      pop\n      pop\n      swap1\n      pop\n        /* \"contracts/EthVoting.sol\":4848:4951  function getVotedVotersList() public view returns (address[] memory){... */\n      swap1\n      jump\t// out\n        /* \"contracts/EthVoting.sol\":2571:3007  function getCandidateData(address _address) public view returns(string memory, string memory,uint256, string memory,uint256,string memory, address){... */\n    tag_39:\n        /* \"contracts/EthVoting.sol\":2635:2648  string memory */\n      0x60\n        /* \"contracts/EthVoting.sol\":2650:2663  string memory */\n      dup1\n        /* \"contracts/EthVoting.sol\":2664:2671  uint256 */\n      0x00\n        /* \"contracts/EthVoting.sol\":2673:2686  string memory */\n      0x60\n        /* \"contracts/EthVoting.sol\":2687:2694  uint256 */\n      0x00\n        /* \"contracts/EthVoting.sol\":2695:2708  string memory */\n      0x60\n        /* \"contracts/EthVoting.sol\":2710:2717  address */\n      0x00\n        /* \"contracts/EthVoting.sol\":2743:2753  candidates */\n      0x04\n        /* \"contracts/EthVoting.sol\":2743:2763  candidates[_address] */\n      0x00\n        /* \"contracts/EthVoting.sol\":2754:2762  _address */\n      dup10\n        /* \"contracts/EthVoting.sol\":2743:2763  candidates[_address] */\n      0xffffffffffffffffffffffffffffffffffffffff\n      and\n      0xffffffffffffffffffffffffffffffffffffffff\n      and\n      dup2\n      mstore\n      0x20\n      add\n      swap1\n      dup2\n      mstore\n      0x20\n      add\n      0x00\n      keccak256\n        /* \"contracts/EthVoting.sol\":2743:2767  candidates[_address].age */\n      0x01\n      add\n        /* \"contracts/EthVoting.sol\":2777:2787  candidates */\n      0x04\n        /* \"contracts/EthVoting.sol\":2777:2797  candidates[_address] */\n      0x00\n        /* \"contracts/EthVoting.sol\":2788:2796  _address */\n      dup11\n        /* \"contracts/EthVoting.sol\":2777:2797  candidates[_address] */\n      0xffffffffffffffffffffffffffffffffffffffff\n      and\n      0xffffffffffffffffffffffffffffffffffffffff\n      and\n      dup2\n      mstore\n      0x20\n      add\n      swap1\n      dup2\n      mstore\n      0x20\n      add\n      0x00\n      keccak256\n        /* \"contracts/EthVoting.sol\":2777:2802  candidates[_address].name */\n      0x02\n      add\n        /* \"contracts/EthVoting.sol\":2812:2822  candidates */\n      0x04\n        /* \"contracts/EthVoting.sol\":2812:2832  candidates[_address] */\n      0x00\n        /* \"contracts/EthVoting.sol\":2823:2831  _address */\n      dup12\n        /* \"contracts/EthVoting.sol\":2812:2832  candidates[_address] */\n      0xffffffffffffffffffffffffffffffffffffffff\n      and\n      0xffffffffffffffffffffffffffffffffffffffff\n      and\n      dup2\n      mstore\n      0x20\n      add\n      swap1\n      dup2\n      mstore\n      0x20\n      add\n      0x00\n      keccak256\n        /* \"contracts/EthVoting.sol\":2812:2844  candidates[_address].candidateID */\n      0x00\n      add\n      sload\n        /* \"contracts/EthVoting.sol\":2854:2864  candidates */\n      0x04\n        /* \"contracts/EthVoting.sol\":2854:2874  candidates[_address] */\n      0x00\n        /* \"contracts/EthVoting.sol\":2865:2873  _address */\n      dup13\n        /* \"contracts/EthVoting.sol\":2854:2874  candidates[_address] */\n      0xffffffffffffffffffffffffffffffffffffffff\n      and\n      0xffffffffffffffffffffffffffffffffffffffff\n      and\n      dup2\n      mstore\n      0x20\n      add\n      swap1\n      dup2\n      mstore\n      0x20\n      add\n      0x00\n      keccak256\n        /* \"contracts/EthVoting.sol\":2854:2878  candidates[_address].img */\n      0x03\n      add\n        /* \"contracts/EthVoting.sol\":2888:2898  candidates */\n      0x04\n        /* \"contracts/EthVoting.sol\":2888:2908  candidates[_address] */\n      0x00\n        /* \"contracts/EthVoting.sol\":2899:2907  _address */\n      dup14\n        /* \"contracts/EthVoting.sol\":2888:2908  candidates[_address] */\n      0xffffffffffffffffffffffffffffffffffffffff\n      and\n      0xffffffffffffffffffffffffffffffffffffffff\n      and\n      dup2\n      mstore\n      0x20\n      add\n      swap1\n      dup2\n      mstore\n      0x20\n      add\n      0x00\n      keccak256\n        /* \"contracts/EthVoting.sol\":2888:2918  candidates[_address].voteCount */\n      0x04\n      add\n      sload\n        /* \"contracts/EthVoting.sol\":2928:2938  candidates */\n      0x04\n        /* \"contracts/EthVoting.sol\":2928:2948  candidates[_address] */\n      0x00\n        /* \"contracts/EthVoting.sol\":2939:2947  _address */\n      dup15\n        /* \"contracts/EthVoting.sol\":2928:2948  candidates[_address] */\n      0xffffffffffffffffffffffffffffffffffffffff\n      and\n      0xffffffffffffffffffffffffffffffffffffffff\n      and\n      dup2\n      mstore\n      0x20\n      add\n      swap1\n      dup2\n      mstore\n      0x20\n      add\n      0x00\n      keccak256\n        /* \"contracts/EthVoting.sol\":2928:2953  candidates[_address].ipfs */\n      0x06\n      add\n        /* \"contracts/EthVoting.sol\":2963:2973  candidates */\n      0x04\n        /* \"contracts/EthVoting.sol\":2963:2983  candidates[_address] */\n      0x00\n        /* \"contracts/EthVoting.sol\":2974:2982  _address */\n      dup16\n        /* \"contracts/EthVoting.sol\":2963:2983  candidates[_address] */\n      0xffffffffffffffffffffffffffffffffffffffff\n      and\n      0xffffffffffffffffffffffffffffffffffffffff\n      and\n      dup2\n      mstore\n      0x20\n      add\n      swap1\n      dup2\n      mstore\n      0x20\n      add\n      0x00\n      keccak256\n        /* \"contracts/EthVoting.sol\":2963:2992  candidates[_address]._address */\n      0x05\n      add\n      0x00\n      swap1\n      sload\n      swap1\n      0x0100\n      exp\n      swap1\n      div\n      0xffffffffffffffffffffffffffffffffffffffff\n      and\n        /* \"contracts/EthVoting.sol\":2727:3000  return(... */\n      dup7\n      dup1\n      sload\n      tag_118\n      swap1\n      tag_119\n      jump\t// in\n    tag_118:\n      dup1\n      0x1f\n      add\n      0x20\n      dup1\n      swap2\n      div\n      mul\n      0x20\n      add\n      mload(0x40)\n      swap1\n      dup2\n      add\n      0x40\n      mstore\n      dup1\n      swap3\n      swap2\n      swap1\n      dup2\n      dup2\n      mstore\n      0x20\n      add\n      dup3\n      dup1\n      sload\n      tag_120\n      swap1\n      tag_119\n      jump\t// in\n    tag_120:\n      dup1\n      iszero\n      tag_121\n      jumpi\n      dup1\n      0x1f\n      lt\n      tag_122\n      jumpi\n      0x0100\n      dup1\n      dup4\n      sload\n      div\n      mul\n      dup4\n      mstore\n      swap2\n      0x20\n      add\n      swap2\n      jump(tag_121)\n    tag_122:\n      dup3\n      add\n      swap2\n      swap1\n      0x00\n      mstore\n      keccak256(0x00, 0x20)\n      swap1\n    tag_123:\n      dup2\n      sload\n      dup2\n      mstore\n      swap1\n      0x01\n      add\n      swap1\n      0x20\n      add\n      dup1\n      dup4\n      gt\n      tag_123\n      jumpi\n      dup3\n      swap1\n      sub\n      0x1f\n      and\n      dup3\n      add\n      swap2\n    tag_121:\n      pop\n      pop\n      pop\n      pop\n      pop\n      swap7\n      pop\n      dup6\n      dup1\n      sload\n      tag_124\n      swap1\n      tag_119\n      jump\t// in\n    tag_124:\n      dup1\n      0x1f\n      add\n      0x20\n      dup1\n      swap2\n      div\n      mul\n      0x20\n      add\n      mload(0x40)\n      swap1\n      dup2\n      add\n      0x40\n      mstore\n      dup1\n      swap3\n      swap2\n      swap1\n      dup2\n      dup2\n      mstore\n      0x20\n      add\n      dup3\n      dup1\n      sload\n      tag_125\n      swap1\n      tag_119\n      jump\t// in\n    tag_125:\n      dup1\n      iszero\n      tag_126\n      jumpi\n      dup1\n      0x1f\n      lt\n      tag_127\n      jumpi\n      0x0100\n      dup1\n      dup4\n      sload\n      div\n      mul\n      dup4\n      mstore\n      swap2\n      0x20\n      add\n      swap2\n      jump(tag_126)\n    tag_127:\n      dup3\n      add\n      swap2\n      swap1\n      0x00\n      mstore\n      keccak256(0x00, 0x20)\n      swap1\n    tag_128:\n      dup2\n      sload\n      dup2\n      mstore\n      swap1\n      0x01\n      add\n      swap1\n      0x20\n      add\n      dup1\n      dup4\n      gt\n      tag_128\n      jumpi\n      dup3\n      swap1\n      sub\n      0x1f\n      and\n      dup3\n      add\n      swap2\n    tag_126:\n      pop\n      pop\n      pop\n      pop\n      pop\n      swap6\n      pop\n      dup4\n      dup1\n      sload\n      tag_129\n      swap1\n      tag_119\n      jump\t// in\n    tag_129:\n      dup1\n      0x1f\n      add\n      0x20\n      dup1\n      swap2\n      div\n      mul\n      0x20\n      add\n      mload(0x40)\n      swap1\n      dup2\n      add\n      0x40\n      mstore\n      dup1\n      swap3\n      swap2\n      swap1\n      dup2\n      dup2\n      mstore\n      0x20\n      add\n      dup3\n      dup1\n      sload\n      tag_130\n      swap1\n      tag_119\n      jump\t// in\n    tag_130:\n      dup1\n      iszero\n      tag_131\n      jumpi\n      dup1\n      0x1f\n      lt\n      tag_132\n      jumpi\n      0x0100\n      dup1\n      dup4\n      sload\n      div\n      mul\n      dup4\n      mstore\n      swap2\n      0x20\n      add\n      swap2\n      jump(tag_131)\n    tag_132:\n      dup3\n      add\n      swap2\n      swap1\n      0x00\n      mstore\n      keccak256(0x00, 0x20)\n      swap1\n    tag_133:\n      dup2\n      sload\n      dup2\n      mstore\n      swap1\n      0x01\n      add\n      swap1\n      0x20\n      add\n      dup1\n      dup4\n      gt\n      tag_133\n      jumpi\n      dup3\n      swap1\n      sub\n      0x1f\n      and\n      dup3\n      add\n      swap2\n    tag_131:\n      pop\n      pop\n      pop\n      pop\n      pop\n      swap4\n      pop\n      dup2\n      dup1\n      sload\n      tag_134\n      swap1\n      tag_119\n      jump\t// in\n    tag_134:\n      dup1\n      0x1f\n      add\n      0x20\n      dup1\n      swap2\n      div\n      mul\n      0x20\n      add\n      mload(0x40)\n      swap1\n      dup2\n      add\n      0x40\n      mstore\n      dup1\n      swap3\n      swap2\n      swap1\n      dup2\n      dup2\n      mstore\n      0x20\n      add\n      dup3\n      dup1\n      sload\n      tag_135\n      swap1\n      tag_119\n      jump\t// in\n    tag_135:\n      dup1\n      iszero\n      tag_136\n      jumpi\n      dup1\n      0x1f\n      lt\n      tag_137\n      jumpi\n      0x0100\n      dup1\n      dup4\n      sload\n      div\n      mul\n      dup4\n      mstore\n      swap2\n      0x20\n      add\n      swap2\n      jump(tag_136)\n    tag_137:\n      dup3\n      add\n      swap2\n      swap1\n      0x00\n      mstore\n      keccak256(0x00, 0x20)\n      swap1\n    tag_138:\n      dup2\n      sload\n      dup2\n      mstore\n      swap1\n      0x01\n      add\n      swap1\n      0x20\n      add\n      dup1\n      dup4\n      gt\n      tag_138\n      jumpi\n      dup3\n      swap1\n      sub\n      0x1f\n      and\n      dup3\n      add\n      swap2\n    tag_136:\n      pop\n      pop\n      pop\n      pop\n      pop\n      swap2\n      pop\n      swap7\n      pop\n      swap7\n      pop\n      swap7\n      pop\n      swap7\n      pop\n      swap7\n      pop\n      swap7\n      pop\n      swap7\n      pop\n        /* \"contracts/EthVoting.sol\":2571:3007  function getCandidateData(address _address) public view returns(string memory, string memory,uint256, string memory,uint256,string memory, address){... */\n      swap2\n      swap4\n      swap6\n      swap8\n      swap1\n      swap3\n      swap5\n      swap7\n      pop\n      jump\t// out\n        /* \"contracts/EthVoting.sol\":845:875  address[] public votersAddress */\n    tag_45:\n      0x06\n      dup2\n      dup2\n      sload\n      dup2\n      lt\n      tag_139\n      jumpi\n      0x00\n      dup1\n      revert\n    tag_139:\n      swap1\n      0x00\n      mstore\n      keccak256(0x00, 0x20)\n      add\n      0x00\n      swap2\n      pop\n      sload\n      swap1\n      0x0100\n      exp\n      swap1\n      div\n      0xffffffffffffffffffffffffffffffffffffffff\n      and\n      dup2\n      jump\t// out\n        /* \"contracts/EthVoting.sol\":262:292  address public votingOrganizer */\n    tag_49:\n      0x02\n      0x00\n      swap1\n      sload\n      swap1\n      0x0100\n      exp\n      swap1\n      div\n      0xffffffffffffffffffffffffffffffffffffffff\n      and\n      dup2\n      jump\t// out\n        /* \"contracts/EthVoting.sol\":3804:4258  function vote(address _candidateAddress,uint256 _candidateVoteId) external{... */\n    tag_54:\n        /* \"contracts/EthVoting.sol\":3888:3907  Voter storage voter */\n      0x00\n        /* \"contracts/EthVoting.sol\":3910:3916  voters */\n      0x07\n        /* \"contracts/EthVoting.sol\":3910:3928  voters[msg.sender] */\n      0x00\n        /* \"contracts/EthVoting.sol\":3917:3927  msg.sender */\n      caller\n        /* \"contracts/EthVoting.sol\":3910:3928  voters[msg.sender] */\n      0xffffffffffffffffffffffffffffffffffffffff\n      and\n      0xffffffffffffffffffffffffffffffffffffffff\n      and\n      dup2\n      mstore\n      0x20\n      add\n      swap1\n      dup2\n      mstore\n      0x20\n      add\n      0x00\n      keccak256\n        /* \"contracts/EthVoting.sol\":3888:3928  Voter storage voter = voters[msg.sender] */\n      swap1\n      pop\n        /* \"contracts/EthVoting.sol\":3948:3953  voter */\n      dup1\n        /* \"contracts/EthVoting.sol\":3948:3964  voter.voterVoted */\n      0x05\n      add\n      0x00\n      swap1\n      sload\n      swap1\n      0x0100\n      exp\n      swap1\n      div\n      0xff\n      and\n        /* \"contracts/EthVoting.sol\":3947:3964  !voter.voterVoted */\n      iszero\n        /* \"contracts/EthVoting.sol\":3939:3991  require(!voter.voterVoted, \"You have already voted\") */\n      tag_142\n      jumpi\n      mload(0x40)\n      0x08c379a000000000000000000000000000000000000000000000000000000000\n      dup2\n      mstore\n      0x04\n      add\n      tag_143\n      swap1\n      tag_144\n      jump\t// in\n    tag_143:\n      mload(0x40)\n      dup1\n      swap2\n      sub\n      swap1\n      revert\n    tag_142:\n        /* \"contracts/EthVoting.sol\":4030:4031  0 */\n      0x00\n        /* \"contracts/EthVoting.sol\":4009:4014  voter */\n      dup2\n        /* \"contracts/EthVoting.sol\":4009:4027  voter.voterAllowed */\n      0x04\n      add\n      sload\n        /* \"contracts/EthVoting.sol\":4009:4031  voter.voterAllowed !=0 */\n      sub\n        /* \"contracts/EthVoting.sol\":4001:4061  require(voter.voterAllowed !=0, \"You have no right to vote\") */\n      tag_145\n      jumpi\n      mload(0x40)\n      0x08c379a000000000000000000000000000000000000000000000000000000000\n      dup2\n      mstore\n      0x04\n      add\n      tag_146\n      swap1\n      tag_147\n      jump\t// in\n    tag_146:\n      mload(0x40)\n      dup1\n      swap2\n      sub\n      swap1\n      revert\n    tag_145:\n        /* \"contracts/EthVoting.sol\":4091:4095  true */\n      0x01\n        /* \"contracts/EthVoting.sol\":4072:4077  voter */\n      dup2\n        /* \"contracts/EthVoting.sol\":4072:4088  voter.voterVoted */\n      0x05\n      add\n      0x00\n        /* \"contracts/EthVoting.sol\":4072:4095  voter.voterVoted = true */\n      0x0100\n      exp\n      dup2\n      sload\n      dup2\n      0xff\n      mul\n      not\n      and\n      swap1\n      dup4\n      iszero\n      iszero\n      mul\n      or\n      swap1\n      sstore\n      pop\n        /* \"contracts/EthVoting.sol\":4123:4139  _candidateVoteId */\n      dup2\n        /* \"contracts/EthVoting.sol\":4105:4110  voter */\n      dup2\n        /* \"contracts/EthVoting.sol\":4105:4120  voter.voterVote */\n      0x06\n      add\n        /* \"contracts/EthVoting.sol\":4105:4139  voter.voterVote = _candidateVoteId */\n      dup2\n      swap1\n      sstore\n      pop\n        /* \"contracts/EthVoting.sol\":4150:4161  votedVoters */\n      0x05\n        /* \"contracts/EthVoting.sol\":4167:4177  msg.sender */\n      caller\n        /* \"contracts/EthVoting.sol\":4150:4178  votedVoters.push(msg.sender) */\n      swap1\n      dup1\n      0x01\n      dup2\n      sload\n      add\n      dup1\n      dup3\n      sstore\n      dup1\n      swap2\n      pop\n      pop\n      0x01\n      swap1\n      sub\n      swap1\n      0x00\n      mstore\n      keccak256(0x00, 0x20)\n      add\n      0x00\n      swap1\n      swap2\n      swap1\n      swap2\n      swap1\n      swap2\n      0x0100\n      exp\n      dup2\n      sload\n      dup2\n      0xffffffffffffffffffffffffffffffffffffffff\n      mul\n      not\n      and\n      swap1\n      dup4\n      0xffffffffffffffffffffffffffffffffffffffff\n      and\n      mul\n      or\n      swap1\n      sstore\n      pop\n        /* \"contracts/EthVoting.sol\":4232:4237  voter */\n      dup1\n        /* \"contracts/EthVoting.sol\":4232:4250  voter.voterAllowed */\n      0x04\n      add\n      sload\n        /* \"contracts/EthVoting.sol\":4189:4199  candidates */\n      0x04\n        /* \"contracts/EthVoting.sol\":4189:4218  candidates[_candidateAddress] */\n      0x00\n        /* \"contracts/EthVoting.sol\":4200:4217  _candidateAddress */\n      dup6\n        /* \"contracts/EthVoting.sol\":4189:4218  candidates[_candidateAddress] */\n      0xffffffffffffffffffffffffffffffffffffffff\n      and\n      0xffffffffffffffffffffffffffffffffffffffff\n      and\n      dup2\n      mstore\n      0x20\n      add\n      swap1\n      dup2\n      mstore\n      0x20\n      add\n      0x00\n      keccak256\n        /* \"contracts/EthVoting.sol\":4189:4228  candidates[_candidateAddress].voteCount */\n      0x04\n      add\n      0x00\n        /* \"contracts/EthVoting.sol\":4189:4250  candidates[_candidateAddress].voteCount += voter.voterAllowed */\n      dup3\n      dup3\n      sload\n      tag_149\n      swap2\n      swap1\n      tag_150\n      jump\t// in\n    tag_149:\n      swap3\n      pop\n      pop\n      dup2\n      swap1\n      sstore\n      pop\n        /* \"contracts/EthVoting.sol\":3878:4258  {... */\n      pop\n        /* \"contracts/EthVoting.sol\":3804:4258  function vote(address _candidateAddress,uint256 _candidateVoteId) external{... */\n      pop\n      pop\n      jump\t// out\n        /* \"contracts/EthVoting.sol\":219:255  Counters.Counter public _candidateID */\n    tag_56:\n      0x01\n      dup1\n      0x00\n      add\n      sload\n      swap1\n      pop\n      dup2\n      jump\t// out\n        /* \"contracts/EthVoting.sol\":2349:2450  function getCandidate() public view returns(address[] memory){... */\n    tag_59:\n        /* \"contracts/EthVoting.sol\":2393:2409  address[] memory */\n      0x60\n        /* \"contracts/EthVoting.sol\":2427:2443  CandidateAddress */\n      0x03\n        /* \"contracts/EthVoting.sol\":2420:2443  return CandidateAddress */\n      dup1\n      sload\n      dup1\n      0x20\n      mul\n      0x20\n      add\n      mload(0x40)\n      swap1\n      dup2\n      add\n      0x40\n      mstore\n      dup1\n      swap3\n      swap2\n      swap1\n      dup2\n      dup2\n      mstore\n      0x20\n      add\n      dup3\n      dup1\n      sload\n      dup1\n      iszero\n      tag_152\n      jumpi\n      0x20\n      mul\n      dup3\n      add\n      swap2\n      swap1\n      0x00\n      mstore\n      keccak256(0x00, 0x20)\n      swap1\n    tag_153:\n      dup2\n      0x00\n      swap1\n      sload\n      swap1\n      0x0100\n      exp\n      swap1\n      div\n      0xffffffffffffffffffffffffffffffffffffffff\n      and\n      0xffffffffffffffffffffffffffffffffffffffff\n      and\n      dup2\n      mstore\n      0x20\n      add\n      swap1\n      0x01\n      add\n      swap1\n      dup1\n      dup4\n      gt\n      tag_153\n      jumpi\n    tag_152:\n      pop\n      pop\n      pop\n      pop\n      pop\n      swap1\n      pop\n        /* \"contracts/EthVoting.sol\":2349:2450  function getCandidate() public view returns(address[] memory){... */\n      swap1\n      jump\t// out\n        /* \"contracts/EthVoting.sol\":811:839  address[] public votedVoters */\n    tag_63:\n      0x05\n      dup2\n      dup2\n      sload\n      dup2\n      lt\n      tag_154\n      jumpi\n      0x00\n      dup1\n      revert\n    tag_154:\n      swap1\n      0x00\n      mstore\n      keccak256(0x00, 0x20)\n      add\n      0x00\n      swap2\n      pop\n      sload\n      swap1\n      0x0100\n      exp\n      swap1\n      div\n      0xffffffffffffffffffffffffffffffffffffffff\n      and\n      dup2\n      jump\t// out\n        /* \"contracts/EthVoting.sol\":739:786  mapping(address => Candidate) public candidates */\n    tag_67:\n      mstore(0x20, 0x04)\n      dup1\n      0x00\n      mstore\n      keccak256(0x00, 0x40)\n      0x00\n      swap2\n      pop\n      swap1\n      pop\n      dup1\n      0x00\n      add\n      sload\n      swap1\n      dup1\n      0x01\n      add\n      dup1\n      sload\n      tag_156\n      swap1\n      tag_119\n      jump\t// in\n    tag_156:\n      dup1\n      0x1f\n      add\n      0x20\n      dup1\n      swap2\n      div\n      mul\n      0x20\n      add\n      mload(0x40)\n      swap1\n      dup2\n      add\n      0x40\n      mstore\n      dup1\n      swap3\n      swap2\n      swap1\n      dup2\n      dup2\n      mstore\n      0x20\n      add\n      dup3\n      dup1\n      sload\n      tag_157\n      swap1\n      tag_119\n      jump\t// in\n    tag_157:\n      dup1\n      iszero\n      tag_158\n      jumpi\n      dup1\n      0x1f\n      lt\n      tag_159\n      jumpi\n      0x0100\n      dup1\n      dup4\n      sload\n      div\n      mul\n      dup4\n      mstore\n      swap2\n      0x20\n      add\n      swap2\n      jump(tag_158)\n    tag_159:\n      dup3\n      add\n      swap2\n      swap1\n      0x00\n      mstore\n      keccak256(0x00, 0x20)\n      swap1\n    tag_160:\n      dup2\n      sload\n      dup2\n      mstore\n      swap1\n      0x01\n      add\n      swap1\n      0x20\n      add\n      dup1\n      dup4\n      gt\n      tag_160\n      jumpi\n      dup3\n      swap1\n      sub\n      0x1f\n      and\n      dup3\n      add\n      swap2\n    tag_158:\n      pop\n      pop\n      pop\n      pop\n      pop\n      swap1\n      dup1\n      0x02\n      add\n      dup1\n      sload\n      tag_161\n      swap1\n      tag_119\n      jump\t// in\n    tag_161:\n      dup1\n      0x1f\n      add\n      0x20\n      dup1\n      swap2\n      div\n      mul\n      0x20\n      add\n      mload(0x40)\n      swap1\n      dup2\n      add\n      0x40\n      mstore\n      dup1\n      swap3\n      swap2\n      swap1\n      dup2\n      dup2\n      mstore\n      0x20\n      add\n      dup3\n      dup1\n      sload\n      tag_162\n      swap1\n      tag_119\n      jump\t// in\n    tag_162:\n      dup1\n      iszero\n      tag_163\n      jumpi\n      dup1\n      0x1f\n      lt\n      tag_164\n      jumpi\n      0x0100\n      dup1\n      dup4\n      sload\n      div\n      mul\n      dup4\n      mstore\n      swap2\n      0x20\n      add\n      swap2\n      jump(tag_163)\n    tag_164:\n      dup3\n      add\n      swap2\n      swap1\n      0x00\n      mstore\n      keccak256(0x00, 0x20)\n      swap1\n    tag_165:\n      dup2\n      sload\n      dup2\n      mstore\n      swap1\n      0x01\n      add\n      swap1\n      0x20\n      add\n      dup1\n      dup4\n      gt\n      tag_165\n      jumpi\n      dup3\n      swap1\n      sub\n      0x1f\n      and\n      dup3\n      add\n      swap2\n    tag_163:\n      pop\n      pop\n      pop\n      pop\n      pop\n      swap1\n      dup1\n      0x03\n      add\n      dup1\n      sload\n      tag_166\n      swap1\n      tag_119\n      jump\t// in\n    tag_166:\n      dup1\n      0x1f\n      add\n      0x20\n      dup1\n      swap2\n      div\n      mul\n      0x20\n      add\n      mload(0x40)\n      swap1\n      dup2\n      add\n      0x40\n      mstore\n      dup1\n      swap3\n      swap2\n      swap1\n      dup2\n      dup2\n      mstore\n      0x20\n      add\n      dup3\n      dup1\n      sload\n      tag_167\n      swap1\n      tag_119\n      jump\t// in\n    tag_167:\n      dup1\n      iszero\n      tag_168\n      jumpi\n      dup1\n      0x1f\n      lt\n      tag_169\n      jumpi\n      0x0100\n      dup1\n      dup4\n      sload\n      div\n      mul\n      dup4\n      mstore\n      swap2\n      0x20\n      add\n      swap2\n      jump(tag_168)\n    tag_169:\n      dup3\n      add\n      swap2\n      swap1\n      0x00\n      mstore\n      keccak256(0x00, 0x20)\n      swap1\n    tag_170:\n      dup2\n      sload\n      dup2\n      mstore\n      swap1\n      0x01\n      add\n      swap1\n      0x20\n      add\n      dup1\n      dup4\n      gt\n      tag_170\n      jumpi\n      dup3\n      swap1\n      sub\n      0x1f\n      and\n      dup3\n      add\n      swap2\n    tag_168:\n      pop\n      pop\n      pop\n      pop\n      pop\n      swap1\n      dup1\n      0x04\n      add\n      sload\n      swap1\n      dup1\n      0x05\n      add\n      0x00\n      swap1\n      sload\n      swap1\n      0x0100\n      exp\n      swap1\n      div\n      0xffffffffffffffffffffffffffffffffffffffff\n      and\n      swap1\n      dup1\n      0x06\n      add\n      dup1\n      sload\n      tag_171\n      swap1\n      tag_119\n      jump\t// in\n    tag_171:\n      dup1\n      0x1f\n      add\n      0x20\n      dup1\n      swap2\n      div\n      mul\n      0x20\n      add\n      mload(0x40)\n      swap1\n      dup2\n      add\n      0x40\n      mstore\n      dup1\n      swap3\n      swap2\n      swap1\n      dup2\n      dup2\n      mstore\n      0x20\n      add\n      dup3\n      dup1\n      sload\n      tag_172\n      swap1\n      tag_119\n      jump\t// in\n    tag_172:\n      dup1\n      iszero\n      tag_173\n      jumpi\n      dup1\n      0x1f\n      lt\n      tag_174\n      jumpi\n      0x0100\n      dup1\n      dup4\n      sload\n      div\n      mul\n      dup4\n      mstore\n      swap2\n      0x20\n      add\n      swap2\n      jump(tag_173)\n    tag_174:\n      dup3\n      add\n      swap2\n      swap1\n      0x00\n      mstore\n      keccak256(0x00, 0x20)\n      swap1\n    tag_175:\n      dup2\n      sload\n      dup2\n      mstore\n      swap1\n      0x01\n      add\n      swap1\n      0x20\n      add\n      dup1\n      dup4\n      gt\n      tag_175\n      jumpi\n      dup3\n      swap1\n      sub\n      0x1f\n      and\n      dup3\n      add\n      swap2\n    tag_173:\n      pop\n      pop\n      pop\n      pop\n      pop\n      swap1\n      pop\n      dup8\n      jump\t// out\n        /* \"contracts/EthVoting.sol\":4368:4842  function getVoterData(address _address) public view returns(uint256, string memory, string memory, address, string memory,uint256,bool){... */\n    tag_72:\n        /* \"contracts/EthVoting.sol\":4428:4435  uint256 */\n      0x00\n        /* \"contracts/EthVoting.sol\":4437:4450  string memory */\n      0x60\n        /* \"contracts/EthVoting.sol\":4452:4465  string memory */\n      dup1\n        /* \"contracts/EthVoting.sol\":4467:4474  address */\n      0x00\n        /* \"contracts/EthVoting.sol\":4476:4489  string memory */\n      0x60\n        /* \"contracts/EthVoting.sol\":4490:4497  uint256 */\n      0x00\n        /* \"contracts/EthVoting.sol\":4498:4502  bool */\n      dup1\n        /* \"contracts/EthVoting.sol\":4534:4540  voters */\n      0x07\n        /* \"contracts/EthVoting.sol\":4534:4550  voters[_address] */\n      0x00\n        /* \"contracts/EthVoting.sol\":4541:4549  _address */\n      dup10\n        /* \"contracts/EthVoting.sol\":4534:4550  voters[_address] */\n      0xffffffffffffffffffffffffffffffffffffffff\n      and\n      0xffffffffffffffffffffffffffffffffffffffff\n      and\n      dup2\n      mstore\n      0x20\n      add\n      swap1\n      dup2\n      mstore\n      0x20\n      add\n      0x00\n      keccak256\n        /* \"contracts/EthVoting.sol\":4534:4564  voters[_address].voter_voterID */\n      0x00\n      add\n      sload\n        /* \"contracts/EthVoting.sol\":4578:4584  voters */\n      0x07\n        /* \"contracts/EthVoting.sol\":4578:4594  voters[_address] */\n      0x00\n        /* \"contracts/EthVoting.sol\":4585:4593  _address */\n      dup11\n        /* \"contracts/EthVoting.sol\":4578:4594  voters[_address] */\n      0xffffffffffffffffffffffffffffffffffffffff\n      and\n      0xffffffffffffffffffffffffffffffffffffffff\n      and\n      dup2\n      mstore\n      0x20\n      add\n      swap1\n      dup2\n      mstore\n      0x20\n      add\n      0x00\n      keccak256\n        /* \"contracts/EthVoting.sol\":4578:4604  voters[_address].voterName */\n      0x01\n      add\n        /* \"contracts/EthVoting.sol\":4618:4624  voters */\n      0x07\n        /* \"contracts/EthVoting.sol\":4618:4634  voters[_address] */\n      0x00\n        /* \"contracts/EthVoting.sol\":4625:4633  _address */\n      dup12\n        /* \"contracts/EthVoting.sol\":4618:4634  voters[_address] */\n      0xffffffffffffffffffffffffffffffffffffffff\n      and\n      0xffffffffffffffffffffffffffffffffffffffff\n      and\n      dup2\n      mstore\n      0x20\n      add\n      swap1\n      dup2\n      mstore\n      0x20\n      add\n      0x00\n      keccak256\n        /* \"contracts/EthVoting.sol\":4618:4643  voters[_address].voterImg */\n      0x02\n      add\n        /* \"contracts/EthVoting.sol\":4657:4663  voters */\n      0x07\n        /* \"contracts/EthVoting.sol\":4657:4673  voters[_address] */\n      0x00\n        /* \"contracts/EthVoting.sol\":4664:4672  _address */\n      dup13\n        /* \"contracts/EthVoting.sol\":4657:4673  voters[_address] */\n      0xffffffffffffffffffffffffffffffffffffffff\n      and\n      0xffffffffffffffffffffffffffffffffffffffff\n      and\n      dup2\n      mstore\n      0x20\n      add\n      swap1\n      dup2\n      mstore\n      0x20\n      add\n      0x00\n      keccak256\n        /* \"contracts/EthVoting.sol\":4657:4686  voters[_address].voterAddress */\n      0x03\n      add\n      0x00\n      swap1\n      sload\n      swap1\n      0x0100\n      exp\n      swap1\n      div\n      0xffffffffffffffffffffffffffffffffffffffff\n      and\n        /* \"contracts/EthVoting.sol\":4700:4706  voters */\n      0x07\n        /* \"contracts/EthVoting.sol\":4700:4716  voters[_address] */\n      0x00\n        /* \"contracts/EthVoting.sol\":4707:4715  _address */\n      dup14\n        /* \"contracts/EthVoting.sol\":4700:4716  voters[_address] */\n      0xffffffffffffffffffffffffffffffffffffffff\n      and\n      0xffffffffffffffffffffffffffffffffffffffff\n      and\n      dup2\n      mstore\n      0x20\n      add\n      swap1\n      dup2\n      mstore\n      0x20\n      add\n      0x00\n      keccak256\n        /* \"contracts/EthVoting.sol\":4700:4726  voters[_address].voterIpfs */\n      0x07\n      add\n        /* \"contracts/EthVoting.sol\":4740:4746  voters */\n      0x07\n        /* \"contracts/EthVoting.sol\":4740:4756  voters[_address] */\n      0x00\n        /* \"contracts/EthVoting.sol\":4747:4755  _address */\n      dup15\n        /* \"contracts/EthVoting.sol\":4740:4756  voters[_address] */\n      0xffffffffffffffffffffffffffffffffffffffff\n      and\n      0xffffffffffffffffffffffffffffffffffffffff\n      and\n      dup2\n      mstore\n      0x20\n      add\n      swap1\n      dup2\n      mstore\n      0x20\n      add\n      0x00\n      keccak256\n        /* \"contracts/EthVoting.sol\":4740:4769  voters[_address].voterAllowed */\n      0x04\n      add\n      sload\n        /* \"contracts/EthVoting.sol\":4783:4789  voters */\n      0x07\n        /* \"contracts/EthVoting.sol\":4783:4799  voters[_address] */\n      0x00\n        /* \"contracts/EthVoting.sol\":4790:4798  _address */\n      dup16\n        /* \"contracts/EthVoting.sol\":4783:4799  voters[_address] */\n      0xffffffffffffffffffffffffffffffffffffffff\n      and\n      0xffffffffffffffffffffffffffffffffffffffff\n      and\n      dup2\n      mstore\n      0x20\n      add\n      swap1\n      dup2\n      mstore\n      0x20\n      add\n      0x00\n      keccak256\n        /* \"contracts/EthVoting.sol\":4783:4810  voters[_address].voterVoted */\n      0x05\n      add\n      0x00\n      swap1\n      sload\n      swap1\n      0x0100\n      exp\n      swap1\n      div\n      0xff\n      and\n        /* \"contracts/EthVoting.sol\":4513:4835  return (... */\n      dup6\n      dup1\n      sload\n      tag_177\n      swap1\n      tag_119\n      jump\t// in\n    tag_177:\n      dup1\n      0x1f\n      add\n      0x20\n      dup1\n      swap2\n      div\n      mul\n      0x20\n      add\n      mload(0x40)\n      swap1\n      dup2\n      add\n      0x40\n      mstore\n      dup1\n      swap3\n      swap2\n      swap1\n      dup2\n      dup2\n      mstore\n      0x20\n      add\n      dup3\n      dup1\n      sload\n      tag_178\n      swap1\n      tag_119\n      jump\t// in\n    tag_178:\n      dup1\n      iszero\n      tag_179\n      jumpi\n      dup1\n      0x1f\n      lt\n      tag_180\n      jumpi\n      0x0100\n      dup1\n      dup4\n      sload\n      div\n      mul\n      dup4\n      mstore\n      swap2\n      0x20\n      add\n      swap2\n      jump(tag_179)\n    tag_180:\n      dup3\n      add\n      swap2\n      swap1\n      0x00\n      mstore\n      keccak256(0x00, 0x20)\n      swap1\n    tag_181:\n      dup2\n      sload\n      dup2\n      mstore\n      swap1\n      0x01\n      add\n      swap1\n      0x20\n      add\n      dup1\n      dup4\n      gt\n      tag_181\n      jumpi\n      dup3\n      swap1\n      sub\n      0x1f\n      and\n      dup3\n      add\n      swap2\n    tag_179:\n      pop\n      pop\n      pop\n      pop\n      pop\n      swap6\n      pop\n      dup5\n      dup1\n      sload\n      tag_182\n      swap1\n      tag_119\n      jump\t// in\n    tag_182:\n      dup1\n      0x1f\n      add\n      0x20\n      dup1\n      swap2\n      div\n      mul\n      0x20\n      add\n      mload(0x40)\n      swap1\n      dup2\n      add\n      0x40\n      mstore\n      dup1\n      swap3\n      swap2\n      swap1\n      dup2\n      dup2\n      mstore\n      0x20\n      add\n      dup3\n      dup1\n      sload\n      tag_183\n      swap1\n      tag_119\n      jump\t// in\n    tag_183:\n      dup1\n      iszero\n      tag_184\n      jumpi\n      dup1\n      0x1f\n      lt\n      tag_185\n      jumpi\n      0x0100\n      dup1\n      dup4\n      sload\n      div\n      mul\n      dup4\n      mstore\n      swap2\n      0x20\n      add\n      swap2\n      jump(tag_184)\n    tag_185:\n      dup3\n      add\n      swap2\n      swap1\n      0x00\n      mstore\n      keccak256(0x00, 0x20)\n      swap1\n    tag_186:\n      dup2\n      sload\n      dup2\n      mstore\n      swap1\n      0x01\n      add\n      swap1\n      0x20\n      add\n      dup1\n      dup4\n      gt\n      tag_186\n      jumpi\n      dup3\n      swap1\n      sub\n      0x1f\n      and\n      dup3\n      add\n      swap2\n    tag_184:\n      pop\n      pop\n      pop\n      pop\n      pop\n      swap5\n      pop\n      dup3\n      dup1\n      sload\n      tag_187\n      swap1\n      tag_119\n      jump\t// in\n    tag_187:\n      dup1\n      0x1f\n      add\n      0x20\n      dup1\n      swap2\n      div\n      mul\n      0x20\n      add\n      mload(0x40)\n      swap1\n      dup2\n      add\n      0x40\n      mstore\n      dup1\n      swap3\n      swap2\n      swap1\n      dup2\n      dup2\n      mstore\n      0x20\n      add\n      dup3\n      dup1\n      sload\n      tag_188\n      swap1\n      tag_119\n      jump\t// in\n    tag_188:\n      dup1\n      iszero\n      tag_189\n      jumpi\n      dup1\n      0x1f\n      lt\n      tag_190\n      jumpi\n      0x0100\n      dup1\n      dup4\n      sload\n      div\n      mul\n      dup4\n      mstore\n      swap2\n      0x20\n      add\n      swap2\n      jump(tag_189)\n    tag_190:\n      dup3\n      add\n      swap2\n      swap1\n      0x00\n      mstore\n      keccak256(0x00, 0x20)\n      swap1\n    tag_191:\n      dup2\n      sload\n      dup2\n      mstore\n      swap1\n      0x01\n      add\n      swap1\n      0x20\n      add\n      dup1\n      dup4\n      gt\n      tag_191\n      jumpi\n      dup3\n      swap1\n      sub\n      0x1f\n      and\n      dup3\n      add\n      swap2\n    tag_189:\n      pop\n      pop\n      pop\n      pop\n      pop\n      swap3\n      pop\n      swap7\n      pop\n      swap7\n      pop\n      swap7\n      pop\n      swap7\n      pop\n      swap7\n      pop\n      swap7\n      pop\n      swap7\n      pop\n        /* \"contracts/EthVoting.sol\":4368:4842  function getVoterData(address _address) public view returns(uint256, string memory, string memory, address, string memory,uint256,bool){... */\n      swap2\n      swap4\n      swap6\n      swap8\n      swap1\n      swap3\n      swap5\n      swap7\n      pop\n      jump\t// out\n        /* \"contracts/EthVoting.sol\":700:733  address[] public CandidateAddress */\n    tag_77:\n      0x03\n      dup2\n      dup2\n      sload\n      dup2\n      lt\n      tag_192\n      jumpi\n      0x00\n      dup1\n      revert\n    tag_192:\n      swap1\n      0x00\n      mstore\n      keccak256(0x00, 0x20)\n      add\n      0x00\n      swap2\n      pop\n      sload\n      swap1\n      0x0100\n      exp\n      swap1\n      div\n      0xffffffffffffffffffffffffffffffffffffffff\n      and\n      dup2\n      jump\t// out\n        /* \"contracts/EthVoting.sol\":1383:1423  mapping (address => Voter) public voters */\n    tag_81:\n      mstore(0x20, 0x07)\n      dup1\n      0x00\n      mstore\n      keccak256(0x00, 0x40)\n      0x00\n      swap2\n      pop\n      swap1\n      pop\n      dup1\n      0x00\n      add\n      sload\n      swap1\n      dup1\n      0x01\n      add\n      dup1\n      sload\n      tag_194\n      swap1\n      tag_119\n      jump\t// in\n    tag_194:\n      dup1\n      0x1f\n      add\n      0x20\n      dup1\n      swap2\n      div\n      mul\n      0x20\n      add\n      mload(0x40)\n      swap1\n      dup2\n      add\n      0x40\n      mstore\n      dup1\n      swap3\n      swap2\n      swap1\n      dup2\n      dup2\n      mstore\n      0x20\n      add\n      dup3\n      dup1\n      sload\n      tag_195\n      swap1\n      tag_119\n      jump\t// in\n    tag_195:\n      dup1\n      iszero\n      tag_196\n      jumpi\n      dup1\n      0x1f\n      lt\n      tag_197\n      jumpi\n      0x0100\n      dup1\n      dup4\n      sload\n      div\n      mul\n      dup4\n      mstore\n      swap2\n      0x20\n      add\n      swap2\n      jump(tag_196)\n    tag_197:\n      dup3\n      add\n      swap2\n      swap1\n      0x00\n      mstore\n      keccak256(0x00, 0x20)\n      swap1\n    tag_198:\n      dup2\n      sload\n      dup2\n      mstore\n      swap1\n      0x01\n      add\n      swap1\n      0x20\n      add\n      dup1\n      dup4\n      gt\n      tag_198\n      jumpi\n      dup3\n      swap1\n      sub\n      0x1f\n      and\n      dup3\n      add\n      swap2\n    tag_196:\n      pop\n      pop\n      pop\n      pop\n      pop\n      swap1\n      dup1\n      0x02\n      add\n      dup1\n      sload\n      tag_199\n      swap1\n      tag_119\n      jump\t// in\n    tag_199:\n      dup1\n      0x1f\n      add\n      0x20\n      dup1\n      swap2\n      div\n      mul\n      0x20\n      add\n      mload(0x40)\n      swap1\n      dup2\n      add\n      0x40\n      mstore\n      dup1\n      swap3\n      swap2\n      swap1\n      dup2\n      dup2\n      mstore\n      0x20\n      add\n      dup3\n      dup1\n      sload\n      tag_200\n      swap1\n      tag_119\n      jump\t// in\n    tag_200:\n      dup1\n      iszero\n      tag_201\n      jumpi\n      dup1\n      0x1f\n      lt\n      tag_202\n      jumpi\n      0x0100\n      dup1\n      dup4\n      sload\n      div\n      mul\n      dup4\n      mstore\n      swap2\n      0x20\n      add\n      swap2\n      jump(tag_201)\n    tag_202:\n      dup3\n      add\n      swap2\n      swap1\n      0x00\n      mstore\n      keccak256(0x00, 0x20)\n      swap1\n    tag_203:\n      dup2\n      sload\n      dup2\n      mstore\n      swap1\n      0x01\n      add\n      swap1\n      0x20\n      add\n      dup1\n      dup4\n      gt\n      tag_203\n      jumpi\n      dup3\n      swap1\n      sub\n      0x1f\n      and\n      dup3\n      add\n      swap2\n    tag_201:\n      pop\n      pop\n      pop\n      pop\n      pop\n      swap1\n      dup1\n      0x03\n      add\n      0x00\n      swap1\n      sload\n      swap1\n      0x0100\n      exp\n      swap1\n      div\n      0xffffffffffffffffffffffffffffffffffffffff\n      and\n      swap1\n      dup1\n      0x04\n      add\n      sload\n      swap1\n      dup1\n      0x05\n      add\n      0x00\n      swap1\n      sload\n      swap1\n      0x0100\n      exp\n      swap1\n      div\n      0xff\n      and\n      swap1\n      dup1\n      0x06\n      add\n      sload\n      swap1\n      dup1\n      0x07\n      add\n      dup1\n      sload\n      tag_204\n      swap1\n      tag_119\n      jump\t// in\n    tag_204:\n      dup1\n      0x1f\n      add\n      0x20\n      dup1\n      swap2\n      div\n      mul\n      0x20\n      add\n      mload(0x40)\n      swap1\n      dup2\n      add\n      0x40\n      mstore\n      dup1\n      swap3\n      swap2\n      swap1\n      dup2\n      dup2\n      mstore\n      0x20\n      add\n      dup3\n      dup1\n      sload\n      tag_205\n      swap1\n      tag_119\n      jump\t// in\n    tag_205:\n      dup1\n      iszero\n      tag_206\n      jumpi\n      dup1\n      0x1f\n      lt\n      tag_207\n      jumpi\n      0x0100\n      dup1\n      dup4\n      sload\n      div\n      mul\n      dup4\n      mstore\n      swap2\n      0x20\n      add\n      swap2\n      jump(tag_206)\n    tag_207:\n      dup3\n      add\n      swap2\n      swap1\n      0x00\n      mstore\n      keccak256(0x00, 0x20)\n      swap1\n    tag_208:\n      dup2\n      sload\n      dup2\n      mstore\n      swap1\n      0x01\n      add\n      swap1\n      0x20\n      add\n      dup1\n      dup4\n      gt\n      tag_208\n      jumpi\n      dup3\n      swap1\n      sub\n      0x1f\n      and\n      dup3\n      add\n      swap2\n    tag_206:\n      pop\n      pop\n      pop\n      pop\n      pop\n      swap1\n      pop\n      dup9\n      jump\t// out\n        /* \"contracts/EthVoting.sol\":4957:5056  function getVoterList() public view returns (address[] memory){... */\n    tag_85:\n        /* \"contracts/EthVoting.sol\":5002:5018  address[] memory */\n      0x60\n        /* \"contracts/EthVoting.sol\":5036:5049  votersAddress */\n      0x06\n        /* \"contracts/EthVoting.sol\":5029:5049  return votersAddress */\n      dup1\n      sload\n      dup1\n      0x20\n      mul\n      0x20\n      add\n      mload(0x40)\n      swap1\n      dup2\n      add\n      0x40\n      mstore\n      dup1\n      swap3\n      swap2\n      swap1\n      dup2\n      dup2\n      mstore\n      0x20\n      add\n      dup3\n      dup1\n      sload\n      dup1\n      iszero\n      tag_210\n      jumpi\n      0x20\n      mul\n      dup3\n      add\n      swap2\n      swap1\n      0x00\n      mstore\n      keccak256(0x00, 0x20)\n      swap1\n    tag_211:\n      dup2\n      0x00\n      swap1\n      sload\n      swap1\n      0x0100\n      exp\n      swap1\n      div\n      0xffffffffffffffffffffffffffffffffffffffff\n      and\n      0xffffffffffffffffffffffffffffffffffffffff\n      and\n      dup2\n      mstore\n      0x20\n      add\n      swap1\n      0x01\n      add\n      swap1\n      dup1\n      dup4\n      gt\n      tag_211\n      jumpi\n    tag_210:\n      pop\n      pop\n      pop\n      pop\n      pop\n      swap1\n      pop\n        /* \"contracts/EthVoting.sol\":4957:5056  function getVoterList() public view returns (address[] memory){... */\n      swap1\n      jump\t// out\n        /* \"contracts/EthVoting.sol\":181:213  Counters.Counter public _voterID */\n    tag_88:\n      0x00\n      dup1\n      0x00\n      add\n      sload\n      swap1\n      pop\n      dup2\n      jump\t// out\n        /* \"contracts/EthVoting.sol\":1499:2343  function setCandidate(address _address, string memory _age,string memory _name,string memory _img, string memory _ipfs  )public{... */\n    tag_93:\n        /* \"contracts/EthVoting.sol\":1663:1673  msg.sender */\n      caller\n        /* \"contracts/EthVoting.sol\":1644:1673  votingOrganizer == msg.sender */\n      0xffffffffffffffffffffffffffffffffffffffff\n      and\n        /* \"contracts/EthVoting.sol\":1644:1659  votingOrganizer */\n      0x02\n      0x00\n      swap1\n      sload\n      swap1\n      0x0100\n      exp\n      swap1\n      div\n      0xffffffffffffffffffffffffffffffffffffffff\n      and\n        /* \"contracts/EthVoting.sol\":1644:1673  votingOrganizer == msg.sender */\n      0xffffffffffffffffffffffffffffffffffffffff\n      and\n      eq\n        /* \"contracts/EthVoting.sol\":1636:1714  require(votingOrganizer == msg.sender, \"Only organizer can add new candidate\") */\n      tag_213\n      jumpi\n      mload(0x40)\n      0x08c379a000000000000000000000000000000000000000000000000000000000\n      dup2\n      mstore\n      0x04\n      add\n      tag_214\n      swap1\n      tag_215\n      jump\t// in\n    tag_214:\n      mload(0x40)\n      dup1\n      swap2\n      sub\n      swap1\n      revert\n    tag_213:\n        /* \"contracts/EthVoting.sol\":1725:1749  _candidateID.increment() */\n      tag_216\n        /* \"contracts/EthVoting.sol\":1725:1737  _candidateID */\n      0x01\n        /* \"contracts/EthVoting.sol\":1725:1747  _candidateID.increment */\n      tag_102\n        /* \"contracts/EthVoting.sol\":1725:1749  _candidateID.increment() */\n      jump\t// in\n    tag_216:\n        /* \"contracts/EthVoting.sol\":1760:1776  uint256 idNumber */\n      0x00\n        /* \"contracts/EthVoting.sol\":1779:1801  _candidateID.current() */\n      tag_217\n        /* \"contracts/EthVoting.sol\":1779:1791  _candidateID */\n      0x01\n        /* \"contracts/EthVoting.sol\":1779:1799  _candidateID.current */\n      tag_104\n        /* \"contracts/EthVoting.sol\":1779:1801  _candidateID.current() */\n      jump\t// in\n    tag_217:\n        /* \"contracts/EthVoting.sol\":1760:1801  uint256 idNumber = _candidateID.current() */\n      swap1\n      pop\n        /* \"contracts/EthVoting.sol\":1812:1839  Candidate storage candidate */\n      0x00\n        /* \"contracts/EthVoting.sol\":1842:1852  candidates */\n      0x04\n        /* \"contracts/EthVoting.sol\":1842:1862  candidates[_address] */\n      0x00\n        /* \"contracts/EthVoting.sol\":1853:1861  _address */\n      dup9\n        /* \"contracts/EthVoting.sol\":1842:1862  candidates[_address] */\n      0xffffffffffffffffffffffffffffffffffffffff\n      and\n      0xffffffffffffffffffffffffffffffffffffffff\n      and\n      dup2\n      mstore\n      0x20\n      add\n      swap1\n      dup2\n      mstore\n      0x20\n      add\n      0x00\n      keccak256\n        /* \"contracts/EthVoting.sol\":1812:1862  Candidate storage candidate = candidates[_address] */\n      swap1\n      pop\n        /* \"contracts/EthVoting.sol\":1888:1892  _age */\n      dup6\n        /* \"contracts/EthVoting.sol\":1872:1881  candidate */\n      dup2\n        /* \"contracts/EthVoting.sol\":1872:1885  candidate.age */\n      0x01\n      add\n        /* \"contracts/EthVoting.sol\":1872:1892  candidate.age = _age */\n      swap1\n      dup2\n      tag_218\n      swap2\n      swap1\n      tag_107\n      jump\t// in\n    tag_218:\n      pop\n        /* \"contracts/EthVoting.sol\":1919:1924  _name */\n      dup5\n        /* \"contracts/EthVoting.sol\":1902:1911  candidate */\n      dup2\n        /* \"contracts/EthVoting.sol\":1902:1916  candidate.name */\n      0x02\n      add\n        /* \"contracts/EthVoting.sol\":1902:1924  candidate.name = _name */\n      swap1\n      dup2\n      tag_219\n      swap2\n      swap1\n      tag_107\n      jump\t// in\n    tag_219:\n      pop\n        /* \"contracts/EthVoting.sol\":1958:1966  idNumber */\n      dup2\n        /* \"contracts/EthVoting.sol\":1934:1943  candidate */\n      dup2\n        /* \"contracts/EthVoting.sol\":1934:1955  candidate.candidateID */\n      0x00\n      add\n        /* \"contracts/EthVoting.sol\":1934:1966  candidate.candidateID = idNumber */\n      dup2\n      swap1\n      sstore\n      pop\n        /* \"contracts/EthVoting.sol\":1992:1996  _img */\n      dup4\n        /* \"contracts/EthVoting.sol\":1976:1985  candidate */\n      dup2\n        /* \"contracts/EthVoting.sol\":1976:1989  candidate.img */\n      0x03\n      add\n        /* \"contracts/EthVoting.sol\":1976:1996  candidate.img = _img */\n      swap1\n      dup2\n      tag_220\n      swap2\n      swap1\n      tag_107\n      jump\t// in\n    tag_220:\n      pop\n        /* \"contracts/EthVoting.sol\":2028:2029  0 */\n      0x00\n        /* \"contracts/EthVoting.sol\":2006:2015  candidate */\n      dup2\n        /* \"contracts/EthVoting.sol\":2006:2025  candidate.voteCount */\n      0x04\n      add\n        /* \"contracts/EthVoting.sol\":2006:2029  candidate.voteCount = 0 */\n      dup2\n      swap1\n      sstore\n      pop\n        /* \"contracts/EthVoting.sol\":2060:2068  _address */\n      dup7\n        /* \"contracts/EthVoting.sol\":2039:2048  candidate */\n      dup2\n        /* \"contracts/EthVoting.sol\":2039:2057  candidate._address */\n      0x05\n      add\n      0x00\n        /* \"contracts/EthVoting.sol\":2039:2068  candidate._address = _address */\n      0x0100\n      exp\n      dup2\n      sload\n      dup2\n      0xffffffffffffffffffffffffffffffffffffffff\n      mul\n      not\n      and\n      swap1\n      dup4\n      0xffffffffffffffffffffffffffffffffffffffff\n      and\n      mul\n      or\n      swap1\n      sstore\n      pop\n        /* \"contracts/EthVoting.sol\":2095:2100  _ipfs */\n      dup3\n        /* \"contracts/EthVoting.sol\":2078:2087  candidate */\n      dup2\n        /* \"contracts/EthVoting.sol\":2078:2092  candidate.ipfs */\n      0x06\n      add\n        /* \"contracts/EthVoting.sol\":2078:2100  candidate.ipfs = _ipfs */\n      swap1\n      dup2\n      tag_221\n      swap2\n      swap1\n      tag_107\n      jump\t// in\n    tag_221:\n      pop\n        /* \"contracts/EthVoting.sol\":2111:2127  CandidateAddress */\n      0x03\n        /* \"contracts/EthVoting.sol\":2133:2141  _address */\n      dup8\n        /* \"contracts/EthVoting.sol\":2111:2142  CandidateAddress.push(_address) */\n      swap1\n      dup1\n      0x01\n      dup2\n      sload\n      add\n      dup1\n      dup3\n      sstore\n      dup1\n      swap2\n      pop\n      pop\n      0x01\n      swap1\n      sub\n      swap1\n      0x00\n      mstore\n      keccak256(0x00, 0x20)\n      add\n      0x00\n      swap1\n      swap2\n      swap1\n      swap2\n      swap1\n      swap2\n      0x0100\n      exp\n      dup2\n      sload\n      dup2\n      0xffffffffffffffffffffffffffffffffffffffff\n      mul\n      not\n      and\n      swap1\n      dup4\n      0xffffffffffffffffffffffffffffffffffffffff\n      and\n      mul\n      or\n      swap1\n      sstore\n      pop\n        /* \"contracts/EthVoting.sol\":2186:2194  idNumber */\n      dup2\n        /* \"contracts/EthVoting.sol\":2158:2327  CandidateCreate(... */\n      0xd297f12b256bb8485a6013fb5e302017018123e99a0ebb20756c09e1707b4b90\n        /* \"contracts/EthVoting.sol\":2207:2211  _age */\n      dup8\n        /* \"contracts/EthVoting.sol\":2224:2229  _name */\n      dup8\n        /* \"contracts/EthVoting.sol\":2242:2246  _img */\n      dup8\n        /* \"contracts/EthVoting.sol\":2259:2268  candidate */\n      dup6\n        /* \"contracts/EthVoting.sol\":2259:2278  candidate.voteCount */\n      0x04\n      add\n      sload\n        /* \"contracts/EthVoting.sol\":2291:2299  _address */\n      dup13\n        /* \"contracts/EthVoting.sol\":2312:2317  _ipfs */\n      dup10\n        /* \"contracts/EthVoting.sol\":2158:2327  CandidateCreate(... */\n      mload(0x40)\n      tag_223\n      swap7\n      swap6\n      swap5\n      swap4\n      swap3\n      swap2\n      swap1\n      tag_224\n      jump\t// in\n    tag_223:\n      mload(0x40)\n      dup1\n      swap2\n      sub\n      swap1\n      log2\n        /* \"contracts/EthVoting.sol\":1626:2343  {... */\n      pop\n      pop\n        /* \"contracts/EthVoting.sol\":1499:2343  function setCandidate(address _address, string memory _age,string memory _name,string memory _img, string memory _ipfs  )public{... */\n      pop\n      pop\n      pop\n      pop\n      pop\n      jump\t// out\n        /* \"contracts/EthVoting.sol\":2460:2565  function getCandidateLength()public view returns (uint256){... */\n    tag_95:\n        /* \"contracts/EthVoting.sol\":2510:2517  uint256 */\n      0x00\n        /* \"contracts/EthVoting.sol\":2535:2551  CandidateAddress */\n      0x03\n        /* \"contracts/EthVoting.sol\":2535:2558  CandidateAddress.length */\n      dup1\n      sload\n      swap1\n      pop\n        /* \"contracts/EthVoting.sol\":2528:2558  return CandidateAddress.length */\n      swap1\n      pop\n        /* \"contracts/EthVoting.sol\":2460:2565  function getCandidateLength()public view returns (uint256){... */\n      swap1\n      jump\t// out\n        /* \"@openzeppelin/contracts/utils/Counters.sol\":945:1068  function increment(Counter storage counter) internal {... */\n    tag_102:\n        /* \"@openzeppelin/contracts/utils/Counters.sol\":1050:1051  1 */\n      0x01\n        /* \"@openzeppelin/contracts/utils/Counters.sol\":1032:1039  counter */\n      dup2\n        /* \"@openzeppelin/contracts/utils/Counters.sol\":1032:1046  counter._value */\n      0x00\n      add\n      0x00\n        /* \"@openzeppelin/contracts/utils/Counters.sol\":1032:1051  counter._value += 1 */\n      dup3\n      dup3\n      sload\n      add\n      swap3\n      pop\n      pop\n      dup2\n      swap1\n      sstore\n      pop\n        /* \"@openzeppelin/contracts/utils/Counters.sol\":945:1068  function increment(Counter storage counter) internal {... */\n      pop\n      jump\t// out\n        /* \"@openzeppelin/contracts/utils/Counters.sol\":827:939  function current(Counter storage counter) internal view returns (uint256) {... */\n    tag_104:\n        /* \"@openzeppelin/contracts/utils/Counters.sol\":892:899  uint256 */\n      0x00\n        /* \"@openzeppelin/contracts/utils/Counters.sol\":918:925  counter */\n      dup2\n        /* \"@openzeppelin/contracts/utils/Counters.sol\":918:932  counter._value */\n      0x00\n      add\n      sload\n        /* \"@openzeppelin/contracts/utils/Counters.sol\":911:932  return counter._value */\n      swap1\n      pop\n        /* \"@openzeppelin/contracts/utils/Counters.sol\":827:939  function current(Counter storage counter) internal view returns (uint256) {... */\n      swap2\n      swap1\n      pop\n      jump\t// out\n        /* \"#utility.yul\":7:82   */\n    tag_228:\n        /* \"#utility.yul\":40:46   */\n      0x00\n        /* \"#utility.yul\":73:75   */\n      0x40\n        /* \"#utility.yul\":67:76   */\n      mload\n        /* \"#utility.yul\":57:76   */\n      swap1\n      pop\n        /* \"#utility.yul\":7:82   */\n      swap1\n      jump\t// out\n        /* \"#utility.yul\":88:205   */\n    tag_229:\n        /* \"#utility.yul\":197:198   */\n      0x00\n        /* \"#utility.yul\":194:195   */\n      dup1\n        /* \"#utility.yul\":187:199   */\n      revert\n        /* \"#utility.yul\":211:328   */\n    tag_230:\n        /* \"#utility.yul\":320:321   */\n      0x00\n        /* \"#utility.yul\":317:318   */\n      dup1\n        /* \"#utility.yul\":310:322   */\n      revert\n        /* \"#utility.yul\":334:460   */\n    tag_231:\n        /* \"#utility.yul\":371:378   */\n      0x00\n        /* \"#utility.yul\":411:453   */\n      0xffffffffffffffffffffffffffffffffffffffff\n        /* \"#utility.yul\":404:409   */\n      dup3\n        /* \"#utility.yul\":400:454   */\n      and\n        /* \"#utility.yul\":389:454   */\n      swap1\n      pop\n        /* \"#utility.yul\":334:460   */\n      swap2\n      swap1\n      pop\n      jump\t// out\n        /* \"#utility.yul\":466:562   */\n    tag_232:\n        /* \"#utility.yul\":503:510   */\n      0x00\n        /* \"#utility.yul\":532:556   */\n      tag_294\n        /* \"#utility.yul\":550:555   */\n      dup3\n        /* \"#utility.yul\":532:556   */\n      tag_231\n      jump\t// in\n    tag_294:\n        /* \"#utility.yul\":521:556   */\n      swap1\n      pop\n        /* \"#utility.yul\":466:562   */\n      swap2\n      swap1\n      pop\n      jump\t// out\n        /* \"#utility.yul\":568:690   */\n    tag_233:\n        /* \"#utility.yul\":641:665   */\n      tag_296\n        /* \"#utility.yul\":659:664   */\n      dup2\n        /* \"#utility.yul\":641:665   */\n      tag_232\n      jump\t// in\n    tag_296:\n        /* \"#utility.yul\":634:639   */\n      dup2\n        /* \"#utility.yul\":631:666   */\n      eq\n        /* \"#utility.yul\":621:684   */\n      tag_297\n      jumpi\n        /* \"#utility.yul\":680:681   */\n      0x00\n        /* \"#utility.yul\":677:678   */\n      dup1\n        /* \"#utility.yul\":670:682   */\n      revert\n        /* \"#utility.yul\":621:684   */\n    tag_297:\n        /* \"#utility.yul\":568:690   */\n      pop\n      jump\t// out\n        /* \"#utility.yul\":696:835   */\n    tag_234:\n        /* \"#utility.yul\":742:747   */\n      0x00\n        /* \"#utility.yul\":780:786   */\n      dup2\n        /* \"#utility.yul\":767:787   */\n      calldataload\n        /* \"#utility.yul\":758:787   */\n      swap1\n      pop\n        /* \"#utility.yul\":796:829   */\n      tag_299\n        /* \"#utility.yul\":823:828   */\n      dup2\n        /* \"#utility.yul\":796:829   */\n      tag_233\n      jump\t// in\n    tag_299:\n        /* \"#utility.yul\":696:835   */\n      swap3\n      swap2\n      pop\n      pop\n      jump\t// out\n        /* \"#utility.yul\":841:958   */\n    tag_235:\n        /* \"#utility.yul\":950:951   */\n      0x00\n        /* \"#utility.yul\":947:948   */\n      dup1\n        /* \"#utility.yul\":940:952   */\n      revert\n        /* \"#utility.yul\":964:1081   */\n    tag_236:\n        /* \"#utility.yul\":1073:1074   */\n      0x00\n        /* \"#utility.yul\":1070:1071   */\n      dup1\n        /* \"#utility.yul\":1063:1075   */\n      revert\n        /* \"#utility.yul\":1087:1189   */\n    tag_237:\n        /* \"#utility.yul\":1128:1134   */\n      0x00\n        /* \"#utility.yul\":1179:1181   */\n      0x1f\n        /* \"#utility.yul\":1175:1182   */\n      not\n        /* \"#utility.yul\":1170:1172   */\n      0x1f\n        /* \"#utility.yul\":1163:1168   */\n      dup4\n        /* \"#utility.yul\":1159:1173   */\n      add\n        /* \"#utility.yul\":1155:1183   */\n      and\n        /* \"#utility.yul\":1145:1183   */\n      swap1\n      pop\n        /* \"#utility.yul\":1087:1189   */\n      swap2\n      swap1\n      pop\n      jump\t// out\n        /* \"#utility.yul\":1195:1375   */\n    tag_238:\n        /* \"#utility.yul\":1243:1320   */\n      0x4e487b7100000000000000000000000000000000000000000000000000000000\n        /* \"#utility.yul\":1240:1241   */\n      0x00\n        /* \"#utility.yul\":1233:1321   */\n      mstore\n        /* \"#utility.yul\":1340:1344   */\n      0x41\n        /* \"#utility.yul\":1337:1338   */\n      0x04\n        /* \"#utility.yul\":1330:1345   */\n      mstore\n        /* \"#utility.yul\":1364:1368   */\n      0x24\n        /* \"#utility.yul\":1361:1362   */\n      0x00\n        /* \"#utility.yul\":1354:1369   */\n      revert\n        /* \"#utility.yul\":1381:1662   */\n    tag_239:\n        /* \"#utility.yul\":1464:1491   */\n      tag_305\n        /* \"#utility.yul\":1486:1490   */\n      dup3\n        /* \"#utility.yul\":1464:1491   */\n      tag_237\n      jump\t// in\n    tag_305:\n        /* \"#utility.yul\":1456:1462   */\n      dup2\n        /* \"#utility.yul\":1452:1492   */\n      add\n        /* \"#utility.yul\":1594:1600   */\n      dup2\n        /* \"#utility.yul\":1582:1592   */\n      dup2\n        /* \"#utility.yul\":1579:1601   */\n      lt\n        /* \"#utility.yul\":1558:1576   */\n      0xffffffffffffffff\n        /* \"#utility.yul\":1546:1556   */\n      dup3\n        /* \"#utility.yul\":1543:1577   */\n      gt\n        /* \"#utility.yul\":1540:1602   */\n      or\n        /* \"#utility.yul\":1537:1625   */\n      iszero\n      tag_306\n      jumpi\n        /* \"#utility.yul\":1605:1623   */\n      tag_307\n      tag_238\n      jump\t// in\n    tag_307:\n        /* \"#utility.yul\":1537:1625   */\n    tag_306:\n        /* \"#utility.yul\":1645:1655   */\n      dup1\n        /* \"#utility.yul\":1641:1643   */\n      0x40\n        /* \"#utility.yul\":1634:1656   */\n      mstore\n        /* \"#utility.yul\":1424:1662   */\n      pop\n        /* \"#utility.yul\":1381:1662   */\n      pop\n      pop\n      jump\t// out\n        /* \"#utility.yul\":1668:1797   */\n    tag_240:\n        /* \"#utility.yul\":1702:1708   */\n      0x00\n        /* \"#utility.yul\":1729:1749   */\n      tag_309\n      tag_228\n      jump\t// in\n    tag_309:\n        /* \"#utility.yul\":1719:1749   */\n      swap1\n      pop\n        /* \"#utility.yul\":1758:1791   */\n      tag_310\n        /* \"#utility.yul\":1786:1790   */\n      dup3\n        /* \"#utility.yul\":1778:1784   */\n      dup3\n        /* \"#utility.yul\":1758:1791   */\n      tag_239\n      jump\t// in\n    tag_310:\n        /* \"#utility.yul\":1668:1797   */\n      swap2\n      swap1\n      pop\n      jump\t// out\n        /* \"#utility.yul\":1803:2111   */\n    tag_241:\n        /* \"#utility.yul\":1865:1869   */\n      0x00\n        /* \"#utility.yul\":1955:1973   */\n      0xffffffffffffffff\n        /* \"#utility.yul\":1947:1953   */\n      dup3\n        /* \"#utility.yul\":1944:1974   */\n      gt\n        /* \"#utility.yul\":1941:1997   */\n      iszero\n      tag_312\n      jumpi\n        /* \"#utility.yul\":1977:1995   */\n      tag_313\n      tag_238\n      jump\t// in\n    tag_313:\n        /* \"#utility.yul\":1941:1997   */\n    tag_312:\n        /* \"#utility.yul\":2015:2044   */\n      tag_314\n        /* \"#utility.yul\":2037:2043   */\n      dup3\n        /* \"#utility.yul\":2015:2044   */\n      tag_237\n      jump\t// in\n    tag_314:\n        /* \"#utility.yul\":2007:2044   */\n      swap1\n      pop\n        /* \"#utility.yul\":2099:2103   */\n      0x20\n        /* \"#utility.yul\":2093:2097   */\n      dup2\n        /* \"#utility.yul\":2089:2104   */\n      add\n        /* \"#utility.yul\":2081:2104   */\n      swap1\n      pop\n        /* \"#utility.yul\":1803:2111   */\n      swap2\n      swap1\n      pop\n      jump\t// out\n        /* \"#utility.yul\":2117:2263   */\n    tag_242:\n        /* \"#utility.yul\":2214:2220   */\n      dup3\n        /* \"#utility.yul\":2209:2212   */\n      dup2\n        /* \"#utility.yul\":2204:2207   */\n      dup4\n        /* \"#utility.yul\":2191:2221   */\n      calldatacopy\n        /* \"#utility.yul\":2255:2256   */\n      0x00\n        /* \"#utility.yul\":2246:2252   */\n      dup4\n        /* \"#utility.yul\":2241:2244   */\n      dup4\n        /* \"#utility.yul\":2237:2253   */\n      add\n        /* \"#utility.yul\":2230:2257   */\n      mstore\n        /* \"#utility.yul\":2117:2263   */\n      pop\n      pop\n      pop\n      jump\t// out\n        /* \"#utility.yul\":2269:2694   */\n    tag_243:\n        /* \"#utility.yul\":2347:2352   */\n      0x00\n        /* \"#utility.yul\":2372:2438   */\n      tag_317\n        /* \"#utility.yul\":2388:2437   */\n      tag_318\n        /* \"#utility.yul\":2430:2436   */\n      dup5\n        /* \"#utility.yul\":2388:2437   */\n      tag_241\n      jump\t// in\n    tag_318:\n        /* \"#utility.yul\":2372:2438   */\n      tag_240\n      jump\t// in\n    tag_317:\n        /* \"#utility.yul\":2363:2438   */\n      swap1\n      pop\n        /* \"#utility.yul\":2461:2467   */\n      dup3\n        /* \"#utility.yul\":2454:2459   */\n      dup2\n        /* \"#utility.yul\":2447:2468   */\n      mstore\n        /* \"#utility.yul\":2499:2503   */\n      0x20\n        /* \"#utility.yul\":2492:2497   */\n      dup2\n        /* \"#utility.yul\":2488:2504   */\n      add\n        /* \"#utility.yul\":2537:2540   */\n      dup5\n        /* \"#utility.yul\":2528:2534   */\n      dup5\n        /* \"#utility.yul\":2523:2526   */\n      dup5\n        /* \"#utility.yul\":2519:2535   */\n      add\n        /* \"#utility.yul\":2516:2541   */\n      gt\n        /* \"#utility.yul\":2513:2625   */\n      iszero\n      tag_319\n      jumpi\n        /* \"#utility.yul\":2544:2623   */\n      tag_320\n      tag_236\n      jump\t// in\n    tag_320:\n        /* \"#utility.yul\":2513:2625   */\n    tag_319:\n        /* \"#utility.yul\":2634:2688   */\n      tag_321\n        /* \"#utility.yul\":2681:2687   */\n      dup5\n        /* \"#utility.yul\":2676:2679   */\n      dup3\n        /* \"#utility.yul\":2671:2674   */\n      dup6\n        /* \"#utility.yul\":2634:2688   */\n      tag_242\n      jump\t// in\n    tag_321:\n        /* \"#utility.yul\":2353:2694   */\n      pop\n        /* \"#utility.yul\":2269:2694   */\n      swap4\n      swap3\n      pop\n      pop\n      pop\n      jump\t// out\n        /* \"#utility.yul\":2714:3054   */\n    tag_244:\n        /* \"#utility.yul\":2770:2775   */\n      0x00\n        /* \"#utility.yul\":2819:2822   */\n      dup3\n        /* \"#utility.yul\":2812:2816   */\n      0x1f\n        /* \"#utility.yul\":2804:2810   */\n      dup4\n        /* \"#utility.yul\":2800:2817   */\n      add\n        /* \"#utility.yul\":2796:2823   */\n      slt\n        /* \"#utility.yul\":2786:2908   */\n      tag_323\n      jumpi\n        /* \"#utility.yul\":2827:2906   */\n      tag_324\n      tag_235\n      jump\t// in\n    tag_324:\n        /* \"#utility.yul\":2786:2908   */\n    tag_323:\n        /* \"#utility.yul\":2944:2950   */\n      dup2\n        /* \"#utility.yul\":2931:2951   */\n      calldataload\n        /* \"#utility.yul\":2969:3048   */\n      tag_325\n        /* \"#utility.yul\":3044:3047   */\n      dup5\n        /* \"#utility.yul\":3036:3042   */\n      dup3\n        /* \"#utility.yul\":3029:3033   */\n      0x20\n        /* \"#utility.yul\":3021:3027   */\n      dup7\n        /* \"#utility.yul\":3017:3034   */\n      add\n        /* \"#utility.yul\":2969:3048   */\n      tag_243\n      jump\t// in\n    tag_325:\n        /* \"#utility.yul\":2960:3048   */\n      swap2\n      pop\n        /* \"#utility.yul\":2776:3054   */\n      pop\n        /* \"#utility.yul\":2714:3054   */\n      swap3\n      swap2\n      pop\n      pop\n      jump\t// out\n        /* \"#utility.yul\":3060:4365   */\n    tag_26:\n        /* \"#utility.yul\":3176:3182   */\n      0x00\n        /* \"#utility.yul\":3184:3190   */\n      dup1\n        /* \"#utility.yul\":3192:3198   */\n      0x00\n        /* \"#utility.yul\":3200:3206   */\n      dup1\n        /* \"#utility.yul\":3249:3252   */\n      0x80\n        /* \"#utility.yul\":3237:3246   */\n      dup6\n        /* \"#utility.yul\":3228:3235   */\n      dup8\n        /* \"#utility.yul\":3224:3247   */\n      sub\n        /* \"#utility.yul\":3220:3253   */\n      slt\n        /* \"#utility.yul\":3217:3337   */\n      iszero\n      tag_327\n      jumpi\n        /* \"#utility.yul\":3256:3335   */\n      tag_328\n      tag_229\n      jump\t// in\n    tag_328:\n        /* \"#utility.yul\":3217:3337   */\n    tag_327:\n        /* \"#utility.yul\":3376:3377   */\n      0x00\n        /* \"#utility.yul\":3401:3454   */\n      tag_329\n        /* \"#utility.yul\":3446:3453   */\n      dup8\n        /* \"#utility.yul\":3437:3443   */\n      dup3\n        /* \"#utility.yul\":3426:3435   */\n      dup9\n        /* \"#utility.yul\":3422:3444   */\n      add\n        /* \"#utility.yul\":3401:3454   */\n      tag_234\n      jump\t// in\n    tag_329:\n        /* \"#utility.yul\":3391:3454   */\n      swap5\n      pop\n        /* \"#utility.yul\":3347:3464   */\n      pop\n        /* \"#utility.yul\":3531:3533   */\n      0x20\n        /* \"#utility.yul\":3520:3529   */\n      dup6\n        /* \"#utility.yul\":3516:3534   */\n      add\n        /* \"#utility.yul\":3503:3535   */\n      calldataload\n        /* \"#utility.yul\":3562:3580   */\n      0xffffffffffffffff\n        /* \"#utility.yul\":3554:3560   */\n      dup2\n        /* \"#utility.yul\":3551:3581   */\n      gt\n        /* \"#utility.yul\":3548:3665   */\n      iszero\n      tag_330\n      jumpi\n        /* \"#utility.yul\":3584:3663   */\n      tag_331\n      tag_230\n      jump\t// in\n    tag_331:\n        /* \"#utility.yul\":3548:3665   */\n    tag_330:\n        /* \"#utility.yul\":3689:3752   */\n      tag_332\n        /* \"#utility.yul\":3744:3751   */\n      dup8\n        /* \"#utility.yul\":3735:3741   */\n      dup3\n        /* \"#utility.yul\":3724:3733   */\n      dup9\n        /* \"#utility.yul\":3720:3742   */\n      add\n        /* \"#utility.yul\":3689:3752   */\n      tag_244\n      jump\t// in\n    tag_332:\n        /* \"#utility.yul\":3679:3752   */\n      swap4\n      pop\n        /* \"#utility.yul\":3474:3762   */\n      pop\n        /* \"#utility.yul\":3829:3831   */\n      0x40\n        /* \"#utility.yul\":3818:3827   */\n      dup6\n        /* \"#utility.yul\":3814:3832   */\n      add\n        /* \"#utility.yul\":3801:3833   */\n      calldataload\n        /* \"#utility.yul\":3860:3878   */\n      0xffffffffffffffff\n        /* \"#utility.yul\":3852:3858   */\n      dup2\n        /* \"#utility.yul\":3849:3879   */\n      gt\n        /* \"#utility.yul\":3846:3963   */\n      iszero\n      tag_333\n      jumpi\n        /* \"#utility.yul\":3882:3961   */\n      tag_334\n      tag_230\n      jump\t// in\n    tag_334:\n        /* \"#utility.yul\":3846:3963   */\n    tag_333:\n        /* \"#utility.yul\":3987:4050   */\n      tag_335\n        /* \"#utility.yul\":4042:4049   */\n      dup8\n        /* \"#utility.yul\":4033:4039   */\n      dup3\n        /* \"#utility.yul\":4022:4031   */\n      dup9\n        /* \"#utility.yul\":4018:4040   */\n      add\n        /* \"#utility.yul\":3987:4050   */\n      tag_244\n      jump\t// in\n    tag_335:\n        /* \"#utility.yul\":3977:4050   */\n      swap3\n      pop\n        /* \"#utility.yul\":3772:4060   */\n      pop\n        /* \"#utility.yul\":4127:4129   */\n      0x60\n        /* \"#utility.yul\":4116:4125   */\n      dup6\n        /* \"#utility.yul\":4112:4130   */\n      add\n        /* \"#utility.yul\":4099:4131   */\n      calldataload\n        /* \"#utility.yul\":4158:4176   */\n      0xffffffffffffffff\n        /* \"#utility.yul\":4150:4156   */\n      dup2\n        /* \"#utility.yul\":4147:4177   */\n      gt\n        /* \"#utility.yul\":4144:4261   */\n      iszero\n      tag_336\n      jumpi\n        /* \"#utility.yul\":4180:4259   */\n      tag_337\n      tag_230\n      jump\t// in\n    tag_337:\n        /* \"#utility.yul\":4144:4261   */\n    tag_336:\n        /* \"#utility.yul\":4285:4348   */\n      tag_338\n        /* \"#utility.yul\":4340:4347   */\n      dup8\n        /* \"#utility.yul\":4331:4337   */\n      dup3\n        /* \"#utility.yul\":4320:4329   */\n      dup9\n        /* \"#utility.yul\":4316:4338   */\n      add\n        /* \"#utility.yul\":4285:4348   */\n      tag_244\n      jump\t// in\n    tag_338:\n        /* \"#utility.yul\":4275:4348   */\n      swap2\n      pop\n        /* \"#utility.yul\":4070:4358   */\n      pop\n        /* \"#utility.yul\":3060:4365   */\n      swap3\n      swap6\n      swap2\n      swap5\n      pop\n      swap3\n      pop\n      jump\t// out\n        /* \"#utility.yul\":4371:4448   */\n    tag_245:\n        /* \"#utility.yul\":4408:4415   */\n      0x00\n        /* \"#utility.yul\":4437:4442   */\n      dup2\n        /* \"#utility.yul\":4426:4442   */\n      swap1\n      pop\n        /* \"#utility.yul\":4371:4448   */\n      swap2\n      swap1\n      pop\n      jump\t// out\n        /* \"#utility.yul\":4454:4572   */\n    tag_246:\n        /* \"#utility.yul\":4541:4565   */\n      tag_341\n        /* \"#utility.yul\":4559:4564   */\n      dup2\n        /* \"#utility.yul\":4541:4565   */\n      tag_245\n      jump\t// in\n    tag_341:\n        /* \"#utility.yul\":4536:4539   */\n      dup3\n        /* \"#utility.yul\":4529:4566   */\n      mstore\n        /* \"#utility.yul\":4454:4572   */\n      pop\n      pop\n      jump\t// out\n        /* \"#utility.yul\":4578:4800   */\n    tag_31:\n        /* \"#utility.yul\":4671:4675   */\n      0x00\n        /* \"#utility.yul\":4709:4711   */\n      0x20\n        /* \"#utility.yul\":4698:4707   */\n      dup3\n        /* \"#utility.yul\":4694:4712   */\n      add\n        /* \"#utility.yul\":4686:4712   */\n      swap1\n      pop\n        /* \"#utility.yul\":4722:4793   */\n      tag_343\n        /* \"#utility.yul\":4790:4791   */\n      0x00\n        /* \"#utility.yul\":4779:4788   */\n      dup4\n        /* \"#utility.yul\":4775:4792   */\n      add\n        /* \"#utility.yul\":4766:4772   */\n      dup5\n        /* \"#utility.yul\":4722:4793   */\n      tag_246\n      jump\t// in\n    tag_343:\n        /* \"#utility.yul\":4578:4800   */\n      swap3\n      swap2\n      pop\n      pop\n      jump\t// out\n        /* \"#utility.yul\":4806:4920   */\n    tag_247:\n        /* \"#utility.yul\":4873:4879   */\n      0x00\n        /* \"#utility.yul\":4907:4912   */\n      dup2\n        /* \"#utility.yul\":4901:4913   */\n      mload\n        /* \"#utility.yul\":4891:4913   */\n      swap1\n      pop\n        /* \"#utility.yul\":4806:4920   */\n      swap2\n      swap1\n      pop\n      jump\t// out\n        /* \"#utility.yul\":4926:5110   */\n    tag_248:\n        /* \"#utility.yul\":5025:5036   */\n      0x00\n        /* \"#utility.yul\":5059:5065   */\n      dup3\n        /* \"#utility.yul\":5054:5057   */\n      dup3\n        /* \"#utility.yul\":5047:5066   */\n      mstore\n        /* \"#utility.yul\":5099:5103   */\n      0x20\n        /* \"#utility.yul\":5094:5097   */\n      dup3\n        /* \"#utility.yul\":5090:5104   */\n      add\n        /* \"#utility.yul\":5075:5104   */\n      swap1\n      pop\n        /* \"#utility.yul\":4926:5110   */\n      swap3\n      swap2\n      pop\n      pop\n      jump\t// out\n        /* \"#utility.yul\":5116:5248   */\n    tag_249:\n        /* \"#utility.yul\":5183:5187   */\n      0x00\n        /* \"#utility.yul\":5206:5209   */\n      dup2\n        /* \"#utility.yul\":5198:5209   */\n      swap1\n      pop\n        /* \"#utility.yul\":5236:5240   */\n      0x20\n        /* \"#utility.yul\":5231:5234   */\n      dup3\n        /* \"#utility.yul\":5227:5241   */\n      add\n        /* \"#utility.yul\":5219:5241   */\n      swap1\n      pop\n        /* \"#utility.yul\":5116:5248   */\n      swap2\n      swap1\n      pop\n      jump\t// out\n        /* \"#utility.yul\":5254:5362   */\n    tag_250:\n        /* \"#utility.yul\":5331:5355   */\n      tag_348\n        /* \"#utility.yul\":5349:5354   */\n      dup2\n        /* \"#utility.yul\":5331:5355   */\n      tag_232\n      jump\t// in\n    tag_348:\n        /* \"#utility.yul\":5326:5329   */\n      dup3\n        /* \"#utility.yul\":5319:5356   */\n      mstore\n        /* \"#utility.yul\":5254:5362   */\n      pop\n      pop\n      jump\t// out\n        /* \"#utility.yul\":5368:5547   */\n    tag_251:\n        /* \"#utility.yul\":5437:5447   */\n      0x00\n        /* \"#utility.yul\":5458:5504   */\n      tag_350\n        /* \"#utility.yul\":5500:5503   */\n      dup4\n        /* \"#utility.yul\":5492:5498   */\n      dup4\n        /* \"#utility.yul\":5458:5504   */\n      tag_250\n      jump\t// in\n    tag_350:\n        /* \"#utility.yul\":5536:5540   */\n      0x20\n        /* \"#utility.yul\":5531:5534   */\n      dup4\n        /* \"#utility.yul\":5527:5541   */\n      add\n        /* \"#utility.yul\":5513:5541   */\n      swap1\n      pop\n        /* \"#utility.yul\":5368:5547   */\n      swap3\n      swap2\n      pop\n      pop\n      jump\t// out\n        /* \"#utility.yul\":5553:5666   */\n    tag_252:\n        /* \"#utility.yul\":5623:5627   */\n      0x00\n        /* \"#utility.yul\":5655:5659   */\n      0x20\n        /* \"#utility.yul\":5650:5653   */\n      dup3\n        /* \"#utility.yul\":5646:5660   */\n      add\n        /* \"#utility.yul\":5638:5660   */\n      swap1\n      pop\n        /* \"#utility.yul\":5553:5666   */\n      swap2\n      swap1\n      pop\n      jump\t// out\n        /* \"#utility.yul\":5702:6434   */\n    tag_253:\n        /* \"#utility.yul\":5821:5824   */\n      0x00\n        /* \"#utility.yul\":5850:5904   */\n      tag_353\n        /* \"#utility.yul\":5898:5903   */\n      dup3\n        /* \"#utility.yul\":5850:5904   */\n      tag_247\n      jump\t// in\n    tag_353:\n        /* \"#utility.yul\":5920:6006   */\n      tag_354\n        /* \"#utility.yul\":5999:6005   */\n      dup2\n        /* \"#utility.yul\":5994:5997   */\n      dup6\n        /* \"#utility.yul\":5920:6006   */\n      tag_248\n      jump\t// in\n    tag_354:\n        /* \"#utility.yul\":5913:6006   */\n      swap4\n      pop\n        /* \"#utility.yul\":6030:6086   */\n      tag_355\n        /* \"#utility.yul\":6080:6085   */\n      dup4\n        /* \"#utility.yul\":6030:6086   */\n      tag_249\n      jump\t// in\n    tag_355:\n        /* \"#utility.yul\":6109:6116   */\n      dup1\n        /* \"#utility.yul\":6140:6141   */\n      0x00\n        /* \"#utility.yul\":6125:6409   */\n    tag_356:\n        /* \"#utility.yul\":6150:6156   */\n      dup4\n        /* \"#utility.yul\":6147:6148   */\n      dup2\n        /* \"#utility.yul\":6144:6157   */\n      lt\n        /* \"#utility.yul\":6125:6409   */\n      iszero\n      tag_358\n      jumpi\n        /* \"#utility.yul\":6226:6232   */\n      dup2\n        /* \"#utility.yul\":6220:6233   */\n      mload\n        /* \"#utility.yul\":6253:6316   */\n      tag_359\n        /* \"#utility.yul\":6312:6315   */\n      dup9\n        /* \"#utility.yul\":6297:6310   */\n      dup3\n        /* \"#utility.yul\":6253:6316   */\n      tag_251\n      jump\t// in\n    tag_359:\n        /* \"#utility.yul\":6246:6316   */\n      swap8\n      pop\n        /* \"#utility.yul\":6339:6399   */\n      tag_360\n        /* \"#utility.yul\":6392:6398   */\n      dup4\n        /* \"#utility.yul\":6339:6399   */\n      tag_252\n      jump\t// in\n    tag_360:\n        /* \"#utility.yul\":6329:6399   */\n      swap3\n      pop\n        /* \"#utility.yul\":6185:6409   */\n      pop\n        /* \"#utility.yul\":6172:6173   */\n      0x01\n        /* \"#utility.yul\":6169:6170   */\n      dup2\n        /* \"#utility.yul\":6165:6174   */\n      add\n        /* \"#utility.yul\":6160:6174   */\n      swap1\n      pop\n        /* \"#utility.yul\":6125:6409   */\n      jump(tag_356)\n    tag_358:\n        /* \"#utility.yul\":6129:6143   */\n      pop\n        /* \"#utility.yul\":6425:6428   */\n      dup6\n        /* \"#utility.yul\":6418:6428   */\n      swap4\n      pop\n        /* \"#utility.yul\":5826:6434   */\n      pop\n      pop\n      pop\n        /* \"#utility.yul\":5702:6434   */\n      swap3\n      swap2\n      pop\n      pop\n      jump\t// out\n        /* \"#utility.yul\":6440:6813   */\n    tag_35:\n        /* \"#utility.yul\":6583:6587   */\n      0x00\n        /* \"#utility.yul\":6621:6623   */\n      0x20\n        /* \"#utility.yul\":6610:6619   */\n      dup3\n        /* \"#utility.yul\":6606:6624   */\n      add\n        /* \"#utility.yul\":6598:6624   */\n      swap1\n      pop\n        /* \"#utility.yul\":6670:6679   */\n      dup2\n        /* \"#utility.yul\":6664:6668   */\n      dup2\n        /* \"#utility.yul\":6660:6680   */\n      sub\n        /* \"#utility.yul\":6656:6657   */\n      0x00\n        /* \"#utility.yul\":6645:6654   */\n      dup4\n        /* \"#utility.yul\":6641:6658   */\n      add\n        /* \"#utility.yul\":6634:6681   */\n      mstore\n        /* \"#utility.yul\":6698:6806   */\n      tag_362\n        /* \"#utility.yul\":6801:6805   */\n      dup2\n        /* \"#utility.yul\":6792:6798   */\n      dup5\n        /* \"#utility.yul\":6698:6806   */\n      tag_253\n      jump\t// in\n    tag_362:\n        /* \"#utility.yul\":6690:6806   */\n      swap1\n      pop\n        /* \"#utility.yul\":6440:6813   */\n      swap3\n      swap2\n      pop\n      pop\n      jump\t// out\n        /* \"#utility.yul\":6819:7148   */\n    tag_38:\n        /* \"#utility.yul\":6878:6884   */\n      0x00\n        /* \"#utility.yul\":6927:6929   */\n      0x20\n        /* \"#utility.yul\":6915:6924   */\n      dup3\n        /* \"#utility.yul\":6906:6913   */\n      dup5\n        /* \"#utility.yul\":6902:6925   */\n      sub\n        /* \"#utility.yul\":6898:6930   */\n      slt\n        /* \"#utility.yul\":6895:7014   */\n      iszero\n      tag_364\n      jumpi\n        /* \"#utility.yul\":6933:7012   */\n      tag_365\n      tag_229\n      jump\t// in\n    tag_365:\n        /* \"#utility.yul\":6895:7014   */\n    tag_364:\n        /* \"#utility.yul\":7053:7054   */\n      0x00\n        /* \"#utility.yul\":7078:7131   */\n      tag_366\n        /* \"#utility.yul\":7123:7130   */\n      dup5\n        /* \"#utility.yul\":7114:7120   */\n      dup3\n        /* \"#utility.yul\":7103:7112   */\n      dup6\n        /* \"#utility.yul\":7099:7121   */\n      add\n        /* \"#utility.yul\":7078:7131   */\n      tag_234\n      jump\t// in\n    tag_366:\n        /* \"#utility.yul\":7068:7131   */\n      swap2\n      pop\n        /* \"#utility.yul\":7024:7141   */\n      pop\n        /* \"#utility.yul\":6819:7148   */\n      swap3\n      swap2\n      pop\n      pop\n      jump\t// out\n        /* \"#utility.yul\":7154:7253   */\n    tag_254:\n        /* \"#utility.yul\":7206:7212   */\n      0x00\n        /* \"#utility.yul\":7240:7245   */\n      dup2\n        /* \"#utility.yul\":7234:7246   */\n      mload\n        /* \"#utility.yul\":7224:7246   */\n      swap1\n      pop\n        /* \"#utility.yul\":7154:7253   */\n      swap2\n      swap1\n      pop\n      jump\t// out\n        /* \"#utility.yul\":7259:7428   */\n    tag_255:\n        /* \"#utility.yul\":7343:7354   */\n      0x00\n        /* \"#utility.yul\":7377:7383   */\n      dup3\n        /* \"#utility.yul\":7372:7375   */\n      dup3\n        /* \"#utility.yul\":7365:7384   */\n      mstore\n        /* \"#utility.yul\":7417:7421   */\n      0x20\n        /* \"#utility.yul\":7412:7415   */\n      dup3\n        /* \"#utility.yul\":7408:7422   */\n      add\n        /* \"#utility.yul\":7393:7422   */\n      swap1\n      pop\n        /* \"#utility.yul\":7259:7428   */\n      swap3\n      swap2\n      pop\n      pop\n      jump\t// out\n        /* \"#utility.yul\":7434:7680   */\n    tag_256:\n        /* \"#utility.yul\":7515:7516   */\n      0x00\n        /* \"#utility.yul\":7525:7638   */\n    tag_370:\n        /* \"#utility.yul\":7539:7545   */\n      dup4\n        /* \"#utility.yul\":7536:7537   */\n      dup2\n        /* \"#utility.yul\":7533:7546   */\n      lt\n        /* \"#utility.yul\":7525:7638   */\n      iszero\n      tag_372\n      jumpi\n        /* \"#utility.yul\":7624:7625   */\n      dup1\n        /* \"#utility.yul\":7619:7622   */\n      dup3\n        /* \"#utility.yul\":7615:7626   */\n      add\n        /* \"#utility.yul\":7609:7627   */\n      mload\n        /* \"#utility.yul\":7605:7606   */\n      dup2\n        /* \"#utility.yul\":7600:7603   */\n      dup5\n        /* \"#utility.yul\":7596:7607   */\n      add\n        /* \"#utility.yul\":7589:7628   */\n      mstore\n        /* \"#utility.yul\":7561:7563   */\n      0x20\n        /* \"#utility.yul\":7558:7559   */\n      dup2\n        /* \"#utility.yul\":7554:7564   */\n      add\n        /* \"#utility.yul\":7549:7564   */\n      swap1\n      pop\n        /* \"#utility.yul\":7525:7638   */\n      jump(tag_370)\n    tag_372:\n        /* \"#utility.yul\":7672:7673   */\n      0x00\n        /* \"#utility.yul\":7663:7669   */\n      dup5\n        /* \"#utility.yul\":7658:7661   */\n      dup5\n        /* \"#utility.yul\":7654:7670   */\n      add\n        /* \"#utility.yul\":7647:7674   */\n      mstore\n        /* \"#utility.yul\":7496:7680   */\n      pop\n        /* \"#utility.yul\":7434:7680   */\n      pop\n      pop\n      pop\n      jump\t// out\n        /* \"#utility.yul\":7686:8063   */\n    tag_257:\n        /* \"#utility.yul\":7774:7777   */\n      0x00\n        /* \"#utility.yul\":7802:7841   */\n      tag_374\n        /* \"#utility.yul\":7835:7840   */\n      dup3\n        /* \"#utility.yul\":7802:7841   */\n      tag_254\n      jump\t// in\n    tag_374:\n        /* \"#utility.yul\":7857:7928   */\n      tag_375\n        /* \"#utility.yul\":7921:7927   */\n      dup2\n        /* \"#utility.yul\":7916:7919   */\n      dup6\n        /* \"#utility.yul\":7857:7928   */\n      tag_255\n      jump\t// in\n    tag_375:\n        /* \"#utility.yul\":7850:7928   */\n      swap4\n      pop\n        /* \"#utility.yul\":7937:8002   */\n      tag_376\n        /* \"#utility.yul\":7995:8001   */\n      dup2\n        /* \"#utility.yul\":7990:7993   */\n      dup6\n        /* \"#utility.yul\":7983:7987   */\n      0x20\n        /* \"#utility.yul\":7976:7981   */\n      dup7\n        /* \"#utility.yul\":7972:7988   */\n      add\n        /* \"#utility.yul\":7937:8002   */\n      tag_256\n      jump\t// in\n    tag_376:\n        /* \"#utility.yul\":8027:8056   */\n      tag_377\n        /* \"#utility.yul\":8049:8055   */\n      dup2\n        /* \"#utility.yul\":8027:8056   */\n      tag_237\n      jump\t// in\n    tag_377:\n        /* \"#utility.yul\":8022:8025   */\n      dup5\n        /* \"#utility.yul\":8018:8057   */\n      add\n        /* \"#utility.yul\":8011:8057   */\n      swap2\n      pop\n        /* \"#utility.yul\":7778:8063   */\n      pop\n        /* \"#utility.yul\":7686:8063   */\n      swap3\n      swap2\n      pop\n      pop\n      jump\t// out\n        /* \"#utility.yul\":8069:8187   */\n    tag_258:\n        /* \"#utility.yul\":8156:8180   */\n      tag_379\n        /* \"#utility.yul\":8174:8179   */\n      dup2\n        /* \"#utility.yul\":8156:8180   */\n      tag_232\n      jump\t// in\n    tag_379:\n        /* \"#utility.yul\":8151:8154   */\n      dup3\n        /* \"#utility.yul\":8144:8181   */\n      mstore\n        /* \"#utility.yul\":8069:8187   */\n      pop\n      pop\n      jump\t// out\n        /* \"#utility.yul\":8193:9443   */\n    tag_41:\n        /* \"#utility.yul\":8534:8538   */\n      0x00\n        /* \"#utility.yul\":8572:8575   */\n      0xe0\n        /* \"#utility.yul\":8561:8570   */\n      dup3\n        /* \"#utility.yul\":8557:8576   */\n      add\n        /* \"#utility.yul\":8549:8576   */\n      swap1\n      pop\n        /* \"#utility.yul\":8622:8631   */\n      dup2\n        /* \"#utility.yul\":8616:8620   */\n      dup2\n        /* \"#utility.yul\":8612:8632   */\n      sub\n        /* \"#utility.yul\":8608:8609   */\n      0x00\n        /* \"#utility.yul\":8597:8606   */\n      dup4\n        /* \"#utility.yul\":8593:8610   */\n      add\n        /* \"#utility.yul\":8586:8633   */\n      mstore\n        /* \"#utility.yul\":8650:8728   */\n      tag_381\n        /* \"#utility.yul\":8723:8727   */\n      dup2\n        /* \"#utility.yul\":8714:8720   */\n      dup11\n        /* \"#utility.yul\":8650:8728   */\n      tag_257\n      jump\t// in\n    tag_381:\n        /* \"#utility.yul\":8642:8728   */\n      swap1\n      pop\n        /* \"#utility.yul\":8775:8784   */\n      dup2\n        /* \"#utility.yul\":8769:8773   */\n      dup2\n        /* \"#utility.yul\":8765:8785   */\n      sub\n        /* \"#utility.yul\":8760:8762   */\n      0x20\n        /* \"#utility.yul\":8749:8758   */\n      dup4\n        /* \"#utility.yul\":8745:8763   */\n      add\n        /* \"#utility.yul\":8738:8786   */\n      mstore\n        /* \"#utility.yul\":8803:8881   */\n      tag_382\n        /* \"#utility.yul\":8876:8880   */\n      dup2\n        /* \"#utility.yul\":8867:8873   */\n      dup10\n        /* \"#utility.yul\":8803:8881   */\n      tag_257\n      jump\t// in\n    tag_382:\n        /* \"#utility.yul\":8795:8881   */\n      swap1\n      pop\n        /* \"#utility.yul\":8891:8963   */\n      tag_383\n        /* \"#utility.yul\":8959:8961   */\n      0x40\n        /* \"#utility.yul\":8948:8957   */\n      dup4\n        /* \"#utility.yul\":8944:8962   */\n      add\n        /* \"#utility.yul\":8935:8941   */\n      dup9\n        /* \"#utility.yul\":8891:8963   */\n      tag_246\n      jump\t// in\n    tag_383:\n        /* \"#utility.yul\":9010:9019   */\n      dup2\n        /* \"#utility.yul\":9004:9008   */\n      dup2\n        /* \"#utility.yul\":9000:9020   */\n      sub\n        /* \"#utility.yul\":8995:8997   */\n      0x60\n        /* \"#utility.yul\":8984:8993   */\n      dup4\n        /* \"#utility.yul\":8980:8998   */\n      add\n        /* \"#utility.yul\":8973:9021   */\n      mstore\n        /* \"#utility.yul\":9038:9116   */\n      tag_384\n        /* \"#utility.yul\":9111:9115   */\n      dup2\n        /* \"#utility.yul\":9102:9108   */\n      dup8\n        /* \"#utility.yul\":9038:9116   */\n      tag_257\n      jump\t// in\n    tag_384:\n        /* \"#utility.yul\":9030:9116   */\n      swap1\n      pop\n        /* \"#utility.yul\":9126:9199   */\n      tag_385\n        /* \"#utility.yul\":9194:9197   */\n      0x80\n        /* \"#utility.yul\":9183:9192   */\n      dup4\n        /* \"#utility.yul\":9179:9198   */\n      add\n        /* \"#utility.yul\":9170:9176   */\n      dup7\n        /* \"#utility.yul\":9126:9199   */\n      tag_246\n      jump\t// in\n    tag_385:\n        /* \"#utility.yul\":9247:9256   */\n      dup2\n        /* \"#utility.yul\":9241:9245   */\n      dup2\n        /* \"#utility.yul\":9237:9257   */\n      sub\n        /* \"#utility.yul\":9231:9234   */\n      0xa0\n        /* \"#utility.yul\":9220:9229   */\n      dup4\n        /* \"#utility.yul\":9216:9235   */\n      add\n        /* \"#utility.yul\":9209:9258   */\n      mstore\n        /* \"#utility.yul\":9275:9353   */\n      tag_386\n        /* \"#utility.yul\":9348:9352   */\n      dup2\n        /* \"#utility.yul\":9339:9345   */\n      dup6\n        /* \"#utility.yul\":9275:9353   */\n      tag_257\n      jump\t// in\n    tag_386:\n        /* \"#utility.yul\":9267:9353   */\n      swap1\n      pop\n        /* \"#utility.yul\":9363:9436   */\n      tag_387\n        /* \"#utility.yul\":9431:9434   */\n      0xc0\n        /* \"#utility.yul\":9420:9429   */\n      dup4\n        /* \"#utility.yul\":9416:9435   */\n      add\n        /* \"#utility.yul\":9407:9413   */\n      dup5\n        /* \"#utility.yul\":9363:9436   */\n      tag_258\n      jump\t// in\n    tag_387:\n        /* \"#utility.yul\":8193:9443   */\n      swap9\n      swap8\n      pop\n      pop\n      pop\n      pop\n      pop\n      pop\n      pop\n      pop\n      jump\t// out\n        /* \"#utility.yul\":9449:9571   */\n    tag_259:\n        /* \"#utility.yul\":9522:9546   */\n      tag_389\n        /* \"#utility.yul\":9540:9545   */\n      dup2\n        /* \"#utility.yul\":9522:9546   */\n      tag_245\n      jump\t// in\n    tag_389:\n        /* \"#utility.yul\":9515:9520   */\n      dup2\n        /* \"#utility.yul\":9512:9547   */\n      eq\n        /* \"#utility.yul\":9502:9565   */\n      tag_390\n      jumpi\n        /* \"#utility.yul\":9561:9562   */\n      0x00\n        /* \"#utility.yul\":9558:9559   */\n      dup1\n        /* \"#utility.yul\":9551:9563   */\n      revert\n        /* \"#utility.yul\":9502:9565   */\n    tag_390:\n        /* \"#utility.yul\":9449:9571   */\n      pop\n      jump\t// out\n        /* \"#utility.yul\":9577:9716   */\n    tag_260:\n        /* \"#utility.yul\":9623:9628   */\n      0x00\n        /* \"#utility.yul\":9661:9667   */\n      dup2\n        /* \"#utility.yul\":9648:9668   */\n      calldataload\n        /* \"#utility.yul\":9639:9668   */\n      swap1\n      pop\n        /* \"#utility.yul\":9677:9710   */\n      tag_392\n        /* \"#utility.yul\":9704:9709   */\n      dup2\n        /* \"#utility.yul\":9677:9710   */\n      tag_259\n      jump\t// in\n    tag_392:\n        /* \"#utility.yul\":9577:9716   */\n      swap3\n      swap2\n      pop\n      pop\n      jump\t// out\n        /* \"#utility.yul\":9722:10051   */\n    tag_44:\n        /* \"#utility.yul\":9781:9787   */\n      0x00\n        /* \"#utility.yul\":9830:9832   */\n      0x20\n        /* \"#utility.yul\":9818:9827   */\n      dup3\n        /* \"#utility.yul\":9809:9816   */\n      dup5\n        /* \"#utility.yul\":9805:9828   */\n      sub\n        /* \"#utility.yul\":9801:9833   */\n      slt\n        /* \"#utility.yul\":9798:9917   */\n      iszero\n      tag_394\n      jumpi\n        /* \"#utility.yul\":9836:9915   */\n      tag_395\n      tag_229\n      jump\t// in\n    tag_395:\n        /* \"#utility.yul\":9798:9917   */\n    tag_394:\n        /* \"#utility.yul\":9956:9957   */\n      0x00\n        /* \"#utility.yul\":9981:10034   */\n      tag_396\n        /* \"#utility.yul\":10026:10033   */\n      dup5\n        /* \"#utility.yul\":10017:10023   */\n      dup3\n        /* \"#utility.yul\":10006:10015   */\n      dup6\n        /* \"#utility.yul\":10002:10024   */\n      add\n        /* \"#utility.yul\":9981:10034   */\n      tag_260\n      jump\t// in\n    tag_396:\n        /* \"#utility.yul\":9971:10034   */\n      swap2\n      pop\n        /* \"#utility.yul\":9927:10044   */\n      pop\n        /* \"#utility.yul\":9722:10051   */\n      swap3\n      swap2\n      pop\n      pop\n      jump\t// out\n        /* \"#utility.yul\":10057:10279   */\n    tag_47:\n        /* \"#utility.yul\":10150:10154   */\n      0x00\n        /* \"#utility.yul\":10188:10190   */\n      0x20\n        /* \"#utility.yul\":10177:10186   */\n      dup3\n        /* \"#utility.yul\":10173:10191   */\n      add\n        /* \"#utility.yul\":10165:10191   */\n      swap1\n      pop\n        /* \"#utility.yul\":10201:10272   */\n      tag_398\n        /* \"#utility.yul\":10269:10270   */\n      0x00\n        /* \"#utility.yul\":10258:10267   */\n      dup4\n        /* \"#utility.yul\":10254:10271   */\n      add\n        /* \"#utility.yul\":10245:10251   */\n      dup5\n        /* \"#utility.yul\":10201:10272   */\n      tag_258\n      jump\t// in\n    tag_398:\n        /* \"#utility.yul\":10057:10279   */\n      swap3\n      swap2\n      pop\n      pop\n      jump\t// out\n        /* \"#utility.yul\":10285:10759   */\n    tag_53:\n        /* \"#utility.yul\":10353:10359   */\n      0x00\n        /* \"#utility.yul\":10361:10367   */\n      dup1\n        /* \"#utility.yul\":10410:10412   */\n      0x40\n        /* \"#utility.yul\":10398:10407   */\n      dup4\n        /* \"#utility.yul\":10389:10396   */\n      dup6\n        /* \"#utility.yul\":10385:10408   */\n      sub\n        /* \"#utility.yul\":10381:10413   */\n      slt\n        /* \"#utility.yul\":10378:10497   */\n      iszero\n      tag_400\n      jumpi\n        /* \"#utility.yul\":10416:10495   */\n      tag_401\n      tag_229\n      jump\t// in\n    tag_401:\n        /* \"#utility.yul\":10378:10497   */\n    tag_400:\n        /* \"#utility.yul\":10536:10537   */\n      0x00\n        /* \"#utility.yul\":10561:10614   */\n      tag_402\n        /* \"#utility.yul\":10606:10613   */\n      dup6\n        /* \"#utility.yul\":10597:10603   */\n      dup3\n        /* \"#utility.yul\":10586:10595   */\n      dup7\n        /* \"#utility.yul\":10582:10604   */\n      add\n        /* \"#utility.yul\":10561:10614   */\n      tag_234\n      jump\t// in\n    tag_402:\n        /* \"#utility.yul\":10551:10614   */\n      swap3\n      pop\n        /* \"#utility.yul\":10507:10624   */\n      pop\n        /* \"#utility.yul\":10663:10665   */\n      0x20\n        /* \"#utility.yul\":10689:10742   */\n      tag_403\n        /* \"#utility.yul\":10734:10741   */\n      dup6\n        /* \"#utility.yul\":10725:10731   */\n      dup3\n        /* \"#utility.yul\":10714:10723   */\n      dup7\n        /* \"#utility.yul\":10710:10732   */\n      add\n        /* \"#utility.yul\":10689:10742   */\n      tag_260\n      jump\t// in\n    tag_403:\n        /* \"#utility.yul\":10679:10742   */\n      swap2\n      pop\n        /* \"#utility.yul\":10634:10752   */\n      pop\n        /* \"#utility.yul\":10285:10759   */\n      swap3\n      pop\n      swap3\n      swap1\n      pop\n      jump\t// out\n        /* \"#utility.yul\":10765:12015   */\n    tag_69:\n        /* \"#utility.yul\":11106:11110   */\n      0x00\n        /* \"#utility.yul\":11144:11147   */\n      0xe0\n        /* \"#utility.yul\":11133:11142   */\n      dup3\n        /* \"#utility.yul\":11129:11148   */\n      add\n        /* \"#utility.yul\":11121:11148   */\n      swap1\n      pop\n        /* \"#utility.yul\":11158:11229   */\n      tag_405\n        /* \"#utility.yul\":11226:11227   */\n      0x00\n        /* \"#utility.yul\":11215:11224   */\n      dup4\n        /* \"#utility.yul\":11211:11228   */\n      add\n        /* \"#utility.yul\":11202:11208   */\n      dup11\n        /* \"#utility.yul\":11158:11229   */\n      tag_246\n      jump\t// in\n    tag_405:\n        /* \"#utility.yul\":11276:11285   */\n      dup2\n        /* \"#utility.yul\":11270:11274   */\n      dup2\n        /* \"#utility.yul\":11266:11286   */\n      sub\n        /* \"#utility.yul\":11261:11263   */\n      0x20\n        /* \"#utility.yul\":11250:11259   */\n      dup4\n        /* \"#utility.yul\":11246:11264   */\n      add\n        /* \"#utility.yul\":11239:11287   */\n      mstore\n        /* \"#utility.yul\":11304:11382   */\n      tag_406\n        /* \"#utility.yul\":11377:11381   */\n      dup2\n        /* \"#utility.yul\":11368:11374   */\n      dup10\n        /* \"#utility.yul\":11304:11382   */\n      tag_257\n      jump\t// in\n    tag_406:\n        /* \"#utility.yul\":11296:11382   */\n      swap1\n      pop\n        /* \"#utility.yul\":11429:11438   */\n      dup2\n        /* \"#utility.yul\":11423:11427   */\n      dup2\n        /* \"#utility.yul\":11419:11439   */\n      sub\n        /* \"#utility.yul\":11414:11416   */\n      0x40\n        /* \"#utility.yul\":11403:11412   */\n      dup4\n        /* \"#utility.yul\":11399:11417   */\n      add\n        /* \"#utility.yul\":11392:11440   */\n      mstore\n        /* \"#utility.yul\":11457:11535   */\n      tag_407\n        /* \"#utility.yul\":11530:11534   */\n      dup2\n        /* \"#utility.yul\":11521:11527   */\n      dup9\n        /* \"#utility.yul\":11457:11535   */\n      tag_257\n      jump\t// in\n    tag_407:\n        /* \"#utility.yul\":11449:11535   */\n      swap1\n      pop\n        /* \"#utility.yul\":11582:11591   */\n      dup2\n        /* \"#utility.yul\":11576:11580   */\n      dup2\n        /* \"#utility.yul\":11572:11592   */\n      sub\n        /* \"#utility.yul\":11567:11569   */\n      0x60\n        /* \"#utility.yul\":11556:11565   */\n      dup4\n        /* \"#utility.yul\":11552:11570   */\n      add\n        /* \"#utility.yul\":11545:11593   */\n      mstore\n        /* \"#utility.yul\":11610:11688   */\n      tag_408\n        /* \"#utility.yul\":11683:11687   */\n      dup2\n        /* \"#utility.yul\":11674:11680   */\n      dup8\n        /* \"#utility.yul\":11610:11688   */\n      tag_257\n      jump\t// in\n    tag_408:\n        /* \"#utility.yul\":11602:11688   */\n      swap1\n      pop\n        /* \"#utility.yul\":11698:11771   */\n      tag_409\n        /* \"#utility.yul\":11766:11769   */\n      0x80\n        /* \"#utility.yul\":11755:11764   */\n      dup4\n        /* \"#utility.yul\":11751:11770   */\n      add\n        /* \"#utility.yul\":11742:11748   */\n      dup7\n        /* \"#utility.yul\":11698:11771   */\n      tag_246\n      jump\t// in\n    tag_409:\n        /* \"#utility.yul\":11781:11854   */\n      tag_410\n        /* \"#utility.yul\":11849:11852   */\n      0xa0\n        /* \"#utility.yul\":11838:11847   */\n      dup4\n        /* \"#utility.yul\":11834:11853   */\n      add\n        /* \"#utility.yul\":11825:11831   */\n      dup6\n        /* \"#utility.yul\":11781:11854   */\n      tag_258\n      jump\t// in\n    tag_410:\n        /* \"#utility.yul\":11902:11911   */\n      dup2\n        /* \"#utility.yul\":11896:11900   */\n      dup2\n        /* \"#utility.yul\":11892:11912   */\n      sub\n        /* \"#utility.yul\":11886:11889   */\n      0xc0\n        /* \"#utility.yul\":11875:11884   */\n      dup4\n        /* \"#utility.yul\":11871:11890   */\n      add\n        /* \"#utility.yul\":11864:11913   */\n      mstore\n        /* \"#utility.yul\":11930:12008   */\n      tag_411\n        /* \"#utility.yul\":12003:12007   */\n      dup2\n        /* \"#utility.yul\":11994:12000   */\n      dup5\n        /* \"#utility.yul\":11930:12008   */\n      tag_257\n      jump\t// in\n    tag_411:\n        /* \"#utility.yul\":11922:12008   */\n      swap1\n      pop\n        /* \"#utility.yul\":10765:12015   */\n      swap9\n      swap8\n      pop\n      pop\n      pop\n      pop\n      pop\n      pop\n      pop\n      pop\n      jump\t// out\n        /* \"#utility.yul\":12021:12111   */\n    tag_261:\n        /* \"#utility.yul\":12055:12062   */\n      0x00\n        /* \"#utility.yul\":12098:12103   */\n      dup2\n        /* \"#utility.yul\":12091:12104   */\n      iszero\n        /* \"#utility.yul\":12084:12105   */\n      iszero\n        /* \"#utility.yul\":12073:12105   */\n      swap1\n      pop\n        /* \"#utility.yul\":12021:12111   */\n      swap2\n      swap1\n      pop\n      jump\t// out\n        /* \"#utility.yul\":12117:12226   */\n    tag_262:\n        /* \"#utility.yul\":12198:12219   */\n      tag_414\n        /* \"#utility.yul\":12213:12218   */\n      dup2\n        /* \"#utility.yul\":12198:12219   */\n      tag_261\n      jump\t// in\n    tag_414:\n        /* \"#utility.yul\":12193:12196   */\n      dup3\n        /* \"#utility.yul\":12186:12220   */\n      mstore\n        /* \"#utility.yul\":12117:12226   */\n      pop\n      pop\n      jump\t// out\n        /* \"#utility.yul\":12232:13379   */\n    tag_74:\n        /* \"#utility.yul\":12547:12551   */\n      0x00\n        /* \"#utility.yul\":12585:12588   */\n      0xe0\n        /* \"#utility.yul\":12574:12583   */\n      dup3\n        /* \"#utility.yul\":12570:12589   */\n      add\n        /* \"#utility.yul\":12562:12589   */\n      swap1\n      pop\n        /* \"#utility.yul\":12599:12670   */\n      tag_416\n        /* \"#utility.yul\":12667:12668   */\n      0x00\n        /* \"#utility.yul\":12656:12665   */\n      dup4\n        /* \"#utility.yul\":12652:12669   */\n      add\n        /* \"#utility.yul\":12643:12649   */\n      dup11\n        /* \"#utility.yul\":12599:12670   */\n      tag_246\n      jump\t// in\n    tag_416:\n        /* \"#utility.yul\":12717:12726   */\n      dup2\n        /* \"#utility.yul\":12711:12715   */\n      dup2\n        /* \"#utility.yul\":12707:12727   */\n      sub\n        /* \"#utility.yul\":12702:12704   */\n      0x20\n        /* \"#utility.yul\":12691:12700   */\n      dup4\n        /* \"#utility.yul\":12687:12705   */\n      add\n        /* \"#utility.yul\":12680:12728   */\n      mstore\n        /* \"#utility.yul\":12745:12823   */\n      tag_417\n        /* \"#utility.yul\":12818:12822   */\n      dup2\n        /* \"#utility.yul\":12809:12815   */\n      dup10\n        /* \"#utility.yul\":12745:12823   */\n      tag_257\n      jump\t// in\n    tag_417:\n        /* \"#utility.yul\":12737:12823   */\n      swap1\n      pop\n        /* \"#utility.yul\":12870:12879   */\n      dup2\n        /* \"#utility.yul\":12864:12868   */\n      dup2\n        /* \"#utility.yul\":12860:12880   */\n      sub\n        /* \"#utility.yul\":12855:12857   */\n      0x40\n        /* \"#utility.yul\":12844:12853   */\n      dup4\n        /* \"#utility.yul\":12840:12858   */\n      add\n        /* \"#utility.yul\":12833:12881   */\n      mstore\n        /* \"#utility.yul\":12898:12976   */\n      tag_418\n        /* \"#utility.yul\":12971:12975   */\n      dup2\n        /* \"#utility.yul\":12962:12968   */\n      dup9\n        /* \"#utility.yul\":12898:12976   */\n      tag_257\n      jump\t// in\n    tag_418:\n        /* \"#utility.yul\":12890:12976   */\n      swap1\n      pop\n        /* \"#utility.yul\":12986:13058   */\n      tag_419\n        /* \"#utility.yul\":13054:13056   */\n      0x60\n        /* \"#utility.yul\":13043:13052   */\n      dup4\n        /* \"#utility.yul\":13039:13057   */\n      add\n        /* \"#utility.yul\":13030:13036   */\n      dup8\n        /* \"#utility.yul\":12986:13058   */\n      tag_258\n      jump\t// in\n    tag_419:\n        /* \"#utility.yul\":13106:13115   */\n      dup2\n        /* \"#utility.yul\":13100:13104   */\n      dup2\n        /* \"#utility.yul\":13096:13116   */\n      sub\n        /* \"#utility.yul\":13090:13093   */\n      0x80\n        /* \"#utility.yul\":13079:13088   */\n      dup4\n        /* \"#utility.yul\":13075:13094   */\n      add\n        /* \"#utility.yul\":13068:13117   */\n      mstore\n        /* \"#utility.yul\":13134:13212   */\n      tag_420\n        /* \"#utility.yul\":13207:13211   */\n      dup2\n        /* \"#utility.yul\":13198:13204   */\n      dup7\n        /* \"#utility.yul\":13134:13212   */\n      tag_257\n      jump\t// in\n    tag_420:\n        /* \"#utility.yul\":13126:13212   */\n      swap1\n      pop\n        /* \"#utility.yul\":13222:13295   */\n      tag_421\n        /* \"#utility.yul\":13290:13293   */\n      0xa0\n        /* \"#utility.yul\":13279:13288   */\n      dup4\n        /* \"#utility.yul\":13275:13294   */\n      add\n        /* \"#utility.yul\":13266:13272   */\n      dup6\n        /* \"#utility.yul\":13222:13295   */\n      tag_246\n      jump\t// in\n    tag_421:\n        /* \"#utility.yul\":13305:13372   */\n      tag_422\n        /* \"#utility.yul\":13367:13370   */\n      0xc0\n        /* \"#utility.yul\":13356:13365   */\n      dup4\n        /* \"#utility.yul\":13352:13371   */\n      add\n        /* \"#utility.yul\":13343:13349   */\n      dup5\n        /* \"#utility.yul\":13305:13372   */\n      tag_262\n      jump\t// in\n    tag_422:\n        /* \"#utility.yul\":12232:13379   */\n      swap9\n      swap8\n      pop\n      pop\n      pop\n      pop\n      pop\n      pop\n      pop\n      pop\n      jump\t// out\n        /* \"#utility.yul\":13385:14643   */\n    tag_83:\n        /* \"#utility.yul\":13728:13732   */\n      0x00\n        /* \"#utility.yul\":13766:13769   */\n      0x0100\n        /* \"#utility.yul\":13755:13764   */\n      dup3\n        /* \"#utility.yul\":13751:13770   */\n      add\n        /* \"#utility.yul\":13743:13770   */\n      swap1\n      pop\n        /* \"#utility.yul\":13780:13851   */\n      tag_424\n        /* \"#utility.yul\":13848:13849   */\n      0x00\n        /* \"#utility.yul\":13837:13846   */\n      dup4\n        /* \"#utility.yul\":13833:13850   */\n      add\n        /* \"#utility.yul\":13824:13830   */\n      dup12\n        /* \"#utility.yul\":13780:13851   */\n      tag_246\n      jump\t// in\n    tag_424:\n        /* \"#utility.yul\":13898:13907   */\n      dup2\n        /* \"#utility.yul\":13892:13896   */\n      dup2\n        /* \"#utility.yul\":13888:13908   */\n      sub\n        /* \"#utility.yul\":13883:13885   */\n      0x20\n        /* \"#utility.yul\":13872:13881   */\n      dup4\n        /* \"#utility.yul\":13868:13886   */\n      add\n        /* \"#utility.yul\":13861:13909   */\n      mstore\n        /* \"#utility.yul\":13926:14004   */\n      tag_425\n        /* \"#utility.yul\":13999:14003   */\n      dup2\n        /* \"#utility.yul\":13990:13996   */\n      dup11\n        /* \"#utility.yul\":13926:14004   */\n      tag_257\n      jump\t// in\n    tag_425:\n        /* \"#utility.yul\":13918:14004   */\n      swap1\n      pop\n        /* \"#utility.yul\":14051:14060   */\n      dup2\n        /* \"#utility.yul\":14045:14049   */\n      dup2\n        /* \"#utility.yul\":14041:14061   */\n      sub\n        /* \"#utility.yul\":14036:14038   */\n      0x40\n        /* \"#utility.yul\":14025:14034   */\n      dup4\n        /* \"#utility.yul\":14021:14039   */\n      add\n        /* \"#utility.yul\":14014:14062   */\n      mstore\n        /* \"#utility.yul\":14079:14157   */\n      tag_426\n        /* \"#utility.yul\":14152:14156   */\n      dup2\n        /* \"#utility.yul\":14143:14149   */\n      dup10\n        /* \"#utility.yul\":14079:14157   */\n      tag_257\n      jump\t// in\n    tag_426:\n        /* \"#utility.yul\":14071:14157   */\n      swap1\n      pop\n        /* \"#utility.yul\":14167:14239   */\n      tag_427\n        /* \"#utility.yul\":14235:14237   */\n      0x60\n        /* \"#utility.yul\":14224:14233   */\n      dup4\n        /* \"#utility.yul\":14220:14238   */\n      add\n        /* \"#utility.yul\":14211:14217   */\n      dup9\n        /* \"#utility.yul\":14167:14239   */\n      tag_258\n      jump\t// in\n    tag_427:\n        /* \"#utility.yul\":14249:14322   */\n      tag_428\n        /* \"#utility.yul\":14317:14320   */\n      0x80\n        /* \"#utility.yul\":14306:14315   */\n      dup4\n        /* \"#utility.yul\":14302:14321   */\n      add\n        /* \"#utility.yul\":14293:14299   */\n      dup8\n        /* \"#utility.yul\":14249:14322   */\n      tag_246\n      jump\t// in\n    tag_428:\n        /* \"#utility.yul\":14332:14399   */\n      tag_429\n        /* \"#utility.yul\":14394:14397   */\n      0xa0\n        /* \"#utility.yul\":14383:14392   */\n      dup4\n        /* \"#utility.yul\":14379:14398   */\n      add\n        /* \"#utility.yul\":14370:14376   */\n      dup7\n        /* \"#utility.yul\":14332:14399   */\n      tag_262\n      jump\t// in\n    tag_429:\n        /* \"#utility.yul\":14409:14482   */\n      tag_430\n        /* \"#utility.yul\":14477:14480   */\n      0xc0\n        /* \"#utility.yul\":14466:14475   */\n      dup4\n        /* \"#utility.yul\":14462:14481   */\n      add\n        /* \"#utility.yul\":14453:14459   */\n      dup6\n        /* \"#utility.yul\":14409:14482   */\n      tag_246\n      jump\t// in\n    tag_430:\n        /* \"#utility.yul\":14530:14539   */\n      dup2\n        /* \"#utility.yul\":14524:14528   */\n      dup2\n        /* \"#utility.yul\":14520:14540   */\n      sub\n        /* \"#utility.yul\":14514:14517   */\n      0xe0\n        /* \"#utility.yul\":14503:14512   */\n      dup4\n        /* \"#utility.yul\":14499:14518   */\n      add\n        /* \"#utility.yul\":14492:14541   */\n      mstore\n        /* \"#utility.yul\":14558:14636   */\n      tag_431\n        /* \"#utility.yul\":14631:14635   */\n      dup2\n        /* \"#utility.yul\":14622:14628   */\n      dup5\n        /* \"#utility.yul\":14558:14636   */\n      tag_257\n      jump\t// in\n    tag_431:\n        /* \"#utility.yul\":14550:14636   */\n      swap1\n      pop\n        /* \"#utility.yul\":13385:14643   */\n      swap10\n      swap9\n      pop\n      pop\n      pop\n      pop\n      pop\n      pop\n      pop\n      pop\n      pop\n      jump\t// out\n        /* \"#utility.yul\":14649:16280   */\n    tag_92:\n        /* \"#utility.yul\":14784:14790   */\n      0x00\n        /* \"#utility.yul\":14792:14798   */\n      dup1\n        /* \"#utility.yul\":14800:14806   */\n      0x00\n        /* \"#utility.yul\":14808:14814   */\n      dup1\n        /* \"#utility.yul\":14816:14822   */\n      0x00\n        /* \"#utility.yul\":14865:14868   */\n      0xa0\n        /* \"#utility.yul\":14853:14862   */\n      dup7\n        /* \"#utility.yul\":14844:14851   */\n      dup9\n        /* \"#utility.yul\":14840:14863   */\n      sub\n        /* \"#utility.yul\":14836:14869   */\n      slt\n        /* \"#utility.yul\":14833:14953   */\n      iszero\n      tag_433\n      jumpi\n        /* \"#utility.yul\":14872:14951   */\n      tag_434\n      tag_229\n      jump\t// in\n    tag_434:\n        /* \"#utility.yul\":14833:14953   */\n    tag_433:\n        /* \"#utility.yul\":14992:14993   */\n      0x00\n        /* \"#utility.yul\":15017:15070   */\n      tag_435\n        /* \"#utility.yul\":15062:15069   */\n      dup9\n        /* \"#utility.yul\":15053:15059   */\n      dup3\n        /* \"#utility.yul\":15042:15051   */\n      dup10\n        /* \"#utility.yul\":15038:15060   */\n      add\n        /* \"#utility.yul\":15017:15070   */\n      tag_234\n      jump\t// in\n    tag_435:\n        /* \"#utility.yul\":15007:15070   */\n      swap6\n      pop\n        /* \"#utility.yul\":14963:15080   */\n      pop\n        /* \"#utility.yul\":15147:15149   */\n      0x20\n        /* \"#utility.yul\":15136:15145   */\n      dup7\n        /* \"#utility.yul\":15132:15150   */\n      add\n        /* \"#utility.yul\":15119:15151   */\n      calldataload\n        /* \"#utility.yul\":15178:15196   */\n      0xffffffffffffffff\n        /* \"#utility.yul\":15170:15176   */\n      dup2\n        /* \"#utility.yul\":15167:15197   */\n      gt\n        /* \"#utility.yul\":15164:15281   */\n      iszero\n      tag_436\n      jumpi\n        /* \"#utility.yul\":15200:15279   */\n      tag_437\n      tag_230\n      jump\t// in\n    tag_437:\n        /* \"#utility.yul\":15164:15281   */\n    tag_436:\n        /* \"#utility.yul\":15305:15368   */\n      tag_438\n        /* \"#utility.yul\":15360:15367   */\n      dup9\n        /* \"#utility.yul\":15351:15357   */\n      dup3\n        /* \"#utility.yul\":15340:15349   */\n      dup10\n        /* \"#utility.yul\":15336:15358   */\n      add\n        /* \"#utility.yul\":15305:15368   */\n      tag_244\n      jump\t// in\n    tag_438:\n        /* \"#utility.yul\":15295:15368   */\n      swap5\n      pop\n        /* \"#utility.yul\":15090:15378   */\n      pop\n        /* \"#utility.yul\":15445:15447   */\n      0x40\n        /* \"#utility.yul\":15434:15443   */\n      dup7\n        /* \"#utility.yul\":15430:15448   */\n      add\n        /* \"#utility.yul\":15417:15449   */\n      calldataload\n        /* \"#utility.yul\":15476:15494   */\n      0xffffffffffffffff\n        /* \"#utility.yul\":15468:15474   */\n      dup2\n        /* \"#utility.yul\":15465:15495   */\n      gt\n        /* \"#utility.yul\":15462:15579   */\n      iszero\n      tag_439\n      jumpi\n        /* \"#utility.yul\":15498:15577   */\n      tag_440\n      tag_230\n      jump\t// in\n    tag_440:\n        /* \"#utility.yul\":15462:15579   */\n    tag_439:\n        /* \"#utility.yul\":15603:15666   */\n      tag_441\n        /* \"#utility.yul\":15658:15665   */\n      dup9\n        /* \"#utility.yul\":15649:15655   */\n      dup3\n        /* \"#utility.yul\":15638:15647   */\n      dup10\n        /* \"#utility.yul\":15634:15656   */\n      add\n        /* \"#utility.yul\":15603:15666   */\n      tag_244\n      jump\t// in\n    tag_441:\n        /* \"#utility.yul\":15593:15666   */\n      swap4\n      pop\n        /* \"#utility.yul\":15388:15676   */\n      pop\n        /* \"#utility.yul\":15743:15745   */\n      0x60\n        /* \"#utility.yul\":15732:15741   */\n      dup7\n        /* \"#utility.yul\":15728:15746   */\n      add\n        /* \"#utility.yul\":15715:15747   */\n      calldataload\n        /* \"#utility.yul\":15774:15792   */\n      0xffffffffffffffff\n        /* \"#utility.yul\":15766:15772   */\n      dup2\n        /* \"#utility.yul\":15763:15793   */\n      gt\n        /* \"#utility.yul\":15760:15877   */\n      iszero\n      tag_442\n      jumpi\n        /* \"#utility.yul\":15796:15875   */\n      tag_443\n      tag_230\n      jump\t// in\n    tag_443:\n        /* \"#utility.yul\":15760:15877   */\n    tag_442:\n        /* \"#utility.yul\":15901:15964   */\n      tag_444\n        /* \"#utility.yul\":15956:15963   */\n      dup9\n        /* \"#utility.yul\":15947:15953   */\n      dup3\n        /* \"#utility.yul\":15936:15945   */\n      dup10\n        /* \"#utility.yul\":15932:15954   */\n      add\n        /* \"#utility.yul\":15901:15964   */\n      tag_244\n      jump\t// in\n    tag_444:\n        /* \"#utility.yul\":15891:15964   */\n      swap3\n      pop\n        /* \"#utility.yul\":15686:15974   */\n      pop\n        /* \"#utility.yul\":16041:16044   */\n      0x80\n        /* \"#utility.yul\":16030:16039   */\n      dup7\n        /* \"#utility.yul\":16026:16045   */\n      add\n        /* \"#utility.yul\":16013:16046   */\n      calldataload\n        /* \"#utility.yul\":16073:16091   */\n      0xffffffffffffffff\n        /* \"#utility.yul\":16065:16071   */\n      dup2\n        /* \"#utility.yul\":16062:16092   */\n      gt\n        /* \"#utility.yul\":16059:16176   */\n      iszero\n      tag_445\n      jumpi\n        /* \"#utility.yul\":16095:16174   */\n      tag_446\n      tag_230\n      jump\t// in\n    tag_446:\n        /* \"#utility.yul\":16059:16176   */\n    tag_445:\n        /* \"#utility.yul\":16200:16263   */\n      tag_447\n        /* \"#utility.yul\":16255:16262   */\n      dup9\n        /* \"#utility.yul\":16246:16252   */\n      dup3\n        /* \"#utility.yul\":16235:16244   */\n      dup10\n        /* \"#utility.yul\":16231:16253   */\n      add\n        /* \"#utility.yul\":16200:16263   */\n      tag_244\n      jump\t// in\n    tag_447:\n        /* \"#utility.yul\":16190:16263   */\n      swap2\n      pop\n        /* \"#utility.yul\":15984:16273   */\n      pop\n        /* \"#utility.yul\":14649:16280   */\n      swap3\n      swap6\n      pop\n      swap3\n      swap6\n      swap1\n      swap4\n      pop\n      jump\t// out\n        /* \"#utility.yul\":16286:16467   */\n    tag_263:\n        /* \"#utility.yul\":16426:16459   */\n      0x4f6e6c79206f7267616e697a65722063616e2063726561746520766f74657200\n        /* \"#utility.yul\":16422:16423   */\n      0x00\n        /* \"#utility.yul\":16414:16420   */\n      dup3\n        /* \"#utility.yul\":16410:16424   */\n      add\n        /* \"#utility.yul\":16403:16460   */\n      mstore\n        /* \"#utility.yul\":16286:16467   */\n      pop\n      jump\t// out\n        /* \"#utility.yul\":16473:16839   */\n    tag_264:\n        /* \"#utility.yul\":16615:16618   */\n      0x00\n        /* \"#utility.yul\":16636:16703   */\n      tag_450\n        /* \"#utility.yul\":16700:16702   */\n      0x1f\n        /* \"#utility.yul\":16695:16698   */\n      dup4\n        /* \"#utility.yul\":16636:16703   */\n      tag_255\n      jump\t// in\n    tag_450:\n        /* \"#utility.yul\":16629:16703   */\n      swap2\n      pop\n        /* \"#utility.yul\":16712:16805   */\n      tag_451\n        /* \"#utility.yul\":16801:16804   */\n      dup3\n        /* \"#utility.yul\":16712:16805   */\n      tag_263\n      jump\t// in\n    tag_451:\n        /* \"#utility.yul\":16830:16832   */\n      0x20\n        /* \"#utility.yul\":16825:16828   */\n      dup3\n        /* \"#utility.yul\":16821:16833   */\n      add\n        /* \"#utility.yul\":16814:16833   */\n      swap1\n      pop\n        /* \"#utility.yul\":16473:16839   */\n      swap2\n      swap1\n      pop\n      jump\t// out\n        /* \"#utility.yul\":16845:17264   */\n    tag_100:\n        /* \"#utility.yul\":17011:17015   */\n      0x00\n        /* \"#utility.yul\":17049:17051   */\n      0x20\n        /* \"#utility.yul\":17038:17047   */\n      dup3\n        /* \"#utility.yul\":17034:17052   */\n      add\n        /* \"#utility.yul\":17026:17052   */\n      swap1\n      pop\n        /* \"#utility.yul\":17098:17107   */\n      dup2\n        /* \"#utility.yul\":17092:17096   */\n      dup2\n        /* \"#utility.yul\":17088:17108   */\n      sub\n        /* \"#utility.yul\":17084:17085   */\n      0x00\n        /* \"#utility.yul\":17073:17082   */\n      dup4\n        /* \"#utility.yul\":17069:17086   */\n      add\n        /* \"#utility.yul\":17062:17109   */\n      mstore\n        /* \"#utility.yul\":17126:17257   */\n      tag_453\n        /* \"#utility.yul\":17252:17256   */\n      dup2\n        /* \"#utility.yul\":17126:17257   */\n      tag_264\n      jump\t// in\n    tag_453:\n        /* \"#utility.yul\":17118:17257   */\n      swap1\n      pop\n        /* \"#utility.yul\":16845:17264   */\n      swap2\n      swap1\n      pop\n      jump\t// out\n        /* \"#utility.yul\":17270:17450   */\n    tag_265:\n        /* \"#utility.yul\":17318:17395   */\n      0x4e487b7100000000000000000000000000000000000000000000000000000000\n        /* \"#utility.yul\":17315:17316   */\n      0x00\n        /* \"#utility.yul\":17308:17396   */\n      mstore\n        /* \"#utility.yul\":17415:17419   */\n      0x22\n        /* \"#utility.yul\":17412:17413   */\n      0x04\n        /* \"#utility.yul\":17405:17420   */\n      mstore\n        /* \"#utility.yul\":17439:17443   */\n      0x24\n        /* \"#utility.yul\":17436:17437   */\n      0x00\n        /* \"#utility.yul\":17429:17444   */\n      revert\n        /* \"#utility.yul\":17456:17776   */\n    tag_119:\n        /* \"#utility.yul\":17500:17506   */\n      0x00\n        /* \"#utility.yul\":17537:17538   */\n      0x02\n        /* \"#utility.yul\":17531:17535   */\n      dup3\n        /* \"#utility.yul\":17527:17539   */\n      div\n        /* \"#utility.yul\":17517:17539   */\n      swap1\n      pop\n        /* \"#utility.yul\":17584:17585   */\n      0x01\n        /* \"#utility.yul\":17578:17582   */\n      dup3\n        /* \"#utility.yul\":17574:17586   */\n      and\n        /* \"#utility.yul\":17605:17623   */\n      dup1\n        /* \"#utility.yul\":17595:17676   */\n      tag_456\n      jumpi\n        /* \"#utility.yul\":17661:17665   */\n      0x7f\n        /* \"#utility.yul\":17653:17659   */\n      dup3\n        /* \"#utility.yul\":17649:17666   */\n      and\n        /* \"#utility.yul\":17639:17666   */\n      swap2\n      pop\n        /* \"#utility.yul\":17595:17676   */\n    tag_456:\n        /* \"#utility.yul\":17723:17725   */\n      0x20\n        /* \"#utility.yul\":17715:17721   */\n      dup3\n        /* \"#utility.yul\":17712:17726   */\n      lt\n        /* \"#utility.yul\":17692:17710   */\n      dup2\n        /* \"#utility.yul\":17689:17727   */\n      sub\n        /* \"#utility.yul\":17686:17770   */\n      tag_457\n      jumpi\n        /* \"#utility.yul\":17742:17760   */\n      tag_458\n      tag_265\n      jump\t// in\n    tag_458:\n        /* \"#utility.yul\":17686:17770   */\n    tag_457:\n        /* \"#utility.yul\":17507:17776   */\n      pop\n        /* \"#utility.yul\":17456:17776   */\n      swap2\n      swap1\n      pop\n      jump\t// out\n        /* \"#utility.yul\":17782:17923   */\n    tag_266:\n        /* \"#utility.yul\":17831:17835   */\n      0x00\n        /* \"#utility.yul\":17854:17857   */\n      dup2\n        /* \"#utility.yul\":17846:17857   */\n      swap1\n      pop\n        /* \"#utility.yul\":17877:17880   */\n      dup2\n        /* \"#utility.yul\":17874:17875   */\n      0x00\n        /* \"#utility.yul\":17867:17881   */\n      mstore\n        /* \"#utility.yul\":17911:17915   */\n      0x20\n        /* \"#utility.yul\":17908:17909   */\n      0x00\n        /* \"#utility.yul\":17898:17916   */\n      keccak256\n        /* \"#utility.yul\":17890:17916   */\n      swap1\n      pop\n        /* \"#utility.yul\":17782:17923   */\n      swap2\n      swap1\n      pop\n      jump\t// out\n        /* \"#utility.yul\":17929:18022   */\n    tag_267:\n        /* \"#utility.yul\":17966:17972   */\n      0x00\n        /* \"#utility.yul\":18013:18015   */\n      0x20\n        /* \"#utility.yul\":18008:18010   */\n      0x1f\n        /* \"#utility.yul\":18001:18006   */\n      dup4\n        /* \"#utility.yul\":17997:18011   */\n      add\n        /* \"#utility.yul\":17993:18016   */\n      div\n        /* \"#utility.yul\":17983:18016   */\n      swap1\n      pop\n        /* \"#utility.yul\":17929:18022   */\n      swap2\n      swap1\n      pop\n      jump\t// out\n        /* \"#utility.yul\":18028:18135   */\n    tag_268:\n        /* \"#utility.yul\":18072:18080   */\n      0x00\n        /* \"#utility.yul\":18122:18127   */\n      dup3\n        /* \"#utility.yul\":18116:18120   */\n      dup3\n        /* \"#utility.yul\":18112:18128   */\n      shl\n        /* \"#utility.yul\":18091:18128   */\n      swap1\n      pop\n        /* \"#utility.yul\":18028:18135   */\n      swap3\n      swap2\n      pop\n      pop\n      jump\t// out\n        /* \"#utility.yul\":18141:18534   */\n    tag_269:\n        /* \"#utility.yul\":18210:18216   */\n      0x00\n        /* \"#utility.yul\":18260:18261   */\n      0x08\n        /* \"#utility.yul\":18248:18258   */\n      dup4\n        /* \"#utility.yul\":18244:18262   */\n      mul\n        /* \"#utility.yul\":18283:18380   */\n      tag_463\n        /* \"#utility.yul\":18313:18379   */\n      0xffffffffffffffffffffffffffffffffffffffffffffffffffffffffffffffff\n        /* \"#utility.yul\":18302:18311   */\n      dup3\n        /* \"#utility.yul\":18283:18380   */\n      tag_268\n      jump\t// in\n    tag_463:\n        /* \"#utility.yul\":18401:18440   */\n      tag_464\n        /* \"#utility.yul\":18431:18439   */\n      dup7\n        /* \"#utility.yul\":18420:18429   */\n      dup4\n        /* \"#utility.yul\":18401:18440   */\n      tag_268\n      jump\t// in\n    tag_464:\n        /* \"#utility.yul\":18389:18440   */\n      swap6\n      pop\n        /* \"#utility.yul\":18473:18477   */\n      dup1\n        /* \"#utility.yul\":18469:18478   */\n      not\n        /* \"#utility.yul\":18462:18467   */\n      dup5\n        /* \"#utility.yul\":18458:18479   */\n      and\n        /* \"#utility.yul\":18449:18479   */\n      swap4\n      pop\n        /* \"#utility.yul\":18522:18526   */\n      dup1\n        /* \"#utility.yul\":18512:18520   */\n      dup7\n        /* \"#utility.yul\":18508:18527   */\n      and\n        /* \"#utility.yul\":18501:18506   */\n      dup5\n        /* \"#utility.yul\":18498:18528   */\n      or\n        /* \"#utility.yul\":18488:18528   */\n      swap3\n      pop\n        /* \"#utility.yul\":18217:18534   */\n      pop\n      pop\n        /* \"#utility.yul\":18141:18534   */\n      swap4\n      swap3\n      pop\n      pop\n      pop\n      jump\t// out\n        /* \"#utility.yul\":18540:18600   */\n    tag_270:\n        /* \"#utility.yul\":18568:18571   */\n      0x00\n        /* \"#utility.yul\":18589:18594   */\n      dup2\n        /* \"#utility.yul\":18582:18594   */\n      swap1\n      pop\n        /* \"#utility.yul\":18540:18600   */\n      swap2\n      swap1\n      pop\n      jump\t// out\n        /* \"#utility.yul\":18606:18748   */\n    tag_271:\n        /* \"#utility.yul\":18656:18665   */\n      0x00\n        /* \"#utility.yul\":18689:18742   */\n      tag_467\n        /* \"#utility.yul\":18707:18741   */\n      tag_468\n        /* \"#utility.yul\":18716:18740   */\n      tag_469\n        /* \"#utility.yul\":18734:18739   */\n      dup5\n        /* \"#utility.yul\":18716:18740   */\n      tag_245\n      jump\t// in\n    tag_469:\n        /* \"#utility.yul\":18707:18741   */\n      tag_270\n      jump\t// in\n    tag_468:\n        /* \"#utility.yul\":18689:18742   */\n      tag_245\n      jump\t// in\n    tag_467:\n        /* \"#utility.yul\":18676:18742   */\n      swap1\n      pop\n        /* \"#utility.yul\":18606:18748   */\n      swap2\n      swap1\n      pop\n      jump\t// out\n        /* \"#utility.yul\":18754:18829   */\n    tag_272:\n        /* \"#utility.yul\":18797:18800   */\n      0x00\n        /* \"#utility.yul\":18818:18823   */\n      dup2\n        /* \"#utility.yul\":18811:18823   */\n      swap1\n      pop\n        /* \"#utility.yul\":18754:18829   */\n      swap2\n      swap1\n      pop\n      jump\t// out\n        /* \"#utility.yul\":18835:19104   */\n    tag_273:\n        /* \"#utility.yul\":18945:18984   */\n      tag_472\n        /* \"#utility.yul\":18976:18983   */\n      dup4\n        /* \"#utility.yul\":18945:18984   */\n      tag_271\n      jump\t// in\n    tag_472:\n        /* \"#utility.yul\":19006:19097   */\n      tag_473\n        /* \"#utility.yul\":19055:19096   */\n      tag_474\n        /* \"#utility.yul\":19079:19095   */\n      dup3\n        /* \"#utility.yul\":19055:19096   */\n      tag_272\n      jump\t// in\n    tag_474:\n        /* \"#utility.yul\":19047:19053   */\n      dup5\n        /* \"#utility.yul\":19040:19044   */\n      dup5\n        /* \"#utility.yul\":19034:19045   */\n      sload\n        /* \"#utility.yul\":19006:19097   */\n      tag_269\n      jump\t// in\n    tag_473:\n        /* \"#utility.yul\":19000:19004   */\n      dup3\n        /* \"#utility.yul\":18993:19098   */\n      sstore\n        /* \"#utility.yul\":18911:19104   */\n      pop\n        /* \"#utility.yul\":18835:19104   */\n      pop\n      pop\n      pop\n      jump\t// out\n        /* \"#utility.yul\":19110:19183   */\n    tag_274:\n        /* \"#utility.yul\":19155:19158   */\n      0x00\n        /* \"#utility.yul\":19110:19183   */\n      swap1\n      jump\t// out\n        /* \"#utility.yul\":19189:19378   */\n    tag_275:\n        /* \"#utility.yul\":19266:19298   */\n      tag_477\n      tag_274\n      jump\t// in\n    tag_477:\n        /* \"#utility.yul\":19307:19372   */\n      tag_478\n        /* \"#utility.yul\":19365:19371   */\n      dup2\n        /* \"#utility.yul\":19357:19363   */\n      dup5\n        /* \"#utility.yul\":19351:19355   */\n      dup5\n        /* \"#utility.yul\":19307:19372   */\n      tag_273\n      jump\t// in\n    tag_478:\n        /* \"#utility.yul\":19242:19378   */\n      pop\n        /* \"#utility.yul\":19189:19378   */\n      pop\n      pop\n      jump\t// out\n        /* \"#utility.yul\":19384:19570   */\n    tag_276:\n        /* \"#utility.yul\":19444:19564   */\n    tag_480:\n        /* \"#utility.yul\":19461:19464   */\n      dup2\n        /* \"#utility.yul\":19454:19459   */\n      dup2\n        /* \"#utility.yul\":19451:19465   */\n      lt\n        /* \"#utility.yul\":19444:19564   */\n      iszero\n      tag_482\n      jumpi\n        /* \"#utility.yul\":19515:19554   */\n      tag_483\n        /* \"#utility.yul\":19552:19553   */\n      0x00\n        /* \"#utility.yul\":19545:19550   */\n      dup3\n        /* \"#utility.yul\":19515:19554   */\n      tag_275\n      jump\t// in\n    tag_483:\n        /* \"#utility.yul\":19488:19489   */\n      0x01\n        /* \"#utility.yul\":19481:19486   */\n      dup2\n        /* \"#utility.yul\":19477:19490   */\n      add\n        /* \"#utility.yul\":19468:19490   */\n      swap1\n      pop\n        /* \"#utility.yul\":19444:19564   */\n      jump(tag_480)\n    tag_482:\n        /* \"#utility.yul\":19384:19570   */\n      pop\n      pop\n      jump\t// out\n        /* \"#utility.yul\":19576:20119   */\n    tag_277:\n        /* \"#utility.yul\":19677:19679   */\n      0x1f\n        /* \"#utility.yul\":19672:19675   */\n      dup3\n        /* \"#utility.yul\":19669:19680   */\n      gt\n        /* \"#utility.yul\":19666:20112   */\n      iszero\n      tag_485\n      jumpi\n        /* \"#utility.yul\":19711:19749   */\n      tag_486\n        /* \"#utility.yul\":19743:19748   */\n      dup2\n        /* \"#utility.yul\":19711:19749   */\n      tag_266\n      jump\t// in\n    tag_486:\n        /* \"#utility.yul\":19795:19824   */\n      tag_487\n        /* \"#utility.yul\":19813:19823   */\n      dup5\n        /* \"#utility.yul\":19795:19824   */\n      tag_267\n      jump\t// in\n    tag_487:\n        /* \"#utility.yul\":19785:19793   */\n      dup2\n        /* \"#utility.yul\":19781:19825   */\n      add\n        /* \"#utility.yul\":19978:19980   */\n      0x20\n        /* \"#utility.yul\":19966:19976   */\n      dup6\n        /* \"#utility.yul\":19963:19981   */\n      lt\n        /* \"#utility.yul\":19960:20009   */\n      iszero\n      tag_488\n      jumpi\n        /* \"#utility.yul\":19999:20007   */\n      dup2\n        /* \"#utility.yul\":19984:20007   */\n      swap1\n      pop\n        /* \"#utility.yul\":19960:20009   */\n    tag_488:\n        /* \"#utility.yul\":20022:20102   */\n      tag_489\n        /* \"#utility.yul\":20078:20100   */\n      tag_490\n        /* \"#utility.yul\":20096:20099   */\n      dup6\n        /* \"#utility.yul\":20078:20100   */\n      tag_267\n      jump\t// in\n    tag_490:\n        /* \"#utility.yul\":20068:20076   */\n      dup4\n        /* \"#utility.yul\":20064:20101   */\n      add\n        /* \"#utility.yul\":20051:20062   */\n      dup3\n        /* \"#utility.yul\":20022:20102   */\n      tag_276\n      jump\t// in\n    tag_489:\n        /* \"#utility.yul\":19681:20112   */\n      pop\n      pop\n        /* \"#utility.yul\":19666:20112   */\n    tag_485:\n        /* \"#utility.yul\":19576:20119   */\n      pop\n      pop\n      pop\n      jump\t// out\n        /* \"#utility.yul\":20125:20242   */\n    tag_278:\n        /* \"#utility.yul\":20179:20187   */\n      0x00\n        /* \"#utility.yul\":20229:20234   */\n      dup3\n        /* \"#utility.yul\":20223:20227   */\n      dup3\n        /* \"#utility.yul\":20219:20235   */\n      shr\n        /* \"#utility.yul\":20198:20235   */\n      swap1\n      pop\n        /* \"#utility.yul\":20125:20242   */\n      swap3\n      swap2\n      pop\n      pop\n      jump\t// out\n        /* \"#utility.yul\":20248:20417   */\n    tag_279:\n        /* \"#utility.yul\":20292:20298   */\n      0x00\n        /* \"#utility.yul\":20325:20376   */\n      tag_493\n        /* \"#utility.yul\":20373:20374   */\n      0x00\n        /* \"#utility.yul\":20369:20375   */\n      not\n        /* \"#utility.yul\":20361:20366   */\n      dup5\n        /* \"#utility.yul\":20358:20359   */\n      0x08\n        /* \"#utility.yul\":20354:20367   */\n      mul\n        /* \"#utility.yul\":20325:20376   */\n      tag_278\n      jump\t// in\n    tag_493:\n        /* \"#utility.yul\":20321:20377   */\n      not\n        /* \"#utility.yul\":20406:20410   */\n      dup1\n        /* \"#utility.yul\":20400:20404   */\n      dup4\n        /* \"#utility.yul\":20396:20411   */\n      and\n        /* \"#utility.yul\":20386:20411   */\n      swap2\n      pop\n        /* \"#utility.yul\":20299:20417   */\n      pop\n        /* \"#utility.yul\":20248:20417   */\n      swap3\n      swap2\n      pop\n      pop\n      jump\t// out\n        /* \"#utility.yul\":20422:20717   */\n    tag_280:\n        /* \"#utility.yul\":20498:20502   */\n      0x00\n        /* \"#utility.yul\":20644:20673   */\n      tag_495\n        /* \"#utility.yul\":20669:20672   */\n      dup4\n        /* \"#utility.yul\":20663:20667   */\n      dup4\n        /* \"#utility.yul\":20644:20673   */\n      tag_279\n      jump\t// in\n    tag_495:\n        /* \"#utility.yul\":20636:20673   */\n      swap2\n      pop\n        /* \"#utility.yul\":20706:20709   */\n      dup3\n        /* \"#utility.yul\":20703:20704   */\n      0x02\n        /* \"#utility.yul\":20699:20710   */\n      mul\n        /* \"#utility.yul\":20693:20697   */\n      dup3\n        /* \"#utility.yul\":20690:20711   */\n      or\n        /* \"#utility.yul\":20682:20711   */\n      swap1\n      pop\n        /* \"#utility.yul\":20422:20717   */\n      swap3\n      swap2\n      pop\n      pop\n      jump\t// out\n        /* \"#utility.yul\":20722:22117   */\n    tag_107:\n        /* \"#utility.yul\":20839:20876   */\n      tag_497\n        /* \"#utility.yul\":20872:20875   */\n      dup3\n        /* \"#utility.yul\":20839:20876   */\n      tag_254\n      jump\t// in\n    tag_497:\n        /* \"#utility.yul\":20941:20959   */\n      0xffffffffffffffff\n        /* \"#utility.yul\":20933:20939   */\n      dup2\n        /* \"#utility.yul\":20930:20960   */\n      gt\n        /* \"#utility.yul\":20927:20983   */\n      iszero\n      tag_498\n      jumpi\n        /* \"#utility.yul\":20963:20981   */\n      tag_499\n      tag_238\n      jump\t// in\n    tag_499:\n        /* \"#utility.yul\":20927:20983   */\n    tag_498:\n        /* \"#utility.yul\":21007:21045   */\n      tag_500\n        /* \"#utility.yul\":21039:21043   */\n      dup3\n        /* \"#utility.yul\":21033:21044   */\n      sload\n        /* \"#utility.yul\":21007:21045   */\n      tag_119\n      jump\t// in\n    tag_500:\n        /* \"#utility.yul\":21092:21159   */\n      tag_501\n        /* \"#utility.yul\":21152:21158   */\n      dup3\n        /* \"#utility.yul\":21144:21150   */\n      dup3\n        /* \"#utility.yul\":21138:21142   */\n      dup6\n        /* \"#utility.yul\":21092:21159   */\n      tag_277\n      jump\t// in\n    tag_501:\n        /* \"#utility.yul\":21186:21187   */\n      0x00\n        /* \"#utility.yul\":21210:21214   */\n      0x20\n        /* \"#utility.yul\":21197:21214   */\n      swap1\n      pop\n        /* \"#utility.yul\":21242:21244   */\n      0x1f\n        /* \"#utility.yul\":21234:21240   */\n      dup4\n        /* \"#utility.yul\":21231:21245   */\n      gt\n        /* \"#utility.yul\":21259:21260   */\n      0x01\n        /* \"#utility.yul\":21254:21872   */\n      dup2\n      eq\n      tag_503\n      jumpi\n        /* \"#utility.yul\":21916:21917   */\n      0x00\n        /* \"#utility.yul\":21933:21939   */\n      dup5\n        /* \"#utility.yul\":21930:22007   */\n      iszero\n      tag_504\n      jumpi\n        /* \"#utility.yul\":21982:21991   */\n      dup3\n        /* \"#utility.yul\":21977:21980   */\n      dup8\n        /* \"#utility.yul\":21973:21992   */\n      add\n        /* \"#utility.yul\":21967:21993   */\n      mload\n        /* \"#utility.yul\":21958:21993   */\n      swap1\n      pop\n        /* \"#utility.yul\":21930:22007   */\n    tag_504:\n        /* \"#utility.yul\":22033:22100   */\n      tag_505\n        /* \"#utility.yul\":22093:22099   */\n      dup6\n        /* \"#utility.yul\":22086:22091   */\n      dup3\n        /* \"#utility.yul\":22033:22100   */\n      tag_280\n      jump\t// in\n    tag_505:\n        /* \"#utility.yul\":22027:22031   */\n      dup7\n        /* \"#utility.yul\":22020:22101   */\n      sstore\n        /* \"#utility.yul\":21889:22111   */\n      pop\n        /* \"#utility.yul\":21224:22111   */\n      jump(tag_502)\n        /* \"#utility.yul\":21254:21872   */\n    tag_503:\n        /* \"#utility.yul\":21306:21310   */\n      0x1f\n        /* \"#utility.yul\":21302:21311   */\n      not\n        /* \"#utility.yul\":21294:21300   */\n      dup5\n        /* \"#utility.yul\":21290:21312   */\n      and\n        /* \"#utility.yul\":21340:21377   */\n      tag_506\n        /* \"#utility.yul\":21372:21376   */\n      dup7\n        /* \"#utility.yul\":21340:21377   */\n      tag_266\n      jump\t// in\n    tag_506:\n        /* \"#utility.yul\":21399:21400   */\n      0x00\n        /* \"#utility.yul\":21413:21621   */\n    tag_507:\n        /* \"#utility.yul\":21427:21434   */\n      dup3\n        /* \"#utility.yul\":21424:21425   */\n      dup2\n        /* \"#utility.yul\":21421:21435   */\n      lt\n        /* \"#utility.yul\":21413:21621   */\n      iszero\n      tag_509\n      jumpi\n        /* \"#utility.yul\":21506:21515   */\n      dup5\n        /* \"#utility.yul\":21501:21504   */\n      dup10\n        /* \"#utility.yul\":21497:21516   */\n      add\n        /* \"#utility.yul\":21491:21517   */\n      mload\n        /* \"#utility.yul\":21483:21489   */\n      dup3\n        /* \"#utility.yul\":21476:21518   */\n      sstore\n        /* \"#utility.yul\":21557:21558   */\n      0x01\n        /* \"#utility.yul\":21549:21555   */\n      dup3\n        /* \"#utility.yul\":21545:21559   */\n      add\n        /* \"#utility.yul\":21535:21559   */\n      swap2\n      pop\n        /* \"#utility.yul\":21604:21606   */\n      0x20\n        /* \"#utility.yul\":21593:21602   */\n      dup6\n        /* \"#utility.yul\":21589:21607   */\n      add\n        /* \"#utility.yul\":21576:21607   */\n      swap5\n      pop\n        /* \"#utility.yul\":21450:21454   */\n      0x20\n        /* \"#utility.yul\":21447:21448   */\n      dup2\n        /* \"#utility.yul\":21443:21455   */\n      add\n        /* \"#utility.yul\":21438:21455   */\n      swap1\n      pop\n        /* \"#utility.yul\":21413:21621   */\n      jump(tag_507)\n    tag_509:\n        /* \"#utility.yul\":21649:21655   */\n      dup7\n        /* \"#utility.yul\":21640:21647   */\n      dup4\n        /* \"#utility.yul\":21637:21656   */\n      lt\n        /* \"#utility.yul\":21634:21813   */\n      iszero\n      tag_510\n      jumpi\n        /* \"#utility.yul\":21707:21716   */\n      dup5\n        /* \"#utility.yul\":21702:21705   */\n      dup10\n        /* \"#utility.yul\":21698:21717   */\n      add\n        /* \"#utility.yul\":21692:21718   */\n      mload\n        /* \"#utility.yul\":21750:21798   */\n      tag_511\n        /* \"#utility.yul\":21792:21796   */\n      0x1f\n        /* \"#utility.yul\":21784:21790   */\n      dup10\n        /* \"#utility.yul\":21780:21797   */\n      and\n        /* \"#utility.yul\":21769:21778   */\n      dup3\n        /* \"#utility.yul\":21750:21798   */\n      tag_279\n      jump\t// in\n    tag_511:\n        /* \"#utility.yul\":21742:21748   */\n      dup4\n        /* \"#utility.yul\":21735:21799   */\n      sstore\n        /* \"#utility.yul\":21657:21813   */\n      pop\n        /* \"#utility.yul\":21634:21813   */\n    tag_510:\n        /* \"#utility.yul\":21859:21860   */\n      0x01\n        /* \"#utility.yul\":21855:21856   */\n      0x02\n        /* \"#utility.yul\":21847:21853   */\n      dup9\n        /* \"#utility.yul\":21843:21857   */\n      mul\n        /* \"#utility.yul\":21839:21861   */\n      add\n        /* \"#utility.yul\":21833:21837   */\n      dup9\n        /* \"#utility.yul\":21826:21862   */\n      sstore\n        /* \"#utility.yul\":21261:21872   */\n      pop\n      pop\n      pop\n        /* \"#utility.yul\":21224:22111   */\n    tag_502:\n      pop\n        /* \"#utility.yul\":20814:22117   */\n      pop\n      pop\n      pop\n        /* \"#utility.yul\":20722:22117   */\n      pop\n      pop\n      jump\t// out\n        /* \"#utility.yul\":22123:23270   */\n    tag_112:\n        /* \"#utility.yul\":22438:22442   */\n      0x00\n        /* \"#utility.yul\":22476:22479   */\n      0xe0\n        /* \"#utility.yul\":22465:22474   */\n      dup3\n        /* \"#utility.yul\":22461:22480   */\n      add\n        /* \"#utility.yul\":22453:22480   */\n      swap1\n      pop\n        /* \"#utility.yul\":22526:22535   */\n      dup2\n        /* \"#utility.yul\":22520:22524   */\n      dup2\n        /* \"#utility.yul\":22516:22536   */\n      sub\n        /* \"#utility.yul\":22512:22513   */\n      0x00\n        /* \"#utility.yul\":22501:22510   */\n      dup4\n        /* \"#utility.yul\":22497:22514   */\n      add\n        /* \"#utility.yul\":22490:22537   */\n      mstore\n        /* \"#utility.yul\":22554:22632   */\n      tag_513\n        /* \"#utility.yul\":22627:22631   */\n      dup2\n        /* \"#utility.yul\":22618:22624   */\n      dup11\n        /* \"#utility.yul\":22554:22632   */\n      tag_257\n      jump\t// in\n    tag_513:\n        /* \"#utility.yul\":22546:22632   */\n      swap1\n      pop\n        /* \"#utility.yul\":22679:22688   */\n      dup2\n        /* \"#utility.yul\":22673:22677   */\n      dup2\n        /* \"#utility.yul\":22669:22689   */\n      sub\n        /* \"#utility.yul\":22664:22666   */\n      0x20\n        /* \"#utility.yul\":22653:22662   */\n      dup4\n        /* \"#utility.yul\":22649:22667   */\n      add\n        /* \"#utility.yul\":22642:22690   */\n      mstore\n        /* \"#utility.yul\":22707:22785   */\n      tag_514\n        /* \"#utility.yul\":22780:22784   */\n      dup2\n        /* \"#utility.yul\":22771:22777   */\n      dup10\n        /* \"#utility.yul\":22707:22785   */\n      tag_257\n      jump\t// in\n    tag_514:\n        /* \"#utility.yul\":22699:22785   */\n      swap1\n      pop\n        /* \"#utility.yul\":22795:22867   */\n      tag_515\n        /* \"#utility.yul\":22863:22865   */\n      0x40\n        /* \"#utility.yul\":22852:22861   */\n      dup4\n        /* \"#utility.yul\":22848:22866   */\n      add\n        /* \"#utility.yul\":22839:22845   */\n      dup9\n        /* \"#utility.yul\":22795:22867   */\n      tag_258\n      jump\t// in\n    tag_515:\n        /* \"#utility.yul\":22877:22949   */\n      tag_516\n        /* \"#utility.yul\":22945:22947   */\n      0x60\n        /* \"#utility.yul\":22934:22943   */\n      dup4\n        /* \"#utility.yul\":22930:22948   */\n      add\n        /* \"#utility.yul\":22921:22927   */\n      dup8\n        /* \"#utility.yul\":22877:22949   */\n      tag_246\n      jump\t// in\n    tag_516:\n        /* \"#utility.yul\":22959:23026   */\n      tag_517\n        /* \"#utility.yul\":23021:23024   */\n      0x80\n        /* \"#utility.yul\":23010:23019   */\n      dup4\n        /* \"#utility.yul\":23006:23025   */\n      add\n        /* \"#utility.yul\":22997:23003   */\n      dup7\n        /* \"#utility.yul\":22959:23026   */\n      tag_262\n      jump\t// in\n    tag_517:\n        /* \"#utility.yul\":23036:23109   */\n      tag_518\n        /* \"#utility.yul\":23104:23107   */\n      0xa0\n        /* \"#utility.yul\":23093:23102   */\n      dup4\n        /* \"#utility.yul\":23089:23108   */\n      add\n        /* \"#utility.yul\":23080:23086   */\n      dup6\n        /* \"#utility.yul\":23036:23109   */\n      tag_246\n      jump\t// in\n    tag_518:\n        /* \"#utility.yul\":23157:23166   */\n      dup2\n        /* \"#utility.yul\":23151:23155   */\n      dup2\n        /* \"#utility.yul\":23147:23167   */\n      sub\n        /* \"#utility.yul\":23141:23144   */\n      0xc0\n        /* \"#utility.yul\":23130:23139   */\n      dup4\n        /* \"#utility.yul\":23126:23145   */\n      add\n        /* \"#utility.yul\":23119:23168   */\n      mstore\n        /* \"#utility.yul\":23185:23263   */\n      tag_519\n        /* \"#utility.yul\":23258:23262   */\n      dup2\n        /* \"#utility.yul\":23249:23255   */\n      dup5\n        /* \"#utility.yul\":23185:23263   */\n      tag_257\n      jump\t// in\n    tag_519:\n        /* \"#utility.yul\":23177:23263   */\n      swap1\n      pop\n        /* \"#utility.yul\":22123:23270   */\n      swap9\n      swap8\n      pop\n      pop\n      pop\n      pop\n      pop\n      pop\n      pop\n      pop\n      jump\t// out\n        /* \"#utility.yul\":23276:23448   */\n    tag_281:\n        /* \"#utility.yul\":23416:23440   */\n      0x596f75206861766520616c726561647920766f74656400000000000000000000\n        /* \"#utility.yul\":23412:23413   */\n      0x00\n        /* \"#utility.yul\":23404:23410   */\n      dup3\n        /* \"#utility.yul\":23400:23414   */\n      add\n        /* \"#utility.yul\":23393:23441   */\n      mstore\n        /* \"#utility.yul\":23276:23448   */\n      pop\n      jump\t// out\n        /* \"#utility.yul\":23454:23820   */\n    tag_282:\n        /* \"#utility.yul\":23596:23599   */\n      0x00\n        /* \"#utility.yul\":23617:23684   */\n      tag_522\n        /* \"#utility.yul\":23681:23683   */\n      0x16\n        /* \"#utility.yul\":23676:23679   */\n      dup4\n        /* \"#utility.yul\":23617:23684   */\n      tag_255\n      jump\t// in\n    tag_522:\n        /* \"#utility.yul\":23610:23684   */\n      swap2\n      pop\n        /* \"#utility.yul\":23693:23786   */\n      tag_523\n        /* \"#utility.yul\":23782:23785   */\n      dup3\n        /* \"#utility.yul\":23693:23786   */\n      tag_281\n      jump\t// in\n    tag_523:\n        /* \"#utility.yul\":23811:23813   */\n      0x20\n        /* \"#utility.yul\":23806:23809   */\n      dup3\n        /* \"#utility.yul\":23802:23814   */\n      add\n        /* \"#utility.yul\":23795:23814   */\n      swap1\n      pop\n        /* \"#utility.yul\":23454:23820   */\n      swap2\n      swap1\n      pop\n      jump\t// out\n        /* \"#utility.yul\":23826:24245   */\n    tag_144:\n        /* \"#utility.yul\":23992:23996   */\n      0x00\n        /* \"#utility.yul\":24030:24032   */\n      0x20\n        /* \"#utility.yul\":24019:24028   */\n      dup3\n        /* \"#utility.yul\":24015:24033   */\n      add\n        /* \"#utility.yul\":24007:24033   */\n      swap1\n      pop\n        /* \"#utility.yul\":24079:24088   */\n      dup2\n        /* \"#utility.yul\":24073:24077   */\n      dup2\n        /* \"#utility.yul\":24069:24089   */\n      sub\n        /* \"#utility.yul\":24065:24066   */\n      0x00\n        /* \"#utility.yul\":24054:24063   */\n      dup4\n        /* \"#utility.yul\":24050:24067   */\n      add\n        /* \"#utility.yul\":24043:24090   */\n      mstore\n        /* \"#utility.yul\":24107:24238   */\n      tag_525\n        /* \"#utility.yul\":24233:24237   */\n      dup2\n        /* \"#utility.yul\":24107:24238   */\n      tag_282\n      jump\t// in\n    tag_525:\n        /* \"#utility.yul\":24099:24238   */\n      swap1\n      pop\n        /* \"#utility.yul\":23826:24245   */\n      swap2\n      swap1\n      pop\n      jump\t// out\n        /* \"#utility.yul\":24251:24426   */\n    tag_283:\n        /* \"#utility.yul\":24391:24418   */\n      0x596f752068617665206e6f20726967687420746f20766f746500000000000000\n        /* \"#utility.yul\":24387:24388   */\n      0x00\n        /* \"#utility.yul\":24379:24385   */\n      dup3\n        /* \"#utility.yul\":24375:24389   */\n      add\n        /* \"#utility.yul\":24368:24419   */\n      mstore\n        /* \"#utility.yul\":24251:24426   */\n      pop\n      jump\t// out\n        /* \"#utility.yul\":24432:24798   */\n    tag_284:\n        /* \"#utility.yul\":24574:24577   */\n      0x00\n        /* \"#utility.yul\":24595:24662   */\n      tag_528\n        /* \"#utility.yul\":24659:24661   */\n      0x19\n        /* \"#utility.yul\":24654:24657   */\n      dup4\n        /* \"#utility.yul\":24595:24662   */\n      tag_255\n      jump\t// in\n    tag_528:\n        /* \"#utility.yul\":24588:24662   */\n      swap2\n      pop\n        /* \"#utility.yul\":24671:24764   */\n      tag_529\n        /* \"#utility.yul\":24760:24763   */\n      dup3\n        /* \"#utility.yul\":24671:24764   */\n      tag_283\n      jump\t// in\n    tag_529:\n        /* \"#utility.yul\":24789:24791   */\n      0x20\n        /* \"#utility.yul\":24784:24787   */\n      dup3\n        /* \"#utility.yul\":24780:24792   */\n      add\n        /* \"#utility.yul\":24773:24792   */\n      swap1\n      pop\n        /* \"#utility.yul\":24432:24798   */\n      swap2\n      swap1\n      pop\n      jump\t// out\n        /* \"#utility.yul\":24804:25223   */\n    tag_147:\n        /* \"#utility.yul\":24970:24974   */\n      0x00\n        /* \"#utility.yul\":25008:25010   */\n      0x20\n        /* \"#utility.yul\":24997:25006   */\n      dup3\n        /* \"#utility.yul\":24993:25011   */\n      add\n        /* \"#utility.yul\":24985:25011   */\n      swap1\n      pop\n        /* \"#utility.yul\":25057:25066   */\n      dup2\n        /* \"#utility.yul\":25051:25055   */\n      dup2\n        /* \"#utility.yul\":25047:25067   */\n      sub\n        /* \"#utility.yul\":25043:25044   */\n      0x00\n        /* \"#utility.yul\":25032:25041   */\n      dup4\n        /* \"#utility.yul\":25028:25045   */\n      add\n        /* \"#utility.yul\":25021:25068   */\n      mstore\n        /* \"#utility.yul\":25085:25216   */\n      tag_531\n        /* \"#utility.yul\":25211:25215   */\n      dup2\n        /* \"#utility.yul\":25085:25216   */\n      tag_284\n      jump\t// in\n    tag_531:\n        /* \"#utility.yul\":25077:25216   */\n      swap1\n      pop\n        /* \"#utility.yul\":24804:25223   */\n      swap2\n      swap1\n      pop\n      jump\t// out\n        /* \"#utility.yul\":25229:25409   */\n    tag_285:\n        /* \"#utility.yul\":25277:25354   */\n      0x4e487b7100000000000000000000000000000000000000000000000000000000\n        /* \"#utility.yul\":25274:25275   */\n      0x00\n        /* \"#utility.yul\":25267:25355   */\n      mstore\n        /* \"#utility.yul\":25374:25378   */\n      0x11\n        /* \"#utility.yul\":25371:25372   */\n      0x04\n        /* \"#utility.yul\":25364:25379   */\n      mstore\n        /* \"#utility.yul\":25398:25402   */\n      0x24\n        /* \"#utility.yul\":25395:25396   */\n      0x00\n        /* \"#utility.yul\":25388:25403   */\n      revert\n        /* \"#utility.yul\":25415:25606   */\n    tag_150:\n        /* \"#utility.yul\":25455:25458   */\n      0x00\n        /* \"#utility.yul\":25474:25494   */\n      tag_534\n        /* \"#utility.yul\":25492:25493   */\n      dup3\n        /* \"#utility.yul\":25474:25494   */\n      tag_245\n      jump\t// in\n    tag_534:\n        /* \"#utility.yul\":25469:25494   */\n      swap2\n      pop\n        /* \"#utility.yul\":25508:25528   */\n      tag_535\n        /* \"#utility.yul\":25526:25527   */\n      dup4\n        /* \"#utility.yul\":25508:25528   */\n      tag_245\n      jump\t// in\n    tag_535:\n        /* \"#utility.yul\":25503:25528   */\n      swap3\n      pop\n        /* \"#utility.yul\":25551:25552   */\n      dup3\n        /* \"#utility.yul\":25548:25549   */\n      dup3\n        /* \"#utility.yul\":25544:25553   */\n      add\n        /* \"#utility.yul\":25537:25553   */\n      swap1\n      pop\n        /* \"#utility.yul\":25572:25575   */\n      dup1\n        /* \"#utility.yul\":25569:25570   */\n      dup3\n        /* \"#utility.yul\":25566:25576   */\n      gt\n        /* \"#utility.yul\":25563:25599   */\n      iszero\n      tag_536\n      jumpi\n        /* \"#utility.yul\":25579:25597   */\n      tag_537\n      tag_285\n      jump\t// in\n    tag_537:\n        /* \"#utility.yul\":25563:25599   */\n    tag_536:\n        /* \"#utility.yul\":25415:25606   */\n      swap3\n      swap2\n      pop\n      pop\n      jump\t// out\n        /* \"#utility.yul\":25612:25835   */\n    tag_286:\n        /* \"#utility.yul\":25752:25786   */\n      0x4f6e6c79206f7267616e697a65722063616e20616464206e65772063616e6469\n        /* \"#utility.yul\":25748:25749   */\n      0x00\n        /* \"#utility.yul\":25740:25746   */\n      dup3\n        /* \"#utility.yul\":25736:25750   */\n      add\n        /* \"#utility.yul\":25729:25787   */\n      mstore\n        /* \"#utility.yul\":25821:25827   */\n      0x6461746500000000000000000000000000000000000000000000000000000000\n        /* \"#utility.yul\":25816:25818   */\n      0x20\n        /* \"#utility.yul\":25808:25814   */\n      dup3\n        /* \"#utility.yul\":25804:25819   */\n      add\n        /* \"#utility.yul\":25797:25828   */\n      mstore\n        /* \"#utility.yul\":25612:25835   */\n      pop\n      jump\t// out\n        /* \"#utility.yul\":25841:26207   */\n    tag_287:\n        /* \"#utility.yul\":25983:25986   */\n      0x00\n        /* \"#utility.yul\":26004:26071   */\n      tag_540\n        /* \"#utility.yul\":26068:26070   */\n      0x24\n        /* \"#utility.yul\":26063:26066   */\n      dup4\n        /* \"#utility.yul\":26004:26071   */\n      tag_255\n      jump\t// in\n    tag_540:\n        /* \"#utility.yul\":25997:26071   */\n      swap2\n      pop\n        /* \"#utility.yul\":26080:26173   */\n      tag_541\n        /* \"#utility.yul\":26169:26172   */\n      dup3\n        /* \"#utility.yul\":26080:26173   */\n      tag_286\n      jump\t// in\n    tag_541:\n        /* \"#utility.yul\":26198:26200   */\n      0x40\n        /* \"#utility.yul\":26193:26196   */\n      dup3\n        /* \"#utility.yul\":26189:26201   */\n      add\n        /* \"#utility.yul\":26182:26201   */\n      swap1\n      pop\n        /* \"#utility.yul\":25841:26207   */\n      swap2\n      swap1\n      pop\n      jump\t// out\n        /* \"#utility.yul\":26213:26632   */\n    tag_215:\n        /* \"#utility.yul\":26379:26383   */\n      0x00\n        /* \"#utility.yul\":26417:26419   */\n      0x20\n        /* \"#utility.yul\":26406:26415   */\n      dup3\n        /* \"#utility.yul\":26402:26420   */\n      add\n        /* \"#utility.yul\":26394:26420   */\n      swap1\n      pop\n        /* \"#utility.yul\":26466:26475   */\n      dup2\n        /* \"#utility.yul\":26460:26464   */\n      dup2\n        /* \"#utility.yul\":26456:26476   */\n      sub\n        /* \"#utility.yul\":26452:26453   */\n      0x00\n        /* \"#utility.yul\":26441:26450   */\n      dup4\n        /* \"#utility.yul\":26437:26454   */\n      add\n        /* \"#utility.yul\":26430:26477   */\n      mstore\n        /* \"#utility.yul\":26494:26625   */\n      tag_543\n        /* \"#utility.yul\":26620:26624   */\n      dup2\n        /* \"#utility.yul\":26494:26625   */\n      tag_287\n      jump\t// in\n    tag_543:\n        /* \"#utility.yul\":26486:26625   */\n      swap1\n      pop\n        /* \"#utility.yul\":26213:26632   */\n      swap2\n      swap1\n      pop\n      jump\t// out\n        /* \"#utility.yul\":26638:27777   */\n    tag_224:\n        /* \"#utility.yul\":26951:26955   */\n      0x00\n        /* \"#utility.yul\":26989:26992   */\n      0xc0\n        /* \"#utility.yul\":26978:26987   */\n      dup3\n        /* \"#utility.yul\":26974:26993   */\n      add\n        /* \"#utility.yul\":26966:26993   */\n      swap1\n      pop\n        /* \"#utility.yul\":27039:27048   */\n      dup2\n        /* \"#utility.yul\":27033:27037   */\n      dup2\n        /* \"#utility.yul\":27029:27049   */\n      sub\n        /* \"#utility.yul\":27025:27026   */\n      0x00\n        /* \"#utility.yul\":27014:27023   */\n      dup4\n        /* \"#utility.yul\":27010:27027   */\n      add\n        /* \"#utility.yul\":27003:27050   */\n      mstore\n        /* \"#utility.yul\":27067:27145   */\n      tag_545\n        /* \"#utility.yul\":27140:27144   */\n      dup2\n        /* \"#utility.yul\":27131:27137   */\n      dup10\n        /* \"#utility.yul\":27067:27145   */\n      tag_257\n      jump\t// in\n    tag_545:\n        /* \"#utility.yul\":27059:27145   */\n      swap1\n      pop\n        /* \"#utility.yul\":27192:27201   */\n      dup2\n        /* \"#utility.yul\":27186:27190   */\n      dup2\n        /* \"#utility.yul\":27182:27202   */\n      sub\n        /* \"#utility.yul\":27177:27179   */\n      0x20\n        /* \"#utility.yul\":27166:27175   */\n      dup4\n        /* \"#utility.yul\":27162:27180   */\n      add\n        /* \"#utility.yul\":27155:27203   */\n      mstore\n        /* \"#utility.yul\":27220:27298   */\n      tag_546\n        /* \"#utility.yul\":27293:27297   */\n      dup2\n        /* \"#utility.yul\":27284:27290   */\n      dup9\n        /* \"#utility.yul\":27220:27298   */\n      tag_257\n      jump\t// in\n    tag_546:\n        /* \"#utility.yul\":27212:27298   */\n      swap1\n      pop\n        /* \"#utility.yul\":27345:27354   */\n      dup2\n        /* \"#utility.yul\":27339:27343   */\n      dup2\n        /* \"#utility.yul\":27335:27355   */\n      sub\n        /* \"#utility.yul\":27330:27332   */\n      0x40\n        /* \"#utility.yul\":27319:27328   */\n      dup4\n        /* \"#utility.yul\":27315:27333   */\n      add\n        /* \"#utility.yul\":27308:27356   */\n      mstore\n        /* \"#utility.yul\":27373:27451   */\n      tag_547\n        /* \"#utility.yul\":27446:27450   */\n      dup2\n        /* \"#utility.yul\":27437:27443   */\n      dup8\n        /* \"#utility.yul\":27373:27451   */\n      tag_257\n      jump\t// in\n    tag_547:\n        /* \"#utility.yul\":27365:27451   */\n      swap1\n      pop\n        /* \"#utility.yul\":27461:27533   */\n      tag_548\n        /* \"#utility.yul\":27529:27531   */\n      0x60\n        /* \"#utility.yul\":27518:27527   */\n      dup4\n        /* \"#utility.yul\":27514:27532   */\n      add\n        /* \"#utility.yul\":27505:27511   */\n      dup7\n        /* \"#utility.yul\":27461:27533   */\n      tag_246\n      jump\t// in\n    tag_548:\n        /* \"#utility.yul\":27543:27616   */\n      tag_549\n        /* \"#utility.yul\":27611:27614   */\n      0x80\n        /* \"#utility.yul\":27600:27609   */\n      dup4\n        /* \"#utility.yul\":27596:27615   */\n      add\n        /* \"#utility.yul\":27587:27593   */\n      dup6\n        /* \"#utility.yul\":27543:27616   */\n      tag_258\n      jump\t// in\n    tag_549:\n        /* \"#utility.yul\":27664:27673   */\n      dup2\n        /* \"#utility.yul\":27658:27662   */\n      dup2\n        /* \"#utility.yul\":27654:27674   */\n      sub\n        /* \"#utility.yul\":27648:27651   */\n      0xa0\n        /* \"#utility.yul\":27637:27646   */\n      dup4\n        /* \"#utility.yul\":27633:27652   */\n      add\n        /* \"#utility.yul\":27626:27675   */\n      mstore\n        /* \"#utility.yul\":27692:27770   */\n      tag_550\n        /* \"#utility.yul\":27765:27769   */\n      dup2\n        /* \"#utility.yul\":27756:27762   */\n      dup5\n        /* \"#utility.yul\":27692:27770   */\n      tag_257\n      jump\t// in\n    tag_550:\n        /* \"#utility.yul\":27684:27770   */\n      swap1\n      pop\n        /* \"#utility.yul\":26638:27777   */\n      swap8\n      swap7\n      pop\n      pop\n      pop\n      pop\n      pop\n      pop\n      pop\n      jump\t// out\n\n    auxdata: 0xa264697066735822122089a1735cc2048048b6a453d1b45be94e4ceb86c00d146f2465654c246abfac2864736f6c63430008120033\n}\n",
				"bytecode": {
					"linkReferences": {},
					"object": "608060405234801561001057600080fd5b5033600260006101000a81548173ffffffffffffffffffffffffffffffffffffffff021916908373ffffffffffffffffffffffffffffffffffffffff16021790555061283a806100616000396000f3fe608060405234801561001057600080fd5b50600436106101165760003560e01c80637831ffb3116100a2578063a3ec138d11610071578063a3ec138d1461031b578063b28d92ae14610352578063b404031314610370578063c91ec7121461038e578063f7522a83146103aa57610116565b80637831ffb31461024f5780638ab66a901461027f5780638fb4cd80146102b5578063908fdecd146102eb57610116565b806343242daa116100e957806343242daa146101a95780635cc48aa7146101d95780635f74bbde146101f757806364f1832e1461021357806370218b851461023157610116565b80630361419e1461011b57806305ad45a41461013757806313182dce146101555780632a466ac714610173575b600080fd5b61013560048036038101906101309190611b7b565b6103c8565b005b61013f610640565b60405161014c9190611c4f565b60405180910390f35b61015d61064d565b60405161016a9190611d28565b60405180910390f35b61018d60048036038101906101889190611d4a565b6106db565b6040516101a09796959493929190611e05565b60405180910390f35b6101c360048036038101906101be9190611ebc565b610b22565b6040516101d09190611ee9565b60405180910390f35b6101e1610b61565b6040516101ee9190611ee9565b60405180910390f35b610211600480360381019061020c9190611f04565b610b87565b005b61021b610d4e565b6040516102289190611c4f565b60405180910390f35b610239610d5a565b6040516102469190611d28565b60405180910390f35b61026960048036038101906102649190611ebc565b610de8565b6040516102769190611ee9565b60405180910390f35b61029960048036038101906102949190611d4a565b610e27565b6040516102ac9796959493929190611f44565b60405180910390f35b6102cf60048036038101906102ca9190611d4a565b6110a9565b6040516102e29796959493929190611fea565b60405180910390f35b61030560048036038101906103009190611ebc565b611471565b6040516103129190611ee9565b60405180910390f35b61033560048036038101906103309190611d4a565b6114b0565b60405161034998979695949392919061206e565b60405180910390f35b61035a6116bd565b6040516103679190611d28565b60405180910390f35b61037861174b565b6040516103859190611c4f565b60405180910390f35b6103a860048036038101906103a39190612101565b611757565b005b6103b2611992565b6040516103bf9190611c4f565b60405180910390f35b3373ffffffffffffffffffffffffffffffffffffffff16600260009054906101000a900473ffffffffffffffffffffffffffffffffffffffff1673ffffffffffffffffffffffffffffffffffffffff1614610458576040517f08c379a000000000000000000000000000000000000000000000000000000000815260040161044f90612238565b60405180910390fd5b610462600061199f565b600061046e60006119b5565b90506000600760008773ffffffffffffffffffffffffffffffffffffffff1673ffffffffffffffffffffffffffffffffffffffff168152602001908152602001600020905060008160040154146104c457600080fd5b60018160040181905550848160010190816104df9190612464565b50838160020190816104f19190612464565b50858160030160006101000a81548173ffffffffffffffffffffffffffffffffffffffff021916908373ffffffffffffffffffffffffffffffffffffffff1602179055508181600001819055506103e8816006018190555060008160050160006101000a81548160ff021916908315150217905550828160070190816105779190612464565b506006869080600181540180825580915050600190039060005260206000200160009091909190916101000a81548173ffffffffffffffffffffffffffffffffffffffff021916908373ffffffffffffffffffffffffffffffffffffffff160217905550817ff5f39971dd62d9929e3a9feaa6bb77fe7c7da0001babff8a65a7e51ad0201c1986868985600401548660050160009054906101000a900460ff1687600601548a6040516106309796959493929190612536565b60405180910390a2505050505050565b6000600680549050905090565b606060058054806020026020016040519081016040528092919081815260200182805480156106d157602002820191906000526020600020905b8160009054906101000a900473ffffffffffffffffffffffffffffffffffffffff1673ffffffffffffffffffffffffffffffffffffffff1681526020019060010190808311610687575b5050505050905090565b60608060006060600060606000600460008973ffffffffffffffffffffffffffffffffffffffff1673ffffffffffffffffffffffffffffffffffffffff168152602001908152602001600020600101600460008a73ffffffffffffffffffffffffffffffffffffffff1673ffffffffffffffffffffffffffffffffffffffff168152602001908152602001600020600201600460008b73ffffffffffffffffffffffffffffffffffffffff1673ffffffffffffffffffffffffffffffffffffffff16815260200190815260200160002060000154600460008c73ffffffffffffffffffffffffffffffffffffffff1673ffffffffffffffffffffffffffffffffffffffff168152602001908152602001600020600301600460008d73ffffffffffffffffffffffffffffffffffffffff1673ffffffffffffffffffffffffffffffffffffffff16815260200190815260200160002060040154600460008e73ffffffffffffffffffffffffffffffffffffffff1673ffffffffffffffffffffffffffffffffffffffff168152602001908152602001600020600601600460008f73ffffffffffffffffffffffffffffffffffffffff1673ffffffffffffffffffffffffffffffffffffffff16815260200190815260200160002060050160009054906101000a900473ffffffffffffffffffffffffffffffffffffffff168680546108e590612287565b80601f016020809104026020016040519081016040528092919081815260200182805461091190612287565b801561095e5780601f106109335761010080835404028352916020019161095e565b820191906000526020600020905b81548152906001019060200180831161094157829003601f168201915b5050505050965085805461097190612287565b80601f016020809104026020016040519081016040528092919081815260200182805461099d90612287565b80156109ea5780601f106109bf576101008083540402835291602001916109ea565b820191906000526020600020905b8154815290600101906020018083116109cd57829003601f168201915b505050505095508380546109fd90612287565b80601f0160208091040260200160405190810160405280929190818152602001828054610a2990612287565b8015610a765780601f10610a4b57610100808354040283529160200191610a76565b820191906000526020600020905b815481529060010190602001808311610a5957829003601f168201915b50505050509350818054610a8990612287565b80601f0160208091040260200160405190810160405280929190818152602001828054610ab590612287565b8015610b025780601f10610ad757610100808354040283529160200191610b02565b820191906000526020600020905b815481529060010190602001808311610ae557829003601f168201915b505050505091509650965096509650965096509650919395979092949650565b60068181548110610b3257600080fd5b906000526020600020016000915054906101000a900473ffffffffffffffffffffffffffffffffffffffff1681565b600260009054906101000a900473ffffffffffffffffffffffffffffffffffffffff1681565b6000600760003373ffffffffffffffffffffffffffffffffffffffff1673ffffffffffffffffffffffffffffffffffffffff16815260200190815260200160002090508060050160009054906101000a900460ff1615610c1c576040517f08c379a0000000000000000000000000000000000000000000000000000000008152600401610c1390612606565b60405180910390fd5b6000816004015403610c63576040517f08c379a0000000000000000000000000000000000000000000000000000000008152600401610c5a90612672565b60405180910390fd5b60018160050160006101000a81548160ff0219169083151502179055508181600601819055506005339080600181540180825580915050600190039060005260206000200160009091909190916101000a81548173ffffffffffffffffffffffffffffffffffffffff021916908373ffffffffffffffffffffffffffffffffffffffff1602179055508060040154600460008573ffffffffffffffffffffffffffffffffffffffff1673ffffffffffffffffffffffffffffffffffffffff1681526020019081526020016000206004016000828254610d4291906126c1565b92505081905550505050565b60018060000154905081565b60606003805480602002602001604051908101604052809291908181526020018280548015610dde57602002820191906000526020600020905b8160009054906101000a900473ffffffffffffffffffffffffffffffffffffffff1673ffffffffffffffffffffffffffffffffffffffff1681526020019060010190808311610d94575b5050505050905090565b60058181548110610df857600080fd5b906000526020600020016000915054906101000a900473ffffffffffffffffffffffffffffffffffffffff1681565b6004602052806000526040600020600091509050806000015490806001018054610e5090612287565b80601f0160208091040260200160405190810160405280929190818152602001828054610e7c90612287565b8015610ec95780601f10610e9e57610100808354040283529160200191610ec9565b820191906000526020600020905b815481529060010190602001808311610eac57829003601f168201915b505050505090806002018054610ede90612287565b80601f0160208091040260200160405190810160405280929190818152602001828054610f0a90612287565b8015610f575780601f10610f2c57610100808354040283529160200191610f57565b820191906000526020600020905b815481529060010190602001808311610f3a57829003601f168201915b505050505090806003018054610f6c90612287565b80601f0160208091040260200160405190810160405280929190818152602001828054610f9890612287565b8015610fe55780601f10610fba57610100808354040283529160200191610fe5565b820191906000526020600020905b815481529060010190602001808311610fc857829003601f168201915b5050505050908060040154908060050160009054906101000a900473ffffffffffffffffffffffffffffffffffffffff169080600601805461102690612287565b80601f016020809104026020016040519081016040528092919081815260200182805461105290612287565b801561109f5780601f106110745761010080835404028352916020019161109f565b820191906000526020600020905b81548152906001019060200180831161108257829003601f168201915b5050505050905087565b600060608060006060600080600760008973ffffffffffffffffffffffffffffffffffffffff1673ffffffffffffffffffffffffffffffffffffffff16815260200190815260200160002060000154600760008a73ffffffffffffffffffffffffffffffffffffffff1673ffffffffffffffffffffffffffffffffffffffff168152602001908152602001600020600101600760008b73ffffffffffffffffffffffffffffffffffffffff1673ffffffffffffffffffffffffffffffffffffffff168152602001908152602001600020600201600760008c73ffffffffffffffffffffffffffffffffffffffff1673ffffffffffffffffffffffffffffffffffffffff16815260200190815260200160002060030160009054906101000a900473ffffffffffffffffffffffffffffffffffffffff16600760008d73ffffffffffffffffffffffffffffffffffffffff1673ffffffffffffffffffffffffffffffffffffffff168152602001908152602001600020600701600760008e73ffffffffffffffffffffffffffffffffffffffff1673ffffffffffffffffffffffffffffffffffffffff16815260200190815260200160002060040154600760008f73ffffffffffffffffffffffffffffffffffffffff1673ffffffffffffffffffffffffffffffffffffffff16815260200190815260200160002060050160009054906101000a900460ff168580546112c090612287565b80601f01602080910402602001604051908101604052809291908181526020018280546112ec90612287565b80156113395780601f1061130e57610100808354040283529160200191611339565b820191906000526020600020905b81548152906001019060200180831161131c57829003601f168201915b5050505050955084805461134c90612287565b80601f016020809104026020016040519081016040528092919081815260200182805461137890612287565b80156113c55780601f1061139a576101008083540402835291602001916113c5565b820191906000526020600020905b8154815290600101906020018083116113a857829003601f168201915b505050505094508280546113d890612287565b80601f016020809104026020016040519081016040528092919081815260200182805461140490612287565b80156114515780601f1061142657610100808354040283529160200191611451565b820191906000526020600020905b81548152906001019060200180831161143457829003601f168201915b505050505092509650965096509650965096509650919395979092949650565b6003818154811061148157600080fd5b906000526020600020016000915054906101000a900473ffffffffffffffffffffffffffffffffffffffff1681565b60076020528060005260406000206000915090508060000154908060010180546114d990612287565b80601f016020809104026020016040519081016040528092919081815260200182805461150590612287565b80156115525780601f1061152757610100808354040283529160200191611552565b820191906000526020600020905b81548152906001019060200180831161153557829003601f168201915b50505050509080600201805461156790612287565b80601f016020809104026020016040519081016040528092919081815260200182805461159390612287565b80156115e05780601f106115b5576101008083540402835291602001916115e0565b820191906000526020600020905b8154815290600101906020018083116115c357829003601f168201915b5050505050908060030160009054906101000a900473ffffffffffffffffffffffffffffffffffffffff16908060040154908060050160009054906101000a900460ff169080600601549080600701805461163a90612287565b80601f016020809104026020016040519081016040528092919081815260200182805461166690612287565b80156116b35780601f10611688576101008083540402835291602001916116b3565b820191906000526020600020905b81548152906001019060200180831161169657829003601f168201915b5050505050905088565b6060600680548060200260200160405190810160405280929190818152602001828054801561174157602002820191906000526020600020905b8160009054906101000a900473ffffffffffffffffffffffffffffffffffffffff1673ffffffffffffffffffffffffffffffffffffffff16815260200190600101908083116116f7575b5050505050905090565b60008060000154905081565b3373ffffffffffffffffffffffffffffffffffffffff16600260009054906101000a900473ffffffffffffffffffffffffffffffffffffffff1673ffffffffffffffffffffffffffffffffffffffff16146117e7576040517f08c379a00000000000000000000000000000000000000000000000000000000081526004016117de90612767565b60405180910390fd5b6117f1600161199f565b60006117fd60016119b5565b90506000600460008873ffffffffffffffffffffffffffffffffffffffff1673ffffffffffffffffffffffffffffffffffffffff1681526020019081526020016000209050858160010190816118539190612464565b50848160020190816118659190612464565b50818160000181905550838160030190816118809190612464565b5060008160040181905550868160050160006101000a81548173ffffffffffffffffffffffffffffffffffffffff021916908373ffffffffffffffffffffffffffffffffffffffff160217905550828160060190816118df9190612464565b506003879080600181540180825580915050600190039060005260206000200160009091909190916101000a81548173ffffffffffffffffffffffffffffffffffffffff021916908373ffffffffffffffffffffffffffffffffffffffff160217905550817fd297f12b256bb8485a6013fb5e302017018123e99a0ebb20756c09e1707b4b9087878785600401548c8960405161198196959493929190612787565b60405180910390a250505050505050565b6000600380549050905090565b6001816000016000828254019250508190555050565b600081600001549050919050565b6000604051905090565b600080fd5b600080fd5b600073ffffffffffffffffffffffffffffffffffffffff82169050919050565b6000611a02826119d7565b9050919050565b611a12816119f7565b8114611a1d57600080fd5b50565b600081359050611a2f81611a09565b92915050565b600080fd5b600080fd5b6000601f19601f8301169050919050565b7f4e487b7100000000000000000000000000000000000000000000000000000000600052604160045260246000fd5b611a8882611a3f565b810181811067ffffffffffffffff82111715611aa757611aa6611a50565b5b80604052505050565b6000611aba6119c3565b9050611ac68282611a7f565b919050565b600067ffffffffffffffff821115611ae657611ae5611a50565b5b611aef82611a3f565b9050602081019050919050565b82818337600083830152505050565b6000611b1e611b1984611acb565b611ab0565b905082815260208101848484011115611b3a57611b39611a3a565b5b611b45848285611afc565b509392505050565b600082601f830112611b6257611b61611a35565b5b8135611b72848260208601611b0b565b91505092915050565b60008060008060808587031215611b9557611b946119cd565b5b6000611ba387828801611a20565b945050602085013567ffffffffffffffff811115611bc457611bc36119d2565b5b611bd087828801611b4d565b935050604085013567ffffffffffffffff811115611bf157611bf06119d2565b5b611bfd87828801611b4d565b925050606085013567ffffffffffffffff811115611c1e57611c1d6119d2565b5b611c2a87828801611b4d565b91505092959194509250565b6000819050919050565b611c4981611c36565b82525050565b6000602082019050611c646000830184611c40565b92915050565b600081519050919050565b600082825260208201905092915050565b6000819050602082019050919050565b611c9f816119f7565b82525050565b6000611cb18383611c96565b60208301905092915050565b6000602082019050919050565b6000611cd582611c6a565b611cdf8185611c75565b9350611cea83611c86565b8060005b83811015611d1b578151611d028882611ca5565b9750611d0d83611cbd565b925050600181019050611cee565b5085935050505092915050565b60006020820190508181036000830152611d428184611cca565b905092915050565b600060208284031215611d6057611d5f6119cd565b5b6000611d6e84828501611a20565b91505092915050565b600081519050919050565b600082825260208201905092915050565b60005b83811015611db1578082015181840152602081019050611d96565b60008484015250505050565b6000611dc882611d77565b611dd28185611d82565b9350611de2818560208601611d93565b611deb81611a3f565b840191505092915050565b611dff816119f7565b82525050565b600060e0820190508181036000830152611e1f818a611dbd565b90508181036020830152611e338189611dbd565b9050611e426040830188611c40565b8181036060830152611e548187611dbd565b9050611e636080830186611c40565b81810360a0830152611e758185611dbd565b9050611e8460c0830184611df6565b98975050505050505050565b611e9981611c36565b8114611ea457600080fd5b50565b600081359050611eb681611e90565b92915050565b600060208284031215611ed257611ed16119cd565b5b6000611ee084828501611ea7565b91505092915050565b6000602082019050611efe6000830184611df6565b92915050565b60008060408385031215611f1b57611f1a6119cd565b5b6000611f2985828601611a20565b9250506020611f3a85828601611ea7565b9150509250929050565b600060e082019050611f59600083018a611c40565b8181036020830152611f6b8189611dbd565b90508181036040830152611f7f8188611dbd565b90508181036060830152611f938187611dbd565b9050611fa26080830186611c40565b611faf60a0830185611df6565b81810360c0830152611fc18184611dbd565b905098975050505050505050565b60008115159050919050565b611fe481611fcf565b82525050565b600060e082019050611fff600083018a611c40565b81810360208301526120118189611dbd565b905081810360408301526120258188611dbd565b90506120346060830187611df6565b81810360808301526120468186611dbd565b905061205560a0830185611c40565b61206260c0830184611fdb565b98975050505050505050565b600061010082019050612084600083018b611c40565b8181036020830152612096818a611dbd565b905081810360408301526120aa8189611dbd565b90506120b96060830188611df6565b6120c66080830187611c40565b6120d360a0830186611fdb565b6120e060c0830185611c40565b81810360e08301526120f28184611dbd565b90509998505050505050505050565b600080600080600060a0868803121561211d5761211c6119cd565b5b600061212b88828901611a20565b955050602086013567ffffffffffffffff81111561214c5761214b6119d2565b5b61215888828901611b4d565b945050604086013567ffffffffffffffff811115612179576121786119d2565b5b61218588828901611b4d565b935050606086013567ffffffffffffffff8111156121a6576121a56119d2565b5b6121b288828901611b4d565b925050608086013567ffffffffffffffff8111156121d3576121d26119d2565b5b6121df88828901611b4d565b9150509295509295909350565b7f4f6e6c79206f7267616e697a65722063616e2063726561746520766f74657200600082015250565b6000612222601f83611d82565b915061222d826121ec565b602082019050919050565b6000602082019050818103600083015261225181612215565b9050919050565b7f4e487b7100000000000000000000000000000000000000000000000000000000600052602260045260246000fd5b6000600282049050600182168061229f57607f821691505b6020821081036122b2576122b1612258565b5b50919050565b60008190508160005260206000209050919050565b60006020601f8301049050919050565b600082821b905092915050565b60006008830261231a7fffffffffffffffffffffffffffffffffffffffffffffffffffffffffffffffff826122dd565b61232486836122dd565b95508019841693508086168417925050509392505050565b6000819050919050565b600061236161235c61235784611c36565b61233c565b611c36565b9050919050565b6000819050919050565b61237b83612346565b61238f61238782612368565b8484546122ea565b825550505050565b600090565b6123a4612397565b6123af818484612372565b505050565b5b818110156123d3576123c860008261239c565b6001810190506123b5565b5050565b601f821115612418576123e9816122b8565b6123f2846122cd565b81016020851015612401578190505b61241561240d856122cd565b8301826123b4565b50505b505050565b600082821c905092915050565b600061243b6000198460080261241d565b1980831691505092915050565b6000612454838361242a565b9150826002028217905092915050565b61246d82611d77565b67ffffffffffffffff81111561248657612485611a50565b5b6124908254612287565b61249b8282856123d7565b600060209050601f8311600181146124ce57600084156124bc578287015190505b6124c68582612448565b86555061252e565b601f1984166124dc866122b8565b60005b82811015612504578489015182556001820191506020850194506020810190506124df565b86831015612521578489015161251d601f89168261242a565b8355505b6001600288020188555050505b505050505050565b600060e0820190508181036000830152612550818a611dbd565b905081810360208301526125648189611dbd565b90506125736040830188611df6565b6125806060830187611c40565b61258d6080830186611fdb565b61259a60a0830185611c40565b81810360c08301526125ac8184611dbd565b905098975050505050505050565b7f596f75206861766520616c726561647920766f74656400000000000000000000600082015250565b60006125f0601683611d82565b91506125fb826125ba565b602082019050919050565b6000602082019050818103600083015261261f816125e3565b9050919050565b7f596f752068617665206e6f20726967687420746f20766f746500000000000000600082015250565b600061265c601983611d82565b915061266782612626565b602082019050919050565b6000602082019050818103600083015261268b8161264f565b9050919050565b7f4e487b7100000000000000000000000000000000000000000000000000000000600052601160045260246000fd5b60006126cc82611c36565b91506126d783611c36565b92508282019050808211156126ef576126ee612692565b5b92915050565b7f4f6e6c79206f7267616e697a65722063616e20616464206e65772063616e646960008201527f6461746500000000000000000000000000000000000000000000000000000000602082015250565b6000612751602483611d82565b915061275c826126f5565b604082019050919050565b6000602082019050818103600083015261278081612744565b9050919050565b600060c08201905081810360008301526127a18189611dbd565b905081810360208301526127b58188611dbd565b905081810360408301526127c98187611dbd565b90506127d86060830186611c40565b6127e56080830185611df6565b81810360a08301526127f78184611dbd565b905097965050505050505056fea264697066735822122089a1735cc2048048b6a453d1b45be94e4ceb86c00d146f2465654c246abfac2864736f6c63430008120033",
					"opcodes": "PUSH1 0x80 PUSH1 0x40 MSTORE CALLVALUE DUP1 ISZERO PUSH2 0x10 JUMPI PUSH1 0x0 DUP1 REVERT JUMPDEST POP CALLER PUSH1 0x2 PUSH1 0x0 PUSH2 0x100 EXP DUP2 SLOAD DUP2 PUSH20 0xFFFFFFFFFFFFFFFFFFFFFFFFFFFFFFFFFFFFFFFF MUL NOT AND SWAP1 DUP4 PUSH20 0xFFFFFFFFFFFFFFFFFFFFFFFFFFFFFFFFFFFFFFFF AND MUL OR SWAP1 SSTORE POP PUSH2 0x283A DUP1 PUSH2 0x61 PUSH1 0x0 CODECOPY PUSH1 0x0 RETURN INVALID PUSH1 0x80 PUSH1 0x40 MSTORE CALLVALUE DUP1 ISZERO PUSH2 0x10 JUMPI PUSH1 0x0 DUP1 REVERT JUMPDEST POP PUSH1 0x4 CALLDATASIZE LT PUSH2 0x116 JUMPI PUSH1 0x0 CALLDATALOAD PUSH1 0xE0 SHR DUP1 PUSH4 0x7831FFB3 GT PUSH2 0xA2 JUMPI DUP1 PUSH4 0xA3EC138D GT PUSH2 0x71 JUMPI DUP1 PUSH4 0xA3EC138D EQ PUSH2 0x31B JUMPI DUP1 PUSH4 0xB28D92AE EQ PUSH2 0x352 JUMPI DUP1 PUSH4 0xB4040313 EQ PUSH2 0x370 JUMPI DUP1 PUSH4 0xC91EC712 EQ PUSH2 0x38E JUMPI DUP1 PUSH4 0xF7522A83 EQ PUSH2 0x3AA JUMPI PUSH2 0x116 JUMP JUMPDEST DUP1 PUSH4 0x7831FFB3 EQ PUSH2 0x24F JUMPI DUP1 PUSH4 0x8AB66A90 EQ PUSH2 0x27F JUMPI DUP1 PUSH4 0x8FB4CD80 EQ PUSH2 0x2B5 JUMPI DUP1 PUSH4 0x908FDECD EQ PUSH2 0x2EB JUMPI PUSH2 0x116 JUMP JUMPDEST DUP1 PUSH4 0x43242DAA GT PUSH2 0xE9 JUMPI DUP1 PUSH4 0x43242DAA EQ PUSH2 0x1A9 JUMPI DUP1 PUSH4 0x5CC48AA7 EQ PUSH2 0x1D9 JUMPI DUP1 PUSH4 0x5F74BBDE EQ PUSH2 0x1F7 JUMPI DUP1 PUSH4 0x64F1832E EQ PUSH2 0x213 JUMPI DUP1 PUSH4 0x70218B85 EQ PUSH2 0x231 JUMPI PUSH2 0x116 JUMP JUMPDEST DUP1 PUSH4 0x361419E EQ PUSH2 0x11B JUMPI DUP1 PUSH4 0x5AD45A4 EQ PUSH2 0x137 JUMPI DUP1 PUSH4 0x13182DCE EQ PUSH2 0x155 JUMPI DUP1 PUSH4 0x2A466AC7 EQ PUSH2 0x173 JUMPI JUMPDEST PUSH1 0x0 DUP1 REVERT JUMPDEST PUSH2 0x135 PUSH1 0x4 DUP1 CALLDATASIZE SUB DUP2 ADD SWAP1 PUSH2 0x130 SWAP2 SWAP1 PUSH2 0x1B7B JUMP JUMPDEST PUSH2 0x3C8 JUMP JUMPDEST STOP JUMPDEST PUSH2 0x13F PUSH2 0x640 JUMP JUMPDEST PUSH1 0x40 MLOAD PUSH2 0x14C SWAP2 SWAP1 PUSH2 0x1C4F JUMP JUMPDEST PUSH1 0x40 MLOAD DUP1 SWAP2 SUB SWAP1 RETURN JUMPDEST PUSH2 0x15D PUSH2 0x64D JUMP JUMPDEST PUSH1 0x40 MLOAD PUSH2 0x16A SWAP2 SWAP1 PUSH2 0x1D28 JUMP JUMPDEST PUSH1 0x40 MLOAD DUP1 SWAP2 SUB SWAP1 RETURN JUMPDEST PUSH2 0x18D PUSH1 0x4 DUP1 CALLDATASIZE SUB DUP2 ADD SWAP1 PUSH2 0x188 SWAP2 SWAP1 PUSH2 0x1D4A JUMP JUMPDEST PUSH2 0x6DB JUMP JUMPDEST PUSH1 0x40 MLOAD PUSH2 0x1A0 SWAP8 SWAP7 SWAP6 SWAP5 SWAP4 SWAP3 SWAP2 SWAP1 PUSH2 0x1E05 JUMP JUMPDEST PUSH1 0x40 MLOAD DUP1 SWAP2 SUB SWAP1 RETURN JUMPDEST PUSH2 0x1C3 PUSH1 0x4 DUP1 CALLDATASIZE SUB DUP2 ADD SWAP1 PUSH2 0x1BE SWAP2 SWAP1 PUSH2 0x1EBC JUMP JUMPDEST PUSH2 0xB22 JUMP JUMPDEST PUSH1 0x40 MLOAD PUSH2 0x1D0 SWAP2 SWAP1 PUSH2 0x1EE9 JUMP JUMPDEST PUSH1 0x40 MLOAD DUP1 SWAP2 SUB SWAP1 RETURN JUMPDEST PUSH2 0x1E1 PUSH2 0xB61 JUMP JUMPDEST PUSH1 0x40 MLOAD PUSH2 0x1EE SWAP2 SWAP1 PUSH2 0x1EE9 JUMP JUMPDEST PUSH1 0x40 MLOAD DUP1 SWAP2 SUB SWAP1 RETURN JUMPDEST PUSH2 0x211 PUSH1 0x4 DUP1 CALLDATASIZE SUB DUP2 ADD SWAP1 PUSH2 0x20C SWAP2 SWAP1 PUSH2 0x1F04 JUMP JUMPDEST PUSH2 0xB87 JUMP JUMPDEST STOP JUMPDEST PUSH2 0x21B PUSH2 0xD4E JUMP JUMPDEST PUSH1 0x40 MLOAD PUSH2 0x228 SWAP2 SWAP1 PUSH2 0x1C4F JUMP JUMPDEST PUSH1 0x40 MLOAD DUP1 SWAP2 SUB SWAP1 RETURN JUMPDEST PUSH2 0x239 PUSH2 0xD5A JUMP JUMPDEST PUSH1 0x40 MLOAD PUSH2 0x246 SWAP2 SWAP1 PUSH2 0x1D28 JUMP JUMPDEST PUSH1 0x40 MLOAD DUP1 SWAP2 SUB SWAP1 RETURN JUMPDEST PUSH2 0x269 PUSH1 0x4 DUP1 CALLDATASIZE SUB DUP2 ADD SWAP1 PUSH2 0x264 SWAP2 SWAP1 PUSH2 0x1EBC JUMP JUMPDEST PUSH2 0xDE8 JUMP JUMPDEST PUSH1 0x40 MLOAD PUSH2 0x276 SWAP2 SWAP1 PUSH2 0x1EE9 JUMP JUMPDEST PUSH1 0x40 MLOAD DUP1 SWAP2 SUB SWAP1 RETURN JUMPDEST PUSH2 0x299 PUSH1 0x4 DUP1 CALLDATASIZE SUB DUP2 ADD SWAP1 PUSH2 0x294 SWAP2 SWAP1 PUSH2 0x1D4A JUMP JUMPDEST PUSH2 0xE27 JUMP JUMPDEST PUSH1 0x40 MLOAD PUSH2 0x2AC SWAP8 SWAP7 SWAP6 SWAP5 SWAP4 SWAP3 SWAP2 SWAP1 PUSH2 0x1F44 JUMP JUMPDEST PUSH1 0x40 MLOAD DUP1 SWAP2 SUB SWAP1 RETURN JUMPDEST PUSH2 0x2CF PUSH1 0x4 DUP1 CALLDATASIZE SUB DUP2 ADD SWAP1 PUSH2 0x2CA SWAP2 SWAP1 PUSH2 0x1D4A JUMP JUMPDEST PUSH2 0x10A9 JUMP JUMPDEST PUSH1 0x40 MLOAD PUSH2 0x2E2 SWAP8 SWAP7 SWAP6 SWAP5 SWAP4 SWAP3 SWAP2 SWAP1 PUSH2 0x1FEA JUMP JUMPDEST PUSH1 0x40 MLOAD DUP1 SWAP2 SUB SWAP1 RETURN JUMPDEST PUSH2 0x305 PUSH1 0x4 DUP1 CALLDATASIZE SUB DUP2 ADD SWAP1 PUSH2 0x300 SWAP2 SWAP1 PUSH2 0x1EBC JUMP JUMPDEST PUSH2 0x1471 JUMP JUMPDEST PUSH1 0x40 MLOAD PUSH2 0x312 SWAP2 SWAP1 PUSH2 0x1EE9 JUMP JUMPDEST PUSH1 0x40 MLOAD DUP1 SWAP2 SUB SWAP1 RETURN JUMPDEST PUSH2 0x335 PUSH1 0x4 DUP1 CALLDATASIZE SUB DUP2 ADD SWAP1 PUSH2 0x330 SWAP2 SWAP1 PUSH2 0x1D4A JUMP JUMPDEST PUSH2 0x14B0 JUMP JUMPDEST PUSH1 0x40 MLOAD PUSH2 0x349 SWAP9 SWAP8 SWAP7 SWAP6 SWAP5 SWAP4 SWAP3 SWAP2 SWAP1 PUSH2 0x206E JUMP JUMPDEST PUSH1 0x40 MLOAD DUP1 SWAP2 SUB SWAP1 RETURN JUMPDEST PUSH2 0x35A PUSH2 0x16BD JUMP JUMPDEST PUSH1 0x40 MLOAD PUSH2 0x367 SWAP2 SWAP1 PUSH2 0x1D28 JUMP JUMPDEST PUSH1 0x40 MLOAD DUP1 SWAP2 SUB SWAP1 RETURN JUMPDEST PUSH2 0x378 PUSH2 0x174B JUMP JUMPDEST PUSH1 0x40 MLOAD PUSH2 0x385 SWAP2 SWAP1 PUSH2 0x1C4F JUMP JUMPDEST PUSH1 0x40 MLOAD DUP1 SWAP2 SUB SWAP1 RETURN JUMPDEST PUSH2 0x3A8 PUSH1 0x4 DUP1 CALLDATASIZE SUB DUP2 ADD SWAP1 PUSH2 0x3A3 SWAP2 SWAP1 PUSH2 0x2101 JUMP JUMPDEST PUSH2 0x1757 JUMP JUMPDEST STOP JUMPDEST PUSH2 0x3B2 PUSH2 0x1992 JUMP JUMPDEST PUSH1 0x40 MLOAD PUSH2 0x3BF SWAP2 SWAP1 PUSH2 0x1C4F JUMP JUMPDEST PUSH1 0x40 MLOAD DUP1 SWAP2 SUB SWAP1 RETURN JUMPDEST CALLER PUSH20 0xFFFFFFFFFFFFFFFFFFFFFFFFFFFFFFFFFFFFFFFF AND PUSH1 0x2 PUSH1 0x0 SWAP1 SLOAD SWAP1 PUSH2 0x100 EXP SWAP1 DIV PUSH20 0xFFFFFFFFFFFFFFFFFFFFFFFFFFFFFFFFFFFFFFFF AND PUSH20 0xFFFFFFFFFFFFFFFFFFFFFFFFFFFFFFFFFFFFFFFF AND EQ PUSH2 0x458 JUMPI PUSH1 0x40 MLOAD PUSH32 0x8C379A000000000000000000000000000000000000000000000000000000000 DUP2 MSTORE PUSH1 0x4 ADD PUSH2 0x44F SWAP1 PUSH2 0x2238 JUMP JUMPDEST PUSH1 0x40 MLOAD DUP1 SWAP2 SUB SWAP1 REVERT JUMPDEST PUSH2 0x462 PUSH1 0x0 PUSH2 0x199F JUMP JUMPDEST PUSH1 0x0 PUSH2 0x46E PUSH1 0x0 PUSH2 0x19B5 JUMP JUMPDEST SWAP1 POP PUSH1 0x0 PUSH1 0x7 PUSH1 0x0 DUP8 PUSH20 0xFFFFFFFFFFFFFFFFFFFFFFFFFFFFFFFFFFFFFFFF AND PUSH20 0xFFFFFFFFFFFFFFFFFFFFFFFFFFFFFFFFFFFFFFFF AND DUP2 MSTORE PUSH1 0x20 ADD SWAP1 DUP2 MSTORE PUSH1 0x20 ADD PUSH1 0x0 KECCAK256 SWAP1 POP PUSH1 0x0 DUP2 PUSH1 0x4 ADD SLOAD EQ PUSH2 0x4C4 JUMPI PUSH1 0x0 DUP1 REVERT JUMPDEST PUSH1 0x1 DUP2 PUSH1 0x4 ADD DUP2 SWAP1 SSTORE POP DUP5 DUP2 PUSH1 0x1 ADD SWAP1 DUP2 PUSH2 0x4DF SWAP2 SWAP1 PUSH2 0x2464 JUMP JUMPDEST POP DUP4 DUP2 PUSH1 0x2 ADD SWAP1 DUP2 PUSH2 0x4F1 SWAP2 SWAP1 PUSH2 0x2464 JUMP JUMPDEST POP DUP6 DUP2 PUSH1 0x3 ADD PUSH1 0x0 PUSH2 0x100 EXP DUP2 SLOAD DUP2 PUSH20 0xFFFFFFFFFFFFFFFFFFFFFFFFFFFFFFFFFFFFFFFF MUL NOT AND SWAP1 DUP4 PUSH20 0xFFFFFFFFFFFFFFFFFFFFFFFFFFFFFFFFFFFFFFFF AND MUL OR SWAP1 SSTORE POP DUP2 DUP2 PUSH1 0x0 ADD DUP2 SWAP1 SSTORE POP PUSH2 0x3E8 DUP2 PUSH1 0x6 ADD DUP2 SWAP1 SSTORE POP PUSH1 0x0 DUP2 PUSH1 0x5 ADD PUSH1 0x0 PUSH2 0x100 EXP DUP2 SLOAD DUP2 PUSH1 0xFF MUL NOT AND SWAP1 DUP4 ISZERO ISZERO MUL OR SWAP1 SSTORE POP DUP3 DUP2 PUSH1 0x7 ADD SWAP1 DUP2 PUSH2 0x577 SWAP2 SWAP1 PUSH2 0x2464 JUMP JUMPDEST POP PUSH1 0x6 DUP7 SWAP1 DUP1 PUSH1 0x1 DUP2 SLOAD ADD DUP1 DUP3 SSTORE DUP1 SWAP2 POP POP PUSH1 0x1 SWAP1 SUB SWAP1 PUSH1 0x0 MSTORE PUSH1 0x20 PUSH1 0x0 KECCAK256 ADD PUSH1 0x0 SWAP1 SWAP2 SWAP1 SWAP2 SWAP1 SWAP2 PUSH2 0x100 EXP DUP2 SLOAD DUP2 PUSH20 0xFFFFFFFFFFFFFFFFFFFFFFFFFFFFFFFFFFFFFFFF MUL NOT AND SWAP1 DUP4 PUSH20 0xFFFFFFFFFFFFFFFFFFFFFFFFFFFFFFFFFFFFFFFF AND MUL OR SWAP1 SSTORE POP DUP2 PUSH32 0xF5F39971DD62D9929E3A9FEAA6BB77FE7C7DA0001BABFF8A65A7E51AD0201C19 DUP7 DUP7 DUP10 DUP6 PUSH1 0x4 ADD SLOAD DUP7 PUSH1 0x5 ADD PUSH1 0x0 SWAP1 SLOAD SWAP1 PUSH2 0x100 EXP SWAP1 DIV PUSH1 0xFF AND DUP8 PUSH1 0x6 ADD SLOAD DUP11 PUSH1 0x40 MLOAD PUSH2 0x630 SWAP8 SWAP7 SWAP6 SWAP5 SWAP4 SWAP3 SWAP2 SWAP1 PUSH2 0x2536 JUMP JUMPDEST PUSH1 0x40 MLOAD DUP1 SWAP2 SUB SWAP1 LOG2 POP POP POP POP POP POP JUMP JUMPDEST PUSH1 0x0 PUSH1 0x6 DUP1 SLOAD SWAP1 POP SWAP1 POP SWAP1 JUMP JUMPDEST PUSH1 0x60 PUSH1 0x5 DUP1 SLOAD DUP1 PUSH1 0x20 MUL PUSH1 0x20 ADD PUSH1 0x40 MLOAD SWAP1 DUP2 ADD PUSH1 0x40 MSTORE DUP1 SWAP3 SWAP2 SWAP1 DUP2 DUP2 MSTORE PUSH1 0x20 ADD DUP3 DUP1 SLOAD DUP1 ISZERO PUSH2 0x6D1 JUMPI PUSH1 0x20 MUL DUP3 ADD SWAP2 SWAP1 PUSH1 0x0 MSTORE PUSH1 0x20 PUSH1 0x0 KECCAK256 SWAP1 JUMPDEST DUP2 PUSH1 0x0 SWAP1 SLOAD SWAP1 PUSH2 0x100 EXP SWAP1 DIV PUSH20 0xFFFFFFFFFFFFFFFFFFFFFFFFFFFFFFFFFFFFFFFF AND PUSH20 0xFFFFFFFFFFFFFFFFFFFFFFFFFFFFFFFFFFFFFFFF AND DUP2 MSTORE PUSH1 0x20 ADD SWAP1 PUSH1 0x1 ADD SWAP1 DUP1 DUP4 GT PUSH2 0x687 JUMPI JUMPDEST POP POP POP POP POP SWAP1 POP SWAP1 JUMP JUMPDEST PUSH1 0x60 DUP1 PUSH1 0x0 PUSH1 0x60 PUSH1 0x0 PUSH1 0x60 PUSH1 0x0 PUSH1 0x4 PUSH1 0x0 DUP10 PUSH20 0xFFFFFFFFFFFFFFFFFFFFFFFFFFFFFFFFFFFFFFFF AND PUSH20 0xFFFFFFFFFFFFFFFFFFFFFFFFFFFFFFFFFFFFFFFF AND DUP2 MSTORE PUSH1 0x20 ADD SWAP1 DUP2 MSTORE PUSH1 0x20 ADD PUSH1 0x0 KECCAK256 PUSH1 0x1 ADD PUSH1 0x4 PUSH1 0x0 DUP11 PUSH20 0xFFFFFFFFFFFFFFFFFFFFFFFFFFFFFFFFFFFFFFFF AND PUSH20 0xFFFFFFFFFFFFFFFFFFFFFFFFFFFFFFFFFFFFFFFF AND DUP2 MSTORE PUSH1 0x20 ADD SWAP1 DUP2 MSTORE PUSH1 0x20 ADD PUSH1 0x0 KECCAK256 PUSH1 0x2 ADD PUSH1 0x4 PUSH1 0x0 DUP12 PUSH20 0xFFFFFFFFFFFFFFFFFFFFFFFFFFFFFFFFFFFFFFFF AND PUSH20 0xFFFFFFFFFFFFFFFFFFFFFFFFFFFFFFFFFFFFFFFF AND DUP2 MSTORE PUSH1 0x20 ADD SWAP1 DUP2 MSTORE PUSH1 0x20 ADD PUSH1 0x0 KECCAK256 PUSH1 0x0 ADD SLOAD PUSH1 0x4 PUSH1 0x0 DUP13 PUSH20 0xFFFFFFFFFFFFFFFFFFFFFFFFFFFFFFFFFFFFFFFF AND PUSH20 0xFFFFFFFFFFFFFFFFFFFFFFFFFFFFFFFFFFFFFFFF AND DUP2 MSTORE PUSH1 0x20 ADD SWAP1 DUP2 MSTORE PUSH1 0x20 ADD PUSH1 0x0 KECCAK256 PUSH1 0x3 ADD PUSH1 0x4 PUSH1 0x0 DUP14 PUSH20 0xFFFFFFFFFFFFFFFFFFFFFFFFFFFFFFFFFFFFFFFF AND PUSH20 0xFFFFFFFFFFFFFFFFFFFFFFFFFFFFFFFFFFFFFFFF AND DUP2 MSTORE PUSH1 0x20 ADD SWAP1 DUP2 MSTORE PUSH1 0x20 ADD PUSH1 0x0 KECCAK256 PUSH1 0x4 ADD SLOAD PUSH1 0x4 PUSH1 0x0 DUP15 PUSH20 0xFFFFFFFFFFFFFFFFFFFFFFFFFFFFFFFFFFFFFFFF AND PUSH20 0xFFFFFFFFFFFFFFFFFFFFFFFFFFFFFFFFFFFFFFFF AND DUP2 MSTORE PUSH1 0x20 ADD SWAP1 DUP2 MSTORE PUSH1 0x20 ADD PUSH1 0x0 KECCAK256 PUSH1 0x6 ADD PUSH1 0x4 PUSH1 0x0 DUP16 PUSH20 0xFFFFFFFFFFFFFFFFFFFFFFFFFFFFFFFFFFFFFFFF AND PUSH20 0xFFFFFFFFFFFFFFFFFFFFFFFFFFFFFFFFFFFFFFFF AND DUP2 MSTORE PUSH1 0x20 ADD SWAP1 DUP2 MSTORE PUSH1 0x20 ADD PUSH1 0x0 KECCAK256 PUSH1 0x5 ADD PUSH1 0x0 SWAP1 SLOAD SWAP1 PUSH2 0x100 EXP SWAP1 DIV PUSH20 0xFFFFFFFFFFFFFFFFFFFFFFFFFFFFFFFFFFFFFFFF AND DUP7 DUP1 SLOAD PUSH2 0x8E5 SWAP1 PUSH2 0x2287 JUMP JUMPDEST DUP1 PUSH1 0x1F ADD PUSH1 0x20 DUP1 SWAP2 DIV MUL PUSH1 0x20 ADD PUSH1 0x40 MLOAD SWAP1 DUP2 ADD PUSH1 0x40 MSTORE DUP1 SWAP3 SWAP2 SWAP1 DUP2 DUP2 MSTORE PUSH1 0x20 ADD DUP3 DUP1 SLOAD PUSH2 0x911 SWAP1 PUSH2 0x2287 JUMP JUMPDEST DUP1 ISZERO PUSH2 0x95E JUMPI DUP1 PUSH1 0x1F LT PUSH2 0x933 JUMPI PUSH2 0x100 DUP1 DUP4 SLOAD DIV MUL DUP4 MSTORE SWAP2 PUSH1 0x20 ADD SWAP2 PUSH2 0x95E JUMP JUMPDEST DUP3 ADD SWAP2 SWAP1 PUSH1 0x0 MSTORE PUSH1 0x20 PUSH1 0x0 KECCAK256 SWAP1 JUMPDEST DUP2 SLOAD DUP2 MSTORE SWAP1 PUSH1 0x1 ADD SWAP1 PUSH1 0x20 ADD DUP1 DUP4 GT PUSH2 0x941 JUMPI DUP3 SWAP1 SUB PUSH1 0x1F AND DUP3 ADD SWAP2 JUMPDEST POP POP POP POP POP SWAP7 POP DUP6 DUP1 SLOAD PUSH2 0x971 SWAP1 PUSH2 0x2287 JUMP JUMPDEST DUP1 PUSH1 0x1F ADD PUSH1 0x20 DUP1 SWAP2 DIV MUL PUSH1 0x20 ADD PUSH1 0x40 MLOAD SWAP1 DUP2 ADD PUSH1 0x40 MSTORE DUP1 SWAP3 SWAP2 SWAP1 DUP2 DUP2 MSTORE PUSH1 0x20 ADD DUP3 DUP1 SLOAD PUSH2 0x99D SWAP1 PUSH2 0x2287 JUMP JUMPDEST DUP1 ISZERO PUSH2 0x9EA JUMPI DUP1 PUSH1 0x1F LT PUSH2 0x9BF JUMPI PUSH2 0x100 DUP1 DUP4 SLOAD DIV MUL DUP4 MSTORE SWAP2 PUSH1 0x20 ADD SWAP2 PUSH2 0x9EA JUMP JUMPDEST DUP3 ADD SWAP2 SWAP1 PUSH1 0x0 MSTORE PUSH1 0x20 PUSH1 0x0 KECCAK256 SWAP1 JUMPDEST DUP2 SLOAD DUP2 MSTORE SWAP1 PUSH1 0x1 ADD SWAP1 PUSH1 0x20 ADD DUP1 DUP4 GT PUSH2 0x9CD JUMPI DUP3 SWAP1 SUB PUSH1 0x1F AND DUP3 ADD SWAP2 JUMPDEST POP POP POP POP POP SWAP6 POP DUP4 DUP1 SLOAD PUSH2 0x9FD SWAP1 PUSH2 0x2287 JUMP JUMPDEST DUP1 PUSH1 0x1F ADD PUSH1 0x20 DUP1 SWAP2 DIV MUL PUSH1 0x20 ADD PUSH1 0x40 MLOAD SWAP1 DUP2 ADD PUSH1 0x40 MSTORE DUP1 SWAP3 SWAP2 SWAP1 DUP2 DUP2 MSTORE PUSH1 0x20 ADD DUP3 DUP1 SLOAD PUSH2 0xA29 SWAP1 PUSH2 0x2287 JUMP JUMPDEST DUP1 ISZERO PUSH2 0xA76 JUMPI DUP1 PUSH1 0x1F LT PUSH2 0xA4B JUMPI PUSH2 0x100 DUP1 DUP4 SLOAD DIV MUL DUP4 MSTORE SWAP2 PUSH1 0x20 ADD SWAP2 PUSH2 0xA76 JUMP JUMPDEST DUP3 ADD SWAP2 SWAP1 PUSH1 0x0 MSTORE PUSH1 0x20 PUSH1 0x0 KECCAK256 SWAP1 JUMPDEST DUP2 SLOAD DUP2 MSTORE SWAP1 PUSH1 0x1 ADD SWAP1 PUSH1 0x20 ADD DUP1 DUP4 GT PUSH2 0xA59 JUMPI DUP3 SWAP1 SUB PUSH1 0x1F AND DUP3 ADD SWAP2 JUMPDEST POP POP POP POP POP SWAP4 POP DUP2 DUP1 SLOAD PUSH2 0xA89 SWAP1 PUSH2 0x2287 JUMP JUMPDEST DUP1 PUSH1 0x1F ADD PUSH1 0x20 DUP1 SWAP2 DIV MUL PUSH1 0x20 ADD PUSH1 0x40 MLOAD SWAP1 DUP2 ADD PUSH1 0x40 MSTORE DUP1 SWAP3 SWAP2 SWAP1 DUP2 DUP2 MSTORE PUSH1 0x20 ADD DUP3 DUP1 SLOAD PUSH2 0xAB5 SWAP1 PUSH2 0x2287 JUMP JUMPDEST DUP1 ISZERO PUSH2 0xB02 JUMPI DUP1 PUSH1 0x1F LT PUSH2 0xAD7 JUMPI PUSH2 0x100 DUP1 DUP4 SLOAD DIV MUL DUP4 MSTORE SWAP2 PUSH1 0x20 ADD SWAP2 PUSH2 0xB02 JUMP JUMPDEST DUP3 ADD SWAP2 SWAP1 PUSH1 0x0 MSTORE PUSH1 0x20 PUSH1 0x0 KECCAK256 SWAP1 JUMPDEST DUP2 SLOAD DUP2 MSTORE SWAP1 PUSH1 0x1 ADD SWAP1 PUSH1 0x20 ADD DUP1 DUP4 GT PUSH2 0xAE5 JUMPI DUP3 SWAP1 SUB PUSH1 0x1F AND DUP3 ADD SWAP2 JUMPDEST POP POP POP POP POP SWAP2 POP SWAP7 POP SWAP7 POP SWAP7 POP SWAP7 POP SWAP7 POP SWAP7 POP SWAP7 POP SWAP2 SWAP4 SWAP6 SWAP8 SWAP1 SWAP3 SWAP5 SWAP7 POP JUMP JUMPDEST PUSH1 0x6 DUP2 DUP2 SLOAD DUP2 LT PUSH2 0xB32 JUMPI PUSH1 0x0 DUP1 REVERT JUMPDEST SWAP1 PUSH1 0x0 MSTORE PUSH1 0x20 PUSH1 0x0 KECCAK256 ADD PUSH1 0x0 SWAP2 POP SLOAD SWAP1 PUSH2 0x100 EXP SWAP1 DIV PUSH20 0xFFFFFFFFFFFFFFFFFFFFFFFFFFFFFFFFFFFFFFFF AND DUP2 JUMP JUMPDEST PUSH1 0x2 PUSH1 0x0 SWAP1 SLOAD SWAP1 PUSH2 0x100 EXP SWAP1 DIV PUSH20 0xFFFFFFFFFFFFFFFFFFFFFFFFFFFFFFFFFFFFFFFF AND DUP2 JUMP JUMPDEST PUSH1 0x0 PUSH1 0x7 PUSH1 0x0 CALLER PUSH20 0xFFFFFFFFFFFFFFFFFFFFFFFFFFFFFFFFFFFFFFFF AND PUSH20 0xFFFFFFFFFFFFFFFFFFFFFFFFFFFFFFFFFFFFFFFF AND DUP2 MSTORE PUSH1 0x20 ADD SWAP1 DUP2 MSTORE PUSH1 0x20 ADD PUSH1 0x0 KECCAK256 SWAP1 POP DUP1 PUSH1 0x5 ADD PUSH1 0x0 SWAP1 SLOAD SWAP1 PUSH2 0x100 EXP SWAP1 DIV PUSH1 0xFF AND ISZERO PUSH2 0xC1C JUMPI PUSH1 0x40 MLOAD PUSH32 0x8C379A000000000000000000000000000000000000000000000000000000000 DUP2 MSTORE PUSH1 0x4 ADD PUSH2 0xC13 SWAP1 PUSH2 0x2606 JUMP JUMPDEST PUSH1 0x40 MLOAD DUP1 SWAP2 SUB SWAP1 REVERT JUMPDEST PUSH1 0x0 DUP2 PUSH1 0x4 ADD SLOAD SUB PUSH2 0xC63 JUMPI PUSH1 0x40 MLOAD PUSH32 0x8C379A000000000000000000000000000000000000000000000000000000000 DUP2 MSTORE PUSH1 0x4 ADD PUSH2 0xC5A SWAP1 PUSH2 0x2672 JUMP JUMPDEST PUSH1 0x40 MLOAD DUP1 SWAP2 SUB SWAP1 REVERT JUMPDEST PUSH1 0x1 DUP2 PUSH1 0x5 ADD PUSH1 0x0 PUSH2 0x100 EXP DUP2 SLOAD DUP2 PUSH1 0xFF MUL NOT AND SWAP1 DUP4 ISZERO ISZERO MUL OR SWAP1 SSTORE POP DUP2 DUP2 PUSH1 0x6 ADD DUP2 SWAP1 SSTORE POP PUSH1 0x5 CALLER SWAP1 DUP1 PUSH1 0x1 DUP2 SLOAD ADD DUP1 DUP3 SSTORE DUP1 SWAP2 POP POP PUSH1 0x1 SWAP1 SUB SWAP1 PUSH1 0x0 MSTORE PUSH1 0x20 PUSH1 0x0 KECCAK256 ADD PUSH1 0x0 SWAP1 SWAP2 SWAP1 SWAP2 SWAP1 SWAP2 PUSH2 0x100 EXP DUP2 SLOAD DUP2 PUSH20 0xFFFFFFFFFFFFFFFFFFFFFFFFFFFFFFFFFFFFFFFF MUL NOT AND SWAP1 DUP4 PUSH20 0xFFFFFFFFFFFFFFFFFFFFFFFFFFFFFFFFFFFFFFFF AND MUL OR SWAP1 SSTORE POP DUP1 PUSH1 0x4 ADD SLOAD PUSH1 0x4 PUSH1 0x0 DUP6 PUSH20 0xFFFFFFFFFFFFFFFFFFFFFFFFFFFFFFFFFFFFFFFF AND PUSH20 0xFFFFFFFFFFFFFFFFFFFFFFFFFFFFFFFFFFFFFFFF AND DUP2 MSTORE PUSH1 0x20 ADD SWAP1 DUP2 MSTORE PUSH1 0x20 ADD PUSH1 0x0 KECCAK256 PUSH1 0x4 ADD PUSH1 0x0 DUP3 DUP3 SLOAD PUSH2 0xD42 SWAP2 SWAP1 PUSH2 0x26C1 JUMP JUMPDEST SWAP3 POP POP DUP2 SWAP1 SSTORE POP POP POP POP JUMP JUMPDEST PUSH1 0x1 DUP1 PUSH1 0x0 ADD SLOAD SWAP1 POP DUP2 JUMP JUMPDEST PUSH1 0x60 PUSH1 0x3 DUP1 SLOAD DUP1 PUSH1 0x20 MUL PUSH1 0x20 ADD PUSH1 0x40 MLOAD SWAP1 DUP2 ADD PUSH1 0x40 MSTORE DUP1 SWAP3 SWAP2 SWAP1 DUP2 DUP2 MSTORE PUSH1 0x20 ADD DUP3 DUP1 SLOAD DUP1 ISZERO PUSH2 0xDDE JUMPI PUSH1 0x20 MUL DUP3 ADD SWAP2 SWAP1 PUSH1 0x0 MSTORE PUSH1 0x20 PUSH1 0x0 KECCAK256 SWAP1 JUMPDEST DUP2 PUSH1 0x0 SWAP1 SLOAD SWAP1 PUSH2 0x100 EXP SWAP1 DIV PUSH20 0xFFFFFFFFFFFFFFFFFFFFFFFFFFFFFFFFFFFFFFFF AND PUSH20 0xFFFFFFFFFFFFFFFFFFFFFFFFFFFFFFFFFFFFFFFF AND DUP2 MSTORE PUSH1 0x20 ADD SWAP1 PUSH1 0x1 ADD SWAP1 DUP1 DUP4 GT PUSH2 0xD94 JUMPI JUMPDEST POP POP POP POP POP SWAP1 POP SWAP1 JUMP JUMPDEST PUSH1 0x5 DUP2 DUP2 SLOAD DUP2 LT PUSH2 0xDF8 JUMPI PUSH1 0x0 DUP1 REVERT JUMPDEST SWAP1 PUSH1 0x0 MSTORE PUSH1 0x20 PUSH1 0x0 KECCAK256 ADD PUSH1 0x0 SWAP2 POP SLOAD SWAP1 PUSH2 0x100 EXP SWAP1 DIV PUSH20 0xFFFFFFFFFFFFFFFFFFFFFFFFFFFFFFFFFFFFFFFF AND DUP2 JUMP JUMPDEST PUSH1 0x4 PUSH1 0x20 MSTORE DUP1 PUSH1 0x0 MSTORE PUSH1 0x40 PUSH1 0x0 KECCAK256 PUSH1 0x0 SWAP2 POP SWAP1 POP DUP1 PUSH1 0x0 ADD SLOAD SWAP1 DUP1 PUSH1 0x1 ADD DUP1 SLOAD PUSH2 0xE50 SWAP1 PUSH2 0x2287 JUMP JUMPDEST DUP1 PUSH1 0x1F ADD PUSH1 0x20 DUP1 SWAP2 DIV MUL PUSH1 0x20 ADD PUSH1 0x40 MLOAD SWAP1 DUP2 ADD PUSH1 0x40 MSTORE DUP1 SWAP3 SWAP2 SWAP1 DUP2 DUP2 MSTORE PUSH1 0x20 ADD DUP3 DUP1 SLOAD PUSH2 0xE7C SWAP1 PUSH2 0x2287 JUMP JUMPDEST DUP1 ISZERO PUSH2 0xEC9 JUMPI DUP1 PUSH1 0x1F LT PUSH2 0xE9E JUMPI PUSH2 0x100 DUP1 DUP4 SLOAD DIV MUL DUP4 MSTORE SWAP2 PUSH1 0x20 ADD SWAP2 PUSH2 0xEC9 JUMP JUMPDEST DUP3 ADD SWAP2 SWAP1 PUSH1 0x0 MSTORE PUSH1 0x20 PUSH1 0x0 KECCAK256 SWAP1 JUMPDEST DUP2 SLOAD DUP2 MSTORE SWAP1 PUSH1 0x1 ADD SWAP1 PUSH1 0x20 ADD DUP1 DUP4 GT PUSH2 0xEAC JUMPI DUP3 SWAP1 SUB PUSH1 0x1F AND DUP3 ADD SWAP2 JUMPDEST POP POP POP POP POP SWAP1 DUP1 PUSH1 0x2 ADD DUP1 SLOAD PUSH2 0xEDE SWAP1 PUSH2 0x2287 JUMP JUMPDEST DUP1 PUSH1 0x1F ADD PUSH1 0x20 DUP1 SWAP2 DIV MUL PUSH1 0x20 ADD PUSH1 0x40 MLOAD SWAP1 DUP2 ADD PUSH1 0x40 MSTORE DUP1 SWAP3 SWAP2 SWAP1 DUP2 DUP2 MSTORE PUSH1 0x20 ADD DUP3 DUP1 SLOAD PUSH2 0xF0A SWAP1 PUSH2 0x2287 JUMP JUMPDEST DUP1 ISZERO PUSH2 0xF57 JUMPI DUP1 PUSH1 0x1F LT PUSH2 0xF2C JUMPI PUSH2 0x100 DUP1 DUP4 SLOAD DIV MUL DUP4 MSTORE SWAP2 PUSH1 0x20 ADD SWAP2 PUSH2 0xF57 JUMP JUMPDEST DUP3 ADD SWAP2 SWAP1 PUSH1 0x0 MSTORE PUSH1 0x20 PUSH1 0x0 KECCAK256 SWAP1 JUMPDEST DUP2 SLOAD DUP2 MSTORE SWAP1 PUSH1 0x1 ADD SWAP1 PUSH1 0x20 ADD DUP1 DUP4 GT PUSH2 0xF3A JUMPI DUP3 SWAP1 SUB PUSH1 0x1F AND DUP3 ADD SWAP2 JUMPDEST POP POP POP POP POP SWAP1 DUP1 PUSH1 0x3 ADD DUP1 SLOAD PUSH2 0xF6C SWAP1 PUSH2 0x2287 JUMP JUMPDEST DUP1 PUSH1 0x1F ADD PUSH1 0x20 DUP1 SWAP2 DIV MUL PUSH1 0x20 ADD PUSH1 0x40 MLOAD SWAP1 DUP2 ADD PUSH1 0x40 MSTORE DUP1 SWAP3 SWAP2 SWAP1 DUP2 DUP2 MSTORE PUSH1 0x20 ADD DUP3 DUP1 SLOAD PUSH2 0xF98 SWAP1 PUSH2 0x2287 JUMP JUMPDEST DUP1 ISZERO PUSH2 0xFE5 JUMPI DUP1 PUSH1 0x1F LT PUSH2 0xFBA JUMPI PUSH2 0x100 DUP1 DUP4 SLOAD DIV MUL DUP4 MSTORE SWAP2 PUSH1 0x20 ADD SWAP2 PUSH2 0xFE5 JUMP JUMPDEST DUP3 ADD SWAP2 SWAP1 PUSH1 0x0 MSTORE PUSH1 0x20 PUSH1 0x0 KECCAK256 SWAP1 JUMPDEST DUP2 SLOAD DUP2 MSTORE SWAP1 PUSH1 0x1 ADD SWAP1 PUSH1 0x20 ADD DUP1 DUP4 GT PUSH2 0xFC8 JUMPI DUP3 SWAP1 SUB PUSH1 0x1F AND DUP3 ADD SWAP2 JUMPDEST POP POP POP POP POP SWAP1 DUP1 PUSH1 0x4 ADD SLOAD SWAP1 DUP1 PUSH1 0x5 ADD PUSH1 0x0 SWAP1 SLOAD SWAP1 PUSH2 0x100 EXP SWAP1 DIV PUSH20 0xFFFFFFFFFFFFFFFFFFFFFFFFFFFFFFFFFFFFFFFF AND SWAP1 DUP1 PUSH1 0x6 ADD DUP1 SLOAD PUSH2 0x1026 SWAP1 PUSH2 0x2287 JUMP JUMPDEST DUP1 PUSH1 0x1F ADD PUSH1 0x20 DUP1 SWAP2 DIV MUL PUSH1 0x20 ADD PUSH1 0x40 MLOAD SWAP1 DUP2 ADD PUSH1 0x40 MSTORE DUP1 SWAP3 SWAP2 SWAP1 DUP2 DUP2 MSTORE PUSH1 0x20 ADD DUP3 DUP1 SLOAD PUSH2 0x1052 SWAP1 PUSH2 0x2287 JUMP JUMPDEST DUP1 ISZERO PUSH2 0x109F JUMPI DUP1 PUSH1 0x1F LT PUSH2 0x1074 JUMPI PUSH2 0x100 DUP1 DUP4 SLOAD DIV MUL DUP4 MSTORE SWAP2 PUSH1 0x20 ADD SWAP2 PUSH2 0x109F JUMP JUMPDEST DUP3 ADD SWAP2 SWAP1 PUSH1 0x0 MSTORE PUSH1 0x20 PUSH1 0x0 KECCAK256 SWAP1 JUMPDEST DUP2 SLOAD DUP2 MSTORE SWAP1 PUSH1 0x1 ADD SWAP1 PUSH1 0x20 ADD DUP1 DUP4 GT PUSH2 0x1082 JUMPI DUP3 SWAP1 SUB PUSH1 0x1F AND DUP3 ADD SWAP2 JUMPDEST POP POP POP POP POP SWAP1 POP DUP8 JUMP JUMPDEST PUSH1 0x0 PUSH1 0x60 DUP1 PUSH1 0x0 PUSH1 0x60 PUSH1 0x0 DUP1 PUSH1 0x7 PUSH1 0x0 DUP10 PUSH20 0xFFFFFFFFFFFFFFFFFFFFFFFFFFFFFFFFFFFFFFFF AND PUSH20 0xFFFFFFFFFFFFFFFFFFFFFFFFFFFFFFFFFFFFFFFF AND DUP2 MSTORE PUSH1 0x20 ADD SWAP1 DUP2 MSTORE PUSH1 0x20 ADD PUSH1 0x0 KECCAK256 PUSH1 0x0 ADD SLOAD PUSH1 0x7 PUSH1 0x0 DUP11 PUSH20 0xFFFFFFFFFFFFFFFFFFFFFFFFFFFFFFFFFFFFFFFF AND PUSH20 0xFFFFFFFFFFFFFFFFFFFFFFFFFFFFFFFFFFFFFFFF AND DUP2 MSTORE PUSH1 0x20 ADD SWAP1 DUP2 MSTORE PUSH1 0x20 ADD PUSH1 0x0 KECCAK256 PUSH1 0x1 ADD PUSH1 0x7 PUSH1 0x0 DUP12 PUSH20 0xFFFFFFFFFFFFFFFFFFFFFFFFFFFFFFFFFFFFFFFF AND PUSH20 0xFFFFFFFFFFFFFFFFFFFFFFFFFFFFFFFFFFFFFFFF AND DUP2 MSTORE PUSH1 0x20 ADD SWAP1 DUP2 MSTORE PUSH1 0x20 ADD PUSH1 0x0 KECCAK256 PUSH1 0x2 ADD PUSH1 0x7 PUSH1 0x0 DUP13 PUSH20 0xFFFFFFFFFFFFFFFFFFFFFFFFFFFFFFFFFFFFFFFF AND PUSH20 0xFFFFFFFFFFFFFFFFFFFFFFFFFFFFFFFFFFFFFFFF AND DUP2 MSTORE PUSH1 0x20 ADD SWAP1 DUP2 MSTORE PUSH1 0x20 ADD PUSH1 0x0 KECCAK256 PUSH1 0x3 ADD PUSH1 0x0 SWAP1 SLOAD SWAP1 PUSH2 0x100 EXP SWAP1 DIV PUSH20 0xFFFFFFFFFFFFFFFFFFFFFFFFFFFFFFFFFFFFFFFF AND PUSH1 0x7 PUSH1 0x0 DUP14 PUSH20 0xFFFFFFFFFFFFFFFFFFFFFFFFFFFFFFFFFFFFFFFF AND PUSH20 0xFFFFFFFFFFFFFFFFFFFFFFFFFFFFFFFFFFFFFFFF AND DUP2 MSTORE PUSH1 0x20 ADD SWAP1 DUP2 MSTORE PUSH1 0x20 ADD PUSH1 0x0 KECCAK256 PUSH1 0x7 ADD PUSH1 0x7 PUSH1 0x0 DUP15 PUSH20 0xFFFFFFFFFFFFFFFFFFFFFFFFFFFFFFFFFFFFFFFF AND PUSH20 0xFFFFFFFFFFFFFFFFFFFFFFFFFFFFFFFFFFFFFFFF AND DUP2 MSTORE PUSH1 0x20 ADD SWAP1 DUP2 MSTORE PUSH1 0x20 ADD PUSH1 0x0 KECCAK256 PUSH1 0x4 ADD SLOAD PUSH1 0x7 PUSH1 0x0 DUP16 PUSH20 0xFFFFFFFFFFFFFFFFFFFFFFFFFFFFFFFFFFFFFFFF AND PUSH20 0xFFFFFFFFFFFFFFFFFFFFFFFFFFFFFFFFFFFFFFFF AND DUP2 MSTORE PUSH1 0x20 ADD SWAP1 DUP2 MSTORE PUSH1 0x20 ADD PUSH1 0x0 KECCAK256 PUSH1 0x5 ADD PUSH1 0x0 SWAP1 SLOAD SWAP1 PUSH2 0x100 EXP SWAP1 DIV PUSH1 0xFF AND DUP6 DUP1 SLOAD PUSH2 0x12C0 SWAP1 PUSH2 0x2287 JUMP JUMPDEST DUP1 PUSH1 0x1F ADD PUSH1 0x20 DUP1 SWAP2 DIV MUL PUSH1 0x20 ADD PUSH1 0x40 MLOAD SWAP1 DUP2 ADD PUSH1 0x40 MSTORE DUP1 SWAP3 SWAP2 SWAP1 DUP2 DUP2 MSTORE PUSH1 0x20 ADD DUP3 DUP1 SLOAD PUSH2 0x12EC SWAP1 PUSH2 0x2287 JUMP JUMPDEST DUP1 ISZERO PUSH2 0x1339 JUMPI DUP1 PUSH1 0x1F LT PUSH2 0x130E JUMPI PUSH2 0x100 DUP1 DUP4 SLOAD DIV MUL DUP4 MSTORE SWAP2 PUSH1 0x20 ADD SWAP2 PUSH2 0x1339 JUMP JUMPDEST DUP3 ADD SWAP2 SWAP1 PUSH1 0x0 MSTORE PUSH1 0x20 PUSH1 0x0 KECCAK256 SWAP1 JUMPDEST DUP2 SLOAD DUP2 MSTORE SWAP1 PUSH1 0x1 ADD SWAP1 PUSH1 0x20 ADD DUP1 DUP4 GT PUSH2 0x131C JUMPI DUP3 SWAP1 SUB PUSH1 0x1F AND DUP3 ADD SWAP2 JUMPDEST POP POP POP POP POP SWAP6 POP DUP5 DUP1 SLOAD PUSH2 0x134C SWAP1 PUSH2 0x2287 JUMP JUMPDEST DUP1 PUSH1 0x1F ADD PUSH1 0x20 DUP1 SWAP2 DIV MUL PUSH1 0x20 ADD PUSH1 0x40 MLOAD SWAP1 DUP2 ADD PUSH1 0x40 MSTORE DUP1 SWAP3 SWAP2 SWAP1 DUP2 DUP2 MSTORE PUSH1 0x20 ADD DUP3 DUP1 SLOAD PUSH2 0x1378 SWAP1 PUSH2 0x2287 JUMP JUMPDEST DUP1 ISZERO PUSH2 0x13C5 JUMPI DUP1 PUSH1 0x1F LT PUSH2 0x139A JUMPI PUSH2 0x100 DUP1 DUP4 SLOAD DIV MUL DUP4 MSTORE SWAP2 PUSH1 0x20 ADD SWAP2 PUSH2 0x13C5 JUMP JUMPDEST DUP3 ADD SWAP2 SWAP1 PUSH1 0x0 MSTORE PUSH1 0x20 PUSH1 0x0 KECCAK256 SWAP1 JUMPDEST DUP2 SLOAD DUP2 MSTORE SWAP1 PUSH1 0x1 ADD SWAP1 PUSH1 0x20 ADD DUP1 DUP4 GT PUSH2 0x13A8 JUMPI DUP3 SWAP1 SUB PUSH1 0x1F AND DUP3 ADD SWAP2 JUMPDEST POP POP POP POP POP SWAP5 POP DUP3 DUP1 SLOAD PUSH2 0x13D8 SWAP1 PUSH2 0x2287 JUMP JUMPDEST DUP1 PUSH1 0x1F ADD PUSH1 0x20 DUP1 SWAP2 DIV MUL PUSH1 0x20 ADD PUSH1 0x40 MLOAD SWAP1 DUP2 ADD PUSH1 0x40 MSTORE DUP1 SWAP3 SWAP2 SWAP1 DUP2 DUP2 MSTORE PUSH1 0x20 ADD DUP3 DUP1 SLOAD PUSH2 0x1404 SWAP1 PUSH2 0x2287 JUMP JUMPDEST DUP1 ISZERO PUSH2 0x1451 JUMPI DUP1 PUSH1 0x1F LT PUSH2 0x1426 JUMPI PUSH2 0x100 DUP1 DUP4 SLOAD DIV MUL DUP4 MSTORE SWAP2 PUSH1 0x20 ADD SWAP2 PUSH2 0x1451 JUMP JUMPDEST DUP3 ADD SWAP2 SWAP1 PUSH1 0x0 MSTORE PUSH1 0x20 PUSH1 0x0 KECCAK256 SWAP1 JUMPDEST DUP2 SLOAD DUP2 MSTORE SWAP1 PUSH1 0x1 ADD SWAP1 PUSH1 0x20 ADD DUP1 DUP4 GT PUSH2 0x1434 JUMPI DUP3 SWAP1 SUB PUSH1 0x1F AND DUP3 ADD SWAP2 JUMPDEST POP POP POP POP POP SWAP3 POP SWAP7 POP SWAP7 POP SWAP7 POP SWAP7 POP SWAP7 POP SWAP7 POP SWAP7 POP SWAP2 SWAP4 SWAP6 SWAP8 SWAP1 SWAP3 SWAP5 SWAP7 POP JUMP JUMPDEST PUSH1 0x3 DUP2 DUP2 SLOAD DUP2 LT PUSH2 0x1481 JUMPI PUSH1 0x0 DUP1 REVERT JUMPDEST SWAP1 PUSH1 0x0 MSTORE PUSH1 0x20 PUSH1 0x0 KECCAK256 ADD PUSH1 0x0 SWAP2 POP SLOAD SWAP1 PUSH2 0x100 EXP SWAP1 DIV PUSH20 0xFFFFFFFFFFFFFFFFFFFFFFFFFFFFFFFFFFFFFFFF AND DUP2 JUMP JUMPDEST PUSH1 0x7 PUSH1 0x20 MSTORE DUP1 PUSH1 0x0 MSTORE PUSH1 0x40 PUSH1 0x0 KECCAK256 PUSH1 0x0 SWAP2 POP SWAP1 POP DUP1 PUSH1 0x0 ADD SLOAD SWAP1 DUP1 PUSH1 0x1 ADD DUP1 SLOAD PUSH2 0x14D9 SWAP1 PUSH2 0x2287 JUMP JUMPDEST DUP1 PUSH1 0x1F ADD PUSH1 0x20 DUP1 SWAP2 DIV MUL PUSH1 0x20 ADD PUSH1 0x40 MLOAD SWAP1 DUP2 ADD PUSH1 0x40 MSTORE DUP1 SWAP3 SWAP2 SWAP1 DUP2 DUP2 MSTORE PUSH1 0x20 ADD DUP3 DUP1 SLOAD PUSH2 0x1505 SWAP1 PUSH2 0x2287 JUMP JUMPDEST DUP1 ISZERO PUSH2 0x1552 JUMPI DUP1 PUSH1 0x1F LT PUSH2 0x1527 JUMPI PUSH2 0x100 DUP1 DUP4 SLOAD DIV MUL DUP4 MSTORE SWAP2 PUSH1 0x20 ADD SWAP2 PUSH2 0x1552 JUMP JUMPDEST DUP3 ADD SWAP2 SWAP1 PUSH1 0x0 MSTORE PUSH1 0x20 PUSH1 0x0 KECCAK256 SWAP1 JUMPDEST DUP2 SLOAD DUP2 MSTORE SWAP1 PUSH1 0x1 ADD SWAP1 PUSH1 0x20 ADD DUP1 DUP4 GT PUSH2 0x1535 JUMPI DUP3 SWAP1 SUB PUSH1 0x1F AND DUP3 ADD SWAP2 JUMPDEST POP POP POP POP POP SWAP1 DUP1 PUSH1 0x2 ADD DUP1 SLOAD PUSH2 0x1567 SWAP1 PUSH2 0x2287 JUMP JUMPDEST DUP1 PUSH1 0x1F ADD PUSH1 0x20 DUP1 SWAP2 DIV MUL PUSH1 0x20 ADD PUSH1 0x40 MLOAD SWAP1 DUP2 ADD PUSH1 0x40 MSTORE DUP1 SWAP3 SWAP2 SWAP1 DUP2 DUP2 MSTORE PUSH1 0x20 ADD DUP3 DUP1 SLOAD PUSH2 0x1593 SWAP1 PUSH2 0x2287 JUMP JUMPDEST DUP1 ISZERO PUSH2 0x15E0 JUMPI DUP1 PUSH1 0x1F LT PUSH2 0x15B5 JUMPI PUSH2 0x100 DUP1 DUP4 SLOAD DIV MUL DUP4 MSTORE SWAP2 PUSH1 0x20 ADD SWAP2 PUSH2 0x15E0 JUMP JUMPDEST DUP3 ADD SWAP2 SWAP1 PUSH1 0x0 MSTORE PUSH1 0x20 PUSH1 0x0 KECCAK256 SWAP1 JUMPDEST DUP2 SLOAD DUP2 MSTORE SWAP1 PUSH1 0x1 ADD SWAP1 PUSH1 0x20 ADD DUP1 DUP4 GT PUSH2 0x15C3 JUMPI DUP3 SWAP1 SUB PUSH1 0x1F AND DUP3 ADD SWAP2 JUMPDEST POP POP POP POP POP SWAP1 DUP1 PUSH1 0x3 ADD PUSH1 0x0 SWAP1 SLOAD SWAP1 PUSH2 0x100 EXP SWAP1 DIV PUSH20 0xFFFFFFFFFFFFFFFFFFFFFFFFFFFFFFFFFFFFFFFF AND SWAP1 DUP1 PUSH1 0x4 ADD SLOAD SWAP1 DUP1 PUSH1 0x5 ADD PUSH1 0x0 SWAP1 SLOAD SWAP1 PUSH2 0x100 EXP SWAP1 DIV PUSH1 0xFF AND SWAP1 DUP1 PUSH1 0x6 ADD SLOAD SWAP1 DUP1 PUSH1 0x7 ADD DUP1 SLOAD PUSH2 0x163A SWAP1 PUSH2 0x2287 JUMP JUMPDEST DUP1 PUSH1 0x1F ADD PUSH1 0x20 DUP1 SWAP2 DIV MUL PUSH1 0x20 ADD PUSH1 0x40 MLOAD SWAP1 DUP2 ADD PUSH1 0x40 MSTORE DUP1 SWAP3 SWAP2 SWAP1 DUP2 DUP2 MSTORE PUSH1 0x20 ADD DUP3 DUP1 SLOAD PUSH2 0x1666 SWAP1 PUSH2 0x2287 JUMP JUMPDEST DUP1 ISZERO PUSH2 0x16B3 JUMPI DUP1 PUSH1 0x1F LT PUSH2 0x1688 JUMPI PUSH2 0x100 DUP1 DUP4 SLOAD DIV MUL DUP4 MSTORE SWAP2 PUSH1 0x20 ADD SWAP2 PUSH2 0x16B3 JUMP JUMPDEST DUP3 ADD SWAP2 SWAP1 PUSH1 0x0 MSTORE PUSH1 0x20 PUSH1 0x0 KECCAK256 SWAP1 JUMPDEST DUP2 SLOAD DUP2 MSTORE SWAP1 PUSH1 0x1 ADD SWAP1 PUSH1 0x20 ADD DUP1 DUP4 GT PUSH2 0x1696 JUMPI DUP3 SWAP1 SUB PUSH1 0x1F AND DUP3 ADD SWAP2 JUMPDEST POP POP POP POP POP SWAP1 POP DUP9 JUMP JUMPDEST PUSH1 0x60 PUSH1 0x6 DUP1 SLOAD DUP1 PUSH1 0x20 MUL PUSH1 0x20 ADD PUSH1 0x40 MLOAD SWAP1 DUP2 ADD PUSH1 0x40 MSTORE DUP1 SWAP3 SWAP2 SWAP1 DUP2 DUP2 MSTORE PUSH1 0x20 ADD DUP3 DUP1 SLOAD DUP1 ISZERO PUSH2 0x1741 JUMPI PUSH1 0x20 MUL DUP3 ADD SWAP2 SWAP1 PUSH1 0x0 MSTORE PUSH1 0x20 PUSH1 0x0 KECCAK256 SWAP1 JUMPDEST DUP2 PUSH1 0x0 SWAP1 SLOAD SWAP1 PUSH2 0x100 EXP SWAP1 DIV PUSH20 0xFFFFFFFFFFFFFFFFFFFFFFFFFFFFFFFFFFFFFFFF AND PUSH20 0xFFFFFFFFFFFFFFFFFFFFFFFFFFFFFFFFFFFFFFFF AND DUP2 MSTORE PUSH1 0x20 ADD SWAP1 PUSH1 0x1 ADD SWAP1 DUP1 DUP4 GT PUSH2 0x16F7 JUMPI JUMPDEST POP POP POP POP POP SWAP1 POP SWAP1 JUMP JUMPDEST PUSH1 0x0 DUP1 PUSH1 0x0 ADD SLOAD SWAP1 POP DUP2 JUMP JUMPDEST CALLER PUSH20 0xFFFFFFFFFFFFFFFFFFFFFFFFFFFFFFFFFFFFFFFF AND PUSH1 0x2 PUSH1 0x0 SWAP1 SLOAD SWAP1 PUSH2 0x100 EXP SWAP1 DIV PUSH20 0xFFFFFFFFFFFFFFFFFFFFFFFFFFFFFFFFFFFFFFFF AND PUSH20 0xFFFFFFFFFFFFFFFFFFFFFFFFFFFFFFFFFFFFFFFF AND EQ PUSH2 0x17E7 JUMPI PUSH1 0x40 MLOAD PUSH32 0x8C379A000000000000000000000000000000000000000000000000000000000 DUP2 MSTORE PUSH1 0x4 ADD PUSH2 0x17DE SWAP1 PUSH2 0x2767 JUMP JUMPDEST PUSH1 0x40 MLOAD DUP1 SWAP2 SUB SWAP1 REVERT JUMPDEST PUSH2 0x17F1 PUSH1 0x1 PUSH2 0x199F JUMP JUMPDEST PUSH1 0x0 PUSH2 0x17FD PUSH1 0x1 PUSH2 0x19B5 JUMP JUMPDEST SWAP1 POP PUSH1 0x0 PUSH1 0x4 PUSH1 0x0 DUP9 PUSH20 0xFFFFFFFFFFFFFFFFFFFFFFFFFFFFFFFFFFFFFFFF AND PUSH20 0xFFFFFFFFFFFFFFFFFFFFFFFFFFFFFFFFFFFFFFFF AND DUP2 MSTORE PUSH1 0x20 ADD SWAP1 DUP2 MSTORE PUSH1 0x20 ADD PUSH1 0x0 KECCAK256 SWAP1 POP DUP6 DUP2 PUSH1 0x1 ADD SWAP1 DUP2 PUSH2 0x1853 SWAP2 SWAP1 PUSH2 0x2464 JUMP JUMPDEST POP DUP5 DUP2 PUSH1 0x2 ADD SWAP1 DUP2 PUSH2 0x1865 SWAP2 SWAP1 PUSH2 0x2464 JUMP JUMPDEST POP DUP2 DUP2 PUSH1 0x0 ADD DUP2 SWAP1 SSTORE POP DUP4 DUP2 PUSH1 0x3 ADD SWAP1 DUP2 PUSH2 0x1880 SWAP2 SWAP1 PUSH2 0x2464 JUMP JUMPDEST POP PUSH1 0x0 DUP2 PUSH1 0x4 ADD DUP2 SWAP1 SSTORE POP DUP7 DUP2 PUSH1 0x5 ADD PUSH1 0x0 PUSH2 0x100 EXP DUP2 SLOAD DUP2 PUSH20 0xFFFFFFFFFFFFFFFFFFFFFFFFFFFFFFFFFFFFFFFF MUL NOT AND SWAP1 DUP4 PUSH20 0xFFFFFFFFFFFFFFFFFFFFFFFFFFFFFFFFFFFFFFFF AND MUL OR SWAP1 SSTORE POP DUP3 DUP2 PUSH1 0x6 ADD SWAP1 DUP2 PUSH2 0x18DF SWAP2 SWAP1 PUSH2 0x2464 JUMP JUMPDEST POP PUSH1 0x3 DUP8 SWAP1 DUP1 PUSH1 0x1 DUP2 SLOAD ADD DUP1 DUP3 SSTORE DUP1 SWAP2 POP POP PUSH1 0x1 SWAP1 SUB SWAP1 PUSH1 0x0 MSTORE PUSH1 0x20 PUSH1 0x0 KECCAK256 ADD PUSH1 0x0 SWAP1 SWAP2 SWAP1 SWAP2 SWAP1 SWAP2 PUSH2 0x100 EXP DUP2 SLOAD DUP2 PUSH20 0xFFFFFFFFFFFFFFFFFFFFFFFFFFFFFFFFFFFFFFFF MUL NOT AND SWAP1 DUP4 PUSH20 0xFFFFFFFFFFFFFFFFFFFFFFFFFFFFFFFFFFFFFFFF AND MUL OR SWAP1 SSTORE POP DUP2 PUSH32 0xD297F12B256BB8485A6013FB5E302017018123E99A0EBB20756C09E1707B4B90 DUP8 DUP8 DUP8 DUP6 PUSH1 0x4 ADD SLOAD DUP13 DUP10 PUSH1 0x40 MLOAD PUSH2 0x1981 SWAP7 SWAP6 SWAP5 SWAP4 SWAP3 SWAP2 SWAP1 PUSH2 0x2787 JUMP JUMPDEST PUSH1 0x40 MLOAD DUP1 SWAP2 SUB SWAP1 LOG2 POP POP POP POP POP POP POP JUMP JUMPDEST PUSH1 0x0 PUSH1 0x3 DUP1 SLOAD SWAP1 POP SWAP1 POP SWAP1 JUMP JUMPDEST PUSH1 0x1 DUP2 PUSH1 0x0 ADD PUSH1 0x0 DUP3 DUP3 SLOAD ADD SWAP3 POP POP DUP2 SWAP1 SSTORE POP POP JUMP JUMPDEST PUSH1 0x0 DUP2 PUSH1 0x0 ADD SLOAD SWAP1 POP SWAP2 SWAP1 POP JUMP JUMPDEST PUSH1 0x0 PUSH1 0x40 MLOAD SWAP1 POP SWAP1 JUMP JUMPDEST PUSH1 0x0 DUP1 REVERT JUMPDEST PUSH1 0x0 DUP1 REVERT JUMPDEST PUSH1 0x0 PUSH20 0xFFFFFFFFFFFFFFFFFFFFFFFFFFFFFFFFFFFFFFFF DUP3 AND SWAP1 POP SWAP2 SWAP1 POP JUMP JUMPDEST PUSH1 0x0 PUSH2 0x1A02 DUP3 PUSH2 0x19D7 JUMP JUMPDEST SWAP1 POP SWAP2 SWAP1 POP JUMP JUMPDEST PUSH2 0x1A12 DUP2 PUSH2 0x19F7 JUMP JUMPDEST DUP2 EQ PUSH2 0x1A1D JUMPI PUSH1 0x0 DUP1 REVERT JUMPDEST POP JUMP JUMPDEST PUSH1 0x0 DUP2 CALLDATALOAD SWAP1 POP PUSH2 0x1A2F DUP2 PUSH2 0x1A09 JUMP JUMPDEST SWAP3 SWAP2 POP POP JUMP JUMPDEST PUSH1 0x0 DUP1 REVERT JUMPDEST PUSH1 0x0 DUP1 REVERT JUMPDEST PUSH1 0x0 PUSH1 0x1F NOT PUSH1 0x1F DUP4 ADD AND SWAP1 POP SWAP2 SWAP1 POP JUMP JUMPDEST PUSH32 0x4E487B7100000000000000000000000000000000000000000000000000000000 PUSH1 0x0 MSTORE PUSH1 0x41 PUSH1 0x4 MSTORE PUSH1 0x24 PUSH1 0x0 REVERT JUMPDEST PUSH2 0x1A88 DUP3 PUSH2 0x1A3F JUMP JUMPDEST DUP2 ADD DUP2 DUP2 LT PUSH8 0xFFFFFFFFFFFFFFFF DUP3 GT OR ISZERO PUSH2 0x1AA7 JUMPI PUSH2 0x1AA6 PUSH2 0x1A50 JUMP JUMPDEST JUMPDEST DUP1 PUSH1 0x40 MSTORE POP POP POP JUMP JUMPDEST PUSH1 0x0 PUSH2 0x1ABA PUSH2 0x19C3 JUMP JUMPDEST SWAP1 POP PUSH2 0x1AC6 DUP3 DUP3 PUSH2 0x1A7F JUMP JUMPDEST SWAP2 SWAP1 POP JUMP JUMPDEST PUSH1 0x0 PUSH8 0xFFFFFFFFFFFFFFFF DUP3 GT ISZERO PUSH2 0x1AE6 JUMPI PUSH2 0x1AE5 PUSH2 0x1A50 JUMP JUMPDEST JUMPDEST PUSH2 0x1AEF DUP3 PUSH2 0x1A3F JUMP JUMPDEST SWAP1 POP PUSH1 0x20 DUP2 ADD SWAP1 POP SWAP2 SWAP1 POP JUMP JUMPDEST DUP3 DUP2 DUP4 CALLDATACOPY PUSH1 0x0 DUP4 DUP4 ADD MSTORE POP POP POP JUMP JUMPDEST PUSH1 0x0 PUSH2 0x1B1E PUSH2 0x1B19 DUP5 PUSH2 0x1ACB JUMP JUMPDEST PUSH2 0x1AB0 JUMP JUMPDEST SWAP1 POP DUP3 DUP2 MSTORE PUSH1 0x20 DUP2 ADD DUP5 DUP5 DUP5 ADD GT ISZERO PUSH2 0x1B3A JUMPI PUSH2 0x1B39 PUSH2 0x1A3A JUMP JUMPDEST JUMPDEST PUSH2 0x1B45 DUP5 DUP3 DUP6 PUSH2 0x1AFC JUMP JUMPDEST POP SWAP4 SWAP3 POP POP POP JUMP JUMPDEST PUSH1 0x0 DUP3 PUSH1 0x1F DUP4 ADD SLT PUSH2 0x1B62 JUMPI PUSH2 0x1B61 PUSH2 0x1A35 JUMP JUMPDEST JUMPDEST DUP2 CALLDATALOAD PUSH2 0x1B72 DUP5 DUP3 PUSH1 0x20 DUP7 ADD PUSH2 0x1B0B JUMP JUMPDEST SWAP2 POP POP SWAP3 SWAP2 POP POP JUMP JUMPDEST PUSH1 0x0 DUP1 PUSH1 0x0 DUP1 PUSH1 0x80 DUP6 DUP8 SUB SLT ISZERO PUSH2 0x1B95 JUMPI PUSH2 0x1B94 PUSH2 0x19CD JUMP JUMPDEST JUMPDEST PUSH1 0x0 PUSH2 0x1BA3 DUP8 DUP3 DUP9 ADD PUSH2 0x1A20 JUMP JUMPDEST SWAP5 POP POP PUSH1 0x20 DUP6 ADD CALLDATALOAD PUSH8 0xFFFFFFFFFFFFFFFF DUP2 GT ISZERO PUSH2 0x1BC4 JUMPI PUSH2 0x1BC3 PUSH2 0x19D2 JUMP JUMPDEST JUMPDEST PUSH2 0x1BD0 DUP8 DUP3 DUP9 ADD PUSH2 0x1B4D JUMP JUMPDEST SWAP4 POP POP PUSH1 0x40 DUP6 ADD CALLDATALOAD PUSH8 0xFFFFFFFFFFFFFFFF DUP2 GT ISZERO PUSH2 0x1BF1 JUMPI PUSH2 0x1BF0 PUSH2 0x19D2 JUMP JUMPDEST JUMPDEST PUSH2 0x1BFD DUP8 DUP3 DUP9 ADD PUSH2 0x1B4D JUMP JUMPDEST SWAP3 POP POP PUSH1 0x60 DUP6 ADD CALLDATALOAD PUSH8 0xFFFFFFFFFFFFFFFF DUP2 GT ISZERO PUSH2 0x1C1E JUMPI PUSH2 0x1C1D PUSH2 0x19D2 JUMP JUMPDEST JUMPDEST PUSH2 0x1C2A DUP8 DUP3 DUP9 ADD PUSH2 0x1B4D JUMP JUMPDEST SWAP2 POP POP SWAP3 SWAP6 SWAP2 SWAP5 POP SWAP3 POP JUMP JUMPDEST PUSH1 0x0 DUP2 SWAP1 POP SWAP2 SWAP1 POP JUMP JUMPDEST PUSH2 0x1C49 DUP2 PUSH2 0x1C36 JUMP JUMPDEST DUP3 MSTORE POP POP JUMP JUMPDEST PUSH1 0x0 PUSH1 0x20 DUP3 ADD SWAP1 POP PUSH2 0x1C64 PUSH1 0x0 DUP4 ADD DUP5 PUSH2 0x1C40 JUMP JUMPDEST SWAP3 SWAP2 POP POP JUMP JUMPDEST PUSH1 0x0 DUP2 MLOAD SWAP1 POP SWAP2 SWAP1 POP JUMP JUMPDEST PUSH1 0x0 DUP3 DUP3 MSTORE PUSH1 0x20 DUP3 ADD SWAP1 POP SWAP3 SWAP2 POP POP JUMP JUMPDEST PUSH1 0x0 DUP2 SWAP1 POP PUSH1 0x20 DUP3 ADD SWAP1 POP SWAP2 SWAP1 POP JUMP JUMPDEST PUSH2 0x1C9F DUP2 PUSH2 0x19F7 JUMP JUMPDEST DUP3 MSTORE POP POP JUMP JUMPDEST PUSH1 0x0 PUSH2 0x1CB1 DUP4 DUP4 PUSH2 0x1C96 JUMP JUMPDEST PUSH1 0x20 DUP4 ADD SWAP1 POP SWAP3 SWAP2 POP POP JUMP JUMPDEST PUSH1 0x0 PUSH1 0x20 DUP3 ADD SWAP1 POP SWAP2 SWAP1 POP JUMP JUMPDEST PUSH1 0x0 PUSH2 0x1CD5 DUP3 PUSH2 0x1C6A JUMP JUMPDEST PUSH2 0x1CDF DUP2 DUP6 PUSH2 0x1C75 JUMP JUMPDEST SWAP4 POP PUSH2 0x1CEA DUP4 PUSH2 0x1C86 JUMP JUMPDEST DUP1 PUSH1 0x0 JUMPDEST DUP4 DUP2 LT ISZERO PUSH2 0x1D1B JUMPI DUP2 MLOAD PUSH2 0x1D02 DUP9 DUP3 PUSH2 0x1CA5 JUMP JUMPDEST SWAP8 POP PUSH2 0x1D0D DUP4 PUSH2 0x1CBD JUMP JUMPDEST SWAP3 POP POP PUSH1 0x1 DUP2 ADD SWAP1 POP PUSH2 0x1CEE JUMP JUMPDEST POP DUP6 SWAP4 POP POP POP POP SWAP3 SWAP2 POP POP JUMP JUMPDEST PUSH1 0x0 PUSH1 0x20 DUP3 ADD SWAP1 POP DUP2 DUP2 SUB PUSH1 0x0 DUP4 ADD MSTORE PUSH2 0x1D42 DUP2 DUP5 PUSH2 0x1CCA JUMP JUMPDEST SWAP1 POP SWAP3 SWAP2 POP POP JUMP JUMPDEST PUSH1 0x0 PUSH1 0x20 DUP3 DUP5 SUB SLT ISZERO PUSH2 0x1D60 JUMPI PUSH2 0x1D5F PUSH2 0x19CD JUMP JUMPDEST JUMPDEST PUSH1 0x0 PUSH2 0x1D6E DUP5 DUP3 DUP6 ADD PUSH2 0x1A20 JUMP JUMPDEST SWAP2 POP POP SWAP3 SWAP2 POP POP JUMP JUMPDEST PUSH1 0x0 DUP2 MLOAD SWAP1 POP SWAP2 SWAP1 POP JUMP JUMPDEST PUSH1 0x0 DUP3 DUP3 MSTORE PUSH1 0x20 DUP3 ADD SWAP1 POP SWAP3 SWAP2 POP POP JUMP JUMPDEST PUSH1 0x0 JUMPDEST DUP4 DUP2 LT ISZERO PUSH2 0x1DB1 JUMPI DUP1 DUP3 ADD MLOAD DUP2 DUP5 ADD MSTORE PUSH1 0x20 DUP2 ADD SWAP1 POP PUSH2 0x1D96 JUMP JUMPDEST PUSH1 0x0 DUP5 DUP5 ADD MSTORE POP POP POP POP JUMP JUMPDEST PUSH1 0x0 PUSH2 0x1DC8 DUP3 PUSH2 0x1D77 JUMP JUMPDEST PUSH2 0x1DD2 DUP2 DUP6 PUSH2 0x1D82 JUMP JUMPDEST SWAP4 POP PUSH2 0x1DE2 DUP2 DUP6 PUSH1 0x20 DUP7 ADD PUSH2 0x1D93 JUMP JUMPDEST PUSH2 0x1DEB DUP2 PUSH2 0x1A3F JUMP JUMPDEST DUP5 ADD SWAP2 POP POP SWAP3 SWAP2 POP POP JUMP JUMPDEST PUSH2 0x1DFF DUP2 PUSH2 0x19F7 JUMP JUMPDEST DUP3 MSTORE POP POP JUMP JUMPDEST PUSH1 0x0 PUSH1 0xE0 DUP3 ADD SWAP1 POP DUP2 DUP2 SUB PUSH1 0x0 DUP4 ADD MSTORE PUSH2 0x1E1F DUP2 DUP11 PUSH2 0x1DBD JUMP JUMPDEST SWAP1 POP DUP2 DUP2 SUB PUSH1 0x20 DUP4 ADD MSTORE PUSH2 0x1E33 DUP2 DUP10 PUSH2 0x1DBD JUMP JUMPDEST SWAP1 POP PUSH2 0x1E42 PUSH1 0x40 DUP4 ADD DUP9 PUSH2 0x1C40 JUMP JUMPDEST DUP2 DUP2 SUB PUSH1 0x60 DUP4 ADD MSTORE PUSH2 0x1E54 DUP2 DUP8 PUSH2 0x1DBD JUMP JUMPDEST SWAP1 POP PUSH2 0x1E63 PUSH1 0x80 DUP4 ADD DUP7 PUSH2 0x1C40 JUMP JUMPDEST DUP2 DUP2 SUB PUSH1 0xA0 DUP4 ADD MSTORE PUSH2 0x1E75 DUP2 DUP6 PUSH2 0x1DBD JUMP JUMPDEST SWAP1 POP PUSH2 0x1E84 PUSH1 0xC0 DUP4 ADD DUP5 PUSH2 0x1DF6 JUMP JUMPDEST SWAP9 SWAP8 POP POP POP POP POP POP POP POP JUMP JUMPDEST PUSH2 0x1E99 DUP2 PUSH2 0x1C36 JUMP JUMPDEST DUP2 EQ PUSH2 0x1EA4 JUMPI PUSH1 0x0 DUP1 REVERT JUMPDEST POP JUMP JUMPDEST PUSH1 0x0 DUP2 CALLDATALOAD SWAP1 POP PUSH2 0x1EB6 DUP2 PUSH2 0x1E90 JUMP JUMPDEST SWAP3 SWAP2 POP POP JUMP JUMPDEST PUSH1 0x0 PUSH1 0x20 DUP3 DUP5 SUB SLT ISZERO PUSH2 0x1ED2 JUMPI PUSH2 0x1ED1 PUSH2 0x19CD JUMP JUMPDEST JUMPDEST PUSH1 0x0 PUSH2 0x1EE0 DUP5 DUP3 DUP6 ADD PUSH2 0x1EA7 JUMP JUMPDEST SWAP2 POP POP SWAP3 SWAP2 POP POP JUMP JUMPDEST PUSH1 0x0 PUSH1 0x20 DUP3 ADD SWAP1 POP PUSH2 0x1EFE PUSH1 0x0 DUP4 ADD DUP5 PUSH2 0x1DF6 JUMP JUMPDEST SWAP3 SWAP2 POP POP JUMP JUMPDEST PUSH1 0x0 DUP1 PUSH1 0x40 DUP4 DUP6 SUB SLT ISZERO PUSH2 0x1F1B JUMPI PUSH2 0x1F1A PUSH2 0x19CD JUMP JUMPDEST JUMPDEST PUSH1 0x0 PUSH2 0x1F29 DUP6 DUP3 DUP7 ADD PUSH2 0x1A20 JUMP JUMPDEST SWAP3 POP POP PUSH1 0x20 PUSH2 0x1F3A DUP6 DUP3 DUP7 ADD PUSH2 0x1EA7 JUMP JUMPDEST SWAP2 POP POP SWAP3 POP SWAP3 SWAP1 POP JUMP JUMPDEST PUSH1 0x0 PUSH1 0xE0 DUP3 ADD SWAP1 POP PUSH2 0x1F59 PUSH1 0x0 DUP4 ADD DUP11 PUSH2 0x1C40 JUMP JUMPDEST DUP2 DUP2 SUB PUSH1 0x20 DUP4 ADD MSTORE PUSH2 0x1F6B DUP2 DUP10 PUSH2 0x1DBD JUMP JUMPDEST SWAP1 POP DUP2 DUP2 SUB PUSH1 0x40 DUP4 ADD MSTORE PUSH2 0x1F7F DUP2 DUP9 PUSH2 0x1DBD JUMP JUMPDEST SWAP1 POP DUP2 DUP2 SUB PUSH1 0x60 DUP4 ADD MSTORE PUSH2 0x1F93 DUP2 DUP8 PUSH2 0x1DBD JUMP JUMPDEST SWAP1 POP PUSH2 0x1FA2 PUSH1 0x80 DUP4 ADD DUP7 PUSH2 0x1C40 JUMP JUMPDEST PUSH2 0x1FAF PUSH1 0xA0 DUP4 ADD DUP6 PUSH2 0x1DF6 JUMP JUMPDEST DUP2 DUP2 SUB PUSH1 0xC0 DUP4 ADD MSTORE PUSH2 0x1FC1 DUP2 DUP5 PUSH2 0x1DBD JUMP JUMPDEST SWAP1 POP SWAP9 SWAP8 POP POP POP POP POP POP POP POP JUMP JUMPDEST PUSH1 0x0 DUP2 ISZERO ISZERO SWAP1 POP SWAP2 SWAP1 POP JUMP JUMPDEST PUSH2 0x1FE4 DUP2 PUSH2 0x1FCF JUMP JUMPDEST DUP3 MSTORE POP POP JUMP JUMPDEST PUSH1 0x0 PUSH1 0xE0 DUP3 ADD SWAP1 POP PUSH2 0x1FFF PUSH1 0x0 DUP4 ADD DUP11 PUSH2 0x1C40 JUMP JUMPDEST DUP2 DUP2 SUB PUSH1 0x20 DUP4 ADD MSTORE PUSH2 0x2011 DUP2 DUP10 PUSH2 0x1DBD JUMP JUMPDEST SWAP1 POP DUP2 DUP2 SUB PUSH1 0x40 DUP4 ADD MSTORE PUSH2 0x2025 DUP2 DUP9 PUSH2 0x1DBD JUMP JUMPDEST SWAP1 POP PUSH2 0x2034 PUSH1 0x60 DUP4 ADD DUP8 PUSH2 0x1DF6 JUMP JUMPDEST DUP2 DUP2 SUB PUSH1 0x80 DUP4 ADD MSTORE PUSH2 0x2046 DUP2 DUP7 PUSH2 0x1DBD JUMP JUMPDEST SWAP1 POP PUSH2 0x2055 PUSH1 0xA0 DUP4 ADD DUP6 PUSH2 0x1C40 JUMP JUMPDEST PUSH2 0x2062 PUSH1 0xC0 DUP4 ADD DUP5 PUSH2 0x1FDB JUMP JUMPDEST SWAP9 SWAP8 POP POP POP POP POP POP POP POP JUMP JUMPDEST PUSH1 0x0 PUSH2 0x100 DUP3 ADD SWAP1 POP PUSH2 0x2084 PUSH1 0x0 DUP4 ADD DUP12 PUSH2 0x1C40 JUMP JUMPDEST DUP2 DUP2 SUB PUSH1 0x20 DUP4 ADD MSTORE PUSH2 0x2096 DUP2 DUP11 PUSH2 0x1DBD JUMP JUMPDEST SWAP1 POP DUP2 DUP2 SUB PUSH1 0x40 DUP4 ADD MSTORE PUSH2 0x20AA DUP2 DUP10 PUSH2 0x1DBD JUMP JUMPDEST SWAP1 POP PUSH2 0x20B9 PUSH1 0x60 DUP4 ADD DUP9 PUSH2 0x1DF6 JUMP JUMPDEST PUSH2 0x20C6 PUSH1 0x80 DUP4 ADD DUP8 PUSH2 0x1C40 JUMP JUMPDEST PUSH2 0x20D3 PUSH1 0xA0 DUP4 ADD DUP7 PUSH2 0x1FDB JUMP JUMPDEST PUSH2 0x20E0 PUSH1 0xC0 DUP4 ADD DUP6 PUSH2 0x1C40 JUMP JUMPDEST DUP2 DUP2 SUB PUSH1 0xE0 DUP4 ADD MSTORE PUSH2 0x20F2 DUP2 DUP5 PUSH2 0x1DBD JUMP JUMPDEST SWAP1 POP SWAP10 SWAP9 POP POP POP POP POP POP POP POP POP JUMP JUMPDEST PUSH1 0x0 DUP1 PUSH1 0x0 DUP1 PUSH1 0x0 PUSH1 0xA0 DUP7 DUP9 SUB SLT ISZERO PUSH2 0x211D JUMPI PUSH2 0x211C PUSH2 0x19CD JUMP JUMPDEST JUMPDEST PUSH1 0x0 PUSH2 0x212B DUP9 DUP3 DUP10 ADD PUSH2 0x1A20 JUMP JUMPDEST SWAP6 POP POP PUSH1 0x20 DUP7 ADD CALLDATALOAD PUSH8 0xFFFFFFFFFFFFFFFF DUP2 GT ISZERO PUSH2 0x214C JUMPI PUSH2 0x214B PUSH2 0x19D2 JUMP JUMPDEST JUMPDEST PUSH2 0x2158 DUP9 DUP3 DUP10 ADD PUSH2 0x1B4D JUMP JUMPDEST SWAP5 POP POP PUSH1 0x40 DUP7 ADD CALLDATALOAD PUSH8 0xFFFFFFFFFFFFFFFF DUP2 GT ISZERO PUSH2 0x2179 JUMPI PUSH2 0x2178 PUSH2 0x19D2 JUMP JUMPDEST JUMPDEST PUSH2 0x2185 DUP9 DUP3 DUP10 ADD PUSH2 0x1B4D JUMP JUMPDEST SWAP4 POP POP PUSH1 0x60 DUP7 ADD CALLDATALOAD PUSH8 0xFFFFFFFFFFFFFFFF DUP2 GT ISZERO PUSH2 0x21A6 JUMPI PUSH2 0x21A5 PUSH2 0x19D2 JUMP JUMPDEST JUMPDEST PUSH2 0x21B2 DUP9 DUP3 DUP10 ADD PUSH2 0x1B4D JUMP JUMPDEST SWAP3 POP POP PUSH1 0x80 DUP7 ADD CALLDATALOAD PUSH8 0xFFFFFFFFFFFFFFFF DUP2 GT ISZERO PUSH2 0x21D3 JUMPI PUSH2 0x21D2 PUSH2 0x19D2 JUMP JUMPDEST JUMPDEST PUSH2 0x21DF DUP9 DUP3 DUP10 ADD PUSH2 0x1B4D JUMP JUMPDEST SWAP2 POP POP SWAP3 SWAP6 POP SWAP3 SWAP6 SWAP1 SWAP4 POP JUMP JUMPDEST PUSH32 0x4F6E6C79206F7267616E697A65722063616E2063726561746520766F74657200 PUSH1 0x0 DUP3 ADD MSTORE POP JUMP JUMPDEST PUSH1 0x0 PUSH2 0x2222 PUSH1 0x1F DUP4 PUSH2 0x1D82 JUMP JUMPDEST SWAP2 POP PUSH2 0x222D DUP3 PUSH2 0x21EC JUMP JUMPDEST PUSH1 0x20 DUP3 ADD SWAP1 POP SWAP2 SWAP1 POP JUMP JUMPDEST PUSH1 0x0 PUSH1 0x20 DUP3 ADD SWAP1 POP DUP2 DUP2 SUB PUSH1 0x0 DUP4 ADD MSTORE PUSH2 0x2251 DUP2 PUSH2 0x2215 JUMP JUMPDEST SWAP1 POP SWAP2 SWAP1 POP JUMP JUMPDEST PUSH32 0x4E487B7100000000000000000000000000000000000000000000000000000000 PUSH1 0x0 MSTORE PUSH1 0x22 PUSH1 0x4 MSTORE PUSH1 0x24 PUSH1 0x0 REVERT JUMPDEST PUSH1 0x0 PUSH1 0x2 DUP3 DIV SWAP1 POP PUSH1 0x1 DUP3 AND DUP1 PUSH2 0x229F JUMPI PUSH1 0x7F DUP3 AND SWAP2 POP JUMPDEST PUSH1 0x20 DUP3 LT DUP2 SUB PUSH2 0x22B2 JUMPI PUSH2 0x22B1 PUSH2 0x2258 JUMP JUMPDEST JUMPDEST POP SWAP2 SWAP1 POP JUMP JUMPDEST PUSH1 0x0 DUP2 SWAP1 POP DUP2 PUSH1 0x0 MSTORE PUSH1 0x20 PUSH1 0x0 KECCAK256 SWAP1 POP SWAP2 SWAP1 POP JUMP JUMPDEST PUSH1 0x0 PUSH1 0x20 PUSH1 0x1F DUP4 ADD DIV SWAP1 POP SWAP2 SWAP1 POP JUMP JUMPDEST PUSH1 0x0 DUP3 DUP3 SHL SWAP1 POP SWAP3 SWAP2 POP POP JUMP JUMPDEST PUSH1 0x0 PUSH1 0x8 DUP4 MUL PUSH2 0x231A PUSH32 0xFFFFFFFFFFFFFFFFFFFFFFFFFFFFFFFFFFFFFFFFFFFFFFFFFFFFFFFFFFFFFFFF DUP3 PUSH2 0x22DD JUMP JUMPDEST PUSH2 0x2324 DUP7 DUP4 PUSH2 0x22DD JUMP JUMPDEST SWAP6 POP DUP1 NOT DUP5 AND SWAP4 POP DUP1 DUP7 AND DUP5 OR SWAP3 POP POP POP SWAP4 SWAP3 POP POP POP JUMP JUMPDEST PUSH1 0x0 DUP2 SWAP1 POP SWAP2 SWAP1 POP JUMP JUMPDEST PUSH1 0x0 PUSH2 0x2361 PUSH2 0x235C PUSH2 0x2357 DUP5 PUSH2 0x1C36 JUMP JUMPDEST PUSH2 0x233C JUMP JUMPDEST PUSH2 0x1C36 JUMP JUMPDEST SWAP1 POP SWAP2 SWAP1 POP JUMP JUMPDEST PUSH1 0x0 DUP2 SWAP1 POP SWAP2 SWAP1 POP JUMP JUMPDEST PUSH2 0x237B DUP4 PUSH2 0x2346 JUMP JUMPDEST PUSH2 0x238F PUSH2 0x2387 DUP3 PUSH2 0x2368 JUMP JUMPDEST DUP5 DUP5 SLOAD PUSH2 0x22EA JUMP JUMPDEST DUP3 SSTORE POP POP POP POP JUMP JUMPDEST PUSH1 0x0 SWAP1 JUMP JUMPDEST PUSH2 0x23A4 PUSH2 0x2397 JUMP JUMPDEST PUSH2 0x23AF DUP2 DUP5 DUP5 PUSH2 0x2372 JUMP JUMPDEST POP POP POP JUMP JUMPDEST JUMPDEST DUP2 DUP2 LT ISZERO PUSH2 0x23D3 JUMPI PUSH2 0x23C8 PUSH1 0x0 DUP3 PUSH2 0x239C JUMP JUMPDEST PUSH1 0x1 DUP2 ADD SWAP1 POP PUSH2 0x23B5 JUMP JUMPDEST POP POP JUMP JUMPDEST PUSH1 0x1F DUP3 GT ISZERO PUSH2 0x2418 JUMPI PUSH2 0x23E9 DUP2 PUSH2 0x22B8 JUMP JUMPDEST PUSH2 0x23F2 DUP5 PUSH2 0x22CD JUMP JUMPDEST DUP2 ADD PUSH1 0x20 DUP6 LT ISZERO PUSH2 0x2401 JUMPI DUP2 SWAP1 POP JUMPDEST PUSH2 0x2415 PUSH2 0x240D DUP6 PUSH2 0x22CD JUMP JUMPDEST DUP4 ADD DUP3 PUSH2 0x23B4 JUMP JUMPDEST POP POP JUMPDEST POP POP POP JUMP JUMPDEST PUSH1 0x0 DUP3 DUP3 SHR SWAP1 POP SWAP3 SWAP2 POP POP JUMP JUMPDEST PUSH1 0x0 PUSH2 0x243B PUSH1 0x0 NOT DUP5 PUSH1 0x8 MUL PUSH2 0x241D JUMP JUMPDEST NOT DUP1 DUP4 AND SWAP2 POP POP SWAP3 SWAP2 POP POP JUMP JUMPDEST PUSH1 0x0 PUSH2 0x2454 DUP4 DUP4 PUSH2 0x242A JUMP JUMPDEST SWAP2 POP DUP3 PUSH1 0x2 MUL DUP3 OR SWAP1 POP SWAP3 SWAP2 POP POP JUMP JUMPDEST PUSH2 0x246D DUP3 PUSH2 0x1D77 JUMP JUMPDEST PUSH8 0xFFFFFFFFFFFFFFFF DUP2 GT ISZERO PUSH2 0x2486 JUMPI PUSH2 0x2485 PUSH2 0x1A50 JUMP JUMPDEST JUMPDEST PUSH2 0x2490 DUP3 SLOAD PUSH2 0x2287 JUMP JUMPDEST PUSH2 0x249B DUP3 DUP3 DUP6 PUSH2 0x23D7 JUMP JUMPDEST PUSH1 0x0 PUSH1 0x20 SWAP1 POP PUSH1 0x1F DUP4 GT PUSH1 0x1 DUP2 EQ PUSH2 0x24CE JUMPI PUSH1 0x0 DUP5 ISZERO PUSH2 0x24BC JUMPI DUP3 DUP8 ADD MLOAD SWAP1 POP JUMPDEST PUSH2 0x24C6 DUP6 DUP3 PUSH2 0x2448 JUMP JUMPDEST DUP7 SSTORE POP PUSH2 0x252E JUMP JUMPDEST PUSH1 0x1F NOT DUP5 AND PUSH2 0x24DC DUP7 PUSH2 0x22B8 JUMP JUMPDEST PUSH1 0x0 JUMPDEST DUP3 DUP2 LT ISZERO PUSH2 0x2504 JUMPI DUP5 DUP10 ADD MLOAD DUP3 SSTORE PUSH1 0x1 DUP3 ADD SWAP2 POP PUSH1 0x20 DUP6 ADD SWAP5 POP PUSH1 0x20 DUP2 ADD SWAP1 POP PUSH2 0x24DF JUMP JUMPDEST DUP7 DUP4 LT ISZERO PUSH2 0x2521 JUMPI DUP5 DUP10 ADD MLOAD PUSH2 0x251D PUSH1 0x1F DUP10 AND DUP3 PUSH2 0x242A JUMP JUMPDEST DUP4 SSTORE POP JUMPDEST PUSH1 0x1 PUSH1 0x2 DUP9 MUL ADD DUP9 SSTORE POP POP POP JUMPDEST POP POP POP POP POP POP JUMP JUMPDEST PUSH1 0x0 PUSH1 0xE0 DUP3 ADD SWAP1 POP DUP2 DUP2 SUB PUSH1 0x0 DUP4 ADD MSTORE PUSH2 0x2550 DUP2 DUP11 PUSH2 0x1DBD JUMP JUMPDEST SWAP1 POP DUP2 DUP2 SUB PUSH1 0x20 DUP4 ADD MSTORE PUSH2 0x2564 DUP2 DUP10 PUSH2 0x1DBD JUMP JUMPDEST SWAP1 POP PUSH2 0x2573 PUSH1 0x40 DUP4 ADD DUP9 PUSH2 0x1DF6 JUMP JUMPDEST PUSH2 0x2580 PUSH1 0x60 DUP4 ADD DUP8 PUSH2 0x1C40 JUMP JUMPDEST PUSH2 0x258D PUSH1 0x80 DUP4 ADD DUP7 PUSH2 0x1FDB JUMP JUMPDEST PUSH2 0x259A PUSH1 0xA0 DUP4 ADD DUP6 PUSH2 0x1C40 JUMP JUMPDEST DUP2 DUP2 SUB PUSH1 0xC0 DUP4 ADD MSTORE PUSH2 0x25AC DUP2 DUP5 PUSH2 0x1DBD JUMP JUMPDEST SWAP1 POP SWAP9 SWAP8 POP POP POP POP POP POP POP POP JUMP JUMPDEST PUSH32 0x596F75206861766520616C726561647920766F74656400000000000000000000 PUSH1 0x0 DUP3 ADD MSTORE POP JUMP JUMPDEST PUSH1 0x0 PUSH2 0x25F0 PUSH1 0x16 DUP4 PUSH2 0x1D82 JUMP JUMPDEST SWAP2 POP PUSH2 0x25FB DUP3 PUSH2 0x25BA JUMP JUMPDEST PUSH1 0x20 DUP3 ADD SWAP1 POP SWAP2 SWAP1 POP JUMP JUMPDEST PUSH1 0x0 PUSH1 0x20 DUP3 ADD SWAP1 POP DUP2 DUP2 SUB PUSH1 0x0 DUP4 ADD MSTORE PUSH2 0x261F DUP2 PUSH2 0x25E3 JUMP JUMPDEST SWAP1 POP SWAP2 SWAP1 POP JUMP JUMPDEST PUSH32 0x596F752068617665206E6F20726967687420746F20766F746500000000000000 PUSH1 0x0 DUP3 ADD MSTORE POP JUMP JUMPDEST PUSH1 0x0 PUSH2 0x265C PUSH1 0x19 DUP4 PUSH2 0x1D82 JUMP JUMPDEST SWAP2 POP PUSH2 0x2667 DUP3 PUSH2 0x2626 JUMP JUMPDEST PUSH1 0x20 DUP3 ADD SWAP1 POP SWAP2 SWAP1 POP JUMP JUMPDEST PUSH1 0x0 PUSH1 0x20 DUP3 ADD SWAP1 POP DUP2 DUP2 SUB PUSH1 0x0 DUP4 ADD MSTORE PUSH2 0x268B DUP2 PUSH2 0x264F JUMP JUMPDEST SWAP1 POP SWAP2 SWAP1 POP JUMP JUMPDEST PUSH32 0x4E487B7100000000000000000000000000000000000000000000000000000000 PUSH1 0x0 MSTORE PUSH1 0x11 PUSH1 0x4 MSTORE PUSH1 0x24 PUSH1 0x0 REVERT JUMPDEST PUSH1 0x0 PUSH2 0x26CC DUP3 PUSH2 0x1C36 JUMP JUMPDEST SWAP2 POP PUSH2 0x26D7 DUP4 PUSH2 0x1C36 JUMP JUMPDEST SWAP3 POP DUP3 DUP3 ADD SWAP1 POP DUP1 DUP3 GT ISZERO PUSH2 0x26EF JUMPI PUSH2 0x26EE PUSH2 0x2692 JUMP JUMPDEST JUMPDEST SWAP3 SWAP2 POP POP JUMP JUMPDEST PUSH32 0x4F6E6C79206F7267616E697A65722063616E20616464206E65772063616E6469 PUSH1 0x0 DUP3 ADD MSTORE PUSH32 0x6461746500000000000000000000000000000000000000000000000000000000 PUSH1 0x20 DUP3 ADD MSTORE POP JUMP JUMPDEST PUSH1 0x0 PUSH2 0x2751 PUSH1 0x24 DUP4 PUSH2 0x1D82 JUMP JUMPDEST SWAP2 POP PUSH2 0x275C DUP3 PUSH2 0x26F5 JUMP JUMPDEST PUSH1 0x40 DUP3 ADD SWAP1 POP SWAP2 SWAP1 POP JUMP JUMPDEST PUSH1 0x0 PUSH1 0x20 DUP3 ADD SWAP1 POP DUP2 DUP2 SUB PUSH1 0x0 DUP4 ADD MSTORE PUSH2 0x2780 DUP2 PUSH2 0x2744 JUMP JUMPDEST SWAP1 POP SWAP2 SWAP1 POP JUMP JUMPDEST PUSH1 0x0 PUSH1 0xC0 DUP3 ADD SWAP1 POP DUP2 DUP2 SUB PUSH1 0x0 DUP4 ADD MSTORE PUSH2 0x27A1 DUP2 DUP10 PUSH2 0x1DBD JUMP JUMPDEST SWAP1 POP DUP2 DUP2 SUB PUSH1 0x20 DUP4 ADD MSTORE PUSH2 0x27B5 DUP2 DUP9 PUSH2 0x1DBD JUMP JUMPDEST SWAP1 POP DUP2 DUP2 SUB PUSH1 0x40 DUP4 ADD MSTORE PUSH2 0x27C9 DUP2 DUP8 PUSH2 0x1DBD JUMP JUMPDEST SWAP1 POP PUSH2 0x27D8 PUSH1 0x60 DUP4 ADD DUP7 PUSH2 0x1C40 JUMP JUMPDEST PUSH2 0x27E5 PUSH1 0x80 DUP4 ADD DUP6 PUSH2 0x1DF6 JUMP JUMPDEST DUP2 DUP2 SUB PUSH1 0xA0 DUP4 ADD MSTORE PUSH2 0x27F7 DUP2 DUP5 PUSH2 0x1DBD JUMP JUMPDEST SWAP1 POP SWAP8 SWAP7 POP POP POP POP POP POP POP JUMP INVALID LOG2 PUSH5 0x6970667358 0x22 SLT KECCAK256 DUP10 LOG1 PUSH20 0x5CC2048048B6A453D1B45BE94E4CEB86C00D146F 0x24 PUSH6 0x654C246ABFAC 0x28 PUSH5 0x736F6C6343 STOP ADDMOD SLT STOP CALLER "
				},
				"gasEstimates": {
					"creation": {
						"codeDepositCost": "2059600",
						"executionCost": "26451",
						"totalCost": "2086051"
					},
					"external": {
						"CandidateAddress(uint256)": "5045",
						"_candidateID()": "2532",
						"_voterID()": "2509",
						"candidates(address)": "infinite",
						"getCandidate()": "infinite",
						"getCandidateData(address)": "infinite",
						"getCandidateLength()": "2555",
						"getVotedVotersList()": "infinite",
						"getVoterData(address)": "infinite",
						"getVoterLength()": "2491",
						"getVoterList()": "infinite",
						"setCandidate(address,string,string,string,string)": "infinite",
						"vote(address,uint256)": "infinite",
						"votedVoters(uint256)": "4979",
						"voterRight(address,string,string,string)": "infinite",
						"voters(address)": "infinite",
						"votersAddress(uint256)": "4979",
						"votingOrganizer()": "2559"
					}
				},
				"methodIdentifiers": {
					"CandidateAddress(uint256)": "908fdecd",
					"_candidateID()": "64f1832e",
					"_voterID()": "b4040313",
					"candidates(address)": "8ab66a90",
					"getCandidate()": "70218b85",
					"getCandidateData(address)": "2a466ac7",
					"getCandidateLength()": "f7522a83",
					"getVotedVotersList()": "13182dce",
					"getVoterData(address)": "8fb4cd80",
					"getVoterLength()": "05ad45a4",
					"getVoterList()": "b28d92ae",
					"setCandidate(address,string,string,string,string)": "c91ec712",
					"vote(address,uint256)": "5f74bbde",
					"votedVoters(uint256)": "7831ffb3",
					"voterRight(address,string,string,string)": "0361419e",
					"voters(address)": "a3ec138d",
					"votersAddress(uint256)": "43242daa",
					"votingOrganizer()": "5cc48aa7"
				}
			},
			"storageLayout": {
				"storage": [
					{
						"astId": 83,
						"contract": "contracts/EthVoting.sol:Create",
						"label": "_voterID",
						"offset": 0,
						"slot": "0",
						"type": "t_struct(Counter)5_storage"
					},
					{
						"astId": 86,
						"contract": "contracts/EthVoting.sol:Create",
						"label": "_candidateID",
						"offset": 0,
						"slot": "1",
						"type": "t_struct(Counter)5_storage"
					},
					{
						"astId": 88,
						"contract": "contracts/EthVoting.sol:Create",
						"label": "votingOrganizer",
						"offset": 0,
						"slot": "2",
						"type": "t_address"
					},
					{
						"astId": 122,
						"contract": "contracts/EthVoting.sol:Create",
						"label": "CandidateAddress",
						"offset": 0,
						"slot": "3",
						"type": "t_array(t_address)dyn_storage"
					},
					{
						"astId": 127,
						"contract": "contracts/EthVoting.sol:Create",
						"label": "candidates",
						"offset": 0,
						"slot": "4",
						"type": "t_mapping(t_address,t_struct(Candidate)103_storage)"
					},
					{
						"astId": 130,
						"contract": "contracts/EthVoting.sol:Create",
						"label": "votedVoters",
						"offset": 0,
						"slot": "5",
						"type": "t_array(t_address)dyn_storage"
					},
					{
						"astId": 133,
						"contract": "contracts/EthVoting.sol:Create",
						"label": "votersAddress",
						"offset": 0,
						"slot": "6",
						"type": "t_array(t_address)dyn_storage"
					},
					{
						"astId": 173,
						"contract": "contracts/EthVoting.sol:Create",
						"label": "voters",
						"offset": 0,
						"slot": "7",
						"type": "t_mapping(t_address,t_struct(Voter)150_storage)"
					}
				],
				"types": {
					"t_address": {
						"encoding": "inplace",
						"label": "address",
						"numberOfBytes": "20"
					},
					"t_array(t_address)dyn_storage": {
						"base": "t_address",
						"encoding": "dynamic_array",
						"label": "address[]",
						"numberOfBytes": "32"
					},
					"t_bool": {
						"encoding": "inplace",
						"label": "bool",
						"numberOfBytes": "1"
					},
					"t_mapping(t_address,t_struct(Candidate)103_storage)": {
						"encoding": "mapping",
						"key": "t_address",
						"label": "mapping(address => struct Create.Candidate)",
						"numberOfBytes": "32",
						"value": "t_struct(Candidate)103_storage"
					},
					"t_mapping(t_address,t_struct(Voter)150_storage)": {
						"encoding": "mapping",
						"key": "t_address",
						"label": "mapping(address => struct Create.Voter)",
						"numberOfBytes": "32",
						"value": "t_struct(Voter)150_storage"
					},
					"t_string_storage": {
						"encoding": "bytes",
						"label": "string",
						"numberOfBytes": "32"
					},
					"t_struct(Candidate)103_storage": {
						"encoding": "inplace",
						"label": "struct Create.Candidate",
						"members": [
							{
								"astId": 90,
								"contract": "contracts/EthVoting.sol:Create",
								"label": "candidateID",
								"offset": 0,
								"slot": "0",
								"type": "t_uint256"
							},
							{
								"astId": 92,
								"contract": "contracts/EthVoting.sol:Create",
								"label": "age",
								"offset": 0,
								"slot": "1",
								"type": "t_string_storage"
							},
							{
								"astId": 94,
								"contract": "contracts/EthVoting.sol:Create",
								"label": "name",
								"offset": 0,
								"slot": "2",
								"type": "t_string_storage"
							},
							{
								"astId": 96,
								"contract": "contracts/EthVoting.sol:Create",
								"label": "img",
								"offset": 0,
								"slot": "3",
								"type": "t_string_storage"
							},
							{
								"astId": 98,
								"contract": "contracts/EthVoting.sol:Create",
								"label": "voteCount",
								"offset": 0,
								"slot": "4",
								"type": "t_uint256"
							},
							{
								"astId": 100,
								"contract": "contracts/EthVoting.sol:Create",
								"label": "_address",
								"offset": 0,
								"slot": "5",
								"type": "t_address"
							},
							{
								"astId": 102,
								"contract": "contracts/EthVoting.sol:Create",
								"label": "ipfs",
								"offset": 0,
								"slot": "6",
								"type": "t_string_storage"
							}
						],
						"numberOfBytes": "224"
					},
					"t_struct(Counter)5_storage": {
						"encoding": "inplace",
						"label": "struct Counters.Counter",
						"members": [
							{
								"astId": 4,
								"contract": "contracts/EthVoting.sol:Create",
								"label": "_value",
								"offset": 0,
								"slot": "0",
								"type": "t_uint256"
							}
						],
						"numberOfBytes": "32"
					},
					"t_struct(Voter)150_storage": {
						"encoding": "inplace",
						"label": "struct Create.Voter",
						"members": [
							{
								"astId": 135,
								"contract": "contracts/EthVoting.sol:Create",
								"label": "voter_voterID",
								"offset": 0,
								"slot": "0",
								"type": "t_uint256"
							},
							{
								"astId": 137,
								"contract": "contracts/EthVoting.sol:Create",
								"label": "voterName",
								"offset": 0,
								"slot": "1",
								"type": "t_string_storage"
							},
							{
								"astId": 139,
								"contract": "contracts/EthVoting.sol:Create",
								"label": "voterImg",
								"offset": 0,
								"slot": "2",
								"type": "t_string_storage"
							},
							{
								"astId": 141,
								"contract": "contracts/EthVoting.sol:Create",
								"label": "voterAddress",
								"offset": 0,
								"slot": "3",
								"type": "t_address"
							},
							{
								"astId": 143,
								"contract": "contracts/EthVoting.sol:Create",
								"label": "voterAllowed",
								"offset": 0,
								"slot": "4",
								"type": "t_uint256"
							},
							{
								"astId": 145,
								"contract": "contracts/EthVoting.sol:Create",
								"label": "voterVoted",
								"offset": 0,
								"slot": "5",
								"type": "t_bool"
							},
							{
								"astId": 147,
								"contract": "contracts/EthVoting.sol:Create",
								"label": "voterVote",
								"offset": 0,
								"slot": "6",
								"type": "t_uint256"
							},
							{
								"astId": 149,
								"contract": "contracts/EthVoting.sol:Create",
								"label": "voterIpfs",
								"offset": 0,
								"slot": "7",
								"type": "t_string_storage"
							}
						],
						"numberOfBytes": "256"
					},
					"t_uint256": {
						"encoding": "inplace",
						"label": "uint256",
						"numberOfBytes": "32"
					}
				}
			},
			"userdoc": {
				"kind": "user",
				"methods": {},
				"version": 1
			}
		}
	}
}